:020000040800F2
:1000000090090020A1010008BD1E0008A9190008E0
:10001000B91E0008B7130008FF2D000800000000FB
:10002000000000000000000000000000D5220008D1
:100030006516000800000000451F00081124000894
:10004000BB010008BB010008BB010008BB010008A0
:10005000BB010008BB010008BB010008BB01000890
:10006000BB010008BB010008BB010008BB01000880
:10007000BB010008BB010008BB010008BB01000870
:10008000BB010008BB010008BB010008BB01000860
:10009000BB010008BB010008BB010008BB01000850
:1000A000BB010008BB010008BB010008BB01000840
:1000B000752400088124000891240008BB01000871
:1000C000BB010008BB010008BB010008BB01000820
:1000D000BB01000869290008CD290008312A000861
:1000E00095160008BB010008BB01000800F002F8EB
:1000F00000F047F80AA090E8000C82448344AAF17B
:100100000107DA4501D100F03CF8AFF2090EBAE878
:100110000F0013F0010F18BFFB1A43F0010318473B
:100120003C4600005C460000103A24BF78C878C105
:10013000FAD8520724BF30C830C144BF04680C60ED
:10014000704700000023002400250026103A28BF35
:1001500078C1FBD8520728BF30C148BF0B60704739
:10016000662904F0AE82002070471FB500F022FB24
:1001700004000020002103F04DFCE0601FBD10B51D
:1001800010BD00F017FC1146FFF7EFFF03F0E0F899
:1001900000F035FC03B4FFF7F2FF03BC00F078FC7D
:1001A0000948804709480047FEE7FEE7FEE7FEE70B
:1001B000FEE7FEE7FEE7FEE7FEE7FEE70448054947
:1001C000054A064B7047000015240008ED000008A2
:1001D0009003002090090020900500209005002049
:1001E0000FB41CB5074B06AA7B44694600900598DE
:1001F00000F0C7FA0020694600F0D6FA1CBC5DF892
:1002000014FB0000BD0500002DE9F0474FF0000A87
:1002100089460446C0F820A02046E16888470028A7
:1002200076D0252806D0D4E901219047206A401CC9
:100230002062F1E7E168204600258847C4F81CA049
:1002400006460027C4F818A02A2E09D0304602F02E
:10025000ECFD38B304EB8708303EC8F8186019E0AD
:1002600059F8041B204604EB87029161E168884736
:10027000012F064618D1E069002820DA25F0200574
:100280001DE0D8F8180000EB800006EB4000303885
:10029000C8F818002046E1688847064602F0C5FD08
:1002A0000028EED1012F0AD02E2E08D12046E16879
:1002B00088477F1C0646022F45F02005C4DBA06955
:1002C000002803DA404245F00105A061E80701D0AB
:1002D00025F01005B6B1A6F14100192802D8203644
:1002E00045F400654A463146204625604D46FFF7F5
:1002F00037FF58B1012806D0ED1D25F0070000F1A9
:10030000080989E704E005F1040985E730468AE732
:10031000206ABDE8F08710B5431C02E010F8011B0D
:1003200071B18107FAD14FF0013202C88C1A8C43A7
:1003300014EAC211F9D0C01A0A0603D0C01E10BDBB
:10034000C01A10BD0A0401D0801E10BD0902FCD0E5
:10035000401E10BD70477047704770472DE9FF4F32
:100360000C461E464FF0FF378BB0D2E90001DDF896
:1003700060800A908A46C1F30A5505B93D460021BE
:1003800008464FF00000BAF1000F00F4400005DA13
:1003900000EB80004FF4400101EA50004FEA905911
:1003A000B9F1010F00DDB9460A9850EA4A000ED0B3
:1003B00044F61050A5F2FF3545432F14B8F1000F55
:1003C0001ED07542291E1EDDC9F100021CE0B8F1E5
:1003D000010F4FF0000001D0302103E0F24305E0AF
:1003E0002154401CB042FBDB304600220021215446
:1003F0000B99C1F80880C1E900200FB0BDE8F08F6B
:10040000BD1B6D1CDEE74A4600DA694206A800F013
:100410005BFA06AB93E8070003AB83E8070050469E
:100420000A9900F03CFB8DE80700A0F500501F384A
:1004300000900398002D0ADD42F21F014A4608444D
:10044000002303A90390684600F0A5FD09E0A0F58C
:1004500000504A461F38002303A90390684600F065
:10046000AFFD8DE807000004000C03D04FF0FF3013
:10047000410800E01046B8F1000F03D000220092BE
:1004800015461EE0751E05D400F098F9303262550D
:100490006D1EF9D5B3460122084302D000227F1C0D
:1004A00004E02078302801D100227F1E002A09971D
:1004B00084D01DE0112D07DA00F080F9303262554A
:1004C0006D1C50EA0102F5D1084302D00098C8B172
:1004D0000EE00021681E05E0235C625C6354225438
:1004E000401E491C8142F7DBAB46A81B401E099009
:1004F000002004F80B000B98099AC0F80880C0E9A6
:10050000002B7AE711264FF0000857E72DE9F04F4E
:1005100088460446D21D22F0070191B0D1E90001BE
:10052000CDE90A0102F06DFC02460B98C00F01D024
:100530002D2007E02068810701D52B2002E0202133
:1005400001EAC000032A099001D0072A05DB03460F
:100550004146204600F078F90BE12078800601D56D
:10056000E06900E00620B8F1650F814606D0B8F1D9
:10057000660F18D0B8F1670F70D131E00020B9F1E3
:10058000110F009001DB112301E009F101030AAA18
:1005900001A90CA8FFF7E2FEDDE90C70002609F1C5
:1005A0000105834647E001204B4600904FF000478D
:1005B0000AAA01A90CA8FFF7D1FEDDE90DB00C993C
:1005C0005D46002610B909F101000D18B9EB0500D0
:1005D00003D4C0F1FF3609F10105A5EB09002BE0BA
:1005E000B9F1010F01DA4FF001090020B9F1110F43
:1005F0000090484601DD112300E003460AAA01A944
:100600000CA8FFF7ABFEDDE90C704D4600268346D3
:10061000207800070AD4AB4500DA5D4601A8012D19
:1006200004DD411911F8011C302907D04F4502DAC9
:1006300017F1040F04DA012082460FE06D1EEEE789
:10064000002F02DCED1B3E4403E0781CA84200DDD5
:100650007D1CB81B00F1010A4FF00047207800070D
:1006600003D4AA4501DB4FF0FF3A0021B7F1004F58
:100670000DF143088DF8431024D002202B23002FC6
:1006800001DA7F422D230A21021EA0F1010000DCC5
:100690005FB197FBF1FC97FBF1F201FB1C7C174665
:1006A0000CF1300C08F801CDEEE7A8F10100037061
:1006B0002188090501D5452100E06521A0F1010847
:1006C00000F8011C09980FA9A1EB0807FF1D00B154
:1006D0000120411901EBEA70A1693844081A401E53
:1006E000A0612078C00602D42046AFF300800998AC
:1006F00028B1D4E901219047206A401C206220786B
:10070000C00622D52046AFF300801EE0002E04DB99
:10071000B34502DD01A8805D00E03020D4E901216D
:100720009047206A401C2062761CAAF101005FEA13
:10073000000A0AD100F03EF8C0680168405CD4E9C4
:1007400001219047206A401C2062281EA5F1010566
:10075000DCDC07E0D4E9012118F8010B9047206A9E
:10076000401C2062381EA7F10107F3DC2046AFF3DE
:100770000080032011B041E601694A1C026108783B
:10078000704700B58FB0CDE90131002105910549D1
:100790007944CDE9031011466846FFF735FD0FB0E7
:1007A00000BD0000E5FFFFFF0A6802F8010B0A60C8
:1007B00070470000004870475003002030B5B0F18A
:1007C0000A024FEA900E71F100034EEA817EB0EB0F
:1007D0000E0061EB91014FEA101E4EEA017E10EB14
:1007E0000E0041EB11114FEA102E4EEA016E10EB94
:1007F0000E0041EB11214FEA104E4EEA014E10EB74
:100800000E0041EB1141401841F100014FEAD000C8
:1008100040EA41704FEAD10110EB80054FEA8104B4
:1008200044EA907444EB01046D1944EB0404521B38
:10083000A3414FF0000348BF0A3200D530BD401C31
:1008400041F1000130BD00002DE9F0411F46044692
:1008500003260168072A01F4006004DB08B116A52D
:1008600005E016A503E008B115A500E015A521F0E7
:1008700010002060A069C01EA0610FB1401EA061E1
:100880002046AFF300804FB1D4E9012138469047AC
:10089000206A401C2062C01C206206E0206AFAE741
:1008A000D4E9012115F8010B9047761EF8D22046B5
:1008B000AFF30080BDE8F0814E414E006E616E00E6
:1008C000494E4600696E66002DE9F047814616469E
:1008D0008AB0354878440DC88DE80D003248784418
:1008E000801C03AC0DC884E80D0041F69B30084421
:1008F000372190FBF1F290FBF1F5A5F1800501FBAA
:1009000012041B3C02D56442012000E00020DFF805
:1009100098A080460027FA44AAF1BE0A0EE0E0073C
:100920000AD03246684607EB470101230AEB8101F2
:1009300000F046FB8DE8070064107F1C002CEED110
:10094000194F7F44AE3F19E0E80715D007EB0410BC
:100950000DF1180A90E80E008AE80E00C068F04217
:1009600001D1981908903246012306A903A800F086
:1009700027FB03AB83E807006D10641C002DE3D157
:100980004FF0010332466946B8F1000F03A802D0C8
:1009900000F001FB01E000F013FBC9E90001C9F818
:1009A00008200AB0BDE8F0876C3E000000487047A0
:1009B000300300207546FFF7F9FFAE460500694693
:1009C000534620F00700854618B020B5FFF7F6FB28
:1009D000BDE820404FF000064FF000074FF0000840
:1009E0004FF0000B21F00701AC46ACE8C009ACE8C1
:1009F000C009ACE8C009ACE8C0098D46704710B525
:100A00000446AFF300802046BDE81040FFF7C2BBAC
:100A10004FF0013C50F8042B51F8043B9A4221D18D
:100A2000A2EB0C03934313EACC1317D150F8042B19
:100A300051F8043B9A4215D1A2EB0C03934313EAFD
:100A4000CC130BD150F8042B51F8043B9A4209D136
:100A5000A2EB0C03934313EACC13DBD04FF000005E
:100A6000704700BFD01A01BAB1FA81F101F0180144
:100A700022FA01F0CB40C1F12001DBB2C0B2C01AB2
:100A80002CFA01F3D11A914311EAC311E6D1704750
:100A900001491820ABBEFEE72600020070475FEA5E
:100AA000400C08BF91F0000F4FEA8C234FEAC1229F
:100AB00043EA51514FEA1C5018BF00F5F0404FEA8D
:100AC000300018BF41F000415FEA6C5C00F0298003
:100AD000BCF1FF3F08BF40F080407047130C06BFD9
:100AE00012044FF0100C4FF0000C130E04BF120252
:100AF0000CF1080C130F04BF12010CF1040C930F3E
:100B000004BF92000CF1020CD30F04BF52000CF191
:100B1000010C11464FF00002A0F11F00A0EB0C00E9
:100B2000704711F0004F08BF704731F000413FF4AB
:100B3000D5AF0B0C06BF09044FF0100C4FF0000CA2
:100B40000B0E04BF09020CF1080C0B0F04BF0901C6
:100B50000CF1040C8B0F04BF89000CF1020CCB0FBD
:100B600004BF49000CF1010CCCF12003A0EB0C00F8
:100B700022FA03F302FA0CF241EA030100F1010048
:100B8000704720F07F4C80EA030023F07F47ACEBF6
:100B9000070303F57C5300F0004003F1FF032DE948
:100BA00080494FEA154B09B44FEA144325EA0B4E2E
:100BB00024EA03480FF2042606EB132749083E787F
:100BC0005FEA320203FB0667C7F5000707FB06F67C
:100BD0004FEA54374FEAD64606F1020607FB066C89
:100BE000CCF1005C4FEA1C472CEA074C07FB06F4EB
:100BF0000CFB06F504EB15464FEA961634BF0020B1
:100C00004FF000404FEAD13706FB07FC4FEA1C4C7F
:100C10000CFB0BF7D21B03FB0CF761EB07010CFB82
:100C20000EF7B0EB074072EB17420CFB08F734BF2E
:100C3000A2EB0742B2EB074261EB17414FEA0C44CB
:100C40004FEA910706FB07FC4FEA1C4C0CFB0BF725
:100C5000B0EBC74072EB573203FB0CF734BFA2EB8B
:100C6000C742B2EBC74261EB57310CFB0EF7B0EB5A
:100C7000C70072EB57720CFB08F734BFA2EBC70238
:100C8000B2EBC70261EB5771039F4FEA816141EA02
:100C9000921104EBCC044FEAD1374FEA826206FB93
:100CA00007FC42EA90124FEA80604FEA1C4C0CFBB2
:100CB0000BF7D21B03FB0CF761EB07010CFB0EF7E4
:100CC000B0EB074072EB17420CFB08F734BFA2EB06
:100CD0000742B2EB074261EB17414FEA8C554FEAEE
:100CE000910704EB9C2406FB07FC4FEA1C4C0CFB11
:100CF0000BF7B0EBC74072EB573203FB0CF734BF76
:100D0000A2EBC742B2EBC74261EB57310CFB0EF7C7
:100D1000B0EBC70072EB57720CFB08F734BFA2EBC5
:100D2000C702B2EBC70261EB577115EB4C254FEAD6
:100D3000816141EA92114FEA82624FEAD13742EA79
:100D4000901206FB07FC44F100044FEA80604FEA72
:100D50001C4C0CFB0BF7D21B03FB0CF761EB0701E0
:100D60000CFB0EF7B0EB074072EB17420CFB08F7D9
:100D700034BFA2EB0742B2EB074261EB174115EB20
:100D80001C154FEA813141EA92414FEA823242EA30
:100D900090424FEA80304FEA0C7644F1000448EA72
:100DA00003434EEA0B484FF0000EB2EB080C71EB18
:100DB000030724BF624639464EEB0E0E4FF0000B80
:100DC0000018524149414BEB0B0BB2EB080C71EB95
:100DD00003077BF1000B24BF624639464EEB0E0E33
:100DE0004FF0000B0018524149414BEB0B0BB2EB9B
:100DF000080C71EB03077BF1000B24BF62463946F8
:100E00004EEB0E0E51EA020718BF46F0010616EB34
:100E10000E7655F1000254F1000103D5BDE88901B9
:100E2000BDE80088BDE88901BDE80048B619524117
:100E300041EB0101A3F10103704780807F7E7D7C3F
:100E40007B7A7978777676757473727171706F6E5C
:100E50006E6D6C6C6B6A6A69686867666665646407
:100E6000636362616160605F5F5E5E5D5D5C5C5B91
:100E70005B5A5A5959585857575656555555545400
:100E8000535352525251515050504F4F4F4E4E4D5E
:100E90004D4D4C4C4C4B4B4B4A4A4A4949494848AA
:100EA00048474747474646464545454444444443EA
:100EB00043434342424242414141002B9C4630D48D
:100EC00077002BD01CB54FEA370703B44FF0100062
:100ED0004FF01001BAF1000F06D0BCF1000FDCBFDB
:100EE00040F0080040F008014FF000000FBCBDE8E2
:100EF00010400BF1010BBBF1010F08BF5FEA1707B0
:100F000022BF12F1010211F101014FF0004143F142
:100F1000000300F0004043EA00007047F9D357088F
:100F2000D0E746EA064613F1400F4FEA16461FDDAA
:100F300013F1200FDFBF16430A46002120335B4226
:100F4000BED0C3F1200746EA064602FA07F74FEA89
:100F5000164646EA0706C3F1200722FA03F201FA11
:100F600007F721FA03F14FF0000342EA0702A7E76F
:100F700046EA020646EA06464FEA164646EA0106F1
:100F8000BCBF46EA0646360C4FF000034FF00002A5
:100F90004FF0000194E72DE9804C9A46934670B4D7
:100FA00091E8380007C831EA400C48BF34EA430CE6
:100FB00003D5FFF7E6FDFFF780FFF0BCBDE8008C2E
:100FC0002DE9804C9A46934670B491E8380007C8E2
:100FD00010F0804F08BF13F0804F03D100F005F8E8
:100FE000FFF76BFFF0BCBDE8008C20F07F4780EA84
:100FF000030023F07F4C07EB0C03A3F57C5300F0B8
:101000000040A3F1FE0392F0000F00F0B38095F0D2
:10101000000F00F077802DE901494FEA11404FEAB7
:10102000144621EA004800FB06FC24EA064708FBB8
:1010300006F607FB08F800FB07F718EB06484CEB31
:10104000164C4FEA124B18EB07484FEA15464CEB8B
:10105000174022EA0B4E0BFB06FC25EA06470EFB67
:1010600006F607FB0EFE0BFB07F71EEB064E4CEBDE
:10107000164C4FF000061EEB074E4CEB174B18EBCF
:101080000B0840F1000018EB0E0B58EB000840F184
:1010900000008F1A4FF000013CBFC943661B14BF0C
:1010A000B5EB040C00213CBFC943F61B4FEA1744C3
:1010B0004EEA8E0E27EA04454FEA1C4704FB0762FE
:1010C0002CEA074C05FB07F70CFB05F604FB0CFCB0
:1010D00016EB074642EB174216EB0C4642EB1C425E
:1010E0001BEB060658EB0202414146EA9E0601D57B
:1010F000BDE80189B619524141EB0101A3F1010399
:10110000BDE801894FEA14454FEA114724EA054634
:1011100021EA074C05FB07F406FB07F70CFB06F179
:1011200005FB0CFC11EB074144EB17444FEA124757
:1011300011EB0C4144EB1C4422EA074C05FB07F27F
:1011400006FB07F70CFB06F605FB0CFC16EB074647
:1011500042EB174216EB0C4642EB1C456A1854F161
:10116000000148BF7047B619524141EB0101A3F19C
:101170000103704795F0000F37D04FEA11424FEA54
:10118000144721EA024624EA074C02FB07F106FB5A
:1011900007F70CFB06F402FB0CFC14EB074441EBD5
:1011A00017414FEA154714EB0C4441EB1C4125EA6B
:1011B000074C02FB07F506FB07F70CFB06F602FBE4
:1011C0000CFC16EB074645EB174516EB0C4645EBBA
:1011D0001C42121951F1000148BF7047B619524123
:1011E00041EB0101A3F1010370474FEA14454FEAB7
:1011F000114724EA054621EA074C05FB07F106FBE7
:1012000007F70CFB06F24FF0000605FB0CFC12EB97
:10121000074241EB174112EB0C4251EB1C4148BF16
:101220007047921841EB0101A3F10103704721B10E
:10123000826842F00102826003E0826822F00102CB
:101240008260704721B1826842F48072826003E05C
:10125000826822F4807282607047014600208A68AA
:1012600002F004020AB1012000E0002070470146AC
:1012700000208A6802F008020AB1012000E0002084
:101280007047000030B502460020002350680F4C24
:1012900020400D790C6844EA052420435060906892
:1012A0000B4C2040D1E902542C434D7944EA4504CB
:1012B00020439060D06A20F470000C7C641EE4B27D
:1012C000234340EA0350D06230BD0000FFFEF0FF30
:1012D000FDF7F1FFF0B504460D4600200021092D71
:1012E00011DDE068A5F10A0606EB4607072606FAB7
:1012F00007F18843A5F10A0606EB460603FA06F154
:101300000843E0600CE0206905EB4507072606FA74
:1013100007F1884305EB450603FA06F1084320610F
:10132000072A0FDA606B561E06EB86071F2606FAA1
:1013300007F18843561E06EB860605FA06F10843B8
:10134000606322E00D2A0FDA206BD61F06EB8607BA
:101350001F2606FA07F18843D61F06EB860605FA14
:1013600006F10843206310E0E06AA2F10D0606EBE7
:1013700086071F2606FA07F18843A2F10D0606EB41
:10138000860605FA06F10843E062F0BD816841F087
:1013900008018160704721B1826842F4A002826036
:1013A00003E0826822F4A00282607047816841F005
:1013B00004018160704700BFFEE7000036490A78EB
:1013C0000978491C344B19703449885409785529D7
:1013D00003D000211A46117070472F4909780B2954
:1013E00000DAF9E72D494978503909294ED2DFE86A
:1013F00001F0050D151D252D353D45002849274ACD
:10140000921C13680B6052684A603FE02549234AEA
:10141000921C13680B6052684A6037E022491F4AE9
:10142000921C13680B6052684A602FE01F491B4AE8
:10143000921C13680B6052684A6027E01C49174AE7
:10144000921C13680B6052684A601FE01949134AE6
:10145000921C13680B6052684A6017E016490F4AE5
:10146000921C13680B6052684A600FE013490B4AE4
:10147000921C13680B6052684A6007E01049074AE3
:10148000921C13680B6052684A6000BF00BF0021C5
:10149000014A117000BF9FE7A000002098020020C1
:1014A000580000206000002068000020700000202C
:1014B000780000208000002088000020900000209C
:1014C0009800002021B1026842F00102026004E0AD
:1014D00002684FF6FE731A400260704701684FF6CB
:1014E000FE72114001600021016041608160C160B5
:1014F0004B49884208D14A490839496841F00F01EF
:10150000474A083A51608AE045491431884208D177
:1015100043490839496841F0F001414A083A5160AD
:101520007DE03F492831884208D13D490839496862
:1015300041F470613A4A083A516070E038493C31F0
:10154000884208D136490839496841F47041344A23
:10155000083A516063E032495031884208D130493D
:101560000839496841F470212D4A083A516056E023
:101570002B496431884208D129490839496841F426
:101580007001274A083A516049E02549783188427C
:1015900008D123490839496841F07061204A083A66
:1015A00051603CE01F49884206D1011F096841F0A3
:1015B0000F01021F116032E01A491431884208D12C
:1015C0001849091F096841F0F001164A121F1160FD
:1015D00025E014492831884208D11249091F0968B9
:1015E00041F470610F4A121F116018E00D493C313F
:1015F000884208D10B49091F096841F47041094A22
:10160000121F11600BE007495031884207D105498C
:10161000091F096841F47021024A121F11607047C6
:10162000080002400804024010B50022026847F694
:10163000F0739A430C6A8B6823430C6923434C690B
:1016400023438C692343CC6923434C6A23438C6A2C
:1016500023431A430260CB6843600B6883604B6886
:10166000C36010BD704710B502460B460024002130
:10167000936200BF08E0481C52F8200042F82100A5
:1016800052F821000444491C0A29F4DB0A20B4FB67
:10169000F0F010BD10B54FF4006000F001F810BD7F
:1016A0000149086070470000140401402DE9F04131
:1016B000024600250026002000230024002791F880
:1016C00003C00CF00F0591F803C00CF0100CBCF136
:1016D000000F03D091F802C04CEA050591F800C054
:1016E000BCF1000F31D0146800202BE04FF0010C4A
:1016F0000CFA00F3B1F800C00CEA03069E4220D1B8
:1017000083004FF00F0C0CFA03F7BC4305FA03FCFF
:101710004CEA040491F803C0BCF1280F06D14FF045
:10172000010C0CFA00FCC2F814C00AE091F803C0E6
:10173000BCF1480F05D14FF0010C0CFA00FCC2F8C7
:1017400010C0401C0828D1D31460B1F800C0BCF10F
:10175000FF0F34DD546800202EE000F1080C4FF03C
:10176000010808FA0CF3B1F800C00CEA03069E4227
:1017700021D183004FF00F0C0CFA03F7BC4305FA9C
:1017800003FC4CEA040491F803C0BCF1280F05D116
:1017900000F1080C08FA0CF8C2F8148091F803C0A4
:1017A000BCF1480F07D100F1080C4FF0010808FA0E
:1017B0000CF8C2F81080401C0828CED35460BDE855
:1017C000F0810000F0B50A46002300240021002526
:1017D00000F00046B6F1004F02D11D4EF16901E064
:1017E0001B4E7168C0F3034583B200F44016B6F592
:1017F000401F08D121F07061154E766826F07066A2
:10180000134F7E6012E000F48016B6F5801F06D1FB
:10181000032606FA05F4A14341F0706106E0460D87
:10182000360103FA06F6B14341F0706122B1460D6C
:10183000360103FA06F6314300F00046B6F1004FD8
:1018400002D1034EF16101E0014E7160F0BD000074
:10185000000001400246002093680B400BB10120BC
:1018600000E00020704741617047016170470AB194
:10187000016100E0416170472DE9F047044600F046
:10188000C9FC1E48006802F029FD814649461C48F3
:10189000FFF7E9FE804602F059FD07461948016846
:1018A000384602F099FE0646174902F097FD0546B4
:1018B000164902F035FC16490860002114480068FA
:1018C00002F058FD02D2002011490860104800685B
:1018D000E0600C48006802F0E5FCA0600748006882
:1018E00002F0E0FC60600B48006802F017FD05465E
:1018F000054902F015FC2060BDE8F087C00000201B
:10190000F4020020B80000200000C8420000C442D9
:10191000C4000020C80000202DE9F041002501F09E
:101920005BFC01E0681CC5B200F04CFC08B1022D64
:10193000F8DB012D02DD012014490870082014494C
:10194000087019201349086000240CE0124801F0C7
:101950005FFB00F05FFC1148006802F0BFFC10491B
:1019600041F82400641C0A2CF0DB0C48006802F0EB
:10197000B5FC074639460A48FFF775FE064602F0F1
:10198000E5FC08490860BDE8F0810000D4000020B3
:10199000B0000020B4000020A0BB0D00C00000205B
:1019A000F4020020B800002000BFFEE721B1028849
:1019B00042F48062028004E002884FF6FF331A404E
:1019C0000280704770B505460C4600BF4FF40031E9
:1019D0001E4800F0CDF80028F8D101211B4800F086
:1019E000AFF800BF1A49194800F06CF80028F9D088
:1019F0000122EC21154800F053F900BF1449491C9D
:101A0000124800F05FF80028F8D014E0012C03D150
:101A100000210E48FFF7CAFF00BF0D493F310B48B8
:101A200000F050F80028F8D0084800F035F9287088
:101A30006D1C601E84B2002CE8D101210348FFF721
:101A4000B5FF0121014800F087F870BD0054004047
:101A50000100030010B5044600BF4FF400311648E2
:101A600000F086F80028F8D10121134800F068F84A
:101A700000BF1249104800F025F80028F9D00022D4
:101A8000EC210D4800F00CF900BF0D490A4800F0A8
:101A900019F80028F9D02178074800F00AF900BFAA
:101AA0000749891C044800F00DF80028F8D00121EE
:101AB000014800F051F810BD00540040010003003F
:101AC0008200070070B50246002400250023002094
:101AD000958A138B1B0445EA030626F07F4404EA2B
:101AE00001068E4201D1012000E0002070BD21B12D
:101AF000028842F00102028004E002884FF6FE7381
:101B00001A4002807047000010B504460B4884421A
:101B100009D10121480500F0CBFA00214FF4001053
:101B200000F0C6FA08E00121880500F0C1FA0021A2
:101B30004FF4800000F0BCFA10BD000000540040DB
:101B400021B1028842F48072028004E002884FF6DC
:101B5000FF631A400280704721B1028842F400728C
:101B6000028004E002884FF6FF531A40028070475B
:101B70000CB50246002000230193009300920B0F46
:101B8000019321F07F41019B1BB1009B1433009313
:101B900003E0090C009B18330093009B1B680B406B
:101BA0000BB1012000E000200CBD00002DE9F04346
:101BB00085B004460D460026B1460427DFF8CC80E8
:101BC000A6884FF6C0700640684600F091FADDF82E
:101BD00008802F48B8FBF0F01FFA80F946EA0906A2
:101BE000A68020884FF6FE710840208000262949F3
:101BF000286888420CD828684000B8FBF0F087B20B
:101C0000042F00DA04273E4309F10100208427E075
:101C1000E8884BF6FF71884206D1286800EB400047
:101C2000B8FBF0F087B209E0286800EBC00101EBD7
:101C30000010B8FBF0F087B247F48047C7F30B0001
:101C400008B947F0010747F4004006434FF4967087
:101C500009FB00F04FF47A7190FBF1F0401C2084F6
:101C6000A683208840F00100208026884FF6F530BA
:101C70000640A8886989084306432680A8892989DF
:101C80000843208105B0BDE8F083000000127A000F
:101C900040420F00A08601000146088AC0B270478A
:101CA00012B141F0010102E04FF6FE7319400182CA
:101CB000704701827047000070B504462D49B1F9A4
:101CC000000002F02BFB06464FF08E4102F028FA8E
:101CD0000546294902F082FB60602649B1F90200FD
:101CE00002F01CFB06464FF08E4102F019FA054641
:101CF000214902F073FBA0601E49B1F9040002F013
:101D00000DFB06464FF08E4102F00AFA05461A49CD
:101D100002F064FB20601949B1F9000002F0FEFAFC
:101D200006464FF08E4102F0FBF90546144902F0D9
:101D300055FBE0601149B1F9020002F0EFFA0646E6
:101D40004FF08E4102F0ECF905460D4902F046FBDA
:101D500020610A49B1F9040002F0E0FA06464FF0AA
:101D60008E4102F0DDF90546054902F037FB60615E
:101D700070BD0000700000200000344368000020A7
:101D80000000FA4408B50121482000F0A1F93F20E5
:101D9000ADF8000010208DF8030003208DF802003C
:101DA00069460A48FFF782FC4FF44070ADF8000026
:101DB00069460748FFF77AFC4FF440710448FFF783
:101DC00052FD3F210148FFF74EFD08BD00180140BC
:101DD000000C014070B504460D46012C01D0092CC1
:101DE00008D10DB1012000E0002002460821304852
:101DF000FFF73DFD022C01D0092C08D10DB10120C7
:101E000000E00020024604212948FFF730FD032CA2
:101E100001D0092C08D10DB1012000E000200246BC
:101E200002212348FFF723FD042C01D0092C08D1FF
:101E30000DB1012000E00020024601211C48FFF7FF
:101E400016FD052C01D0092C09D10DB1012000E0AF
:101E5000002002464FF400711648FFF708FD062CDB
:101E600001D0092C09D10DB1012000E0002002466B
:101E70004FF480710F48FFF7FAFC072C01D0092CB2
:101E800008D10DB1012000E00020024620210848C1
:101E9000FFF7EDFC082C01D0092C08D10DB1012071
:101EA00000E00020024610210148FFF7E0FC70BD71
:101EB00000180140000C014000BFFEE77047000021
:101EC00070B5002100230F22C47804B3154C246898
:101ED00004F4E064C4F5E064210AC1F10403CA40DB
:101EE000447804FA03F184781440214309010E4C2C
:101EF0000678A155047804F01F050124AC4005784C
:101F00006D11AD0005F1E025C5F8004109E0047848
:101F100004F01F050124AC40044D0678761145F805
:101F2000264070BD0CED00E000E400E080E100E040
:101F300002490143024A1160704700000000FA059F
:101F40000CED00E07047000039490A780978491C17
:101F5000374B1970374988543749097859B9354989
:101F60000978FE2903D000211A461170704701211B
:101F7000314A117059E030490978012955D12D496C
:101F800049782B4A1278914240D129490978491E53
:101F9000284A515C0A2939D10021274A1170244A64
:101FA00011702449C978232902D024292CD10BE0AF
:101FB0002249204A52680A6021491E4A92680A60F2
:101FC0000121204A117020E01F490978D9B11F4929
:101FD0000978491C1D4A11701D490988032902DD31
:101FE0001C49098839B11A49098802290BDD1949A8
:101FF0000988002907DD17490988491C154A1180FD
:102000000021134A118000BF00BF0EE00949497842
:10201000074A1278914203DD05490978322904DB29
:102020000021054A1170024A117000BF9EE70000AE
:10203000AC000020C0020020AD000020A400002061
:10204000A8000020AE000020080000202000002092
:102050000A0000200C00002001460020034A5068BE
:1020600020F44040084350607047000000100240D8
:1020700029B1064A52690243044B5A6104E0034AFB
:1020800052698243014B5A617047000000100240C0
:1020900029B1064AD2690243044BDA6104E0034ADB
:1020A000D2698243014BDA617047000000100240A0
:1020B00029B1064A12690243044B1A6104E0034A3B
:1020C00012698243014B1A61704700000010024000
:1020D00029B1064A92690243044B9A6104E0034A1B
:1020E00092698243014B9A617047000000100240E0
:1020F00030B500210022002400232D4D6D6805F02D
:102100000C0121B1042905D0082923D105E0294D6E
:10211000056022E0274D05601FE0254D6D6805F440
:102120007012234D6D6805F48034022505EB924250
:102130001CB9214D554305600BE01D4D6D6805F43C
:1021400000351DB11C4D5543056002E0194D554346
:10215000056002E0174D056000BF00BF144D6D68BB
:1021600005F0F0010909154D6B5C0568DD4045601F
:102170000F4D6D6805F4E061090A104D6B5C456810
:10218000DD4085600A4D6D6805F46051C90A0B4D4C
:102190006B5C4568DD40C560054D6D6805F44041E8
:1021A000890B074D6B5CC568B5FBF3F5056130BD68
:1021B0000010024000127A0000093D00DA00002001
:1021C000EA0000201CB5062001900020009001A824
:1021D000FFF740FC0E4800F01BFF8D20019001A886
:1021E000FFF738FC0A4800F013FFED20019001A82A
:1021F000FFF730FC01216846FFF7E4FB9DF8000083
:1022000000F0400008B100201CBD0120FCE70000E8
:10221000905F01003EB500200190029028480078B0
:1022200040F0400000906846FFF714FC254909681B
:10223000490042F2283201FB02F000F0E9FE1020D2
:1022400000906846FFF706FC062101A8FFF7BAFBDD
:102250009DF8040000049DF8051000EB01209DF896
:1022600006100844184908600846006800F4000099
:1022700020B10846006840F07F4008609DF80700E4
:1022800000049DF8081000EB01209DF80910084497
:102290000E4908600846006800F4000020B10846B6
:1022A000006840F07F40086008480068642190FBA7
:1022B000F1F4204602F032F8054908603EBD000006
:1022C000B0000020B4000020C8000020CC00002096
:1022D000C00000207047000008B501212020FFF752
:1022E000F7FE4FF4C050ADF8000010208DF8030049
:1022F00003208DF8020069460448FFF7D7F94FF430
:10230000C0510248FFF7AFFA08BD000000140140B9
:1023100070B504460D46EAB22146024801F0ECFAD7
:1023200070BD0000CC01002010B500F001F810BD18
:102330000CB50020019000903348006840F48030D4
:102340003149086000BF3048006800F40030009058
:102350000198401C0190009818B90198B0F5A06F41
:10236000F1D12948006800F4003010B1012000903C
:1023700001E0002000900098012843D12348006824
:1023800040F01000214908600846006820F0030072
:1023900008600846006840F0020008601A4840687B
:1023A000194948600846406848600846406840F45B
:1023B000806048600846406820F47C104860084609
:1023C000406840F4E81048600846006840F08070BB
:1023D000086000BF0C48006800F000700028F9D0C9
:1023E0000948406820F003000749486008464068F3
:1023F00040F00200486000BF0348406800F00C0055
:102400000828F9D10CBD0000001002400020024055
:102410007047000010B51348006840F001001149F2
:10242000086008464068104908400E494860084660
:1024300000680E4908400B4908600846006820F40F
:10244000802008600846406820F4FE0048604FF491
:102450001F008860FFF768FF4FF0006004490860C4
:1024600010BD0000001002400000FFF8FFFFF6FE64
:1024700008ED00E010B50221480700F09FF810BDFC
:1024800010B50221014800F099F810BD0004004089
:102490002DE9F04102213F4800F090F83E480088C5
:1024A0000A2190FBF1F201FB120030B93B48FFF723
:1024B00003FC01F045FA00F0DBFF374800881421E7
:1024C00090FBF1F201FB120048B900F0C3FE00F0EE
:1024D000DBFD00F073FD00F015FD00F005FF2E4858
:1024E0000088322190FBF1F201FB1200002834D168
:1024F0002B480088012814D12A492B48006801F094
:1025000039FF2AD22848006801F070FD06460022F3
:10251000264B01F0C7FA044601F092FA22490860FE
:102520001BE01F480088022814D100211E480068C3
:1025300002F020F811D21C48006801F057FD064651
:102540001B4A1C4B01F068FC044601F079FA16495D
:10255000086002E00020144908600F4800884FF42A
:102560007A7190FBF1F201FB120020B91248008849
:10257000401C1149088008480088401C0649088012
:1025800008460088B0F57A7F01DB00200880BDE8AE
:10259000F08100000008004000000020A802002098
:1025A0000C0000200000C0414C0000200000E03F73
:1025B000EC51B81E85EBB13F0A000020CA430282ED
:1025C000704721B1028842F00102028004E00288D3
:1025D0004FF6FE731A400280704731B1B0F84420C4
:1025E00042F40042A0F8442005E0B0F84420C2F3D1
:1025F0000E02A0F8442070471AB183890B438381EF
:1026000002E083898B4383817047000070B500240A
:1026100000220023058C4FF6FE7635400584028C9F
:102620008388048B4FF68F752C40B51E2C400D8887
:102630002C43751E2A400D892A434D882A43144D88
:10264000A8420BD0134DA84208D0134DA84205D084
:10265000124DA84202D0124DA84213D14FF6F77581
:102660002A404D892A434FF6FB752A408D882A431C
:102670004FF6FF652B404FF6FF552B408D892B43BE
:10268000CD892B4383800483CD888586028470BDE9
:10269000002C014000340140004001400044014052
:1026A000004801400A460021018B4FF6F77319409C
:1026B000114301837047000070B5002400220023FD
:1026C000058C4FF6EF7635400584028C8388048BA9
:1026D00048F6FF752C404FF6FF452C400D884FF60D
:1026E000FF7606EA05252C434FF6DF752A400D8953
:1026F00006EA05152A434D8806EA05152A43154DB5
:10270000A84202D0144DA8421DD14FF67F752A4031
:102710004D894FF6FF7606EA05152A434FF6BF7539
:102720002A408D8806EA05152A434FF6FF352B40CF
:102730004FF2FF752B408D8906EA85052B43CD8925
:1027400006EA85052B4383800483CD8805870284B0
:1027500070BD0000002C0140003401400A460021F9
:10276000018B4FF2FF7319404FF6FF7303EA022308
:10277000194301837047000070B500240022002334
:10278000058C4FF6FF6635400584028C8388848B68
:102790004FF68F752C404FF6FC752C400D882C435E
:1027A0004FF6FF552A400D894FF6FF7606EA0525BC
:1027B0002A434D8806EA05252A43154DA84202D032
:1027C000144DA8421DD14FF2FF752A404D894FF696
:1027D000FF7606EA05252A434FF6FF352A408D8805
:1027E00006EA05252A434EF6FF752B404DF6FF7588
:1027F0002B408D8906EA05152B43CD8906EA051580
:102800002B4383808483CD888587028470BD00003C
:10281000002C0140003401400A460021818B4FF614
:10282000F7731940114381837047000070B500228F
:1028300000230024058C4EF6FF7635400584038C7A
:102840008488828B48F6FF752A404FF6FF452A4060
:102850000D884FF6FF7606EA05252A434DF6FF75EB
:102860002B400D8906EA05352B434D8806EA0535D0
:102870002B430B4DA84202D00A4DA84208D14BF67B
:10288000FF752C408D894FF6FF7606EA85152C439F
:1028900084808283CD88A0F84050038470BD0000FE
:1028A000002C0140003401400A460021818B4FF288
:1028B000FF7319404FF6FF7303EA02231943818324
:1028C00070470000002202881D4B98420ED01D4B1D
:1028D00098420BD0B0F1804F08D01B4B984205D0E6
:1028E0001A4B984202D01A4B984204D14FF68F737C
:1028F0001A404B881A43174B984207D0164B984200
:1029000004D04FF6FF431A40CB881A4302808B88CD
:1029100083850B8803850A4B98420BD0094B98425C
:1029200008D00E4B984205D00D4B984202D00D4B6B
:10293000984201D10B7A03860123838270470000FD
:10294000002C014000340140000400400008004019
:10295000000C004000100040001400400040014006
:10296000004401400048014010B540F2255115488F
:1029700000F081F901280BD140F22551114800F0F7
:102980008CF8104800F032FAC4B22046FEF716FD6B
:1029900040F226610B4800F06EF9012807D140F2A1
:1029A0002661084800F079F8074800F091FF0821F7
:1029B000044800F053F9012803D10821014800F030
:1029C00063F810BD003801405401002010B540F2FA
:1029D0002551154800F04FF901280BD140F225513F
:1029E000114800F05AF8104800F000FAC4B220462E
:1029F000FFF7AAFA40F226610B4800F03CF90128E3
:102A000007D140F22661084800F047F8074800F077
:102A10005FFF0821044800F021F9012803D10821B3
:102A2000014800F031F810BD004400409001002042
:102A300010B540F22551124800F01DF9012804D1CB
:102A400040F225510E4800F028F840F226610C486B
:102A500000F011F9012807D140F22661084800F082
:102A60001CF8084800F034FF0821054800F0F6F88B
:102A7000012803D10821024800F006F810BD00002B
:102A800000480040CC01002001F40072B2F5007F44
:102A900000D100BFCA430280704710B50022002356
:102AA00040F66A14A14200D100BF0A1201249440EA
:102AB000A3B2DC43048010BD21B1828942F40052EC
:102AC000828104E082894DF6FF731A40828170474B
:102AD0001FB501218803FFF7FBFA01214804FFF726
:102AE000D7FA01218804FFF7D3FA4FF4E1300090C0
:102AF0000020ADF80400ADF80600ADF80800ADF810
:102B00000C000C20ADF80A006946344800F002F9C8
:102B10006946334800F0FEF84FF4165000906946BD
:102B2000304800F0F7F8012240F225512B4800F020
:102B3000CCF8012240F22661284800F0C6F80122B4
:102B400040F22551264800F0C0F8012240F22661EB
:102B5000234800F0BAF8012240F22551214800F044
:102B6000B4F8012240F226611E4800F0AEF840F2AF
:102B700026611A48FFF791FF40F225511748FFF7E9
:102B80008CFF08211548FFF77FFF40F226611448AB
:102B9000FFF783FF40F225511148FFF77EFF082120
:102BA0000F48FFF771FF40F226610E48FFF775FFEF
:102BB00040F225510B48FFF770FF08210948FFF745
:102BC00063FF01210548FFF777FF01210448FFF764
:102BD00073FF01210348FFF76FFF1FBD003801405D
:102BE000004400400048004008B501212420FFF7C0
:102BF0006FFA01211648FEF7E5FD4FF40170ADF8BC
:102C0000000018208DF8030003208DF802006946AB
:102C10001048FEF74BFD4FF48070ADF80000694698
:102C20000D48FEF743FD4FF48160ADF8000004202D
:102C30008DF8030069460748FEF738FD4FF4007031
:102C4000ADF8000069460448FEF730FD08BD0000FD
:102C5000300014000008014000140140024600202A
:102C6000B1F5007F00D100BF13880B400BB10120EC
:102C700000E00020704770B50246002400230025C4
:102C8000002040F66A16B14200D100BFC1F34215E0
:102C900001F01F03012606FA03F3012D02D19689E4
:102CA000334006E0022D02D1168A334001E0968AB5
:102CB00033400C12012606FA04F41688344013B18E
:102CC0000CB1012000E0002070BDF0B503460024E7
:102CD00000260025002040F66A17B94200D100BF47
:102CE0001846C1F3421401F01F06012707FA06F542
:102CF000012C01D10C3004E0022C01D1103000E095
:102D000014301AB107682F43076002E00768AF4329
:102D10000760F0BD2DE9F04786B005460E46002459
:102D2000A24600BFA1460027B08900B100BF2F46D0
:102D30002C8A4CF6FF700440F08804432C82AC8946
:102D40004EF6F3100440B088318908437189084376
:102D50000443AC81AC8A4FF6FF400440B089044381
:102D6000AC8201A8FFF7C4F91F48874202D1DDF801
:102D700010A001E0DDF80CA0A88900F4004040B1EB
:102D80000AEBCA0000EB0A1031684900B0FBF1F809
:102D900007E00AEBCA0000EB0A1031688900B0FBBB
:102DA000F1F86420B8FBF0F004012009642101FB74
:102DB0001089A88900F4004040B1322000EBC9001E
:102DC000B0FBF1F000F00700044308E0322000EB14
:102DD00009106421B0FBF1F000F00F0004432C81D6
:102DE00006B0BDE8F0870000003801400146888841
:102DF000C0F308007047C1F308028280704700BF2B
:102E0000FEE7490050EAC12018BF04204A0D18BF50
:102E100040F0010040F2FF72B2EB515F08BF40F09A
:102E20000200012808BF0520704730380A2801D267
:102E3000012070470020704708B501210420FFF7EA
:102E400047F90320ADF8000000208DF80300694623
:102E50000148FEF72BFC08BD0008014010B5FFF744
:102E6000EBFF00F089F900F001F810BD00B585B066
:102E700001214802FFF72CF901208DF80500002000
:102E800003904FF4602002900020009002208DF803
:102E9000100001208DF8040069461948FEF7F2F988
:102EA0004FF44040FFF7D8F80523012200211448D1
:102EB000FEF710FA0523022201211148FEF70AFA53
:102EC00001210F48FEF7BEF901210D48FEF7AFF9C9
:102ED0000B48FEF75BFA00BF0948FEF7C8F9002867
:102EE000FAD10748FEF762FA00BF0548FEF7B5F9C8
:102EF0000028FAD101210248FEF74DFA05B000BDC5
:102F0000002401402DE9F05F1F48006801F06EF8D1
:102F100006461E4A1E4B00F081FE04460D461D4922
:102F2000488800F067FE06461B4A1C4B00F076FE00
:102F3000804622462B4600F0B5FD824600F080FD1B
:102F400017490860084600680F4908601549144889
:102F5000006801F043FA83464FF08B4101F0E0F83E
:102F6000824601F043F806460F4A104B00F056FE29
:102F700080460F4A0F4B00F051FE044600F060FD02
:102F80000D490860BDE8F09F14000020AE47E17ACB
:102F900014AEEF3FD60000207B14AE47E17A843FA9
:102FA0001800002033335340640F1617A1A21540B8
:102FB0008638D6C56D34F03F1C00002070B50E4831
:102FC000C1680E48006801F007FB05460C49284619
:102FD00001F004FA04460B49204601F0CBF901D276
:102FE000084C05E00849204601F0C4FA00D2064C1E
:102FF0000648046070BD000020030020500000203F
:103000000000A040000096C300009643540000203A
:1030100020F07F42521E4FF0E0235A6100229A6155
:103020001A46126942F001021A6100BF4FF0E02215
:10303000116901F48032002AF8D04FF0E0221269C1
:1030400022F001024FF0E0231A61704710B54FF0F3
:10305000FF300F21002807DA0A07140E084A00F093
:103060000F031B1FD45403E00A07130E054A135421
:1030700000BF00204FF0E0218861086110BD000012
:1030800018ED00E000E400E02DE9FC5F4FF0000BDC
:103090002B48006800F0AAFF06460F462948006842
:1030A00000F0A4FF284A294BCDE9000100F0B6FD4D
:1030B000804632463B4600F0AFFE044600F0C0FCBE
:1030C0002349086023492248006801F053FA03D2DB
:1030D00020481F49086008E01F491D48006801F0AA
:1030E00049F902D21C481A4908601C48016818486E
:1030F000006801F071FA834619494869194901F0DD
:103100006DF904461849584601F068F9054621460C
:1031100001F062FA82461549504601F02BF902D2BD
:10312000DFF848A006E01249504601F023FA01D228
:10313000DFF83CA08AF000400E490860BDE8FC9F23
:103140004C000020A80000209A9999999999B93FBC
:10315000440000200000F0410000F0C1A400002065
:10316000A8020020000040400000E0400000B4C27F
:103170000000B4424800002000B58BB00121084691
:10318000FEF776FF1148FEF7A9F902200390002010
:1031900002900A900E4801904FF4806007908020C2
:1031A0000590202008900B48009080150690002084
:1031B00004904FF40050099069460448FEF734FA31
:1031C00001210248FEF77EF90BB000BD0800024065
:1031D000D60000204C24014000B585B001214805EF
:1031E000FEF756FF01210820FEF772FFC020ADF860
:1031F000000003208DF802001C208DF803006946B2
:103200001148FEF753FA1148FEF77EFC0020ADF896
:1032100008004BF6FF70ADF80A003020ADF80C0046
:103220004FF48060ADF80E000001ADF810000848C2
:10323000019001210548FEF75AFC01A90348FEF759
:10324000B5FC05B000BD0000000C0140005400407A
:10325000801A060010B504211248FEF7FBFA044656
:10326000D4B91148007818B101201049087016E04F
:103270000F480078401C0E4908700846007828283E
:1032800002D1022009490870094800782A2806DD81
:1032900027200749087002E000200549087002480D
:1032A000047010BD001001400E000020100000202E
:1032B0000F00002010B504460DE000210920FEF7A4
:1032C00089FD0848FFF7A4FE01210920FEF782FDD1
:1032D0000448FFF79DFE201EA4F101018CB2ECD141
:1032E00010BD0000B01E040010B51648007800B3F1
:1032F0001548007800281DDD14480078052804DAF8
:1033000001210920FEF766FD03E000210920FEF7F8
:1033100061FD0E480078401C0C4908700846007892
:1033200009280EDD0020087007480078401E064975
:10333000087006E000200549087000210920FEF70A
:1033400049FD10BD220000202000002021000020A7
:1033500001210846FEF7BCFE4FF44070FEF7E8FD81
:1033600000221146252000F091F90022012126209B
:1033700000F08CF900220221272000F087F90022BA
:1033800003211E2000F082F94FF080402C49086292
:10339000FFF764FD00F01CFB00F050F9FFF756FE4C
:1033A00000F052F9FEF7EEFCFEF796FFFEF7B4FAD6
:1033B00000F094F901210920FEF70CFD00BF21481F
:1033C00000780028FBD000F073F900210920FEF7F7
:1033D00001FD00201C490880FF201C4908700020C6
:1033E0001849087001201A49087027E01948FEF7AB
:1033F00043FA1448007870B100201249087013484D
:103400000078C043114908700520FFF753FF0821D9
:103410001148FEF728FA1148006800F0E7FD04465D
:1034200022460B460EA11148FCF7DAFE0F48FCF7C6
:1034300072FF84B221460D48FEF76AFFD6E700000E
:1034400038020020100000200A00002008000020A0
:103450002200002020030020001001401C0000205A
:103460006261743A252E326600000000F0000020F0
:103470001FB50020009001900290039064480078EE
:1034800000286FD000216348006801F073F806D26D
:1034900060490198096801F09FF8019005E05D49D5
:1034A0000098096800F0CEFD00905B490298096819
:1034B00000F0C8FD029058490398096801F08CF8A3
:1034C000039056490098096800F0BCFD00905449EB
:1034D0005248006800F0B6FD0446019900F0B2FDC4
:1034E000019050490298096800F0ACFD02904D49E6
:1034F0000398096800F0A6FD03904B49009801F07D
:1035000039F802D24848009006E04849009800F097
:1035100031FF01D2454800904349019801F02AF853
:1035200002D24148019006E04049019800F022FF94
:1035300001D23E4801903C49029801F01BF802D2AA
:103540003948029006E03949029800F013FF01D291
:10355000364802903449039801F00CF803D23248FF
:10356000039007E02DE03149039800F003FF01D2FA
:103570002E4803902E48009900F064FD044600F0A8
:10358000ADFE2C4908802A48019900F05BFD0446F5
:1035900000F0A4FE284908802548029900F052FD59
:1035A000044600F09BFE234908390880204803990F
:1035B00000F048FD044600F091FE1F49091F0880F5
:1035C00025E01B48009900F03DFD044600F086FE12
:1035D000184908801648019900F034FD044600F0AF
:1035E0007DFE154908801248029900F02BFD044623
:1035F00000F074FE0F49083908800D48039900F067
:1036000021FD044600F06AFE0B49091F08801FBD1A
:103610000800002048000020400000200400002096
:1036200000002041540000200000AF430000AFC361
:103630000080BB443C2C01403C04004010B500F02D
:1036400075F800F0DFF810BD08B501211020FEF775
:103650003FFD0820ADF8000010208DF80300032086
:103660008DF8020069460848FEF720F80420ADF8FE
:1036700000008DF8030069460348FEF717F808219B
:103680000148FEF7F2F808BD00100140F8B5064603
:103690000C4615468DF800608DF801408DF80250FB
:1036A00001208DF803006846FEF70AFCF8BD000013
:1036B00010B500210920FEF78DFB012408E001214F
:1036C0002046FEF787FB0448FFF7A2FC601CC4B24B
:1036D000082CF4DD10BD000080EE36000EB501218F
:1036E0000420FEF7D5FC0020ADF80600ADF802007E
:1036F00040F2E730ADF804004720ADF800000020AC
:103700008DF8080069460848FFF7DCF8012202211D
:103710000548FEF771FF02210348FEF74FFF012124
:103720000148FEF74EFF0EBD0008004000B589B00D
:1037300001214020FEF7CCFC0121C802FEF7C8FCA5
:1037400001212D48FEF73EF84FF4D440ADF820009B
:1037500003208DF8220018208DF8230008A927489F
:10376000FDF7A4FF44F61F60ADF818004720ADF840
:1037700014000020ADF81A00ADF816008DF81C00FA
:1037800005A91F48FFF79EF86020ADF8040001204E
:10379000ADF8060040F2DC50ADF80A000020ADF8AC
:1037A0000C0001A91648FEF731FF01A91448FEF7E5
:1037B00083FF01A91248FEF7DFFF01A91048FFF7B8
:1037C00035F808210E48FEF76DFF08210C48FEF77A
:1037D000C5FF08210A48FFF71FF808210848FFF72E
:1037E00063F801210648FEF7ECFE01210448FEF7CC
:1037F000F4FE09B000BD0000C00016000018014032
:10380000002C014000B589B001211020FEF760FCBA
:1038100001210220FEF73CFC01212A48FDF7D2FFDE
:103820004FF47070ADF8200003208DF822001820AE
:103830008DF8230008A92448FDF738FF44F61F60DF
:10384000ADF818004720ADF814000020ADF81A00BC
:10385000ADF8160005A91D48FFF734F86020ADF853
:1038600004000120ADF8060040F2DC50ADF80A007B
:103870000020ADF80C0001A91448FEF7C7FE01A90D
:103880001248FEF719FF01A91048FEF775FF01A9BC
:103890000E48FEF7CBFF08210C48FEF703FF082176
:1038A0000A48FEF75BFF08210848FEF7B5FF08212C
:1038B0000648FEF7F9FF01210448FEF782FE09B031
:1038C00000BD0000000C1A00001001400004004080
:1038D00010B50446207970B1A379E21DD15C20684F
:1038E000FFF789FAA079401CA071A079617988421C
:1038F00001DB0020207110BD2DE9F04104460F4688
:103900001646642E02DD6420607100E066710025B9
:1039100004E0795DE01D4155681CC5B26079A8429C
:10392000F7DC00BF20790028FCD101202071E1796B
:103930002068FFF760FA0120A071BDE8F081000067
:103940002DE9FC5F1C4841681C48006800F044FEFB
:1039500083461949C86800F049FB80460022184B8D
:1039600000F05CF906460F464FF08241584600F0E1
:1039700035FD804600F03AFB32463B46CDE900017A
:1039800000F04AFA044600F05BF882460D495046C2
:1039900000F0F0FC02D2DFF82CA006E00A49504605
:1039A00000F0E8FD01D2DFF820A08AF000400749CE
:1039B0000860BDE8FC9F0000A80200203C00002039
:1039C0000000F03F000016C3000016434000002036
:1039D00010B5FFF709F9FFF77BF8084808490860B8
:1039E0000848094908600948094908600020044955
:1039F0000871054908710649087110BD0038014079
:103A00005401002000440040900100200048004084
:103A1000CC01002010B500290AD00878002807D072
:103A200005487844FCF7F4FF002801D0002010BDC1
:103A30000248784410BD00005A0D0000520D0000ED
:103A400021F00042A2F16052B2F5801F01F0004364
:103A500028BFD2F17F6C0BD95FEA001C43EAC20297
:103A600042EB507018BF704728BF20F0010070472C
:103A7000B2F5801FBCBF184670474FEA410C1CF5D9
:103A8000001F02D2084600F070BD70B500F070F95A
:103A900000000089FFF7F6BF4FF00040A0F580005E
:103AA0007047000010B591EA030F48BF83F0004350
:103AB00000F1BA81841A71EB030C05D2121943EBA1
:103AC0000C03001B61EB0C01DFF824E14FEA1154F9
:103AD000A4EB135C1EEA430F18BF9EEA445F73D049
:103AE00023EA0E03DCF1200E21EA045143F4801393
:103AF00032D322FA0CFE10EB0E0023FA0CFE41EB3F
:103B00000E01CCF1200E03FA0EFE10EB0E0051F167
:103B10000001B1F5801FCCF1200E32D201EB04512F
:103B200012FA0EF2BDE8104058BF7047401C38BF73
:103B30005FEA420218BF7047002814BF20F001005E
:103B400041F100014FEA410313F5001F38BF7047F0
:103B5000A1F1C04100F05AB9012A43EB0302ACF1D4
:103B6000200CDCF11F0E32BF4FF0000E23FA0CF3D5
:103B700010EB030041EB0451B4EB115FD0D0A1EB8B
:103B8000045101F5801149085FEA300001EB04514E
:103B90000ED350F1000038BF12FA0EFE08D1BDE876
:103BA0001040C9E7401C38BF5FEA4202CAD1C3E7F0
:103BB000BDE810404FEA410313F5001F38BF7047BE
:103BC000A1F1C04100F022B99EEA445F08D011EA99
:103BD0005E0FBDE8104004BF01F0004100207047B7
:103BE000BDE8104070B500F0C3F800BF64FBBE3EF6
:103BF0000000E0FFB0FA80F310FA03F10AD0C3F13D
:103C00001D0303F580634FEA41504FEA035202EB74
:103C1000D12170474FF0000070470000DFF848C125
:103C200070B51CEA111E1EBF1CEA13159EEA0C0F8C
:103C300095EA0C0F00F06F8081EA030423EA4C132D
:103C40004EEAD47E21EA4C1141F4801143F48013F2
:103C5000AE44A1FB024CA0FB0365AEF17F7E36199A
:103C600055EB0C05A1FB034C4CF10003A0FB021C1F
:103C700016EB0C06654153F10003094218BF46F0EC
:103C8000010613F4007F0BD14FEA03314FEA0530F0
:103C9000340341EA155140EA16506FF003020AE07E
:103CA0004FEAC3214FEAC520F40241EA555140EAE8
:103CB00056506FF0020202EB2E4201EB025585EAEC
:103CC000CE710AD05FEA440C18BF24F0004450F1D2
:103CD000000041F1000120EAD47040F2FE7C624510
:103CE00000D270BDA84214BF4FF080444FF0404452
:103CF000002E08BF0024BEF1806FA8BFA1F1C04113
:103D0000BDE8704080F282804FF0000001F1C041B8
:103D100001F0004170479EEA0C0F0CEA131518BF22
:103D200095EA0C0F06D04FF0000081EA030E0EF06A
:103D3000004170BD00F01CF88900013E00F007B89A
:103D400000F009B84FEA430C5FEA5C5C08D081EAF6
:103D5000030100F05BB84FEA410C5FEA5C5CF6D10E
:103D60004FF00000014970470000FF070000F87F96
:103D70000EF1020E2EF0030E5EF8046B364205D4EF
:103D8000012A43EB030515F5001F12D8012841EB6A
:103D9000010C1CF5001F0CD80ED14FEAD17C15F593
:103DA000001F0CEB4C0C0CF1020C08BF4CEBD37C4D
:103DB00004E04FF0080C01E04FEAD37C0CEB4C051B
:103DC00026FA05F606F00706B6F1040C06D20EEB4D
:103DD000860CBDE870404CF0010C6047DFE80CF049
:103DE000090B02024FF000414FF00000A1F5002145
:103DF00070BD19461046012851EB010418BFD4F5D7
:103E0000001484BF002001F0004170BD0808A0F537
:103E100000114FEA3101704710B591EA030F48BF16
:103E200083F000433FF546AE841A71EB030C07D2D2
:103E300012198CF0004C43EB0C03001B61EB0C01DE
:103E4000DFF8A4E14FEA1154A4EB135C1EEA430F20
:103E500018BF9EEA445F00F0B08023EA6E0352422E
:103E600021EA0451C3EB6E0338BF5B1EDCF1200E68
:103E700025D322FA0CFE10EB0E0043FA0CFE41EBA8
:103E80000E01CCF1200E03FA0EFE10EB0E0051F1E4
:103E90000001CCF1200E29D412FA0EF201EB0451EC
:103EA000BDE8104058BF7047401C1CBFB2F1004F26
:103EB000704700280CBF491C20F00100704712EB2E
:103EC000020E43EB030218BF4FF0010E4EEA42020E
:103ED000ACF1200CDCF11E0E54D943FA0CFE10EBB1
:103EE0000E0051F1FF31CCF11E0ED5D50EF1010EB1
:103EF00012FA0EFE404141EB010101EB445C5FEA26
:103F00005C5C10D910EBDE7001EB045138BFBEF1E0
:103F1000004FBDE8104018BF704700280CBF491C77
:103F200020F00100704730D24FEAD42C11F5001177
:103F300024F400641BD0B1FA81F20B3AA41AA41E37
:103F4000D2F12003914030FA03F31943904001EB82
:103F5000CC71002C01EB0451BDE81040A8BF7047A4
:103F600001F1C0414FF0000001F000417047B0FA8C
:103F700080F310FA03F100D110BDE41A173C480594
:103F8000C90AE4E701EB045110BD491001EB0451EB
:103F9000BDE810404FEA300002E04FF000017047EA
:103FA0004A0008BF0042F8D0B2F5001F28BF704792
:103FB00001F000414FF0000070479EEA445F07D0D7
:103FC00011EA5E0FBDE8104004BF002100207047D9
:103FD000BDE8104070B5FFF7CBFE00BF40DFF63EF6
:103FE00083F00041104670470000E0FF43004FEAB5
:103FF000D30C4FEA3C0C43401FBF40070CF160510B
:1040000013F0FE4F70471CF0006F03D100200CF03E
:10401000004170470CF0004343EA507010B540EA8D
:10402000CC0000F05CFA00BF000000924FEA0001F3
:10403000FFF7ECBE4FF000414FF00000A1F500216A
:104040007047000090EA010F48BF81F0004100F185
:10405000CA82421A3CBF801A89184FEAD0524FF0E8
:104060007F4C1CEA410FA2EBD15318BF9CEA026FB0
:1040700000F03B804FF0004C4CEA00204CEA01215C
:1040800021FA03FC10EB0C0C1ED202F1FF325FEAA6
:104090001C2040EBC25038BF70471CF07F0F4FEA26
:1040A000400C18BFBCF17F4F38BF7047C3F12003ED
:1040B000994008BF20F00100BCF17F4F38BF704726
:1040C000A0F1C04000F051BA4FEA3C00000A40EBBA
:1040D000C25028BF1CF0FF0F4FEA400CE6D018BFBB
:1040E000BCF17F4F38BF7047EAE79CEA026F05D00A
:1040F00010EA5C0F08BF00F00040704710B500F0F8
:10410000EEF900BF64FBBE3E401058BFC0F1404016
:10411000491058BFC1F140418142EFF30080704720
:104120004FF47F0C1CEAD0121EBF1CEAD11392EA96
:104130000C0F93EA0C0F00F0858090EA010F48BF46
:1041400042F4807240F4000C41F400002CF07F41F6
:1041500020F07F4000B58142A2EB03020FF2081C61
:10416000ACEB504EC0F100009EF800E04FEA4E0E5E
:1041700000FB0EFC38BF49004FEA2C1C02F5FA0286
:104180000CFB0EF34FEACE1E4FEA112C4FEAC12171
:104190000EEB635E42EB22420EFB0CFC4FEA1C531B
:1041A00000FB03114FEA112C4FEA01310EFB0CFC0E
:1041B0004FEADC4C00FB0C11C14228BF09184CEB44
:1041C00003335DF804EB10EB410143EBC250B2F551
:1041D0007C0F38BF704729D512F0F00F1CBF00F1DB
:1041E000C04000F00040704700818283848586874C
:1041F00088898B8C8D8E8F919293959697999A9CA6
:104200009D9FA0A2A3A5A7A8AAACAEB0B2B3B5B714
:10421000B9BCBEC0C2C5C7C9CCCED1D4D7D9DCDFEA
:10422000E2E6E9ECF0F3F7FAFE0000004FEA400C9A
:104230000CF1807CBCF17E4F28BF7047B0F1C040CC
:1042400000F093B990EA010F0CEAD11348BF42F491
:104250008072624538BF634507D213F47F0F16D0D2
:1042600080EA010000F00040704710B500F037F917
:10427000097EFC3E00F005B880EA010000F0004035
:10428000704780EA010000F0004000F06EB912F4BF
:104290007F0F04BF0248704780EA010000F065B953
:1042A0000000C07F41000B0ED3F19E0208D950F4EC
:1042B00000034FEA032323FA02F048BF404270474D
:1042C00010B500F00CF900BF49922480002070471F
:1042D0006FF0004282EA200070470000C10DD1F16A
:1042E0009E0206DB4FEA002343F0004323FA02F06C
:1042F0007047004207D54FEA4001B1F1FE4F02D2AC
:104300004FF00000704710B500F0E9F849922480A2
:10431000002070476FEA20007047000010F0004155
:1043200048BF4042B0FA80F310FA03F2C3F19D0394
:104330000BD051EAC35101EB1220530638BF70472E
:1043400000F1010008BF20F001007047B0FA80F3CF
:1043500010FA03F2C3F19D030AD0D90501EB122034
:10436000530638BF704700F1010008BF20F001007C
:104370007047000050EA010C00F113801CF5000F9B
:1043800058BFBCF5000F01D48842704707D710F51D
:10439000000F58BF11F5000F15D4884270478942AD
:1043A00070471CF5000F04D5BCF5000FF7D581420E
:1043B00070474FF0807C1CEB400F38BF1CEB410F67
:1043C00001D28142704710B500F089F8922449006B
:1043D0004FF000504FF08051FFF796BE4FF47F0C26
:1043E0001CEAD0121EBF1CEAD11392EA0C0F93EA0A
:1043F0000C0F00F0478090EA010F48BF42F4807232
:104400004FF0004C4CEA00204CEA012102EB030281
:10441000A0FB0113A2F50002002918BF43F001031D
:104420005B0028BF4FEA330342EB22425FEA132CC2
:104430004CEBC2502EBFBCEB436FB2F57C0F704704
:104440004FEA036CBCF1004F08BF20F00100B2F549
:104450007C0F38BF70470BD582F0FF0212F5803F0A
:10446000C8BF704700F1C040D8BF00F0004070479F
:1044700000F5000C5FEA4C0C48BF7047B0F1C0403B
:1044800000F073B890EA010F0CEAD11348BF42F470
:104490008072624538BF634504D280EA010000F0B3
:1044A0000040704710B500F01AF800BF8900013EC7
:1044B00000F007B800F009B85FEA410C5FEA1C6C35
:1044C00008D080EA010000F050B85FEA400C5FEAD3
:1044D0001C6CF6D14FF00040A0F5800070470EF143
:1044E000020E2EF0030E5EF8044B244204D44FEA71
:1044F0004102B2F17F4F11D84FEA4003B3F17F4F31
:104500000CD80ED14FEAD07CB2F17F4F0CEB4C0CA3
:104510000CF1020C08BF4CEBD17C04E04FF0080C0E
:1045200001E04FEAD17C0CEB4C0324FA03F404F0D5
:104530000704B4F1040C06D20EEB840CBDE8104065
:104540004CF0010C6047DFE80CF0070802024FF066
:104550000040A0F5800010BD0846420018BFD2F10F
:10456000807288BF00F0004010BDFF2141EAD050AA
:10457000C005704751EA000C00F113801CF5000FD4
:1045800058BFBCF5000F01D48142704707D711F521
:10459000000F58BF10F5000F15D4814270478942B3
:1045A00070471CF5000F04D5BCF5000FF7D5884205
:1045B00070474FF0807C1CEB410F38BF1CEB400F65
:1045C00001D28842704780EA010081EA000180EA56
:1045D0000100FFF7F8BE000090EA010F48BF81F02C
:1045E00000413FF536AD421A04D882F00042A0EBFC
:1045F000020011444FEAD0524FF07F4C1CEA410FA9
:10460000A2EBD15318BF9CEA026F4AD04FF0004C86
:104610004CEA00204CEA012121FA03FCB0EB0C0C1F
:104620000FD412F0FE0F36D05FEA4C001DD50012F9
:1046300040EBC25038BF70471CF03F0F18BF7047A7
:104640000BE0A2F101025FEA1C2040EBC25038BF30
:1046500070471CF07F0F18BF7047C3F120039940CB
:1046600014BF401E20F00100704780084FEA12235B
:1046700008BF7047B0FA80FCA2EB0C02CCF1280C0A
:1046800060FA0CF093EA122F04BF00EBC25070479F
:104690004FEAC3707047130A5FEADC1008BF704727
:1046A000F6E79CEA026F04D010EA5C0F08BF002016
:1046B000704710B5FFF713FF40DFF63E81F0004072
:1046C0007047FBF723BF000002400000000000A07D
:1046D0000000000005400000000000C800000000CD
:1046E0000C4000000000409C000000001940000049
:1046F0000020BCBE0000000034400000BFC91B8E7B
:1047000000000004B5400000504BCFD06607E2CF58
:10471000010000006C4100003E8251AADFEEA73488
:1047200001000000D9420000DCB5A0E23A301F973A
:10473000FFFFFFFFB4450000FD25A0C8E9A3C14F5E
:10474000FFFFFFFFFF3F00000000008000000000AF
:10475000FF3F0000000000800000000098470008B4
:1047600000000020F0000000280100088848000830
:10477000F0000020A0080000440100081C00000018
:1047800043000000F8FFFFFF0C0000000E000000D7
:104790000F0000002E0000000000000000008C420E
:1047A0000000000000000000000000000000000009
:1047B00000000000000000000000000000000000F9
:1047C00000000000000000000000000000000000E9
:1047D00000000000000000000000000000000000D9
:1047E0000000000000000000000014420000000073
:1047F00000000000000000000000000000000000B9
:1048000000000000000000000000000000000000A8
:104810000000000000000000000000000000000098
:104820000000000000000000000000000000000088
:104830000000000000000000000000000000000078
:104840000000000000000000000000000000000068
:104850000000000000000000000000000000000058
:104860000000000000000000000000000000000048
:104870000000000000000102030401020304060717
:0848800008090204060800000B
:04000005080000ED02
:00000001FF
