:020000040800F2
:10000000E8320020DD0100081F45000881380008A3
:100010001D45000869100008DD57000800000000B9
:100020000000000000000000000000004501000882
:100030000714000800000000890100085150000862
:10004000F7010008F7010008F7010008F7010008B0
:10005000F7010008F7010008F7010008F7010008A0
:100060002B140008F7010008F7010008A11300088D
:10007000F7010008AD130008F7010008B9130008E4
:10008000C5130008D1130008F7010008F7010008A4
:10009000F7010008F7010008F7010008F701000860
:1000A000F7010008F7010008F7010008F701000850
:1000B000F7010008F7010008F7010008F701000840
:1000C000F7010008F7010008F7010008F701000830
:1000D000F7010008555700086D57000885570008BC
:1000E000F7010008F7010008F7010008F701000810
:1000F000F7010008F7010008F7010008F701000800
:10010000F7010008F7010008F7010008F7010008EF
:10011000F7010008F7010008F7010008295100085D
:10012000F7010008F7010008F7010008F7010008CF
:10013000DFF80CD000F0FEFC004800474D630008DB
:10014000E8320020224B19680868B0E8F00F80F30D
:100150000988BFF36F8F4FF0000080F311884EF0D5
:100160000D0E70470000000006480068006880F32C
:10017000088862B661B6BFF34F8FBFF36F8F00DFA1
:1001800000BF00BF08ED00E0EFF30980BFF36F8F01
:100190000F4B1A6820E9F00F106008B54FF05000BF
:1001A00080F31188BFF34F8FBFF36F8F06F0A6FE69
:1001B0004FF0000080F31188BDE808401968086816
:1001C000B0E8F00F80F30988BFF36F8F704700BF6E
:1001D0002C000020EFF305807047000006488047A0
:1001E00006480047FEE7FEE7FEE7FEE7FEE7FEE71C
:1001F000FEE7FEE7FEE7FEE7E150000831010008F8
:10020000202A04DB203A21FA02F00021704721FA6B
:1002100002F3D040C2F120029140084319467047D2
:1002200040EA01039B0703D009E008C9121F08C078
:10023000042AFAD203E011F8013B00F8013B521EF8
:10024000F9D27047D2B201E000F8012B491EFBD26F
:1002500070470022F6E710B513460A4604461946D1
:10026000FFF7F0FF204610BD30B505462A460B4685
:1002700012F8010B13F8014B08B1A042F8D01CB1E1
:10028000002802D06D1CF1E7284630BDF0B480EAAA
:100290000102D40F4200B2EB410F02D202460846DF
:1002A00011464A0042D0C30DDDB2C1F3C752AD1AA8
:1002B000202D35DAC1F3160141F4000204B1524297
:1002C000C5F1200602FA06F12A411044B3EBD05FD3
:1002D00023D0C4B1012DA0EBC35009DCF0BC4FF01A
:1002E000004202EAC352DBB200F5000000F067BB37
:1002F000400000F1807000EBC350A0F1807040EA34
:10030000D170490009E0490841EAC071A0EBC3502F
:1003100000F50000400800EBC350F0BC00F046BB05
:100320006142012202EB4101001BF6E7F0BC70477D
:1003300081F00041AAE780F00040A7E780EA0102CF
:1003400010B502F00043400022D04A001FD0010E39
:1003500001EB1261C0F35600C2F3560240F40000F4
:1003600042F40002A0FB022000047F39140400D0F4
:10037000401C50EA124001D44000491EC2B20C0693
:1003800004EBD010401C4008802A02D003E000207B
:1003900010BD20F00100002900DA0020184310BD34
:1003A00030B480EA010202F0004530F0004221F052
:1003B000004013D090B1C30DD40DC2F31601C0F3A9
:1003C0001600E41A41F4000140F400027D34914229
:1003D00001D3641C00E04900002C02DA30BC00208C
:1003E00070474FF400000023914201D3891A034360
:1003F00040084FEA4101F7D151B1914202D14FF08B
:10040000004105E002D24FF0010101E06FF001016F
:1004100003EBC450284430BC00F0C8BA420005D0F9
:10042000C0F3C7525242914201DC0020704700EBFA
:10043000C15070472DE9FE4F804681EA0300C00F8E
:100440000C46009021F0004123F00045B8EB02007B
:10045000A94105D24046214690461C460B4602461D
:1004600023F00040104347D0270DC7F30A00C3F321
:100470000A510290401A019040286BDAC3F313002E
:1004800040F4801B0098924620B10023D2EB030A6F
:1004900063EB0B0B01985946C0F14002504600F047
:1004A00016FA06460D4650465946019A00F01EFAC5
:1004B00010EB08006141002487EA115284EAE773D7
:1004C0001A4340D0009A62B3019A012A4FEA0752B8
:1004D00015DC001B61EB02014FF0004202EA0752FB
:1004E000CDE90042001C41F5801132462B4600F058
:1004F000A3FA03B0BDE8F08F40462146F9E7001BA0
:1005000061EB0201001C41F5801300185B412018CB
:10051000A2F5001747EB030140EAD570B6196D410B
:1005200011E06D084FEA360645EAC0754FEA0752FA
:10053000001B61EB0201001C41F5801149084FEAE4
:1005400030000019514132462B4603B0BDE8F04F50
:1005500000F063BA0098012240000023D0EB0202B1
:1005600063EBE073009821464FEAE074B8EB0000BB
:1005700061EB0401E9E783F000435BE781F00041B0
:1005800058E72DE9FE4F81EA030404F0004421F00E
:10059000004100944FF0000B23F0004350EA0104A7
:1005A0005ED052EA03045BD0C3F30A54C1F30A5588
:1005B0002C44A4F2F3340194A0FB0254C1F31301C0
:1005C00041F48011C3F3130343F4801301FB02448D
:1005D00000FB034E840A970A44EA815447EA835792
:1005E000A4FB076802958D0A05FB07854FEA932C4B
:1005F00004FB0C542705029D4FEA065847EA1637BC
:10060000B5EB08056EEB070C870E920E47EA8117D3
:1006100042EA8312A7FB0201B6EB0B0164EB000474
:100620002B0D43EA0C335E1844EB1C50DA4651465E
:10063000E7FB0201C5F313044FEA0B3343EA1453FB
:100640004FEA0432019C43EA0603A4F10C0402942D
:10065000009CCDE900B400F0EFF903B0BDE8F08FE5
:1006600000200146F9E72DE9F04D81EA030404F08A
:10067000004B21F0004514464FF0000A23F00041E2
:1006800050EA050220D054EA01021DD0C5F30A57F2
:100690000246C5F31303C1F31300C1F30A5640F435
:1006A000801543F48013A7EB0608101BD64608F20A
:1006B000FD3873EB050002D308F1010801E0921840
:1006C0005B41B8F1000F03DA00200146BDE8F08D70
:1006D00000204FF48011064684460EE0171B73EB92
:1006E000050705D3121B63EB050306434CEA010C17
:1006F00049084FEA300092185B4150EA0107EDD1FA
:1007000052EA030012D082EA040083EA050108439A
:1007100005D0101BAB4106D20122002306E00022C7
:100720004FF0004302E06FF0010253101AEB060095
:100730004CEB085110EB0A0041EB0B01BDE8F04D0A
:1007400000F06BB9C10F80EAE0700844CA07962335
:10075000002100F034B996230022114600F02FB991
:1007600000F0004220F00040C10DC0F3160040F43C
:1007700000007F2901DA00207047962903DCC1F1CF
:100780009601C84001E096398840002AF4D04042E2
:10079000704720F00040C10DC0F3160040F4000087
:1007A0007F2901DA00207047962903DCC1F1960108
:1007B000C840704796398840704700F0004230F0DA
:1007C00000400AD0C10D01F56071C0F3160042EA85
:1007D0000151C2084007114370470020014670478D
:1007E00001F0004330B421F0004150EA010206D08C
:1007F0000A0DA2F56072C1F31301002A02DC30BCBD
:1008000000207047440F44EAC104C100E01830BC26
:1008100000EBC25000F0CAB8002801DBC0F1004074
:10082000002901DBC1F1004181427047002801DB52
:10083000C0F10040002901DBC1F10041884270474E
:1008400030B50B46014600202022012409E021FAA0
:1008500002F59D4205D303FA02F5491B04FA02F59D
:100860002844151EA2F10102F1DC30BD2DE9F05F34
:100870000546002092469B4688460646814640240F
:100880001BE02846414647462246FFF7B9FC53463F
:100890005A46C01A914110D311461846224600F01C
:1008A00016F82D1A67EB01084F4622460120002159
:1008B00000F00DF817EB00094E41201EA4F10104D1
:1008C000DFDC484631462A464346BDE8F09F202AF1
:1008D00004DB203A00FA02F1002070479140C2F197
:1008E000200320FA03F3194390407047202A06DBC7
:1008F000CB17203A41FA02F043EAE07306E041FAEE
:1009000002F3D040C2F120029140084319467047DB
:100910000FB4002300B589B00CA900910B996FF0BA
:100920000042CB601E4B06931E4B07930423CDE978
:1009300001321D4A089202466B46002000F092F9EF
:1009400009B05DF814FB70B586B006464FF0FF3075
:100950000091CDE90101002015460C460490324675
:10096000694604A8FFF7D4FF03460498211825B16F
:1009700008B10A4600E022462A6000280DD0002B6C
:1009800002DD0098884208D0081B0094CDE90104DC
:100990003246694604A8FFF7BBFF06B070BD0000F1
:1009A0009D0E0008BB0E0008590B00080029A8BFC7
:1009B0007047401C490008BF20F00100704710B488
:1009C000B0FA80FC00FA0CF050EA010404BF10BC3D
:1009D000704749B1CCF1200421FA04F411FA0CF16A
:1009E00018BF012121430843A3EB0C01CB1D4FEAA3
:1009F00000614FEA102042BF002010BC704700EB9E
:100A0000C35010440029A4BF10BC7047401C4900CB
:100A100008BF20F0010010BC704710B5141E73F120
:100A2000000408DA401C41F1000192185B411A43AE
:100A300001D120F0010010BD2DE9F04D92469B46FA
:100A400011B1B1FA81F202E0B0FA80F220329046A0
:100A5000FFF73DFF04460F4640EA0A0041EA0B015A
:100A600053465A46084313D0114653EA010019D0A1
:100A7000C8F140025046FFF7C3FB05460E465046FC
:100A800059464246FFF723FF084305D0012004E002
:100A900020463946BDE8F08D0020054346EAE07661
:100AA0002C4337430A986305E40AA0EB08000022B0
:100AB000FD0A44EA47540A3002D500200146E9E71E
:100AC000010510196941DDE9084500196941BDE8D2
:100AD000F04DA2E7C1F30A52C1F3130140F2FF3314
:100AE00041F480119A4202DA00200146704740F238
:100AF00033439A42A2F2334202DC5242FFF780BBF8
:100B0000FFF7E5BE30B5041E71F1000404DB4FF0C1
:100B10000044404264EB0101141E73F1000405DB44
:100B20001C464FF00043524263EB0403994208BF56
:100B3000904230BD064C074D06E0E06840F00103EE
:100B400094E8070098471034AC42F6D3FFF7F4FA64
:100B50002478000844780008C0B24FF4F05100F047
:100B6000BDB900002DE9FF4F087881B09946FF28F4
:100B700005D0491C2D2804D00024002308E00023C0
:100B80000BE00124F9E703EB830300EB4303491C6B
:100B90000878FF28F7D104B15B4200200090147858
:100BA00001462D2C01D02B2C04D1521C2D2C12D0FF
:100BB0000024009400251678FF2E0ED00A24A0FBF6
:100BC00004C801FB0481002700FB0711521C16EB2F
:100BD0000C006941EFE70124EBE7994450EA010278
:100BE0000ED00024AA4D2646DFF8A88200F08AF92C
:100BF00082468B46B9F1000009DAC9F100071BE013
:100C000001980021C0E9001105B0BDE8F08F07464A
:100C100012E0F80707D022462B4630464146FFF740
:100C2000B0FC0646884622462B4610461946FFF77A
:100C3000A8FC04460D467F10002FEAD1B9F1000F41
:100C4000324643465046594602DAFFF70CFD01E0B2
:100C5000FFF797FC009A0AB181F00041019AC2E9BE
:100C60000001D1E72DE9FF4F1F468DB0D7E90146BE
:100C70004FF0FF382E2045464FF000090B90B96920
:100C80006D1C0E988847396A824688470028F6D13D
:100C9000BAF1FF3F0AD024F4D064002E11DDBAF17E
:100CA0002B0F08D0BAF12D0F0BD102E0404611B046
:100CB000ABE744F48064B9696D1C0E98884782469E
:100CC000761E6946600501D52D2000E02B208DF8A9
:100CD000000001F1010B0DF1200809E0B9696D1C5C
:100CE0000E98884782460F9844F40074761E05607B
:100CF000002E02DDBAF1300FF0D00B998A453ED1BB
:100D000044F0800406E00F99681CA9F1010944F43D
:100D100000740860B9696D1C761E0E98884782467B
:100D20003028F0D02BE00B998A4505D1200603D45A
:100D300044F08004761E18E0504604F033FE08B3F9
:100D40000DF11301761E44F400748B4508D2AAF10C
:100D500030000BF8010B200607D5A9F1010003E0D4
:100D6000200602D409F101008146A00502D50F99A1
:100D7000681C0860B9696D1C0E9888478246002E71
:100D8000D1DC53E0002E51DDBAF1650F02D0BAF18B
:100D9000450F4BD1A00549D5B9696D1C24F44074A9
:100DA000761E0E9888478246002E0CDD2B2804D034
:100DB000BAF12D0F07D144F48074B9696D1C0E98F7
:100DC00088478246761EE00501D52D2100E02B21C3
:100DD00008F8011BCDF82C8021E00DF12901761EC9
:100DE00044F4007488450CD2AAF1300010F0FF00E2
:100DF00088F8000002D10B99884509D908F101084B
:100E000006E0E00501D5244801E042F20F7081467A
:100E1000B9696D1C0E98884782460F980560002EB0
:100E200004DD504604F0BEFD0028D6D1F9690E98C5
:100E30008847FF208BF8000088F80000002006900B
:100E400007904B466A4608A906A8FFF78BFEA00547
:100E500002D46FF001002AE714F0240F0AD0E00753
:100E600014D1DDE906123868031D3B600068C0E953
:100E700000120BE0DDE90601FFF7B2FC0146E007D6
:100E800004D13868021D3A600068016028460EE708
:100E9000000024400000F03FF1D8FFFF426842B15B
:100EA000016811F8013B23B1521EC0E90012184637
:100EB00070470121C160881E704742685AB1C368FB
:100EC000016843B983688B4205D0491E521CC0E9B2
:100ED0000012002070474FF0FF3070477F2801D983
:100EE000002208E0064A02EB5002C007127800D147
:100EF000120902F00F0201209040084070470000E4
:100F0000907700080EB540F2334202920022CDE9FC
:100F100000221346FFF790FD03B000BD70B58C189A
:100F200010F8015B15F0070301D110F8013B2A11FD
:100F300006D110F8012B03E010F8016B01F8016BEA
:100F40005B1EF9D12B0705D40023521E0DD401F8E6
:100F5000013BFAE710F8013BCB1A921C03E013F8AF
:100F6000015B01F8015B521EF9D5A142D8D30020E4
:100F700070BD000070B5044600688168C943C907A8
:100F80001CD1816821F00101816001F025F805463E
:100F90000FE000BF01F020F8401B022809D9A06A29
:100FA00040F01000A062E06A40F00100E062012021
:100FB00070BD20688068C043C007EBD0002070BDC2
:100FC00004494888052801D3052000E0401C4880DA
:100FD000704700002402002070B5642005F074F909
:100FE00001220821154800F0F2FF03F0FFFA00F09B
:100FF00029F803F05DFD02F079FF02F00FFC03F029
:10100000DDFC03F0A7FA04F00DF803F027FD4FF420
:10101000FA74204600F0A6FE094D00224FF400614C
:10102000284600F0D4FF0022A914284600F0CFFF84
:101030002046BDE8704000F095BE00000010014061
:101040000014014070B5064D064E0024686846F84D
:101050002400012005F038F9641C652CF6DB70BD16
:10106000B400002010270020FEE700000149002006
:1010700048807047240200202DE9F0476D4D6E48EE
:101080006E4CA96986B081427EDA6D4AE869904269
:10109000FADA6C4A4FF000084FF48076904202DC96
:1010A000694A904271D940F2DC5AB1F5000F41DB38
:1010B000664A002003F03CFBFFF752FB8146E869DB
:1010C000634A80F00041002003F032FBFFF748FB49
:1010D000074609EB0705C82D01DDBE2502E0002DFE
:1010E00000DA0025E068401CE060052817D14A4678
:1010F00058A1684604F074FBC2B2334669465948A9
:1011000002F02DFB3A4658A1684604F069FBC2B2D2
:1011100033466946534802F022FBC4F80C80564E11
:10112000DFF85881564C3788A6F800A0D8F80000A0
:10113000018846E011F1FF4F58D381F00041434A46
:10114000002003F0F5FAFFF70BFB8146404A002030
:10115000E96903F0EDFAFFF703FB074609EB070522
:10116000C82D01DDBE2502E0002D00DA0025206932
:10117000401C206105281AD14A4642A1684604F065
:101180002FFBC2B2334601E049E032E06946354800
:1011900002F0E5FA3A463FA1684604F021FBC2B2EC
:1011A000334669462F4802F0DAFAC4F810803D4E03
:1011B000DFF8F4803D4C3788A6F800A0D8F800008E
:1011C00001882268D163216800880864284605F0F8
:1011D0007BF83780D8F8000022680188D163216845
:1011E00000880864C5F1C80005F06EF806B0BDE8D7
:1011F000F08700F0B5F86069401C60610528F5D102
:10120000334602222AA1174802F0A9FA33460222E5
:101210002849144802F0A3FAC4F81480E6E72178BC
:10122000052002F075FE207880F00100207000F0AB
:1012300001F9DBE79C2E002000001144240200206D
:1012400000007A440000A0400000A0C03C2C002018
:10125000882C00206C6566745F74313D25640D0A2E
:1012600000000000900400206C6566745F74323DDD
:1012700025640D0A00000000C4000020CC000020FE
:101280009003002072696768745F74313D25640DB6
:101290000A00000072696768745F74323D25640D4E
:1012A0000A000000C6000020C800002050030020F3
:1012B000393000004F020020284910B5264A0B782B
:1012C000D0545B1CD8B2087014780023552C41D13F
:1012D0000B2840D35078503809283BD2DFE800F083
:1012E000050B11171D23292F350052F8020F8860B6
:1012F0005068C8602EE052F8020F086150684861DB
:1013000028E052F8020F88615068C86122E052F864
:10131000020F0862506848621CE052F8020F8862AF
:101320005068C86216E052F8020F086350684863BC
:1013300010E052F8020F88635068C8630AE052F860
:10134000020F08645068486404E052F8020F886491
:101350005068C8640B7010BDA8290020E40000206C
:101360000C4810B540F2A951418040F21261018051
:10137000094942680C681388E363096812880A64A3
:10138000816806480A880368DA630068098801648E
:1013900010BD0000C4000020500300209003002076
:1013A000014800F045BB0000B8020020014800F0F1
:1013B0003FBB00009C050020014800F039BB000045
:1013C000D0040020014800F033BB000014050020C9
:1013D000014800F02DBB00005805002030B590F802
:1013E00040500124AC40C56B6C6004686360436886
:1013F000102B036803D099600068C26030BD9A600A
:101400000068C16030BD704700231A46C0F828103C
:1014100000EB8201496840F82210521C0B440A2A52
:10142000F6DB0A20B3FBF0F07047042000F0CABCE2
:10143000704700000B4810B540F2DC51018041803C
:10144000094942680C681388E363096812880A64D2
:10145000816806480A880368DA63006809880164BD
:1014600010BD0000C40000205003002090030020A5
:101470000D480D4910B5083900684860FFF76BF951
:101480000A49FEF75BFF6FF00B01FEF7C7FF084943
:10149000FEF786FFFFF791F9064A074BFFF7E3F8DF
:1014A000BDE81040FFF79CB9B4000020333353402F
:1014B000000048427B14AE47E17A843F2DE9F041B9
:1014C000054603F0C1F9164CA068FFF762F9014622
:1014D0001448FFF799FFFFF73EF961680F46FEF7E2
:1014E00027FF114E3146FEF729FF1049FEF758FF3E
:1014F000E06010F1FF4F01D30020E060E860384663
:10150000FFF72EF9A860A068FFF72AF96860206944
:10151000FFF718F93146FEF743FF2860BDE8F08178
:1015200034010020B42B00200000C8420000C44257
:10153000174810B5154A436800210846C2F8903193
:1015400002EB80035B6842F82030401C1944642899
:10155000F6DB6420B1FBF0F00D4908390860FFF7B5
:10156000FAF80C49FEF7EAFE6FF00B01FEF756FFA2
:10157000FFF723F9084A094BFFF703F8084A094B1C
:10158000FEF7FFFFBDE81040FFF72AB91027002043
:10159000B400002033335340640F1617A1A2154046
:1015A0008638D6C56D34F03F10B50446FFF7C0FF4E
:1015B0006060FFF75DFF206010BD000003484088B9
:1015C000052801D300207047012070472402002025
:1015D0000E4A30B440F2345111800D4A40F24F614E
:1015E00011800C490C4A096814680B88E36312687F
:1015F0000988116409490A4A096814680B88E36379
:1016000012680988116430BC04F09ABFC40000203D
:10161000C6000020C800002050030020CC0000209D
:1016200090030020F8B50024009490F8242025466B
:10163000012A12D0012280F824204A681F23072A99
:101640000DD20668776B521E02EB820293409F43D5
:101650000B6893401F43776319E00220F8BD0668CA
:101660000D2A0AD2376BD21F02EB820293409F43AE
:101670000B6893401F43376309E0F76A0D3A02EBAA
:10168000820293409F430B6893401F43F7620A68AE
:10169000072306680A2A0AD3F7680A3A02EB4202CD
:1016A00093409F438B6893401F43F76008E037697E
:1016B00002EB420293409F438B6893401F43376184
:1016C0000A68102A01D0112A20D1124B02689A42CE
:1016D00017D193681B0219D4936843F400039360F5
:1016E0000968102912D10C490C4A0968B1FBF2F1C2
:1016F00001EB8101490000E0491E00910029FBD166
:1017000004E0816A41F020018162012480F82450C4
:101710002046F8BD002401402800002040420F0070
:101720002DE9F04104004FF0000514D0A06A002616
:1017300028B9E66284F82460204600F083F8204649
:10174000FFF718FCA16A01F01001014304D0A06A60
:1017500040F01000A0626BE0A16A21F4885141F0D2
:101760000201A162334923688B42E16904D1B1F5DA
:10177000402F01D14FF40021E7684FF4807C41EA0B
:10178000470261680A43A168614509D0012907D071
:101790005FF00001D4F814E0BEF1010F02D00AE0BE
:1017A0006146F7E7C7B1A76A47F02007A762E76A73
:1017B00047F00107E7625F6827F469470F435F60FE
:1017C000236899681C4F394011439960A1686145AD
:1017D0000BD0012909D00CE0DFF860E0A7690EEB1F
:1017E00047370F4347F40061E5E7218A0D05A5F56A
:1017F00080152168CB6A23F470032B43CB622168E8
:1018000089680F4B1940914208D1E662A16A21F024
:10181000020141F00101A162BDE8F081A06A20F05F
:10182000020040F01000A062E06A40F00100E062B7
:101830000120F1E7003C0140FDF7E1FF00E0FFFF80
:10184000FE0E1FFF70B586B0002506460095019577
:10185000029503950068194988422DD11849886975
:1018600040F400708861886900F400700490886911
:1018700040F0040088618869694600F00400049023
:101880000320009001900F4800F0A8FA0F4C0E487A
:10189000C4E900058020C4E9025080002061800076
:1018A00060612020C4E90605204600F0E5F908B192
:1018B000FFF7BEFD3462666206B070BD00240140D1
:1018C000001002400008014008000240B802002059
:1018D00001680A6822F00E020A6001680A6822F0B4
:1018E00001020A6090F84020C36B012101FA02F264
:1018F0005A6080F82110002180F8201008467047B7
:101900002DE9F05F90F821100024022903D0042172
:101910008163012485E001680A6822F00E020A60F2
:1019200001680A6822F001020A603F4E3E4FB2157C
:10193000DFF8F4C0DFF8F090DFF8ECA0DFF8E8B0F3
:10194000DFF8E4E00168783F13011502ACF1640CA4
:10195000A9F15009AAF13C0AABF1280BAEF1140E23
:101960004FF48018B14227D9B9420ED0614512D048
:1019700049451DD0514518D0594518D0714501D160
:10198000424615E0294EB14201D1012210E0274E16
:101990001436B14201D110220AE0244E2836B14259
:1019A00006D0224A3C32914201D11A4600E02A4632
:1019B0001E49091F0A602BE0B94213D0614517D0B8
:1019C000494522D051451DD059451DD0714501D101
:1019D00042461AE0B14202D14FF0807215E0134E38
:1019E000B14201D1012210E0104E1436B14201D1B2
:1019F00010220AE00D4E2836B14206D00B4A3C3286
:101A0000914201D11A4600E02A46074980394A60CE
:101A1000012180F82110002180F82010416B01B1D4
:101A200088472046BDE8F09F80000240080402403D
:101A30002DE9F05FC16B0A6801680B68046C4FF018
:101A4000040808FA04F8844D844E854FDFF814C268
:101A5000DFF81492DFF814A2DFF814B2DFF814E212
:101A600018EA020F65D05FEA437862D50A689206E9
:101A700003D40A6822F004020A60DFF8F0814FF410
:101A80008062016808F1140813011402414524D949
:101A9000A9420DD0B1420FD0B9421AD0614515D03C
:101AA000494515D0514501D1120312E0594501D1E4
:101AB00004220EE0714501D140220AE06D4D14353B
:101AC000A94206D06B4A2832914201D11A4600E061
:101AD00022466749091F0A6029E0A94213D0B14292
:101AE00015D0B94220D061451BD049451BD0514586
:101AF00002D14FF4800217E0414502D14FF08062DD
:101B000012E0594501D104220EE0714501D1402275
:101B10000AE0584D1435A94206D0564A283291425F
:101B200001D11A4600E022464B4908394A60C16A91
:101B300071E04FF0020808FA04F818EA020F70D0BA
:101B40005FEA83786DD50A68920606D40A6822F0A7
:101B50000A020A60012180F82110DFF810814FF499
:101B60000072016808F1140813011402414524D9D8
:101B7000A9420DD0B1420FD0B9421AD0614515D05B
:101B8000494515D0514501D1120312E0594501D103
:101B900002220EE0714501D120220AE0354D1435B4
:101BA000A94206D0334A2832914201D11A4600E0B8
:101BB00022462F49091F0A6029E0A94213D0B142E9
:101BC00015D0B94220D061451BD049451BD05145A5
:101BD00002D14FF4001217E0414502D14FF00072DC
:101BE00012E0594501D102220EE0714501D12022B7
:101BF0000AE0204D1435A94206D01E4A28329142EF
:101C000001D11A4600E02246134908394A600021F2
:101C100080F82010816A00291CD0BDE8F05F0847D9
:101C2000FFE70825A540154214D01A0712D50A6807
:101C300022F00E020A6090F84020C36B012101FAE5
:101C400002F25A60816380F82110002180F8201090
:101C5000016BE0E7BDE8F09F080002401C00024075
:101C60003000024044000240580002406C00024034
:101C7000080402401C04024030B560B11A4B0268EF
:101C800014219A4209D2194B1344B3FBF1F1890094
:101C9000016417490AE0012030BD134B5B42134435
:101CA000B3FBF1F1890001640F490839C1630221D6
:101CB00080F82110136843F6F0718B43F0E90114AA
:101CC0002143D0E902452C4321430469214344695F
:101CD000214384692143194311600021416301229A
:101CE00042770177084630BD08040240F8FFFDBF87
:101CF0000000024070B5044690F82000002501283D
:101D00000CD0012084F8200094F821600020012EDE
:101D100006D084F820000225284670BD022070BD40
:101D2000022684F82160A0632068066826F0010678
:101D300006602046FFF752FBE06A00282068016831
:101D400002D041F00E0106E021F00401016020689C
:101D5000016841F00A0101602068016841F0010159
:101D60000160D9E770B5044600F036F90546601CFD
:101D700002D004480078044400F02EF9401BA04231
:101D8000FAD370BD1C00002070B50C4D042128460C
:101D900000F018F9002809D1094C207838B1002248
:101DA0000821284600F013F90020207070BD0122A0
:101DB0000821284600F00BF90120F6E70010014049
:101DC0008C000020044910B50A68024202D0086065
:101DD000FFF7DAFF10BD0000140401402DE9F84FB1
:101DE000DFF8B8A100220AF1040B144601274FF0D6
:101DF0000F090BF1040E00BF0B6807FA04F52B4026
:101E0000AB4274D1DFF898C14E68A6EB0C0866456A
:101E10002BD00DDC032E34D005DC36B3012E19D0C7
:101E2000022E2FD11BE0112E16D0122E2AD119E02E
:101E3000B8F5881F19D006DCB8F5803F15D0B8F585
:101E4000801F1FD111E0B8F5001F0ED0B8F5041F98
:101E500018D10AE0CA6815E0CA68121D12E0CA6803
:101E600008320FE0CA680C320CE08A682AB1012AF5
:101E70004FF0080203D0456104E0042202E005614E
:101E800000E00022FF2B01D8064601E000F1040625
:101E90004FEA840501D9A5F12005D6F800C009FA5A
:101EA00005F82CEA080C02FA05F54CEA050CC6F810
:101EB00000C04D68ED006AD53A4DAE6946F00106A6
:101EC000AE61AD6924F0030605F001050095364DBD
:101ED00006EB050CDCF80850A6074FEA167809FA5D
:101EE00008F6B543314EB04202D100261AE04EE06A
:101EF0002F4EB04201D1012614E02E4EB04201D146
:101F000002260FE02C4EB04201D103260AE02B4EF0
:101F1000B04201D1042605E0294EB04201D1052688
:101F200000E0062606FA08F62E43CCF808604D6855
:101F3000DAF80060ED03554601D51E4300E09E43EC
:101F40002E604D68AD0305D5DBF800601E43CBF86D
:101F5000006004E0DBF800509D43CBF800504D6872
:101F6000DEF80060ED02754601D51E4300E09E4399
:101F70002E604D68AD0205D5084D0C352E681E4308
:101F80002E6004E0054E0C3635689D433560641CB8
:101F9000102CFFF431AFBDE8F88F000000040140C1
:101FA0000000111000100240000001400008014034
:101FB000000C0140001001400014014000180140D5
:101FC000001C01408068084000D0012070470AB121
:101FD000016170470904FBE7014880687047000011
:101FE0001C00002070B504001BD094F83D000025B3
:101FF00020B984F83C50204600F038FA242084F8B8
:102000003D002068016821F00101016000F086FCBC
:10201000404A6168914201D83F4900E03F49884207
:1020200001D2012070BD3E492368B0FBF1F1596037
:102030006368934206D94FF4967359434FF47A7309
:10204000B1FBF3F12368491C19626168914210D811
:102050004900401EB0FBF1F2521CC2F30B02042AED
:1020600001D2042022E0B0FBF1F0401CC0F30B00D1
:102070001CE0A368CBB301EBC10202EB0116421EC8
:10208000B2FBF6F2521C42F48042120536D06BB31A
:1020900001EBC10202EB0111401EB0FBF1F0401C4C
:1020A000C0F30B0040F4804040F400402168C86158
:1020B000D4E90701084321680860D4E90310084304
:1020C00021688860D4E9050108432168C860206858
:1020D000016841F0010101602564202084F83D0081
:1020E000256384F83E50002070BD00E008E001EB5D
:1020F0004106421EB2FBF6F2521CC6E70120D5E7AC
:1021000001EB4101401EB0FBF1F0401CC0F30B009D
:10211000CAE70000A086010080841E0000093D007F
:1021200040420F002DE9F84F1F4690468A4604466C
:10213000DDF82890FFF750FF054694F83D00202871
:102140007ED11923012278492046009501F0BDFC7B
:102150000028F5D194F83C00012871D0012084F8C2
:102160003C0020680168C90703D1016841F0010102
:1021700001602068016821F400610160222084F878
:102180003D00102084F83E0000262664C4F8248018
:1021900067856648E062608D20852B464A46514639
:1021A000204601F0B1FB28B1206C84F83C60042883
:1021B00050D073E0208D5E4F68B1012814D0022802
:1021C000206801681ED041F4806101602068416987
:1021D000806900909AE020684169816900910168F6
:1021E00041F40071016091E02068016821F4806190
:1021F000016072B62068416981690091016841F40B
:1022000000710AE041F40061016072B62068416922
:1022100081690091016821F48061016062B675E016
:10222000032850D801280CD002284B464FF000025A
:1022300039462046009512D001F047FC70BB13E0F0
:1022400070E02A464946204601F0B4FC28B1206CD3
:10225000202823D00120BDE8F88F20684BE001F052
:1022600034FCD8B972B61BE02068016821F48061A3
:10227000016072B620680169606A421C6262017086
:10228000208D401E2085608D401E60854B460022BB
:1022900039462046009501F018FC08B10320DAE722
:1022A0002068016841F40071016020680169606A7A
:1022B000421C62620170208D401E2085608D401E90
:1022C000608562B6C9E72A464946204601F072FC9D
:1022D0000028BCD120680169606A421C62620170FA
:1022E000208D401E2085608D401E608520684169DC
:1022F000C94349070AD40169606A421C62620170DD
:10230000208D401E2085608D401E6085208D002818
:1023100086D1202084F83D0084F83E6084F83C603B
:10232000002098E7022096E7020010000000FFFF5F
:10233000040001002DE9F84F1F4690468A460446E6
:10234000DDF82890FFF748FE064694F83D00202867
:102350007ED11923012243492046009601F0B5FBA6
:1023600000287DD194F83C00012879D0012084F820
:102370003C0020680168C90703D1016841F00101F0
:1023800001602068016821F400610160212084F867
:102390003D00102084F83E0000252564C4F8248008
:1023A00067853148E062608D208533464A46514654
:1023B000204601F019FB28B1206C84F83C50042819
:1023C0004CD00DE0206841698069009030E03246D1
:1023D0004946204601F01FFC28B1206C042838D063
:1023E0000320BDE8F88F606A411C616221680078B3
:1023F0000861608D401E6085208D401E80B2208562
:1024000021684A69D24352070BD450B1606A421C1A
:10241000626200780861608D401E6085208D401EDC
:10242000208532464946204601F028FB0028D4D1B9
:10243000208D0028CBD154F83D0B016841F4007188
:102440000160202004F81E09E57765770020C8E7C1
:1024500006E02068016841F4007101600120C0E7D6
:102460000220BEE7020010000000FFFF10B586B09A
:102470000021009101910291039100681049884266
:102480001BD1104CA06940F00800A061A06969460A
:1024900000F0080004904FF440600090122001907A
:1024A000032003900848FFF799FCE06940F480009E
:1024B000E061E06900F48000049006B010BD000007
:1024C0000058004000100240000C014002488168A2
:1024D00002781144816070471C000020074810B545
:1024E000016841F010010160032000F093F8002022
:1024F00000F006F800F03EF8002010BD0020024079
:1025000000B5014687B00022372000F063F837207D
:1025100000F054F81348C16941F02001C161C0695D
:1025200005A900F020000690684600F0D7F900F0F9
:10253000F5F90D494000B0FBF1F10D480B4A491E79
:102540000260416040F2E7320021C0E9032181606E
:1025500000F013FC10B1012007B000BD044800F0EA
:102560003BFCF9E70010024040420F00001400401D
:10257000E00500200F4808B5816941F00101816143
:10258000816901F001010091C16941F08051C1618F
:10259000C069002200F0805000900F21901E00F0D2
:1025A00019F80548416821F0E06141F0007141608F
:1025B00008BD0000001002400000014000F01F02B2
:1025C000012191404009800000F1E020C0F8001195
:1025D00070470000F0B40E4B1B680C46C3F3022397
:1025E000C3F10705042D00D90425191D072901D2BF
:1025F000002300E0DB1E012606FA05F1491E2140FA
:1026000099409E40761E16403143F0BC01F088BFD1
:102610000CED00E0064900F0070208684FF6FF03E2
:10262000184040EA0220034A104308607047000047
:102630000CED00E00000FA0538B5054600680168B9
:10264000C943C9061AD4016840680090284600F0C2
:1026500005FE686B00684068094CC0F5807081B267
:10266000618001202070201D02F000F8211D284605
:10267000BDE838404FF4807200F0FABF38BD00006A
:102680008A2D00202DE9F84305460078354CC00717
:1026900054D0E0690026C00008D4E06940F08050C2
:1026A000E061E069012600F0805000902E4801684A
:1026B000C90512D40168804641F480710160FFF7BA
:1026C0008BFC074605E000BFFFF786FCC01B6428B3
:1026D00023D8D8F80000C005F6D5206A10F4407061
:1026E00021D0A98801F4407181421CD0206A1F4981
:1026F000012220F440700A6000220A602062C007B4
:1027000011D0FFF769FC074641F2883808E000BFA6
:10271000FFF762FCC11B414502D90320BDE8F883E5
:10272000206A8007F4D5206A696820F44070084365
:1027300020621EB1E06920F08050E06128788007B7
:1027400005D56068A96820F4404008436060287897
:10275000C00605D56068696920F4800008436060A0
:102760000020DBE7001002400070004040044242BD
:102770002DE9F047DFF8548105460E46D8F80000F1
:1027800000F00700B0420CD2D8F8001021F0070189
:102790003143C8F80010D8F8000000F00700B0423C
:1027A0006FD128684A4C810712D5400703D560686D
:1027B00040F4E06060602878000703D5606840F46A
:1027C000605060606068A96820F0F00008436060B5
:1027D0002878C00744D06868012816D021680228EC
:1027E00016D0890700294CDA616821F00301014302
:1027F0006160FFF7F1FB6968074641F28830012903
:102800000ED00229814618D026E021688903E9E725
:102810008901E7E7FFF7E0FBC11B494501D918E053
:1028200081466068C0F381000128F3D118E000BF41
:10283000FFF7D2FBC11B49450BD86068C0F381008C
:102840000228F5D10CE000BFFFF7C6FBC11B4945CC
:1028500002D90320BDE8F087606810F00C0FF3D1B7
:10286000D8F80010404601F00701B1420BD90168C9
:1028700021F0070131430160006800F00700B04219
:1028800001D00120E6E72878400705D56068E968AF
:1028900020F4E060084360602878000706D560688F
:1028A000296920F4605040EAC100606000F056F8E9
:1028B0006168084AC1F30311515CC84006490860C9
:1028C0000020FFF71DFE0020C4E7000000200240AA
:1028D0000010024078770008280000200F220260D4
:1028E0000C4A536803F003034360536803F0F0039A
:1028F0008360536803F4E063C36052684FF4E0639D
:1029000003EAD20202610448006800F00700086090
:1029100070470000001002400020024004480549B2
:1029200000684968044AC1F30221515CC8407047FD
:10293000280000200010024088770008044805495C
:1029400000684968044AC1F3C221515CC84070471D
:1029500028000020001002408877000812A185B0EE
:102960000FC98DE80F0014A0144A00680490516844
:10297000134801F00C03042B10D0082B0ED1C1F327
:102980008343C9031DF803000AD5516804AAC1F3A3
:102990004041515C0A4A5043B0FBF1F005B070472A
:1029A00008494843FAE7000002030405060708093E
:1029B0000A0B0C0D0E0F1010010200000010024057
:1029C00000127A0000093D002DE9F84F0446007816
:1029D000B94DC00748D06868C0F38100012807D00E
:1029E0006868C0F38100022809D16868C00306D571
:1029F0002868800338D5606800286FD034E06068AC
:102A0000B0F5803F0BD010B1B0F5A02F11D02868E1
:102A100020F480302860286820F4802002E02868B4
:102A200040F480302860606888B1FFF7D5FA064628
:102A300009E0286840F480202860F0E7FFF7CCFA2E
:102A4000801B642875D828688003F7D50CE0FFF751
:102A5000C3FA064605E000BFFFF7BEFA801B6428F4
:102A6000F0D828688003F7D42078944E80074FF080
:102A700001094FF000083BD5686810F00C0F07D033
:102A80006868C0F38100022809D16868C00306D4D1
:102A90002868800714D5206901281FD110E020691B
:102AA000B0B1C6F80090FFF797FA074605E000BFFF
:102AB000FFF792FAC01B0228C4D828688007F7D510
:102AC0002868616920F0F80040EAC10028600FE042
:102AD000C6F80080FFF780FA074606E0E9E000BF8D
:102AE000FFF77AFAC01B022823D828688007F7D49A
:102AF000207800072CD57248A169D9B1C0F80090A0
:102B0000FFF76AFA074604E0FFF766FAC01B0228DF
:102B10000FD8686A8007F7D56A484FF4FA51006801
:102B2000B0FBF1F0009000BF0098411E0091FAD276
:102B30000EE080E0C0F80080FFF74EFA074604E0A0
:102B4000FFF74AFAC01B022875D8686A8007F7D4D5
:102B50002078400760D5E8690027C00008D4E869FC
:102B600040F08050E861E869012700F08050009053
:102B700055480168C90513D40168834641F4807142
:102B80000160FFF729FA824606E000BFFFF724FA4A
:102B9000A0EB0A0064284ED8DBF80000C005F5D58C
:102BA000E06801280AD008B1052813D0286A20F06F
:102BB00001002862286A20F0040002E0286A40F040
:102BC00001002862E06841F2883B98B1FFF704FAFF
:102BD00082460BE0286A40F004002862EEE700BF5E
:102BE000FFF7FAF9A0EB0A0159455AD8286A80077D
:102BF000F6D50CE0FFF7F0F9824605E0FFF7ECF9B7
:102C0000A0EB0A0159454CD8286A8007F6D41FB1B9
:102C1000E86920F08050E861E06988B36968C1F331
:102C20008101022945D00228C6F8608004D0FFF750
:102C3000D3F9044638E034E0FFF7CEF9074604E064
:102C4000FFF7CAF9C01B02282BD828688001F7D4E7
:102C5000206AB0F5803F05D16868A16820F4003093
:102C600008436860D4E908010843696821F47411D5
:102C700008436860C6F86090FFF7AEF9044606E0C6
:102C800015E000BFFFF7A8F9001B022809D8286843
:102C90008001F7D50BE000BFFFF79EF9001B02286B
:102CA00002D90320BDE8F88F28688001F4D4002001
:102CB000F8E70120F6E70000001002400000424261
:102CC0008004424228000020007000407047704796
:102CD00010B590F83C20012A25D0012280F83C2034
:102CE000CA688C6822F4407222434C6822F48062E5
:102CF00022430C6822F4006222430C6922F48052C1
:102D000022434C6922F4005222438C6922F480420F
:102D1000224322F40041026800232143516480F8D9
:102D20003C30002010BD022010BD30B590F83C2092
:102D3000012A20D0012280F83C20022380F83D3077
:102D400003685C6824F070045C6003685C680D686C
:102D50002C435C6003689C6824F080049C600368DA
:102D60009C6849680C439C6080F83D20002180F8F5
:102D70003C10084630BD022030BD10B5040003D021
:102D800094F83D0010B107E0012010BD002084F848
:102D90003C00204600F00CF8022084F83D00211D84
:102DA000206802F0C7F9012084F83D00002010BD22
:102DB00008B500680649884208D10648C16941F053
:102DC0001001C161C06900F01000009008BD000052
:102DD00000100040001002400168CA6842F0010281
:102DE000CA600068016841F001010160002070477D
:102DF000704770B50446006801694FF00005C9438B
:102E0000890715D4C168C943890711D4E91E016136
:102E100001202077206880698007204602D0FFF7D4
:102E2000E7FF04E000F0EAF8204600F08BF9257790
:102E300020680169C943490717D4C168C9434907D4
:102E400013D46FF0040101610220207720688069AB
:102E500010F4407F204602D0FFF7CAFF04E000F0E4
:102E6000CDF8204600F06EF9257720680169C94346
:102E7000090716D4C168C943090712D46FF00801C5
:102E80000161042020772068C0698007204602D0B5
:102E9000FFF7AEFF04E000F0B1F8204600F052F971
:102EA000257720680169C943C90617D4C168C94399
:102EB000C90613D46FF01001016108202077206843
:102EC000C06910F4407F204602D0FFF791FF04E074
:102ED00000F094F8204600F035F925772068016964
:102EE000C943C90708D1C168C943C90704D1891EAC
:102EF0000161204600F044F920680169C9430906D0
:102F000009D4C168C943090605D46FF08001016185
:102F10002046FFF7DBFE20680169C943490609D452
:102F2000C168C943490605D46FF0400101612046DC
:102F300000F030F920680169C94389060BD4C168E3
:102F4000C943890607D46FF0200101612046BDE81E
:102F50007040FFF7BCBE70BD10B586B00021009177
:102F60000191029103911F4B02681F4802211F4CDF
:102F70009A4218D1826942F04002826180690391CD
:102F800000F0400004904FF4D440CDE900016946C0
:102F90001748FEF723FF606820F0C00040F0E060B3
:102FA00040F0C0001AE0134B9A4218D1826942F0F7
:102FB000100282618069039100F0100004904FF4C8
:102FC0007070CDE9000169460B48FEF707FF6068A5
:102FD00020F4406040F0E06040F44060606006B083
:102FE00010BD0000002C0140001002400000014014
:102FF000001801400004004000100140704770B507
:10300000044690F83C000D4601280DD0012684F8B6
:103010003C60022084F83D0042B1042A18D0082AFE
:103020002AD00C2A4DD139E0022070BD206802F070
:10303000D3F82068816941F00801816120688169C5
:1030400021F004018161206881692A69114311E03E
:10305000206802F0F1F82068816941F40061816123
:103060002068816921F480618161206881692A6911
:1030700041EA0221816124E0206802F013F920680E
:10308000C16941F00801C1612068C16921F00401F2
:10309000C1612068C1692A69114311E0206802F00A
:1030A00035F92068C16941F40061C1612068C169D6
:1030B00021F48061C1612068C1692A6941EA022165
:1030C000C16184F83D60002084F83C0070BD10B5FB
:1030D000040003D094F83D0010B107E0012010BDBA
:1030E000002084F83C00204600F00CF8022084F810
:1030F0003D00211D206802F01DF8012084F83D00EC
:10310000002010BD08B50C4A01680C48914207D157
:10311000816941F400618161806900F4006009E027
:10312000074A914207D1C16941F00201C161C069FA
:1031300000F00200009008BD002C01400010024089
:10314000000400407047000010B5044600680122EA
:1031500002F036F808492068884202D007498842C0
:1031600003D1416C41F4004141642068016841F0A1
:1031700001010160002010BD002C0140003401401D
:1031800000680349884201D1FFF7A0B970470000E9
:1031900000140040704700002DE9F8430446006821
:1031A0000168C943C90626D401684FF00008406889
:1031B0000090204600F052F8606B006840680F49AC
:1031C0000F4F4860C0F5807086B201207E803C1DA4
:1031D0003870002503E0605DFEF76EF86D1CB542A7
:1031E000F9DB87F80080391DBDE8F8434FF48072A1
:1031F000044800F03DBABDE8F8830000E400002078
:10320000A22A00201004002038B505460068016895
:10321000C943C9061CD4016840680090284600F0E4
:103220001DF8686B006840680A490B4C4860C0F59F
:10323000807081B2618001202070201D01F050FC5F
:10324000211D2846BDE838404FF4807200F010BAC6
:1032500038BD0000DC000020A428002010B5044682
:103260000068416994F83920C1F3C011212A0BD1BB
:1032700051B1416921F080014161206B08B1FEF735
:1032800027FB204602F0F6F82068416994F83A20BE
:10329000C1F38011222A0BD151B1416921F04001C3
:1032A0004161606B08B1FEF713FB204602F0D4F8D1
:1032B000002010BD7047000070B502680446106819
:1032C000D168536910F00F0F51D003F0010501F4DC
:1032D000907635435DD0C20705D0CA0503D5E26BB1
:1032E00042F00102E263420705D5DA0703D0E26B40
:1032F00042F00202E263820705D5DA0703D0E26BEF
:1033000042F00402E263020705D5DA0703D0E26B5C
:1033100042F00802E263E26B002A34D0800604D552
:10332000880602D5204602F0AEF820684069E16BBD
:10333000C0F3801001F008010143204624D002F0C0
:103340008BF82068416949061AD5416921F040018E
:103350004161606BA0B11B494163606BFEF7D0FA1D
:10336000002810D0606B416BBDE8704008478306B1
:103370000FD58B060DD52046BDE8704002F083B80E
:103380002046FFF797FF70BDFFF794FF0020E06332
:1033900070BD030606D50B0604D52046BDE8704077
:1033A00002F074B94006F3D54806F1D5D16820463D
:1033B00021F04001D160202184F8391000F02CFA6E
:1033C00070BD0000B953000870B5040004D094F833
:1033D0003900002510B106E0012070BD84F8385096
:1033E000204600F023F8242084F839002068C168C2
:1033F00021F40051C160204602F090F82068016974
:1034000021F4904101612068416921F02A01416164
:103410002068C16841F40051C160E563202084F850
:10342000390084F83A00002070BD00002DE9F04317
:1034300085B0002500950195029503950446DFF8B7
:103440000C82D0F800C0824802210322814B202741
:1034500080264FF40079C44543D1D0F818C04CF40D
:10346000804CC0F818C0D0F818C00CF4804CCDF8CF
:1034700010C0D0F818C04CF0040CC0F818C0806917
:10348000CDE9009100F00400CDE90320694698469B
:103490001846FEF7A3FCF000CDE90005694640465A
:1034A0000295FEF79BFCDFF8B4816B494046C0E90A
:1034B0000015C0E90256C8F81050C8E90557C8F809
:1034C0001C50FEF7D9FB08B1FDF7B2FFC4F83480F9
:1034D000002205212520C8F82440FFF77BF825208D
:1034E0005FE0DFF87C81C44560D1D0F81CC04CF4AB
:1034F000003CC0F81CC0D0F81CC00CF4003CCDF857
:1035000010C0D0F818C04CF0040CC0F818C0806986
:10351000039200F0040004900420CDE90001694604
:1035200098461846FEF75AFC0820CDE90005694682
:1035300040460295FEF752FCDFF82081464908F12B
:10354000440840461431C0E90015C0E90256C8F8E5
:103550001050C8E90557C8F81C50FEF78DFB08B19C
:10356000FDF766FF3D4F3C48C4F83480883728306B
:10357000C8F8244001C7102061C7384847F81059DF
:1035800088307D61BD61FD61FEF776FB08B1FDF716
:103590004FFF27630022052126207C62FFF71AF8DF
:1035A0002620FFF70BF805B0BDE8F0832D4B9C45B6
:1035B000F9D1C36943F48023C361C36903F4802351
:1035C0000493836943F0200383618069DFF8988066
:1035D00000F0200004904FF48070CDE900010392C8
:1035E00069464046FEF7FAFBCDE90095694640463C
:1035F0000295FEF7F3FB1D48416821F0300141F0D0
:10360000E06141F030014160DFF85080124908F17B
:10361000CC0840462839C0E90015C0E90256C8F870
:103620001050C8E90557C8F81C50FEF725FB08B133
:10363000FDF7FEFEC4F83480002204212720C8F8DC
:103640002440FEF7C7FF2720ABE700000038014009
:10365000001002400008014058000240D004002041
:1036600000440040004800400014014000000140B8
:10367000F8B5044690F83A0020283CD1C1B3BAB35B
:1036800094F83800012836D0012084F83800A1626F
:10369000A2850025E563222084F83A00636B174871
:1036A0009862636B1648D862636B16481863606B48
:1036B000134645630846666B216802463046091D7D
:1036C000FEF718FB206801684168009184F83850C3
:1036D000C16841F48071C1602068416941F0010115
:1036E00041612068416941F0400141610020F8BD1D
:1036F000FFE70120FBE70220F9E700001354000870
:103700004F540008C953000890F83A30202B22D1BA
:10371000F9B1F2B190F83830012B1CD0816282856A
:10372000C2850021C163222280F83A2080F8381037
:103730000168CA6842F48072CA6001684A6942F04E
:1037400001024A610068C16841F02001C1600020A7
:1037500070470120704702207047704770472DE97D
:10376000F843044690F839001F4616460D462028B7
:1037700050D1A5B19EB194F8380001284AD001205B
:1037800084F838004FF00008C4F83C80212084F809
:103790003900FEF721FCA6848146E68426E001205C
:1037A000BDE8F883E08C401EE084A0684B46B0F58D
:1037B000805F4FF000024FF080012046009703D059
:1037C00001F095FFE8B90DE001F091FFC8B9288834
:1037D0002168C0F308004860206908B16D1C05E04D
:1037E000AD1C03E0216815F8010B4860E08C00284F
:1037F000D8D14B46002240212046009701F077FFA8
:1038000008B10320CCE7202084F8390084F8388000
:103810000020C5E70220C3E77047000070B5002410
:1038200001E0641CE4B200F0E4FF08B1022CF8D31C
:10383000114D012C01D90120287008206870192031
:103840000E4E0024A861642002F03EFD00F0FCFF53
:10385000A868FCF79EFF46F82400641C0A2CF2DBE3
:10386000A868FCF796FF01460448FDF7CDFDFCF77C
:1038700072FF686070BD000034010020B42B00208E
:10388000FEE770B50D46044600F090FAED2000F01A
:103890005DFA00F0CFFA08E0012D0BD0012000F016
:1038A00025FA04F8010B6D1EADB2002DF4D100F025
:1038B0009FFA70BD002000F019FA2070F3E710B5F0
:1038C000044600F073FAEC2000F040FA00F0B2FA7F
:1038D000207800F03BFA00F0ADFA00F089FA10BD54
:1038E00001684A69D24352050CD46FF480624A6180
:1038F00004210164002140F8301F2022427301732B
:1039000001207047002070472DE9F84F0446C06A37
:103910001E4692460D4621680A6842F480620A609B
:10392000042807D0012805D010F5803F02D0206B75
:10393000112804D12068016841F4807101604FF0C2
:1039400001185346002241462046009600F0BDF87B
:10395000B8BB206908F10109B0F5804F12D00620EC
:10396000216800EAD51747F0F00008613346524657
:1039700008F10701204600F0D9F838B1206C04287E
:103980002FD01EE0E8B240F001001FE02168E8B24D
:103990000861334652464946204600F0C7F80028E1
:1039A000ECD12068416981690091016841F480711E
:1039B00001605346002241462046009600F085F8FB
:1039C00010B10320BDE8F88F47F0F10021680861CD
:1039D000334652464946204600F0A8F80028CDD18B
:1039E000F0E70120EEE70000F8B50446C06A1E4685
:1039F0000D461746042807D0012805D010F5803F52
:103A000002D0206B122804D12068016841F4807133
:103A10000160134600224FF001112046009600F08D
:103A200054F8A0B92069B0F5804F12D00620216863
:103A300000EAD51040F0F000086133463A460E49DE
:103A4000204600F073F838B1206C042811D0032010
:103A5000F8BD05F0FE0000E0E8B221680861064903
:103A600033463A46891F204600F060F80028EBD123
:103A7000F8BD0120F8BD00000800010070B5164631
:103A80000D4604461AE02046FFF72AFF08B1012040
:103A900070BD681C12D025B1FEF79EFA801BA842AB
:103AA0000CD954F8400F40F0200044F810090020D1
:103AB0002060202161732073032070BD206840695D
:103AC000C0434007DFD4002070BD2DE9F0471E46FB
:103AD00090460D460446C1F30747DDF8209012E0FA
:103AE000701C10D02EB1FEF777FAA0EB0900B0429F
:103AF00009D9002044F8300F20216173A07320738E
:103B00000320BDE8F0872068012F0AD0806925EAEC
:103B100000000004000C06D000214145E0D0002048
:103B2000EFE74069F3E70121F7E700002DE9F047EF
:103B30009A4691460D46044600264FF02008C1F3F0
:103B400007472AE020684069C043400512D4206836
:103B5000016841F40071016021686FF48060486180
:103B600004202064266384F83D8084F83C600120B2
:103B7000BDE8F087B9F1FF3F0FD0B9F1000F05D0D4
:103B8000FEF72AFAA0EB0A01494506D944F8306F3E
:103B900084F80D8026730320EAE72068012F07D000
:103BA000D0F8180025EA00000004000CE0D0C9E7B6
:103BB0004069F7E72DE9F041002590460E4604469E
:103BC000202721E04069C043C0060CD421686FF073
:103BD000100048612564256384F83D7084F83C50EA
:103BE0000120BDE8F0812EB1FEF7F6F9A0EB080048
:103BF000B04209D954F8400F40F0200044F80409BD
:103C0000677025700320ECE720684169C9434906C5
:103C1000D8D40020E5E770B516460D4604461AE0F4
:103C20002046FFF75DFE08B1012070BD681C12D070
:103C300025B1FEF7D1F9801BA8420CD954F8400FEA
:103C400040F0200044F8100900202060202161731A
:103C50002073032070BD20684069C0430006DFD494
:103C6000002070BD10B50F4C002240212046FEF709
:103C7000AEF900F093FE002280212046FEF7A7F95E
:103C8000022002F030FB012240212046FEF79FF97E
:103C9000022002F028FB20460022BDE8104040210F
:103CA000FEF795B9000C014010B50F4C00224021E1
:103CB0002046FEF78CF900F071FE0122802120469B
:103CC000FEF785F9022002F00EFB0122402120467A
:103CD000FEF77DF9022002F006FB20460022BDE837
:103CE00010404021FEF773B9000C01402DE9F0416E
:103CF0000746002400F042FE134E0025002240211A
:103D00003046FEF764F9022002F0EDFA012240216C
:103D10003046FEF75CF96006040E80213046FEF75F
:103D200051F908B1641CE4B2012002F0DCFA6D1C08
:103D3000EDB2082DE2D327B1FFF794FF2046BDE88E
:103D4000F081FFF7B1FFF9E7000C014070B50546BF
:103D500000F024FE144E002240213046FEF737F9D1
:103D60000024280601D5012200E0002280213046EF
:103D7000FEF72DF96806050E022002F0B4FA0122C2
:103D800040213046FEF723F9022002F0ACFA00226F
:103D900040213046FEF71BF9022002F0A4FA641C11
:103DA000E4B2082CDDD370BD000C014010B500F06A
:103DB000F5FD0E4C012280212046FEF708F9012274
:103DC00040212046FEF703F9042002F08CFA00227D
:103DD00080212046FEF7FBF8042002F084FA2046FA
:103DE0000022BDE810404021FEF7F1B8000C014070
:103DF00010B500F0D3FD0E4C002240212046FEF706
:103E0000E6F8002280212046FEF7E1F8042002F0C7
:103E10006AFA012240212046FEF7D9F801228021CA
:103E20002046FEF7D4F8BDE81040042002F05BBA4B
:103E3000000C014070B5002400F0A0FD134D0122DC
:103E400080212846FEF7C3F8012002F04CFA012237
:103E500040212846FEF7BBF8012002F044FA07E0B3
:103E6000641CE4B2FA2C03D9FFF7C2FF012070BD35
:103E700080212846FEF7A6F80028F1D10022402133
:103E80002846FEF7A4F8002070BD0000000C014099
:103E90002DE9F041134D0446B5F90000FCF752FC42
:103EA0006FF00E063146FCF7B9FA0F4F3946FCF7B2
:103EB00045FA6060B5F90200FCF744FC3146FCF7B6
:103EC000ADFA3946FCF73AFAA060B5F90400FCF700
:103ED00039FC3146FCF7A2FA3946FCF72FFA20608C
:103EE000BDE8F081040100200000344310B54FF418
:103EF000807205490548FFF7BBFB04480068C168AC
:103F000041F01001C16010BDA62A0020100400205D
:103F1000024630B4204B2148092A3BD2DFE802F0A8
:103F20003A050C141A20262C320009B1012200E0B7
:103F300000224FF4807105E009B1012200E0002267
:103F40004FF40071184622E009B1012200E000227E
:103F500001211CE009B1012200E00022022116E04B
:103F600009B1012200E00022202110E009B1012264
:103F700000E0002210210AE009B1012200E0002245
:103F8000082104E009B1012200E00022042130BC34
:103F9000FEF71DB830BC7047000C0140001801400E
:103FA000FEB500241648009401941449029401605F
:103FB000891501254461C0E90215022606614FF406
:103FC00060214460C161FDF7ABFB08B1FDF730FA39
:103FD00007200094CDE9015069460948FDF722FB0E
:103FE00008B1FDF725FACDE9005669460448FDF70A
:103FF00019FB002801D0FDF71BFAFEBD002401408B
:1040000088020020194808B5416941F00101416169
:104010004069002200F00100009005210B20FEF70E
:10402000D9FA0B20FEF7CAFA002205210D20FEF76F
:10403000D1FA0D20FEF7C2FA002205210F20FEF76B
:10404000C9FA0F20FEF7BAFA002205211020FEF768
:10405000C1FA1020FEF7B2FA002205211120FEF766
:10406000B9FABDE808401120FEF7A8BA00100240D6
:1040700010B5A4B001F072F9142227496846FCF784
:10408000CFF80021684602F067FA244C2249142236
:104090002060143105A8FCF7C3F8002105A802F040
:1040A0005BFA1D496060142228310AA8FCF7B8F8B1
:1040B00000210AA802F050FA1749A06014223C31EE
:1040C0000FA8FCF7ADF800210FA802F045FA12493D
:1040D000A0601422503114A8FCF7A2F8002114A803
:1040E00002F03AFA0C49E0601422643119A8FCF796
:1040F00097F8002119A802F02FFA0749206114222D
:1041000078311EA8FCF78CF800211EA802F024FAD2
:10411000606124B010BD0000EC76000804000020AF
:104120002DE9F04F85B00024494800940194029491
:104130000394816941F040018161816901F040018E
:104140000491816941F010018161816901F01001E0
:104150000491816941F004018161816901F00401E8
:104160000491816941F008018161816901F00801D0
:104170000491816941F0200181618069DFF8D49068
:1041800000F02000049000223F214846FDF71FFF69
:10419000DFF8C4A0002208215046FDF718FFDFF821
:1041A000BCB04FF4E057002239465846FDF70FFFE8
:1041B0000122C0212A48FDF70AFF4FF4407800226F
:1041C00041462748FDF703FF3F2001250226CDE9A0
:1041D0000005CDE9024669464846FDF7FFFD04208B
:1041E00000902048CDE9010469465046FDF7F6FDF0
:1041F0000820CDE90005CDE9024669465046FDF7A5
:10420000EDFD00970396CDE9015469465846FDF748
:10421000E5FDC020CDE900050320CDE90240694657
:104220000F48FDF7DBFDCDF800800396CDE9015482
:1042300069460B48FDF7D2FD002205210820FEF754
:10424000C9F90820FEF7BAF905B0BDE8F08F000003
:10425000001002400018014000100140001401400D
:10426000000C0140000021100D4810B50B49016001
:104270000C49416000214FF480428160C0E9031283
:1042800041618161C1610162FDF7ACFE002803D08C
:10429000BDE81040FDF7CCB810BD0000005800404C
:1042A000FC020020A086010010B590B000240E94FE
:1042B0001C2168460F94FBF7CCFF1C2107A8FBF7D5
:1042C000C8FF2D482B4901604721C0E9011444F67D
:1042D0002061C0E9031444618461FEF7F8FE08B16F
:1042E000FDF7A6F80E940EA923480F94FEF71DFDC6
:1042F00008B1FDF79DF86020009040F2DC50CDE958
:104300000104039404940594002269461A48069413
:10431000FEF775FE08B1FDF78BF8042269461648D2
:10432000FEF76DFE08B1FDF783F8082269461248D2
:10433000FEF765FE08B1FDF77BF80C2269460E48D2
:10434000FEF75DFE08B1FDF773F807940894099431
:104350004FF400500A94CDE90B4007A906480D948C
:10436000FEF7B6FC08B1FDF763F80348FEF7F4FD6D
:1043700010B010BD002C01405003002010B58AB0D1
:10438000002407941C2168460894FBF762FF234829
:10439000214901604721C0E9011444F62061C0E9C8
:1043A00003148461FEF793FE08B1FDF741F807940A
:1043B00007A91A480894FEF7B8FC08B1FDF738F8C9
:1043C0006020009040F2DC50CDE9010400226946F3
:1043D00012480494FEF713FE08B1FDF729F80422F1
:1043E00069460E48FEF70BFE08B1FDF721F80822DA
:1043F00069460A48FEF703FE08B1FDF719F80C22DA
:1044000069460648FEF7FBFD08B1FDF711F80348C1
:10441000FEF7A2FD0AB010BD00040040900300208A
:104420001CB500240E4800940C49019401604721FA
:10443000C0E9011401218461C160FEF79EFC08B14E
:10444000FCF7F6FF0094694605480194FEF76DFC01
:10445000002801D0FCF7ECFF1CBD0000001000405C
:10446000D00300200C4810B50A4901604FF41651E2
:104470004160002181600C22C160C0E904128161A9
:10448000C161FEF7A1FF002803D0BDE81040FCF792
:10449000CFBF10BD00380140100400200C4810B5FB
:1044A0000A4901604FF4E1314160002181600C2232
:1044B000C160C0E904128161C161FEF785FF002877
:1044C00003D0BDE81040FCF7B3BF10BD004400406E
:1044D000500400200F4810B50D4901604FF41651EB
:1044E0004160002181600C22C160C0E90412816139
:1044F000C16108220849FFF707F90648FEF764FF83
:10450000002803D0BDE81040FCF792BF10BD0000AA
:104510000048004090040020A4000020FEE77047FF
:104520000907090E002806DA00F00F0000F1E0206C
:1045300080F8141D704700F1E02080F800147047E7
:104540000021016341638163C16001614161C16315
:104550007047000000B51348FFF7F2FF1148E43040
:10456000FFF7EEFF0F484C30FFF7EAFF0D48983099
:10457000FFF7E6FF0B480C494C3000F01DF80A49E4
:1045800008483031983000F017F807490548903155
:10459000E43000F011F80449024860315DF804EBA2
:1045A00000F00AB8F02B0020640100208160704701
:1045B00041607047016070470A6802604A68426063
:1045C0008A688260CA6882610A69C2614A69026255
:1045D0008A694262CA6982620A6AC2624A6A02647B
:1045E0008A6A4264C96A8164704700001D4910B537
:1045F0000A6840F2D25050630A6890630A68D06338
:104600000968086418490A6850630A6890630A6870
:10461000D0630968086400211248FEF795FD042163
:104620001048FEF791FD08210E48FEF78DFD0C2184
:104630000C48FEF789FD00210B48FEF785FD04219B
:104640000948FEF781FD08210748FEF77DFD0C2192
:104650000548FEF779FDBDE810404FF4FA60FDF71C
:1046600081BB000050030020900300202DE9F0479B
:10467000054600200F460446274EDFF8A08018E0CC
:1046800020B1012807D0022812D116E0295DFE29A9
:104690000ED101200CE0295D3A1B521C914206DC30
:1046A0004A19A11E515C0A2902D1022000E0002013
:1046B000641CBC42E4DBBDE8F087641C285D232851
:1046C00007D025281FD02628F1D1022188F8001014
:1046D000EDE72919DFF8489051F8010FB0604968FB
:1046E000F160C9F81C100F49FBF728FEFCF765F8CC
:1046F0000D4A0E4BFBF7B7FFFCF772F8C9F818002C
:10470000FCF7B4FCD3E72819D0F8010030610A2087
:1047100030700121DAE700004C0200208202002004
:104720009C2E002000003443A7E8482EFF210940BA
:1047300070B51446FBF7FCFD014620632068FBF7CB
:10474000FDFDE060A169FCF771F801D2A06907E006
:10475000E169E068FCF760F801D2E06900E0E06838
:10476000E060216B6068FBF7E9FD2169FBF78EFDD6
:104770002061216AFCF75AF801D2206A07E0616AD9
:104780002069FCF749F801D2606A00E020692061E5
:10479000D4E90C01FBF7CCFDA168FBF7CFFD60610C
:1047A000A16AFCF743F801D2A56A07E0E16A6069F3
:1047B000FCF732F801D2E56A00E065696561D4E989
:1047C0000301FBF763FD2946FBF760FDE063216C05
:1047D000FCF72CF801D2206C07E0616CE06BFCF771
:1047E0001BF801D2606C00E0E06BE063216B616359
:1047F00070BD1CB506208DF80000002001909620A9
:1048000001F062FD6846FFF75AF80A2001F05CFDEE
:104810008D208DF800006846FFF751F80A2001F05E
:1048200053FDED208DF800006846FFF748F80121A0
:1048300001A8FFF726F89DF80400400601D50020E6
:104840001CBD01201CBD00003EB500201F4C019086
:104850000290607840F040008DF800006846FFF755
:104860002EF8A069400001F02FFD10208DF8000007
:104870006846FFF724F8062101A8FFF702F89DF823
:1048800004009DF80510000400EB01209DF80610BF
:1048900008442061010202D540F07F4020619DF86C
:1048A00007009DF80810000400EB01209DF8091096
:1048B00008446061010202D540F07F4060616421DC
:1048C00090FBF1F0FBF73EFFA0603EBD34010020FD
:1048D0002DE9F041C0EB8010032190FBF1F0224C58
:1048E000224D234A1E4E1F4F22492B68126824680E
:1048F000002812DD40F20C6CA6F800C04FF4C86628
:104900003E802688DE6323882C6823640C68138825
:10491000E363096812880A6412E040F28C5CA6F82E
:1049200000C040F2AB563E802688DE6323882C68A8
:1049300023640C681388E363096812880A644042A0
:1049400001F0FEFDFCF776FD0B4C04206178FFF7CB
:10495000DFFA607880F001006070BDE8F08100004F
:10496000C4000020C6000020C80000205003002022
:10497000CC00002090030020800200201FB5802082
:1049800000900020019001200290022003906946CF
:104990000148FDF723FA1FBD000C01401FB5802020
:1049A00000900120019000200290022003906946AF
:1049B0000148FDF713FA1FBD000C014008B5102097
:1049C00000900223024A88210248FDF7B3FC08BD8B
:1049D00050010020FC0200202DE9F8430646102477
:1049E00002231A4A88211A480094FDF7A3FC174AAB
:1049F00006230A32892116480094FDF793FB134CD5
:104A00000A346078217800EB0120AF214843FBF79E
:104A1000A2FEDFF840804146FBF7C2FC0E49FBF7DF
:104A200087FCA4F10C050746A8602079E17800EB2B
:104A3000012064214843FBF78EFE4146FBF7B0FCA2
:104A40006860376068687060BDE8F88352010020D4
:104A5000FC02002000FF7F47000034421CB50FA17C
:104A6000104CD1E90001CDE900010122D10220461C
:104A7000FDF7ADFA012211032046FDF7A8FA4FF425
:104A8000FA7001F021FCA315062269460648FEF7DC
:104A900066FE0649002008701CBD0000C000171B00
:104AA0002A4700000014014090040020DC00002090
:104AB00010B5FFF7D3FF4FF4FA70FDF753F94FF439
:104AC000807205490548FEF7D3FD04480068C168B7
:104AD00041F01001C16010BDA82800209004002002
:104AE0002DE9FE4F0646FBA1FBF7BEFBFA4CDFF8B3
:104AF000EC83DFF8EC93FB4FDFF8ECB34FF48075F9
:104B00004FF0010A90B340F2AB51F848ABF80010F7
:104B10004FF4C2610180F648226800680188D163C1
:104B2000216800880864F348D8F8003001680A88D2
:104B3000DA63D8F80000098801642B460222E5A157
:104B4000ED48FEF70CFE2B460222F91CEA48FEF760
:104B500006FED9F80000C16841F01001C160E749C4
:104B600087F802A081F800A0BDE8FE8FFFE7E4A16E
:104B70003046FBF779FB98B12B460222E0A1DE48D4
:104B8000FEF7EDFDD7492B460222C91CDA48FEF795
:104B9000E6FDD9F80000C16841F01001C160E3E70B
:104BA000D8A13046FBF760FBF8B1D7A13046FBF740
:104BB0005BFB08B187F801A0D4A13046FBF754FB9A
:104BC00008B102207870D2A13046FBF74DFB08B146
:104BD00003207870CFA13046FBF746FB08B10420D4
:104BE00078702B460322C7A1E7E1CBA13046FBF743
:104BF0003BFBF0B1D6F802000090F088ADF804005D
:104C0000684601F073FAFBF7EBFD0146787801285E
:104C100004D0022804D0032805D108E0BF4800E0F2
:104C2000BF48FFF7C7FC2B460222BBA146E0BD48A8
:104C3000F7E7BDA13046FBF717FBF0B1D6F802004D
:104C40000090F088ADF80400684601F04FFAFBF7D9
:104C5000C7FD01467878012804D0022804D0032833
:104C600005D108E0AD4800E0AD48FFF7A1FC2B46B8
:104C70000222ADA122E0AB48F7E7ACA13046FBF73A
:104C8000F3FA40B3D6F802000090F088ADF80400C3
:104C9000684601F02BFAFBF7A3FD0146787801285E
:104CA00004D0022804D0032805D112E09B4800E07C
:104CB0009B48FFF77BFC2B4602229CA18E48FEF707
:104CC0004EFD88492B460222C91C8B48FEF747FD42
:104CD0004AE79448EDE796A13046FBF7C5FAF8B1EC
:104CE000D9F80000C16821F01001C160216840F2CC
:104CF000DC504863216888632168C86321680864C0
:104D0000D8F800205063D8F800209063D8F800202D
:104D1000D063D8F8001008642B46032284A14CE12C
:104D200084A13046FBF7A0FA4FF000094FF4C77A90
:104D30006FF02F0758B380480321A0F80090038834
:104D4000725C03EB830307EB43031A44491C0280A4
:104D50000729F4DB794990B20880A0F2155050453C
:104D6000B6D87748226800680188516321680088B6
:104D700088637448D8F8003001680A885A63D8F804
:104D80000000098881632B4603226AA115E16EA108
:104D90003046FBF769FAF8B167480521A0F80090A2
:104DA0000388725C03EB830307EB43031A44491C3B
:104DB00002800929F4DB90B2A0F21550504587D843
:104DC0005F48226800680188516321680088886311
:104DD0002B4605225CA1F0E05DA13046FBF744FACA
:104DE000F8B15846ABF8009005210388725C03EBDC
:104DF000830307EB43031A44491C02800929F4DBAF
:104E000090B2A0F215505045AAD8394822680068DF
:104E10000188D1632168008808642B4605224CA1D3
:104E2000CBE04DA13046FBF71FFA08B343480421FD
:104E3000A0F800900388725C03EB830307EB430345
:104E40001A44491C02800829F4DB90B2A0F21550E4
:104E5000504585D83B48D8F8003001680A885A6325
:104E6000D8F80000098881632B4604223AA1A4E007
:104E70003BA13046FBF7F8F958B35846ABF8009021
:104E800004210388725C03EB830307EB43031A449A
:104E9000491C02800829F4DB144990B20880A0F272
:104EA000155050458BD81248226800680188D1639C
:104EB0002168008808640F48D8F8003001680A8823
:104EC000DA63D8F80000098801642B46042224A183
:104ED00073E049E0696E0000500300209003002059
:104EE000500400204C020020C6000020C400002016
:104EF000C8000020CC00002090040020000000200A
:104F00006974000070696400310000003200000024
:104F100033000000340000006B700000F02B002014
:104F2000202D0020D42C00206B6900006B64000051
:104F30006F66660076657200D0000020D200002007
:104F4000D4000020D800002066726F6E740000004C
:104F500072696768740000006261636B00000000A2
:104F600077617264000000001AA13046FBF77CF9FB
:104F700000283FF414AE19480421A0F800900388DB
:104F8000725C03EB830307EB43031A44491C028062
:104F90000829F4DB90B2A0F2155050453FF6FFAD62
:104FA0000F48D8F8003001680A88DA63D8F80000A2
:104FB000098801642B46042206A10A48FEF7CFFBAC
:104FC00003B02B46BDE8F04F022207490548FEF723
:104FD000C6BB00006C65667400000000C4000020C1
:104FE000CC000020900400204F02002070B50A4C35
:104FF0000D462146FBF79FF9FBF7CBFB07490968F4
:10500000486321462846FBF741F9FBF7C2FB0449F8
:105010000968886370BD000000C0BB4450030020D5
:105020009003002010B5084C4FF48072211D0748F2
:10503000FEF71EFB05480068C16821F01001C16041
:105040000020207010BD00008A2D00205004002098
:1050500010B5502080F31188BFF34F8FBFF36F8FCF
:1050600002F0F8F918B104494FF0805008600020B0
:1050700080F3118810BD000004ED00E030B595B05C
:1050800028216846FBF7E5F814210AA8FBF7E1F8A8
:1050900018210FA8FBF7DDF801210804CDE9001065
:1050A0000024029402250491CDE907504FF4E0104A
:1050B00009906846FDF788FC0F20CDE90A056802D3
:1050C000CDE90C4002210AA80E94FDF751FBA8037C
:1050D00011900F950FA8FDF7D5FA15B030BD00005F
:1050E0000D48016841F00101016041680B4A11401F
:1050F000416001680A4A11400160016821F4802181
:105100000160416821F4FE0141604FF41F0181609C
:105110000449C00308607047001002400000FFF817
:10512000FFFFF6FE08ED00E00148FDF762BE00005B
:10513000E0050020F0B502681C4B1D4D1D4E1E4FB2
:105140001E4C4FF0804C984209D0A04207D06045D9
:1051500005D0A84203D0B04201D0B84204D122F019
:10516000700E4A6842EA0E02984209D0A04207D067
:10517000604505D0A84203D0B04201D0B84203D167
:1051800022F44075CA682A4322F080054A692A43FE
:1051900002608A68C2620A688262984201D0A042B4
:1051A00001D10969016301214161F0BD002C014079
:1051B0000004004000080040000C004000340140A2
:1051C00010B50123046A8B409C430462036A8A4041
:1051D0001343036210BD0000F0B5026A22F0010221
:1051E0000262036A42688469124E24F073050C68F7
:1051F0002C4323F002058B682B430D4DA84201D0B0
:10520000B04205D123F00807CB683B4323F00403E9
:10521000A84201D0B04205D14D6922F44072154335
:105220008A692A4342608461496841630362F0BD30
:10523000002C014000340140F0B5026A22F0100257
:105240000262026A436884690D6824F4E64444EA11
:1052500005248D6822F0200242EA05120F4D104EFF
:10526000A84201D0B04206D1CF6822F0800242EAC3
:10527000071222F04002A84201D0B04207D14D6986
:1052800023F4406343EA85038D6943EA8503436061
:105290008461496881630262F0BD0000002C014016
:1052A00000340140F0B5026A22F480720262026AA0
:1052B0004368C46922F4007224F073050C68124E2E
:1052C0002C438D6842EA05220E4DA84201D0B0421F
:1052D00006D1CF6822F4006242EA072222F48062FB
:1052E000A84201D0B04207D14D6923F4405343EAAC
:1052F00005138D6943EA05134360C4614968C163BE
:105300000262F0BD002C01400034014030B5026A59
:1053100022F480520262046A4268C3690D6823F471
:10532000E64343EA05238D6824F4005444EA053437
:10533000084DA84202D0084DA84204D14D6922F47C
:10534000804242EA85124260C36149680164046296
:1053500030BD0000002C01400034014010B5154C58
:1053600000221021012001F031FEE0600028F7D07A
:1053700000220C21012001F029FE60600028F7D0F6
:1053800000222021032001F021FEA0600028F7D098
:1053900000220821012001F019FE20610028F7D029
:1053A00000220821012001F011FE60610028F7D0E1
:1053B00010BD00008C00002010B5406A0021C1859E
:1053C000C184FDF777FF10BD70B5446A206840695D
:1053D00094F83910C0F3C0100025212904D118B168
:1053E000E584204600F046F82068406994F83A10B9
:1053F000C0F38010222904D118B1E585204600F0C1
:105400002BF8E06B40F01000E0632046FDF752FF00
:1054100070BD10B50146406A09680968890613D451
:105420000021C1850168CA6822F48072CA600168DF
:105430004A6922F001024A6101684A6922F0400289
:105440004A61202180F83A10FEF787F910BD10B5A7
:10545000406AFEF783F910BD0168CA6822F49072B1
:10546000CA6001684A6922F001024A61202180F87D
:105470003A1070470168CA6822F0C002CA60202151
:1054800080F83910704710B590F83A10222901D0F1
:10549000022010BD8168B1F5805F11D0016900293B
:1054A00001681FD0496801F07F03816A4A1C82624B
:1054B0000B70C18D491E0904090CC18518D02BE061
:1054C0000269816A002A0268526805D0D2B20A8055
:1054D000816A491C8162ECE7C2F308020A80816A92
:1054E000891CF7E74A68816A4B1C83620A70E0E70F
:1054F0000168CA6822F02002CA600168CA6822F402
:105500008072CA6001684A6922F001024A61202162
:1055100080F83A10FEF721F9002010BD2DE9F04186
:10552000044600680169E26821F4405111430161B9
:105530002169A0680843616908432168CA6841F28B
:105540000C639A430243CA6020684169A26921F44E
:105550004071114341614C492068642532268842DC
:105560003CD1FDF7EBF900EBC00101EB00106168E5
:105570008900B0FBF1F7FDF7E1F900EBC00101EBA9
:1055800000106168B0468900B0FBF1F0B0FBF5F0A7
:105590006FF01801484307EB800106EB0110B0FBE8
:1055A000F5F000F0F006FDF7C9F900EBC00101EBE2
:1055B000001061688900B0FBF1F0B0FBF5F006EB7C
:1055C0000016FDF7BBF900EBC00101EB00106168AC
:1055D0008900B0FBF1F7FDF7B1F93BE0FDF79EF96B
:1055E00000EBC00101EB001061688900B0FBF1F72E
:1055F000FDF794F900EBC00101EB00106168B046C3
:105600008900B0FBF1F0B0FBF5F06FF018014843F2
:1056100007EB800106EB0110B0FBF5F000F0F0069F
:10562000FDF77CF900EBC00101EB00106168890017
:10563000B0FBF1F0B0FBF5F006EB0016FDF76EF9EC
:1056400000EBC00101EB001061688900B0FBF1F7CD
:10565000FDF764F900EBC00101EB001061688900FF
:10566000B0FBF1F0B0FBF5F06FF01801484307EB29
:10567000800108EB0110B0FBF5F0216800F00F008D
:1056800030448860BDE8F0810038014090F839105E
:10569000212901D0022070478168B1F5805F016A3D
:1056A0000BD04A1C0262026809785160C18C491E05
:1056B0000904090CC1840ED017E009880268C1F3FF
:1056C0000801516001690029016A02D0491C016288
:1056D000ECE7891CFBE70168CA6822F08002CA6017
:1056E0000068C16841F04001C160002070472DE9A9
:1056F000F041984617460E460446069D1DE0681C7C
:105700001BD02DB1FCF768FCA0EB0800A84214D90F
:105710002068C16821F4D071C1602068416921F01E
:1057200001014161202084F8390084F83A0000200A
:1057300084F838000320BDE8F0812068006836EA6C
:10574000000004D00020B842D9D00020F3E70120A7
:10575000F9E7000010B5044800F020F8BDE810405B
:105760000148FDF7A9BD00001004002010B5044851
:1057700000F014F8BDE810400148FDF79DBD0000A1
:105780005004002010B5044800F008F8BDE81040AF
:105790000148FDF791BD00009004002010B50446BB
:1057A00000680B49884202D12046FDF7F5FC094903
:1057B0002068884202D12046FCF73EFF0649206857
:1057C000884204D12046BDE81040FDF71DBD10BD44
:1057D000003801400044004000480040FEE700005F
:1057E0000FB4084B10B504A902AA039800F0E2F820
:1057F000044602A9002000F074FC204610BC5DF8AD
:1058000014FB0000E36000080148006870470000D6
:105810008402002002E008C8121F08C1002AFAD141
:1058200070477047002001E001C1121F002AFBD120
:1058300070470000014908607047000084020020A2
:105840002DE9FF5FDDE90220010DDDF838B00243EC
:1058500018D044F61050A1F2FF3141430D140F98B7
:10586000012820D0A5EB0B00401C5FEA000A4FF096
:105870000004474EDFF81C91A046504616D5CAF1E9
:10588000000728E00F98012443A2012808D0002136
:1058900000980F9BC0E90021C0E90243BDE8FF9FCB
:1058A0006FEA0B01F4E7CBF10000DEE7074612E0F8
:1058B000F80707D02246334640464946FAF761FECC
:1058C000804689462246334610461946FAF759FE65
:1058D00004460E467F10002FEAD1DDE90201BAF13D
:1058E000000F42464B4602DAFAF74BFE01E0FAF7A8
:1058F000BAFE04460E460022284BFBF703F903D8F4
:105900004FF0FF30014607E00022254B204631468C
:10591000FAF790FDFBF7DEF8102409E0002C0ADB13
:105920000A220023FAF7A2FF019B30321A55641EA7
:1059300050EA0102F2D1641C019AC4F1110314442B
:105940000F9A012A03D0012208430DD10AE008432F
:1059500004D000204FF0110B0F9080E7A3EB0B0554
:105960006D1E0DE05B4504DD4FF0000205F1010501
:1059700004E003DA4FF00002A5F10105002AECD0A3
:1059800000980F99C0E90231C0E9004586E70000A0
:10599000000024400000F03F300000000000F04311
:1059A0000000E03F30380A2801D201207047002073
:1059B000704700002DE9FF4F95B09B46894606468B
:1059C00000250FE2252877D100242746F84A012137
:1059D000059400E0044316F8013F203B01FA03F070
:1059E0001042F7D130782A2811D06FF02F03307889
:1059F000A0F13002092A16D8059A44F0020402EBFD
:105A0000820203EB42021044761C0590EFE759F83E
:105A1000042B0592002A03DA504244F40054059006
:105A200044F00204761C30782E2816D116F8010FA7
:105A300044F004042A280DD06FF02F023078A0F132
:105A40003003092B09D807EB870302EB4303C71880
:105A5000761CF3E759F8047B761C30786C280FD05D
:105A600006DC4C2817D068280DD06A2814D104E031
:105A7000742810D07A280FD10DE044F400140AE005
:105A800044F4801401E044F440147278824202D15C
:105A900004F58014761C761C307866280BD013DC55
:105AA000582877D009DC002875D04528F6D046283C
:105AB000F4D047281AD19DE118E0632835D0642836
:105AC00079D0652812D195E1702873D008DC672859
:105AD000F1D069286FD06E280DD06F2806D1B5E0BF
