:020000040800F2
:10000000980A0020190D0008D1040008D304000844
:10001000D7040008DB040008DF040008000000002B
:10002000000000000000000000000000E3040008E1
:10003000E504000800000000E7040008E9040008E7
:10004000330D0008330D0008330D0008330D000890
:10005000330D0008330D0008330D0008330D000880
:1000600059070008330D0008330D0008330D000850
:10007000330D0008330D0008330D0008330D000860
:10008000330D0008330D0008330D0008330D000850
:10009000330D0008330D0008330D0008330D000840
:1000A000330D0008330D0008330D0008330D000830
:1000B0008F360008330D0008113D0008330D00088D
:1000C000330D0008330D0008330D0008330D000810
:1000D000330D0008D30C0008770B0008850A0008D0
:1000E000330D0008330D0008330D0008330D0008F0
:1000F000330D0008330D0008330D0008330D0008E0
:10010000330D0008330D0008330D0008330D0008CF
:10011000330D0008330D000829290008992900082B
:10012000330D0008330D0008330D0008330D0008AF
:1001300000F002F800F062F80AA090E8000C824497
:100140008344AAF10107DA4501D100F057F8AFF274
:10015000090EBAE80F0013F0010F18BFFB1A43F0A5
:10016000010318477C5300009C5300000A444FF0E1
:10017000000C10F8013B13F0070408BF10F8014B06
:100180001D1108BF10F8015B641E05D010F8016B4B
:10019000641E01F8016BF9D113F0080F1EBF10F8AF
:1001A000014BAD1C0C1B09D16D1E58BF01F801CBD2
:1001B000FAD505E014F8016B01F8016B6D1EF9D555
:1001C0009142D6D37047000000230024002500266A
:1001D000103A28BF78C1FBD8520728BF30C148BFAA
:1001E0000B607047642904F0A180632904F0418109
:1001F000002070471FB51FBD10B510BD04F074F985
:100200001146FFF7F7FF00F041F804F092F903B44C
:10021000FFF7F2FF03BC00F023FB000010B54FF422
:10022000A06000F099FD00F0B1FAC82000F0EBFAF0
:1002300000F04CFA03F09AF94FF4165000F06BFB03
:10024000472144F61F6002F08FFD4FF4E13000F0CB
:10025000B0FB4FF4165000F012FB02F063FF03F006
:1002600011F903F074FF41F61F4141F2873003F0AA
:1002700023FD41F61F4140F2DB5002F0FBFA41F64C
:100280001F4141F64B5002F022FB10BDFFF7C6FFA5
:1002900002E0C82000F0B7FA7D4800680028F8D0D6
:1002A00019207C49086000207B49086002F007FDA6
:1002B00000BF7A4800680028FBD101207849086017
:1002C0007849086003F062FF002076490860012049
:1002D00003F070F901207449086002E00A2000F080
:1002E00092FA72480068B0F57A7FF7D1002003F0E7
:1002F00061F900206C4908606D4800686D4908602C
:100300006D4800686D49086002F036FE00206749BC
:1003100008604FF47A7000F076FA002065490860B2
:100320006649086002F028FE4FF47A7000F06BFA1C
:10033000012003F03FF9624800685E4908606048A8
:1003400000685E49086002F017FE4FF47A7000F012
:100350005AFA4FF47A7000F056FA012052490860B8
:1003600002E00A2000F04FFA50480068B0F57A7FAA
:10037000F7D1002003F01EF900204B4908605148D6
:1003800001685148006803F08BFB00204749086072
:1003900003F020FF03215A2003F0E7FA012003F0C5
:1003A00009F94748006843490860454800684349DF
:1003B000086002F0E1FD4FF47A7000F024FA4FF487
:1003C0007A7000F020FA4FF47A7000F01CFA0120E5
:1003D0003549086002E00A2000F015FA3348006849
:1003E000B0F57A7FF7D1002003F0E4F800202E4921
:1003F0000860344801683448006803F051FB00206D
:100400002A49086003F0E6FE0121304802F06AF94B
:100410000321912003F0A9FA012003F0CBF828482A
:10042000006824490860264800682449086002F0F2
:10043000A3FD4FF47A7000F0E6F94FF47A7000F003
:10044000E2F94FF47A7000F0DEF9012016490860F5
:1004500002E00A2000F0D7F914480068B0F57A7F6E
:10046000F7D1002003F0A6F800200F4908601548D6
:1004700001681548006803F013FB00200B49086071
:1004800003F0A8FE02E0642000F0BDF9FBE70000E5
:100490000C000020440100204801002098000020AA
:1004A0004C010020F4000020F0000020300100206A
:1004B000D8540008AC000020DC540008B000002034
:1004C000F8000020400000204400002000440040CC
:1004D000704700BFFEE700BFFEE700BFFEE700BFBA
:1004E000FEE7704770477047704700000CB500206A
:1004F000019000906C48006840F480306A490860C0
:1005000000BF6948006800F4003000900198401C6A
:100510000190009818B90198B0F5A06FF1D1624828
:10052000006800F4003010B10120009001E00020CC
:1005300000900098012843D15C48006840F010000A
:100540005A4908600846006820F003000860084621
:10055000006840F002000860534840685249486013
:100560000846406848600846406840F4806048603B
:100570000846406820F47C1048600846406840F413
:10058000E81048600846006840F08070086000BFCE
:100590004548006800F000700028F9D042484068E3
:1005A00020F00300404948600846406840F00200DF
:1005B000486000BF3C48406800F00C000828F9D1B2
:1005C0000CBD10B5FFF792FF10BD10B5364800689E
:1005D00040F001003449086008464068344908404A
:1005E0003149486008460068324908402E49086091
:1005F0000846006820F4802008600846406820F41F
:10060000FE0048604FF41F008860FFF7DAFF4FF0EC
:1006100000602949086010BD10B5002100200022AB
:10062000214B5B6803F00C0121B1042906D0082995
:1006300028D107E0214B224C236027E01F4B204CA0
:10064000236023E0184B5B6803F47010164B5B6863
:1006500003F48032022303EB904022B9194B434349
:10066000174C23600DE0104B5B6803F4003323B19B
:10067000144B4343124C236003E0104B4343104C94
:10068000236003E00D4B0E4C236000BF00BF064B00
:100690005B68C3F303130C4CE15C094B1B68CB4054
:1006A000074C236010BD00000010024000200240F3
:1006B0000000FFF8FFFFF6FE08ED00E000127A00F0
:1006C0001000002000093D00140000201FB501218A
:1006D000112000F059FF0820ADF80C0010208DF813
:1006E0000F0003208DF80E0003A9264800F090FCAF
:1006F000642000F088F80821224800F036FD04202C
:10070000ADF80C008DF80F0003208DF80E0003A942
:100710001C4800F07DFC0221084600F08FFD0420FB
:10072000019000208DF808000C208DF809000120B0
:100730008DF80A0001A800F08BFB08208DF800005E
:1007400000208DF801008DF8020001208DF80300D3
:10075000684600F006FB1FBD10B5042000F0DEFB6C
:1007600070B1042000F0EBFB0748006820B90120BD
:1007700005498031086003E00020034980310860AA
:1007800010BD0000001001400C01224210B56FF0B6
:10079000040000F030FB2E4800682E49B0FBF1F059
:1007A0002D4908700846007800EB4001C1EBC010ED
:1007B0004FF6FF7101EAC0002849088010BD0146CC
:1007C000254A12784A434FF0E0235A6100229A6189
:1007D0001A46126942F001021A6100BF4FF0E0228E
:1007E000106900F001021AB100F48032002AF5D03D
:1007F0004FF0E022126922F001024FF0E0231A616B
:1008000000229A6170470146144A12884A434FF009
:10081000E0235A6100229A611A46126942F00102ED
:100820001A6100BF4FF0E022106900F001021AB116
:1008300000F48032002AF5D04FF0E022126922F055
:1008400001024FF0E0231A6100229A617047000014
:100850001000002000127A00240000202600002052
:10086000014600BF704700BFF74A128802F04002FD
:10087000002AF9D0C2B2F44B1B1D1A80704710B584
:1008800086B00446012144F2040000F07DFE4FF4DE
:100890000070ADF8140003208DF8160018208DF8B4
:1008A000170005A9E94800F0B3FB4FF48060ADF8EC
:1008B000140004208DF8170005A9E44800F0A8FBF7
:1008C00025208DF8000000208DF801008DF8020031
:1008D00001208DF80300684600F043FA01940020DF
:1008E000ADF80800ADF80A00ADF80C00ADF8100046
:1008F0000C20ADF80E0001A9D54801F0FAFD012247
:1009000040F22551D24801F08CFE0121D04801F07F
:100910007CFE06B010BD10B586B004460121480427
:1009200000F03FFE0121042000F02EFE0420ADF86F
:10093000140003208DF8160018208DF8170005A963
:10094000C24800F065FB0820ADF8140004208DF8C3
:10095000170005A9BD4800F05BFB26208DF80000BC
:1009600001208DF8010000208DF8020001208DF893
:100970000300684600F0F5F901940020ADF8080086
:10098000ADF80A00ADF80C00ADF810000C20ADF881
:100990000E0001A9AF4801F0ACFD012240F2255143
:1009A000AC4801F03EFE0121AA4801F02EFE06B03F
:1009B00010BD10B586B004460121212000F0E4FDF1
:1009C0000121880400F0EDFD0121A34800F0F1FBB6
:1009D0004FF48070ADF8140003208DF81600182035
:1009E0008DF8170005A99D4800F012FB4FF4007028
:1009F000ADF8140004208DF8170005A9974800F001
:100A000007FB4FF4E050ADF8140010208DF81700EC
:100A100005A9924800F0FCFA4FF4E0518F4800F02D
:100A2000A6FB27208DF8000000208DF801008DF82E
:100A3000020001208DF80300684600F092F901944D
:100A40000020ADF80800ADF80A00ADF80C00ADF8D4
:100A500010000C20ADF80E0001A97B4801F049FD03
:100A6000012240F22551784801F0DBFD012240F2DD
:100A70002771754801F0D5FD0121734801F0C5FDCE
:100A800006B010BD70B540F225516F4801F0AEFEC2
:100A900010B36D4801F02AFEC4B27148008800F41A
:100AA0000040C8B96E48008800F4804060B10A2C4C
:100AB00003D000206A49088020E06948008840F49B
:100AC00000406749088019E00D2C06D16448008871
:100AD00040F480406249088010E061480088C0F31B
:100AE0000D0060490C545E480088401C5C49088039
:100AF00008460088C72801DD002008805848008883
:100B000000F4004050B357480078A0F13005294662
:100B100055A003F0A1FB012D04D0072D0FD01E2DF1
:100B200016D111E0554803F00AFB554803F007FBC6
:100B300054480068C0F101005249086009E00121F1
:100B4000444801F0CFFD04E001204F49086000E077
:100B500000BF00BF00204249088000BF40F227715B
:100B6000394801F043FE28B1002240F2277136488F
:100B700001F057FD70BD10B540F22551354801F028
:100B800035FE002829D0334801F0B0FDC4B23F48FB
:100B9000008800F4004000287FD13C48008800F421
:100BA0008040002840D00A2C18D038480088C0F374
:100BB0000C0037490C5435480088401C33490880E4
:100BC0000846008820F40050088008460088C0F3DA
:100BD0000C00C72861DD002008805EE02B480088FB
:100BE00000F4005030B12948008840F40040274903
:100BF000088052E02548008840F4005023490880CE
:100C000008460088C0F30C0021490C541F48008896
:100C1000401C1E49088008460088C0F30C00C72805
:100C20003BDD0020088038E0FE2C33D117480088D7
:100C300040F4804015490880154804700846008833
:100C4000401C088029E000000048004000080140E6
:100C500000380140004400403000140000140140FE
:100C60004C00002058010020636F6D6D616E64744C
:100C70007970653D2564200A00000000080400200A
:100C8000200400204C0100200C0000204E00002019
:100C90002002002000201C4908801B48008800F426
:100CA000004048B118480088C0F30C01174803F011
:100CB0003EF900201449088040F22771144801F0E1
:100CC00095FD28B1002240F22771114801F0A9FCDE
:100CD00010BD10B540F227710E4801F087FD28B114
:100CE000002240F227710B4801F09BFC40F2255195
:100CF000084801F07BFD30B1064801F0F7FCC4B2B2
:100D0000204601F039FF10BD4E00002020020020D7
:100D10000044004000380140094880470948004726
:100D2000FEE7FEE7FEE7FEE7FEE7FEE7FEE7FEE79B
:100D3000FEE7FEE704480549054A064B70470000F8
:100D4000CB0500083101000898040020980A002013
:100D5000980600209806002031490143314A11606D
:100D6000704770B5002100230F22C47804B32D4CC6
:100D7000246804F4E064C4F5E064210AC1F10403CA
:100D8000CA40447804FA03F18478144021430901ED
:100D9000254C0678A155047804F01F050124AC40C9
:100DA00005786D11AD0005F1E025C5F8004109E0B9
:100DB000047804F01F050124AC401C4D0678761120
:100DC00045F8264070BD1A4A0A400243154B1B1FC6
:100DD0001A60704739B1134A121D12680243114B51
:100DE0001B1D1A6006E00F4A121D126882430D4B4C
:100DF0001B1D1A607047042808D14FF0E0210969D3
:100E000041F004014FF0E022116107E04FF0E021D2
:100E1000096921F004014FF0E022116170470000E0
:100E20000000FA050CED00E000E400E080E100E0E5
:100E300080FFFF1F002044490860091D0860091D4C
:100E40000860091D086041483F4914310860704737
:100E500000213D498279002A3AD00A461268036887
:100E60009A430B461A600A1D126803689A430B1DC9
:100E70001A60027911440A6803681A430A60324A08
:100E80000832126803689A432F4B08331A601A1D00
:100E9000126803689A432C4B0C331A604279102A6B
:100EA0000ED11A1F126803681A43274B08331A60C1
:100EB0001A1D126803681A43234B0C331A600DE0A5
:100EC0002149427911440A6803681A430A6005E01F
:100ED000027911440A6803689A430A607047002146
:100EE000016001710C214171002181717047164927
:100EF000103109680143144A1032116070470146ED
:100F00000020114A143212680A400AB1012000E0A0
:100F1000002070470C4914310860704701460020DA
:100F20000022094B1B6803EA0102074B14331B68BC
:100F30000B4013B10AB1012000E0002070470249C4
:100F4000143108607047000000040140FFFF0F00EB
:100F500010B50446CC48844208D10121042000F099
:100F60002DFB0021042000F029FB46E0C748844205
:100F700008D10121082000F021FB0021082000F009
:100F80001DFB3AE0C248844208D10121102000F044
:100F900015FB0021102000F011FB2EE0BD4884421B
:100FA00008D10121202000F009FB0021202000F0C1
:100FB00005FB22E0B848844208D10121402000F01E
:100FC000FDFA0021402000F0F9FA16E0B34884420F
:100FD00008D10121802000F0F1FA0021802000F0EA
:100FE000EDFA0AE0AE48844207D10121801500F0F5
:100FF000E5FA0021A01500F0E1FA10BD10B50121BD
:10100000084600F0DBFA0021012000F0D7FA10BDFD
:101010002DE9F0410246002500260020002300248F
:10102000002791F803C00CF00F0591F803C00CF0F5
:10103000100CBCF1000F03D091F802C04CEA05057A
:1010400091F800C0BCF1000F31D0146800202BE0F3
:101050004FF0010C0CFA00F3B1F800C00CEA0306E3
:101060009E4220D183004FF00F0C0CFA03F7BC43D3
:1010700005FA03FC4CEA040491F803C0BCF1280F04
:1010800006D14FF0010C0CFA00FCC2F814C00AE0C3
:1010900091F803C0BCF1480F05D14FF0010C0CFAD8
:1010A00000FCC2F810C0401C0828D1D31460B1F86D
:1010B00000C0BCF1FF0F34DD546800202EE000F1C9
:1010C000080C4FF0010808FA0CF3B1F800C00CEA64
:1010D00003069E4221D183004FF00F0C0CFA03F758
:1010E000BC4305FA03FC4CEA040491F803C0BCF1CC
:1010F000280F05D100F1080C08FA0CF8C2F814808A
:1011000091F803C0BCF1480F07D100F1080C4FF073
:10111000010808FA0CF8C2F81080401C0828CED349
:101120005460BDE8F0814FF6FF71018002218170AB
:101130000421C17070470246002093680B400BB138
:10114000012000E0002070470146886880B27047A7
:1011500002460020D3680B400BB1012000E00020C4
:1011600070470146C86880B27047016170474161AD
:1011700070470AB1016100E041617047C16070478A
:101180004FF480320A43826181618261826982699F
:10119000704702460020434B18684FF68073184092
:1011A00040EA021008433F4B186070473E49C8614F
:1011B0007047F0B50A46002300240021002500F006
:1011C0000046B6F1004F02D1364EF16901E0354ECE
:1011D0007168C0F3034583B200F44016B6F5401FB2
:1011E00008D121F070612F4E766826F070662D4F81
:1011F0007E6012E000F48016B6F5801F06D103264B
:1012000006FA05F4A14341F0706106E0460D36018F
:1012100003FA06F6B14341F0706122B1460D360182
:1012200003FA06F6314300F00046B6F1004F02D152
:101230001C4EF16101E01B4E7160F0BD30B5002223
:101240008B071C0F0F2303FA04F2164B08338C1084
:1012500053F824309343134C08348D1044F8253050
:1012600023468C1053F824308C07240F00FA04F422
:1012700023430C4C08348D1044F8253030BD0A4906
:10128000DC3108607047000000080140000C01409C
:10129000001001400014014000180140001C0140F2
:1012A000002001400000014000002042DF480068AB
:1012B00040F00100DD49086008464068DC4908400C
:1012C000DA49486008460068DA490840D7490860AA
:1012D0000846006820F4802008600846406820F432
:1012E000FE0048604FF41F0088607047CF490968CE
:1012F00021F48031CD4A11601146096821F4802122
:101300001160B0F5803F03D0B0F5802F0ED106E01C
:10131000C649096841F48031C44A116007E0C349F5
:10132000096841F4A021C14A116000E000BF00BF7C
:10133000704710B501460022002300204A11012AFF
:1013400002D1BA4C236806E0022A02D1B74C236AC4
:1013500001E0B64C636A01F01F02012494401C4076
:101360000CB1012000E0002010BD38B50020009035
:101370000024002500BF3120FFF7DBFF0546009861
:10138000401C00900098B0F5A06F01D0002DF2D065
:101390003120FFF7CEFF08B1012400E000242046F1
:1013A00038BD01460020A14A106820F0F80040EA4C
:1013B000C10010607047A0490860704702460020D5
:1013C0009A4B586820F47C1042EA01031843974B6B
:1013D0005860704798490866704701460020934A54
:1013E000506820F003000843506070478F48406801
:1013F00000F00C007047014600208C4A506820F035
:10140000F00008435060704701460020874A50684A
:1014100020F4E06008435060704701460020834A92
:10142000506820F4605040EAC1005060704729B114
:101430007E4A527A02437D4B5A7204E07B4A527ACA
:1014400082437A4B5A7270477B49D83108607047A3
:1014500001460020754A506820F44040084350601F
:1014600070470021714A20321170704A82F82010B2
:10147000012802D004280AD104E001216B4A20325D
:10148000117005E00521694A2032117000E000BFAB
:1014900000BF70476949086070476449096A0143A1
:1014A000624A11627047654944390860704730B537
:1014B00000210022002400235C4D6D6805F00C0122
:1014C00021B1042905D0082923D105E05C4D056030
:1014D00022E05B4D05601FE0544D6D6805F470120D
:1014E000524D6D6805F48034022505EB92421CB91B
:1014F000544D554305600BE04C4D6D6805F40035C7
:101500001DB1504D5543056002E04D4D55430560FA
:1015100002E04B4D056000BF00BF444D6D6805F013
:10152000F0010909484D6B5C0568DD4045603F4DA1
:101530006D6805F4E061090A434D6B5C4568DD4068
:1015400085603A4D6D6805F46051C90A3E4D6B5C8B
:101550004568DD40C560354D6D6805F44041890B37
:101560003A4D6B5CC568B5FBF3F5056130BD29B13B
:101570002E4A526902432D4B5A6104E02B4A5269AC
:1015800082432A4B5A61704729B1284A9269024323
:10159000264B9A6104E0254A92698243234B9A6163
:1015A000704729B1214AD2690243204BDA6104E035
:1015B0001E4AD26982431D4BDA61704729B11B4A2A
:1015C000D2680243194BDA6004E0184AD2688243B9
:1015D000164BDA60704729B1144A12690243134B63
:1015E0001A6104E0114A12698243104B1A61704774
:1015F00012494039086070470F49C86470470B4969
:10160000C87170470948406A40F0807007494862D5
:10161000704701460020054A92680A400AB101203D
:1016200000E00020704701498872704700100240B6
:101630000000FFF8FFFFF6FE000042428004424235
:1016400000127A0000093D005100002061000020D6
:1016500010B50446FE48844208D10121C014FFF7AA
:10166000ADFF0021E014FFF7A9FFC4E0B4F1804F03
:1016700008D101210846FFF7AEFF00210120FFF746
:10168000AAFFB8E0F348844208D101210220FFF705
:10169000A2FF00210220FFF79EFFACE0EE4884424B
:1016A00008D101210420FFF796FF00210420FFF755
:1016B00092FFA0E0E948844208D101210820FFF709
:1016C0008AFF00210820FFF786FF94E0E448844267
:1016D00008D101211020FFF77EFF00211020FFF725
:1016E0007AFF88E0DF48844208D101212020FFF7FB
:1016F00072FF00212020FFF76EFF7CE0DA48844271
:1017000008D101214014FFF759FF00216014FFF7B1
:1017100055FF70E0D548844209D10121C804FFF784
:101720004DFF00214FF40020FFF748FF63E0D04851
:10173000844209D101210805FFF740FF00214FF441
:101740008010FFF73BFF56E0CA48844209D10121CF
:101750004805FFF733FF00214FF40010FFF72EFF7D
:1017600049E0C548844208D101214020FFF733FFFA
:1017700000214020FFF72FFF3DE0C048844208D100
:1017800001218020FFF727FF00218020FFF723FFA2
:1017900031E0BB48844208D101218015FFF71BFFCF
:1017A0000021A015FFF717FF25E0B648844209D1B4
:1017B00001210804FFF702FF00214FF48030FFF7FA
:1017C000FDFE18E0B048844209D101214804FFF72A
:1017D000F5FE00214FF40030FFF7F0FE0BE0AB48C0
:1017E000844208D101218804FFF7E8FE00214FF46C
:1017F0008020FFF7E3FE10BD00220288944B984240
:101800000ED0994B98420BD0B0F1804F08D0914B3D
:10181000984205D0904B984202D0904B984204D108
:101820004FF68F731A404B881A438D4B984207D05E
:101830008C4B984204D04FF6FF431A40CB881A4392
:1018400002808B8883850B880385814B98420BD05F
:10185000854B984208D08B4B984205D08A4B9842D2
:1018600002D08A4B984201D10B7A038601238382EE
:10187000704770B5002400220023058C4FF6FE76D9
:1018800035400584028C8388048B4FF68F752C407D
:10189000B51E2C400D882C43751E2A400D892A4305
:1018A0004D882A436A4DA8420BD06F4DA84208D0FC
:1018B000744DA84205D0744DA84202D0734DA84281
:1018C00013D14FF6F7752A404D892A434FF6FB7521
:1018D0002A408D882A434FF6FF652B404FF6FF556F
:1018E0002B408D892B43CD892B4383800483CD8866
:1018F0008586028470BD70B5002400220023058C0B
:101900004FF6EF7635400584028C8388048B48F6C9
:10191000FF752C404FF6FF452C400D884FF6FF76A3
:1019200006EA05252C434FF6DF752A400D8906EAA5
:1019300005152A434D8806EA05152A43444DA84259
:1019400002D0494DA8421DD14FF67F752A404D89DE
:101950004FF6FF7606EA05152A434FF6BF752A4073
:101960008D8806EA05152A434FF6FF352B404FF2C6
:10197000FF752B408D8906EA85052B43CD8906EA44
:1019800085052B4383800483CD880587028470BD41
:1019900070B5002400220023058C4FF6FF66354009
:1019A0000584028C8388848B4FF68F752C404FF60C
:1019B000FC752C400D882C434FF6FF552A400D89AD
:1019C0004FF6FF7606EA05252A434D8806EA0525E7
:1019D0002A431F4DA84202D0234DA8421DD14FF2E9
:1019E000FF752A404D894FF6FF7606EA05252A4302
:1019F0004FF6FF352A408D8806EA05252A434EF624
:101A0000FF752B404DF6FF752B408D8906EA0515B5
:101A10002B43CD8906EA05152B4383808483CD882B
:101A20008587028470BD70B5002200230024058CD8
:101A30004EF6FF7635400584038C8488828B48F609
:101A4000FF752A404FF6FF452A400D8820E0000030
:101A5000002C01400004004000080040000C004041
:101A6000001000400014004000340140004C0140D0
:101A7000005001400054014000180040001C00408C
:101A80000020004000400140004401400048014067
:101A90004FF6FF7606EA05252A434DF6FF752B40E3
:101AA0000D8906EA05352B434D8806EA05352B439B
:101AB000FA4DA84202D0FA4DA84208D14BF6FF7564
:101AC0002C408D894FF6FF7606EA85152C438480DD
:101AD0008283CD88A0F84050038470BD828B4FF282
:101AE000FF331A408283828B4FF6FF7303EA012390
:101AF0001A4382837047F0B50C4615460022002138
:101B00000026078C4EF6FF7C07EA0C070784828BC1
:101B1000018C4FF6FF7707EA043640F6FF473A405C
:101B20004FF6FF7707EA05273A434FF6FF7707EAB4
:101B300003373A43D94FB8420ED0D94FB8420BD0F1
:101B4000B0F1804F08D0D74FB84205D0D64FB84239
:101B500002D0D64FB84206D14DF6FF77394046F451
:101B60008057394305E047F6FF57394044F4805722
:101B7000394382830184F0BD828B4FF6F3731A40A0
:101B80008283828B0A4382837047F0B50C461546E8
:101B9000002200210026078C4FF6FF6C07EA0C0795
:101BA0000784828B018C4FF6FF7707EA04264FF6F5
:101BB0000C773A404FF6FF7707EA03172F433A4373
:101BC000B64FB8420ED0B64FB8420BD0B0F1804FEE
:101BD00008D0B44FB84205D0B34FB84202D0B34F8B
:101BE000B84206D14FF6FF57394046F48077394363
:101BF00005E04FF2FF57394044F480773943828340
:101C00000184F0BD028B4FF2FF331A400283028B36
:101C10004FF6FF7303EA01231A4302837047F0B5BE
:101C20000C461546002200210026078C4FF6EF7C5B
:101C300007EA0C070784028B018C4FF6FF7707EA4F
:101C4000041640F6FF473A404FF6FF7707EA03379E
:101C50003A434FF6FF7707EA05273A438F4FB842DA
:101C60000ED08F4FB8420BD0B0F1804F08D08D4FBF
:101C7000B84205D08C4FB84202D08C4FB84206D142
:101C80004FF6DF77394046F01007394305E04FF64D
:101C90005F77394044F01007394302830184F0BD77
:101CA000028B4FF6F3731A400283028B0A430283BE
:101CB0007047F0B50C46154600220021068C4FF601
:101CC000FE773E400684028B018C4FF60C76324044
:101CD0007E1C06EA03162E433243704EB0420ED0ED
:101CE0006F4EB0420BD0B0F1804F08D06D4EB04275
:101CF00005D06D4EB04202D06C4EB04206D14FF6C8
:101D0000FD76314044F00106314305E04FF6F576AB
:101D1000314044F00106314302830184F0BD70B5C7
:101D200005460C465D4885420ED05D4885420BD085
:101D3000B5F1804F08D05B48854205D05A488542AE
:101D400002D05A48854200D100E000BF208850B937
:101D50002389A28861882846FFF7ABFFE1882846DF
:101D6000FFF79EFF25E0208804280AD12389A28856
:101D700061882846FFF753FFE1882846FFF742FFB6
:101D800017E0208808280AD12389A288618828467C
:101D9000FFF7FBFEE1882846FFF7EEFE09E0238906
:101DA000A28861882846FFF7A6FEE1882846FFF74B
:101DB00095FE70BD2DE9F04105460C460026012731
:101DC000608808B9022600E00026A088012801D119
:101DD000022700E001272088A0B92389A288618812
:101DE0002846FFF766FFE1882846FFF759FF238959
:101DF0003A4631462846FFF712FFE1882846FFF7AA
:101E000001FF13E02389A28861882846FFF707FFB6
:101E1000E1882846FFF7F6FE23893A4631462846F0
:101E2000FFF747FFE1882846FFF73AFFBDE8F0815A
:101E30000A884B881A438B881A43CB881A430B892C
:101E40001A434B891A438B891A43A0F844207047E0
:101E50004FF6FF71818000210180C18041800172B5
:101E600070470021018041808180C18001814181D2
:101E70008181C181704700210180418001218180E1
:101E80000021C18001817047002101804180818053
:101E9000C18001814181818170470000002C014097
:101EA000003401400004004000080040000C0040E5
:101EB00021B1028842F00102028004E002884FF65C
:101EC000FE731A400280704731B1B0F8442042F4EA
:101ED0000042A0F8442005E0B0F84420C2F30E020E
:101EE000A0F8442070471AB183890B43838102E034
:101EF00083898B43838170478182704741EA020363
:101F0000A0F8483070471AB183890B43838102E0FF
:101F100083898B438381704701894FF6F8721140A2
:101F2000018170470A46002101894FF68F731940DD
:101F300011430181704730B504460D4629462046BD
:101F4000FFF7F0FF208940F00700208130BD2DE928
:101F5000F04104460D4616461F46602D06D13B460D
:101F6000012231462046FFF75AFE05E03B4601229A
:101F700031462046FFF79DFE29462046FFF7D2FF57
:101F8000208940F007002081BDE8F08130B50C4683
:101F900000210189C9B24FF6FF7505EA03251543F3
:101FA00025432943018130BD2DE9F04105460E4608
:101FB00017469846002443463A4631462846FFF7DE
:101FC000E5FF2C894FF6F870044044F007044FF603
:101FD0008F70044044F070042C81BDE8F081F0B5AE
:101FE00004460D4616461F463B46324629462046C5
:101FF000FFF7CCFF208940F480402081F0BD0185AF
:10200000828270470A46002101884FF68F7319407B
:10201000114301807047F0B50C4615461E4600215D
:10202000002200230189028B038C4FF6F877394098
:1020300021434FF6FC473A4040F201173A434FF62E
:10204000DD773B404FF6FF7707EA06172F433B4308
:10205000018102830384F0BD0A460021018B4FF603
:102060008F7319401143018370470A460021018B89
:1020700048F6FF7319404FF6FF7303EA0223194332
:10208000018370470A460021818B4FF68F731940F8
:102090001143818370470A460021818B48F6FF7304
:1020A00019404FF6FF7303EA0223194381837047F7
:1020B00021B1028842F08002028004E002884FF6DB
:1020C0007F731A400280704721B1828842F0040277
:1020D000828004E082884FF6FB731A40828070474A
:1020E00021B1828842F00802828004E082884FF6A3
:1020F000F7731A408280704721B1828842F0010252
:10210000828004E082884FF6FE731A408280704716
:102110000A460021018B4FF6F773194011430183E2
:1021200070470A460021018B4FF2FF7319404FF6AA
:10213000FF7303EA02231943018370470A46002113
:10214000818B4FF6F77319401143818370470A461C
:102150000021818B4FF2FF7319404FF6FF7303EAA2
:1021600002231943818370470A460021018B4FF6F1
:10217000FB7319401143018370470A460021018B0C
:102180004FF6FF3319404FF6FF7303EA022319435A
:10219000018370470A460021818B4FF6FB7319407B
:1021A0001143818370470A460021818B4FF6FF332C
:1021B00019404FF6FF7303EA0223194381837047E6
:1021C0000A460021018B4FF67F73194011430183AA
:1021D00070470A460021018BC1F30E014FF6FF73D1
:1021E00003EA02231943018370470A460021818BC9
:1021F0004FF67F7319401143818370470A460021CF
:10220000818BC1F30E014FF6FF7303EA02231943DA
:10221000818370470A460021018C4FF6FD731940F7
:102220001143018470470A460021018C4FF6F77371
:1022300019401143018470470A460021018C4FF672
:10224000DF7319404FF6FF7303EA02131943018449
:1022500070470A460021018C4FF67F7319404FF6F4
:10226000FF7303EA02131943018470470A460021F1
:10227000018C4FF6FF5319404FF6FF7303EA022318
:102280001943018470470A460021018C4FF2FF7305
:1022900019404FF6FF7303EA022319430184704784
:1022A0000A460021018C4DF6FF7319404FF6FF736B
:1022B00003EA023319430184704730B50023012437
:1022C0008C40A3B2048C9C430484048C02FA01F574
:1022D000ADB22C43048430BD30B5002304248C40BF
:1022E000A3B2048C9C430484048C02FA01F5ADB2C1
:1022F0002C43048430BD70B50346002000241846EA
:10230000183001258D40ACB21D8CA5431D8409B148
:10231000082909D100EB6100056825F0700505600A
:102320000568154305600EE00D1FC5F34E052844F2
:10233000056825F4E045056005684FF6FF7606EA76
:1023400002263543056070BD21B1028842F00202C9
:10235000028004E002884FF6FD731A400280704745
:1023600021B1028842F00402028004E002884FF6A4
:10237000FB731A400280704721B1828842F08002CC
:10238000828004E082884FF67F731A408280704713
:1023900002884FF6F7731A40028002880A430280CF
:1023A000704782884FF68F731A40828082880A4372
:1023B0008280704702894FF6F8731A4002810289C1
:1023C0000A430281704702894FF67F731A400281E7
:1023D00002890A4302817047818470478185704772
:1023E000818670470187704781877047A0F8401049
:1023F000704702884FF6FF431A40028002880A4362
:10240000028070470146888E70470146088F7047EA
:102410000146888F70470146B1F840007047014679
:10242000888C70470146088D704702460020138A49
:102430000B400BB1012000E000207047CA4302822C
:10244000704730B50246002000230024158A05EAB3
:102450000103958905EA010413B10CB1012000E0E4
:10246000002030BDCA4302827047000010B5044608
:10247000FB48844209D101218803FFF79FF800211E
:102480004FF48040FFF79AF832E0F648844209D1D1
:1024900001214804FFF79FF800214FF40030FFF7B7
:1024A0009AF825E0F048844209D101218804FFF719
:1024B00092F800214FF48020FFF78DF818E0EB48E8
:1024C000844209D10121C804FFF785F800214FF4A7
:1024D0000020FFF780F80BE0E548844208D1012195
:1024E0000805FFF778F800214FF48010FFF773F824
:1024F00010BD2DE9F04786B005460E460024A246E1
:1025000000BFA1460027B08900B100BF2F462C8A2A
:102510004CF6FF700440F08804432C82AC894EF6E0
:10252000F3100440B088318908437189084304439B
:10253000AC81AC8A4FF6FF400440B0890443AC82C2
:1025400001A8FEF7B4FFC648874202D1DDF810A00B
:1025500001E0DDF80CA0A88900F4004040B10AEBCE
:10256000CA0000EB0A1031684900B0FBF1F807E03F
:102570000AEBCA0000EB0A1031688900B0FBF1F8E1
:102580006420B8FBF0F004012009642101FB1089EC
:10259000A88900F4004040B1322000EBC900B0FB34
:1025A000F1F000F00700044308E0322000EB0910CE
:1025B0006421B0FBF1F000F00F0004432C8106B061
:1025C000BDE8F0874FF41651016000218180C18081
:1025D00001810C21418100218181704710B50246A3
:1025E0000020108A4FF2FF0318400B884C882343C9
:1025F0008C882343CC8823431843108210BD0021CC
:10260000018041808180C180704721B1828942F47C
:102610000052828104E082894DF6FF731A40828164
:102620007047F0B50346002400260025002040F640
:102630006A17B94200D100BF1846C1F3421401F035
:102640001F06012707FA06F5012C01D10C3004E022
:10265000022C01D1103000E014301AB107682F436A
:10266000076002E00768AF430760F0BD1AB1838AD4
:102670000B43838202E0838A8B4383827047028A02
:102680004FF6F0731A400282028A0A4302827047B0
:1026900082894FF2FF731A40828182890A438281C4
:1026A000704721B1828942F00202828104E082896E
:1026B0004FF6FD731A4082817047028A4FF6DF732E
:1026C0001A400282028A0A430282704721B1028ABA
:1026D00042F48042028204E0028A4BF6FF731A4001
:1026E00002827047C1F308028280704701468888E1
:1026F000C0F308007047818941F001018181704772
:10270000028BD2B20283028B42EA0122028370471B
:10271000028B02F47F420283028B0A4302837047DA
:1027200021B1828A42F02002828204E0828A4FF63E
:10273000DF731A408282704721B1828A42F0100210
:10274000828204E0828A4FF6EF731A4082827047D9
:1027500021B1828A42F00802828204E0828A4FF626
:10276000F7731A408282704721B1828942F4004295
:10277000828103E08289C2F30E028281704721B117
:10278000828A42F40062828204E0828A4FF2FF73FE
:102790001A4082827047828A4FF6FB731A40828207
:1027A000828A0A438282704721B1828A42F0020201
:1027B000828204E0828A4FF6FD731A40828270475B
:1027C00002460020B1F5007F00D100BF13880B4006
:1027D0000BB1012000E00020704701F40072B2F557
:1027E000007F00D100BFCA430280704770B5024627
:1027F000002400230025002040F66A16B14200D1D3
:1028000000BFC1F3421501F01F03012606FA03F3CE
:10281000012D02D19689334006E0022D02D1168A9D
:10282000334001E0968A33400C12012606FA04F484
:102830001688344013B10CB1012000E0002070BDB7
:1028400010B50022002340F66A14A14200D100BF57
:102850000A1201249440A3B2DC43048010BD00009E
:10286000003801400044004000480040004C004057
:10287000005000407FB505460C4601211020FEF7B0
:1028800090FEADF80850ADF804400020ADF80A0005
:10289000ADF8060001A99D48FEF7AEFF01221146E2
:1028A0009A48FFF720FB36208DF8000000208DF8B5
:1028B000010003208DF8020001208DF80300684616
:1028C000FEF74FFA01219148FFF7F2FA7FBD7FB57D
:1028D00005460C4601212020FEF763FEADF80850A6
:1028E000ADF804400020ADF80A00ADF8060001A9DB
:1028F0008748FEF781FF012211468548FFF7F3FA6A
:1029000037208DF8000000208DF8010003208DF89D
:10291000020001208DF803006846FEF722FA01212B
:102920007B48FFF7C5FA7FBD10B501217748FFF757
:1029300088FD80B3774800F0D8FD7748006830B351
:1029400076480168764801F0F8FB764801687648D9
:1029500001F0F3FB6F488168714801F0BFFB7349D8
:10296000086073480168704801F0B8FB714908605D
:102970006E4800680968401A6F4908606B48006833
:102980006C49096808446D49086000F0B4FA0121F7
:102990005E48FFF767FD10BD2DE9F04F89B00121BA
:1029A0005B48FFF74EFD00287DD065480068002891
:1029B0007AD06448006864490860624800686349E6
:1029C000086063490968634A1268881802F029F8A8
:1029D00004460D466048006802F023F88046002255
:1029E0005E4B01F097FE064622462B4602F06CF83D
:1029F000CDE904015A48006802F0C6FB064602F021
:102A00004BFA04460D465748006802F00AF8804623
:102A100089465148006802F004F8064600224F4BF0
:102A200001F078FE42464B46CDE9000102F04CF839
:102A3000824622462B4601F06DFECDE90201DDE91A
:102A4000042301F0B3FDCDE9060101F0BBFF4649C7
:102A500008604448006800BB44480068C82804DC9B
:102A60004248006810F1C80F17DA40480068002893
:102A700008DA34490968484200EBD07149103A4AF3
:102A800011600AE039480068002806DD2D49086811
:102A900000EBD0714910344A11603248006880B1AF
:102AA0003048006801E02DE028E0B0F5A07F08DCA8
:102AB0002C48006810F5A07F03DB2A4800682B49EA
:102AC00008602148006828490968401A1E490860C2
:102AD0001E4800682449096808441C4908602448C5
:102AE00000685B2806DA2248006810F15B0F01DD00
:102AF00000F042FA00211F48FFF7F4FD01210448CD
:102B0000FFF7B0FC09B0BDE8F08F000000100040F6
:102B100000140040E40300204C0100204401002088
:102B20002004002048010020080400206800002044
:102B3000940000206C000020B4000020B8000020A9
:102B4000F0000020F8000020AC000020B0000020C1
:102B50009800002028010020B854000800002440FC
:102B6000BC540008240100207000002074000020E4
:102B700020010020004400402DE9F04782466A49C8
:102B80000878411C684A1170684901F800A008469D
:102B90000078552804D0002011460870BDE8F08761
:102BA000614800780B2800DAF8E76048407851283F
:102BB00004D052280AD053287BD12AE05C485B49D4
:102BC000891C0A6802604968416072E059485749A7
:102BD000891C0A680260496841600146B1F9040035
:102BE00001F01FFF80460022534B01F093FD064683
:102BF0000022524B01F068FF044601F0A5FC504949
:102C0000086050494E48006802F00AFB4C490860D1
:102C10004FE04D484549891C0A6802604968416097
:102C20000146B1F9020001F0FCFE80460022424B51
:102C300001F070FD06460022444B01F045FF0446BA
:102C400001F0C0FE42490860084600684042086042
:102C50003D49B1F9000001F0E4FE06460022364B82
:102C600001F058FD04460022384B01F02DFF80464C
:102C700001F0A8FE37490860084600684042086035
:102C80003149B1F9040001F0CCFE064600222A4B7E
:102C900001F040FD044600222C4B01F015FF804658
:102CA00001F090FE2C490860084600684042086028
:102CB00000BF00BF00201C49087000BF6EE710B5C0
:102CC0000020264908600EE02548244A1268815CED
:102CD0002448FFF707FD0120FDF795FD1F48006818
:102CE000401C1E4908601D4800680528ECDB4FF4B5
:102CF0009670FDF788FD0020184908600EE018481E
:102D0000164A1268815C1748FFF7ECFC0120FDF7BA
:102D10007AFD12480068401C104908600F4800689E
:102D20000528ECDB10BD000050000020E802002068
:102D300078000020800000200000E04000409F401C
:102D40009C000020000080BF8800002000806640BA
:102D5000900000209400002098000020A80000208F
:102D6000A00000200038014030B589B005460C466F
:102D700001215020FEF708FC01210846FEF704FC63
:102D80000121C802FEF700FC01210220FEF709FC28
:102D90000121D648FEF70DFA0121D548FEF709FAC0
:102DA0004FF4D440ADF8200018208DF82300032004
:102DB0008DF8220008A9CF48FEF72AF94FF4707069
:102DC000ADF8200008A9CC48FEF722F9ADF818505C
:102DD000ADF814400020ADF81A00ADF816008DF8DB
:102DE0001C0005A9C548FEF707FD05A9C448FEF764
:102DF00003FD6020ADF804000020ADF80C000120B8
:102E0000ADF8060001A9BD48FEF733FD0821BB4817
:102E1000FFF77EF901A9B948FEF76DFD0821B74813
:102E2000FFF77FF901A9B548FEF7B2FD0821B348C5
:102E3000FFF784F901A9B148FEF7F5FD0821AF4875
:102E4000FFF785F901A9AE48FEF713FD0821AC484C
:102E5000FFF75EF901A9AA48FEF74DFD0821A84831
:102E6000FFF75FF901A9A648FEF792FD0821A448E3
:102E7000FFF764F901A9A248FEF7D5FD0821A04893
:102E8000FFF765F901219D48FFF71EF801219B48D6
:102E9000FFF70EF801219A48FFF70AF840F2DC51DB
:102EA0009648FFF79DFA40F2DC519448FFF79AFAF2
:102EB00040F2E3519148FFF797FA40F2DC518F4816
:102EC000FFF794FA40F2DC518D48FFF789FA40F29F
:102ED000DC518B48FFF786FA40F2D5518848FFF75E
:102EE00083FA40F2DC518648FFF780FA6420FDF750
:102EF0008AFC09B030BD10B5824800682B304042D2
:102F000081490860814800682C30814908607E480A
:102F1000006810F1C80F02DA6FF0C70009E07A48C4
:102F2000006810F12B0F02DD6FF02A0001E07648F7
:102F3000006875490860764800682C2801DA2C2062
:102F400007E073480068C82801DDC82001E0704828
:102F500000686F4908606C48008800F2DC5081B25C
:102F60006748FFF73FFA6A48008800F2DC5081B2F8
:102F70006248FFF735FA10BD10B5664800680028B2
:102F800001DD012000E00020624909683A2202FBCD
:102F9000001060490968C90F2B2202FB11005E492D
:102FA00008605E480068002801DD012000E0002084
:102FB0005A490968332202FB001058490968C90FB1
:102FC000322202FB1100564908605348006810F194
:102FD000C80F02DA6FF0C70007E04F480068C82842
:102FE00001DDC82001E04C4800684B4908604C48AE
:102FF000006810F1C80F02DA6FF0C70007E0484818
:103000000068C82801DDC82001E04548006844493F
:1030100008604148008840F2DC52101A81B23748FB
:10302000FFF7E2F93E48008800F2DC5081B23448F4
:10303000FFF7DAF910BD10B53648006810F1C80F77
:1030400002DA6FF0C70007E032480068C82801DDE7
:10305000C82001E02F48006840F2DC52101A81B20B
:103060002648FFF7C1F92D48006810F1C80F02DAB1
:103070006FF0C70007E029480068C82801DDC820B4
:1030800001E02648006800F2DC5081B21C48FFF7DE
:10309000ABF91C48006810F1C80F02DA6FF0C700E6
:1030A00007E018480068C82801DDC82001E015487D
:1030B000006800F2DC5081B21148FFF793F9134821
:1030C000006810F1C80F02DA6FF0C70007E00F4880
:1030D0000068C82801DDC82001E00C48006800F243
:1030E000DC5081B20548FFF77BF910BDC000160027
:1030F000000C1A000018014000100140002C014093
:1031000000040040B4000020BC000020B8000020F3
:10311000C0000020AC000020C4000020B00000204F
:10312000C800002008B501210820FEF72DFAC020B4
:10313000ADF8000010208DF8030003208DF8020088
:103140006946F748FDF764FFC021F548FEF70DF822
:1031500008BD08B58020ADF8000010208DF80300F0
:1031600003208DF802006946ED48FDF751FF08BDC8
:1031700008B58020ADF8000004208DF8030003207E
:103180008DF802006946E648FDF742FF08BD10B51C
:10319000FFF7DFFF0120E3490860E349C1F8980128
:1031A0000420FDF70CFB0020DE4908600420FDF739
:1031B00006FB0020DC49C1F8980110BD10B5FFF7EF
:1031C000C8FF0020D749091F0860D749C1F89C01F2
:1031D0000420FDF7F4FA0120D249091F0860D24902
:1031E000C1F89C010420FDF7EAFA10BD10B50024D7
:1031F000FFF7BEFF0120CB490860FDF7E0FA012090
:10320000C949C1F89801FDF7DAFA07E0601CC4B2B9
:10321000FA2C03DDFFF7D2FF012010BDC148803832
:1032200000680028F2D1BF49091F086000BFF4E719
:1032300010B50020BB49091F0860FFF78AFF002076
:10324000B949C1F89C010220FDF7B9FA0120B5493E
:10325000091F08600220FDF7B2FA0020B249C1F848
:10326000980110BD10B50020AE49091F0860FFF796
:1032700070FF0120AC49C1F89C010220FDF79FFAC4
:103280000120A849091F08600220FDF798FA0020D4
:10329000A549C1F8980110BD70B50446FFF759FF64
:1032A0000020A049091F0860002517E0E0099D499A
:1032B00008606006040E0220FDF781FA01209A4999
:1032C000C1F898010220FDF77AFA00209549091FFC
:1032D00008600220FDF773FA681CC5B2082DE5DB13
:1032E00070BD70B505460024FFF742FF002617E0C9
:1032F00000208C49091F08600220FDF760FA0120B8
:103300008949C1F898016006040E86488038006833
:1033100008B1601CC4B20120FDF751FA701CC6B29E
:10332000082EE5DB15B9FFF79DFF01E0FFF780FFF1
:10333000204670BD10B50446FFF729FFEC20FFF7CB
:10334000ABFFFFF753FF2078FFF7A6FFFFF74EFF15
:10335000FFF734FF10BD70B505460C46FFF717FFA9
:10336000ED20FFF799FFFFF741FF0DE0012C04D19D
:103370000020FFF7B6FF287004E00120FFF7B1FF3F
:1033800028706D1C601E84B2002CEFD1FFF716FF71
:1033900070BD1CB5062001900020009001A8FFF729
:1033A000C9FF0A20FDF72FFA8D20019001A8FFF731
:1033B000C1FF0A20FDF727FAED20019001A8FFF7D1
:1033C000B9FF01216846FFF7C6FF9DF8000000F035
:1033D000400008B100201CBD0120FCE73EB50020E4
:1033E000019002905148007840F0400000906846FB
:1033F000FFF7A0FF4E4909684FF6FF7202EA41004D
:10340000FDF701FA102000906846FFF793FF0621B0
:1034100001A8FFF7A0FF9DF8040000049DF8051027
:1034200000EB01209DF80610084442490860084658
:10343000006800F4000020B10846006840F07F40BA
:1034400008609DF8070000049DF8081000EB0120BB
:103450009DF809100844384908600846006800F4DF
:10346000000020B10846006840F07F400860324804
:103470000068642190FBF1F4204601F085FE2F499D
:1034800008603EBD70B5002401E0601CC4B2FFF7C7
:1034900080FF08B1022CF8DB012C02DD0120284955
:1034A000087008202149087019202149086000246B
:1034B00003E0FFF793FF601CC4B2142CF9DB4FF458
:1034C000FA70FDF7A0F9FFF789FF1C48006801F0CA
:1034D0003FFE1C4948601948006801F039FE054666
:1034E000294619A000F0B8FE70BD70B50446FFF77C
:1034F00075FF606801F048FE0646104801683046D6
:1035000001F05AFF054601F023FEA060094800685B
:1035100001F03AFE0546144901F058FD206070BDE7
:10352000000C01409C81214200802142CC000020FF
:10353000D0000020DC000020E0000020D8000020A7
:10354000E4000020E403002074686520696E69745B
:1035500069616C2070726573737572653D202564B6
:10356000206D6261720A00000000C84208B50121A6
:103570004820FEF709F84FF44070ADF80000102025
:103580008DF8030003208DF8020069464E48FDF7D0
:103590003FFD4FF440714C48FDF7E7FD3F20ADF88B
:1035A000000069464948FDF733FD3F214748FDF7D4
:1035B000DCFD08BD10B50446032C12D1152143488B
:1035C000FDF7D5FD4FF480713F48FDF7D0FD2A216E
:1035D0003E48FDF7CAFD4FF400713B48FDF7C5FDBD
:1035E00028E0022C10D12A213848FDF7C0FD210225
:1035F0003548FDF7BCFD15213448FDF7B6FDE10166
:103600003148FDF7B2FD15E04CB94FF440712E483A
:10361000FDF7ABFD3F212D48FDF7A7FD0AE0012C8A
:1036200008D14FF440712848FDF7A1FD3F212748FC
:10363000FDF79DFD10BD7FB505460C4601212020FC
:10364000FDF7AFFFADF80850ADF804400020ADF82D
:103650000A00ADF8060001A91D48FEF7CDF80122C9
:1036600011461B48FEF73FFC37208DF80000032071
:103670008DF801008DF8020001208DF803006846E6
:10368000FDF76FFB01211248FEF712FC7FBD10B55C
:1036900001218807FEF7D5FEA0B10E48006868B189
:1036A0000D48006818B901200B49086002E00020AD
:1036B0000949086008480068FFF77CFF0121880776
:1036C000FEF7D0FE10BD0000000C014000180140C4
:1036D00000140040E8000020EC0000200020FA491F
:1036E00048610861704710B503460C46F6484360D0
:1036F0008460C2600020F4490860FFF7EFFF10BD4E
:103700002DE9FC5F81468A4614464FF0000BFFF717
:10371000D6FA00BFED4800680028FBD10120FFF772
:1037200049FF33E0E9480068A9EB0000E849086078
:10373000A00040420968C90F4843E6490860A0005C
:103740004042E3490968002901DD012100E0002130
:103750004843E1490860FFF70FFC09FB09F001F05D
:1037600060F90746DD4ADE4B01F0AEF905460E462C
:10377000D749096801FB01F001F053F92A463346A5
:10378000CDE9000101F064F900D200E0CAE700BF12
:103790000020FFF70FFF29E0CC480068A9EB0000EC
:1037A000CB490860CF480168006801F039FD054643
:1037B000CD4901F001FD04D3C5480068404302280B
:1037C00000DA14E0C2480068002801DD012000E0B2
:1037D000002061424843BF490860BD480068C00FEF
:1037E00061424843BC490860FFF7C6FBD4E700BF0D
:1037F0000220FFF7DFFE34E0B4480068A9EB0000C8
:10380000B3490860084600680A2804DC08460068D6
:1038100010F10A0F02DA4FF0000B01E00BF1010B7F
:10382000AB480068C00F61424843AA490860A848F5
:103830000068002801DD012000E0002061424843CB
:10384000A5490860FFF798FBD34507D10020A1499F
:103850000860A1490860FFF78FFB03E0C820FCF770
:10386000D2FFC9E700BF0320FFF7A4FEBDE8FC9F1D
:1038700070B504460D4640F2AF519C48FEF7B4FDCA
:1038800040F213619A48FEF7AFFD04EB84014FF656
:10389000FF7202EA4100FCF7B6FF6FF011008D499C
:1038A0000860401C8C490860FFF766FBC4EBC4014C
:1038B00001EB041188B2FCF7A6FF002085490860DF
:1038C00085490860FFF758FB70BD70B504460D468A
:1038D0006FF011007F490860401C7F490860FFF7C6
:1038E0004BFB04EBC40101EB410188B2FCF78BFFF9
:1038F00040F2AF517D48FEF777FD40F213617C48FE
:10390000FEF772FD04EB84014FF6FF7202EA4100FC
:10391000FCF779FF00206F4908606F490860FFF7E6
:103920002BFB70BD00241FE072480068322809DAC2
:103930007048006810F1320F04DD641C6420FCF74D
:1039400062FF11E000246B480068002804DD0F21AD
:103950003220FFF78DFF07E066480068002803DA91
:1039600014213220FFF7B1FFDEE72DE9F05F824638
:103970008B46FFF7A4F900BF544800680028FBD12C
:1039800044E052480068AAEB00005B490860084622
:103990000068C00F6FF05401484357490968002977
:1039A00001DD012100E00021012202FB0100494963
:1039B000086051480068002801DD012000E0002077
:1039C0006FF0530148434C490968C90F012202FBBB
:1039D000010041490860FFF7CFFA0AFB0AF001F045
:1039E00020F880464FF03332444B01F06DF8044626
:1039F0000D464149096801FB01F001F012F8064645
:103A000022462B4601F024F800D200E0B9E700BFBF
:103A10003BE02E480068AAEB0000374908603148B7
:103A20000168006801F0FCFB0446354901F0C4FB65
:103A300004D3314800684043112800DA26E02E48BC
:103A40000068002801DD012000E000206FF0540133
:103A5000484329490968C90F012202FB01001D4999
:103A6000086025480068C00F6FF0530148432249A1
:103A70000968002901DD012100E00021012202FB8B
:103A8000010015490860FFF777FAC2E700BF002080
:103A90001049086010490860FFF76EFABDE8F09F12
:103AA00070B504460D4617A000F0D6FB002009496A
:103AB000086009490860FFF75FFA194804600020B0
:103AC0001849086045E00000F0030020980000203D
:103AD00004010020AC000020B00000207B14AE47A1
:103AE000E17AA43F9C0000200000F041002C01403E
:103AF0000004004038010020080100203333C33F98
:103B000000001041412070697463682D6272616B1E
:103B1000652069732068617070656E696E670A0060
:103B2000480100200C01002003214748FEF7DAFD80
:103B3000C820FCF768FE45480068B0F57A7F03D0DE
:103B4000424800684249086042480068401C4149B8
:103B5000086040480068A842E6DB00203E49086053
:103B600070BD70B504460D463CA000F075FB6FF0CB
:103B7000540044490860401C43490860FFF7FCF9C1
:103B80003548046000204149086022E003212E48A6
:103B9000FEF7A8FD032094FBF0F03D490968884238
:103BA00006DD00203749086037490860FFF7E4F96F
:103BB000C820FCF728FE25480068B0F57A7F03D0BE
:103BC000224800682249086030480068401C2F499C
:103BD00008602E480068A842D8DB00201E49086013
:103BE00070BD10B504462BA000F036FB6FF05400FA
:103BF00024490860401C24490860FFF7BDF90020F3
:103C00002C49086014E003210F48FEF76BFDC82023
:103C1000FCF7F9FD0D480068B0F57A7F03D00B483A
:103C200000680B49086023480068401C214908606F
:103C300020480068A042E6DB0020124908601249D3
:103C40000860FFF799F910BD0044004038010020DA
:103C50003C0100200C010020480100204120737429
:103C60007261696768742070697463682D6272613B
:103C70006B652069732068617070656E696E670A94
:103C800000000000AC000020B00000201001002067
:103C90009400002041207374726169676874206227
:103CA00072616B652069732068617070656E696E02
:103CB000670A0000140100207FB505460C4601216B
:103CC0000420FDF76EFCADF80850ADF8044000206C
:103CD000ADF80A00ADF8060001A9E148FDF78CFD3A
:103CE00001221146DE48FEF7FEF81E208DF8000086
:103CF00003208DF801008DF8020001208DF80300EB
:103D00006846FDF72EF80121D548FEF7D1F87FBDB2
:103D100010B50121D248FEF794FB002870D0D1489D
:103D2000006800286DD0D0480068B0F57A7F03D0D5
:103D3000CD480068CD490860CB480068CC49096887
:103D40004942884205DBC8480068C9490968884279
:103D50007BDDC5480068C00FC64909684843C249B1
:103D60000968002901DD012100E00021012202FB98
:103D70000100C1490860BC480068C00FBF4909681C
:103D80004843B9490968002901DD012100E000210B
:103D9000012202FB0100BA490860B3480068B0F58F
:103DA0007A7F23D1B1480068C00FB24909684843FF
:103DB000AE490968002901DD012100E0002101224E
:103DC00002FB0100AC490860A8480068C00FAB497D
:103DD00009684843A5490968002901DD012100E07F
:103DE0000021012202FB0100A5490860FFF7C4F889
:103DF0009D480068002805DA9B480068404203E0BF
:103E000094E02DE098480068994909684900884283
:103E100003DA9620FCF7F7FC17E0934800680028C7
:103E200003DA91480068404201E08F4800689049F9
:103E3000096801EB4101884203DAC820FCF7E3FC82
:103E400003E04FF49670FCF7DEFC00208A4908601E
:103E50008B490860FFF790F803218A48FEF742FC7F
:103E60008948006800285DD088480068884909684A
:103E7000884206DC854800688549096849428842CD
:103E800049DA82480068002801DD012000E00020B6
:103E90007849096848437D490968C90F012202FB36
:103EA00001007549086079480068C00F73490968C6
:103EB000484376490968002901DD012100E000211D
:103EC000012202FB01006E490860FFF755F86F48B8
:103ED0000068002803DA6D480068404201E06B4842
:103EE0000068052803DAB420FCF78DFC13E067486E
:103EF0000068002803DA65480068404201E0634832
:103F000000680F2803DAC820FCF77DFC03E04FF4BB
:103F10009670FCF778FC0020574908605849086003
:103F2000FFF72AF801214E48FEF79CFA10BD2DE953
:103F3000F84304468946E078232806D0242845D053
:103F400025285ED026287DD141E0207900066179C0
:103F500000EB0140A17900EB0120E17908444D49D3
:103F600008600968484201F00FF980464A4901F0AB
:103F70002DF80746494901F053F90646484901F032
:103F800025F8054601F0E4F846490860207A000665
:103F9000617A00EB0140A17A00EB0120E17A08444C
:103FA000414908603F48006838490968401A3F495C
:103FB0000860207B0006617B00EB0140A17B00EBE9
:103FC0000120E17B08443A49086045E044E020795B
:103FD0000006617900EB0140A17900EB0120E17955
:103FE0000844404233490860207A0006617A00EBB9
:103FF0000140A17A00EB0120E17A08441A490860E7
:104000002AE02D480068401C2B49086020790006F2
:10401000617900EB0140A17900EB0120E1790844CE
:10402000264908600846007840300090084600683D
:10403000402202EB206121480088C0F3072340336F
:104040001E4800E007E00068C0F3074240321CA0B1
:1040500000F002F900E000BF00BFBDE8F8830000F7
:104060000008004018010020380100203C01002019
:10407000D4540008D8540008AC000020DC540008D8
:10408000B000002000440040F40000209800002010
:10409000C85400081C010020560E4940000034435B
:1040A00000007A4420010020240100202801002083
:1040B0003001002034010020400100202C010020AC
:1040C000487964726F736E61707065723A2025630F
:1040D0002C25632C25632C25630A00002DE9FC5F49
:1040E00004460D462068461B606901F04DF8834682
:1040F000E16801F095F88146206901F045F80090EB
:10410000A16801F08DF88346304601F03DF800903B
:10411000616801F085F85946019001F057F982462F
:10412000494600F0E5FE804601F012F80746206996
:10413000606126613846BDE8FC9F01607047002140
:1041400001614161704741608260C360704700B5A2
:10415000324801683248FFF7F0FF324801683248C0
:10416000FFF7EBFF314B324A32492D48FFF7EBFFA7
:104170000023314A4FF082412B48FFF7E4FF2848E3
:10418000FFF7DDFF2848FFF7DAFF00BD10B5002478
:104190001DE02A48806823490968081A28490860F0
:1041A0000846006827490968884206DC24480068F8
:1041B000244909684942884201DA002400E0641C6D
:1041C000052C00D104E04FF47A70FCF71CFBE0E70B
:1041D00000BF10BD10B500241DE0104800681A494A
:1041E0000968401A194908600846006818490968B2
:1041F000884206DC1548006815490968494288422A
:1042000001DA002400E0641C032C00D104E04FF428
:104210007A70FCF7F8FAE0E700BF10BD4801002013
:10422000080400204401002020040020CDCCCC3D17
:104230000AD7A33C9A99993E9A99193FE403002022
:1042400050010020CC5400089400002054010020AC
:10425000D0540008704700000FB4044910B503AAF9
:10426000029800F013F910BC5DF814FB4800002020
:104270002DE9F0410E460446002020622046E16808
:10428000884730B3252805D0D4E901219047206A1A
:10429000401CF2E7E168204600278847050018D057
:1042A000A5F14100192802D820354FF400673246A5
:1042B000294620462760FBF795FF40B1012804D02E
:1042C000F61D26F007060836D8E7361DD6E728463D
:1042D000DAE7206ABDE8F08170B50C460546012A90
:1042E00005D02878800600D5EA69002302E0012382
:1042F00005E05B1C934202D2E05C0028F9D1A8697A
:10430000E618C01AA861286A184428622846AFF344
:10431000008004E0D5E9012114F8010B9047B44274
:10432000F8D32846AFF3008070BD00002DE9F041BE
:104330000646002410687529314616A510D0AFF343
:104340000080002802DA404213A507E031688A079E
:1043500001D512A502E0490704D511A5012401E009
:10436000AFF3008000210A2206F1240709E0B0FB28
:10437000F2FCB0FBF2F302FB1C003030785418461C
:10438000491C0028F3D123462A463046BDE8F041B7
:1043900000F00CB8000000002D0000002B00000011
:1043A0002000000070477047704770472DE9F047C4
:1043B0000D4699469246044600F124080168880695
:1043C00004D5E06921F01001216000E00120A8423D
:1043D00001DD471B00E00027A1697A1902EB090003
:1043E000081AA0612078C00602D42046AFF30080EE
:1043F000002608E0D4E901211AF806009047206A57
:10440000401C761C20624E45F4DB2078C0060AD59D
:104410002046AFF3008006E0D4E901213020904728
:10442000206A401C2062381EA7F10107F4DC07E077
:10443000D4E9012118F805009047206A401C206249
:10444000281EA5F10105F3DC2046AFF3008020789B
:10445000000602D50220BDE8F0870120FBE710B579
:10446000436913B1AFF3008001E0FFF735FF01208E
:1044700010BD127800F124010A7000224A70012256
:10448000EDE711684FF0FF32E9E70000074B70B528
:104490000D467B4400F011F80446284600F020F851
:1044A00010B14FF0FF3070BD204670BDD1C3FFFF8B
:1044B00001694A1C02610878704700B58FB0CDE9E8
:1044C00001310021059105497944CDE903101146D8
:1044D0006846FFF7CDFE0FB000BD0000E5FFFFFF0F
:1044E000007B00F080007047754600F029F8AE466A
:1044F00005006946534620F00700854618B020B5F0
:10450000FCF718FCBDE820404FF000064FF0000714
:104510004FF000084FF0000B21F00701AC46ACE86B
:10452000C009ACE8C009ACE8C009ACE8C0098D46D8
:1045300070470446AFF300802046FBF768FE00009A
:10454000004870473804002021F00042A2F1605278
:10455000B2F5801F01F0004328BFD2F17F6C0BD968
:104560005FEA001C43EAC20242EB507018BF70477A
:1045700028BF20F001007047B2F5801FBCBF18466D
:1045800070474FEA410C1CF5001F02D2084600F0AC
:104590000EBF70B500F042FB00000089FFF7F6BFC8
:1045A0004FF00040A0F580007047000010B591EA80
:1045B000030F48BF83F0004300F18C83841A71EB32
:1045C000030C05D2121943EB0C03001B61EB0C0129
:1045D000DFF824E14FEA1154A4EB135C1EEA430F09
:1045E00018BF9EEA445F73D023EA0E03DCF1200E6D
:1045F00021EA045143F4801332D322FA0CFE10EB6B
:104600000E0023FA0CFE41EB0E01CCF1200E03FA52
:104610000EFE10EB0E0051F10001B1F5801FCCF140
:10462000200E32D201EB045112FA0EF2BDE8104016
:1046300058BF7047401C38BF5FEA420218BF70473E
:10464000002814BF20F0010041F100014FEA4103AE
:1046500013F5001F38BF7047A1F1C04100F02CBB1B
:10466000012A43EB0302ACF1200CDCF11F0E32BF38
:104670004FF0000E23FA0CF310EB030041EB045152
:10468000B4EB115FD0D0A1EB045101F580114908C2
:104690005FEA300001EB04510ED350F1000038BF47
:1046A00012FA0EFE08D1BDE81040C9E7401C38BF21
:1046B0005FEA4202CAD1C3E7BDE810404FEA4103B6
:1046C00013F5001F38BF7047A1F1C04100F0F4BAE4
:1046D0009EEA445F08D011EA5E0FBDE8104004BFB7
:1046E00001F0004100207047BDE8104070B500F0B7
:1046F00095FA00BF64FBBE3E0000E0FF491058BFC2
:10470000C1F140415B1058BFC3F140438B42EFF30E
:10471000008070472DE9C04130B4DFF8A0C23CEA08
:10472000111418BF3CEA131400F0EC8081EA030571
:104730001CEA111444EAD57418BF1CEA131500F0E2
:10474000C780A4EB05044FF0004545EAC12145EAC6
:10475000C32341EA505143EA525304F17F74994212
:1047600004F500344FEAC0204FEAC22208BF90424D
:1047700000F09C804FEA13650FF24016765D4FEA19
:10478000134506FB05F7C7F1807706FB07F74FEAED
:10479000D737A7FB03687642C8F58038A7FB06CE5B
:1047A00038BFA8F1010807FB08E64FF0000EA6FB92
:1047B000028CE6FB03CEDCF1000CCEF1004E38BFDC
:1047C000AEF1010EA6FB0C584FF000074FF00005AC
:1047D000E6FB0E87A1FB08C6A0FB07CE16EB0E0674
:1047E00045F10005E1FB076515F1E04E7EBFA4F53C
:1047F00080345FEA46066D4116F1800745F10005F9
:104800004FEA17274FEA066647EA0567A6F1DE4634
:10481000B6F1805F4FEA15251FD9384624F0010C08
:1048200005EBC471BCF1FE6F01EB0C1102D8F0BCBA
:10483000BDE8008124425CBF01F5801E9EEAC47F72
:1048400002D4F0BCBDE80081244238D4F0BCA1F110
:10485000C041BDE8004100F02FBA4FEAD22242EA3F
:1048600043524FEAD323A7FB02864FEAD02040EA07
:10487000415007FB03661EEA0E0F4FEAD12105FBEC
:10488000026658BFA6EB0056B6EB00564FEA520E32
:104890004EEAC37E18EB0E0E56EB530EBDD518EB49
:1048A00002085E417F1C55F10005B6E74FF4801504
:1048B0004FF000074FF000064FF00008ADE7F0BCE6
:1048C0004FF0000001F1C04101F00041BDE800815E
:1048D00011EA0C1F0CEA131500D00CE013EA0C1FB0
:1048E00000F025804FF00000F0BC81EA030101F0E8
:1048F0000041BDE80081F0BCBDE8004181EA030150
:1049000000F0DAB9F0BCBDE8004170B500F086F9FE
:10491000097EFC3E00F007B881EA03014FF0000079
:1049200001F00041704781EA030100F0C5B9F0BC15
:10493000BDE800414FF0000021497047FFFDFBF941
:10494000F7F5F4F2F0EEEDEBE9E8E6E4E3E1E0DEC2
:10495000DDDBDAD8D7D5D4D3D1D0CFCDCCCBCAC834
:10496000C7C6C5C4C2C1C0BFBEBDBCBBBAB9B8B75B
:10497000B6B5B4B3B2B1B0AFAEADACABAAA9A8A84E
:10498000A7A6A5A4A3A3A2A1A09F9F9E9D9C9C9B1C
:104990009A999998979796959594939392919190C7
:1049A0008F8F8E8E8D8C8C8B8B8A89898888878758
:1049B0008685858484838382828181800000FF07CD
:1049C0000000F87F4FEA41034FEA5353A3F5806399
:1049D000D3F11E03C8BFD3F1210C0CDD4FF0004210
:1049E00042EAC12242EA505232FA03FC8CEAE17CEC
:1049F000ACEBE1707047102BC4BF0020704703F58B
:104A0000787CBCF1FF3F04D06FF0004282EA2100C5
:104A1000704770B500F002F9499224800020704779
:104A2000F2E710F0004248BF4042B0FA80F310FABB
:104A300003F10AD0C3F11D0303F580634FEA41502F
:104A400002EB035202EBD12170474FF00000704798
:104A500051EA030C17D41CF5801F58BFBCF5801F0A
:104A600000F10680994218BF704708BF9042704716
:104A700007D711F5801F58BF13F5801F19D499422D
:104A80007047894270471CF5801F08D5BCF5801F10
:104A9000F7D58B4218BF704708BF824270474FF46A
:104AA000001C1CEB410F38BF1CEB430F01D28B42A3
:104AB000704770B500F0B2F8922449004FF00051F1
:104AC0004FF08053FFF71ABEDFF848C170B51CEAFB
:104AD000111E1EBF1CEA13159EEA0C0F95EA0C0F5F
:104AE00000F06F8081EA030423EA4C134EEAD47E7F
:104AF00021EA4C1141F4801143F48013AE44A1FB30
:104B0000024CA0FB0365AEF17F7E361955EB0C0518
:104B1000A1FB034C4CF10003A0FB021C16EB0C069E
:104B2000654153F10003094218BF46F0010613F432
:104B3000007F0BD14FEA03314FEA0530340341EADD
:104B4000155140EA16506FF003020AE04FEAC32104
:104B50004FEAC520F40241EA555140EA56506FF041
:104B6000020202EB2E4201EB025585EACE710AD019
:104B70005FEA440C18BF24F0004450F1000041F1FA
:104B8000000120EAD47040F2FE7C624500D270BD84
:104B9000A84214BF4FF080444FF04044002E08BF9D
:104BA0000024BEF1806FA8BFA1F1C041BDE87040F4
:104BB00080F282804FF0000001F1C04101F000411D
:104BC00070479EEA0C0F0CEA131518BF95EA0C0FFC
:104BD00006D04FF0000081EA030E0EF0004170BDD8
:104BE00000F01CF88900013E00F007B800F009B899
:104BF0004FEA430C5FEA5C5C08D081EA030100F0F5
:104C00005BB84FEA410C5FEA5C5CF6D14FF0000004
:104C1000014970470000FF070000F87F0EF1020E07
:104C20002EF0030E5EF8046B364205D4012A43EBE6
:104C3000030515F5001F12D8012841EB010C1CF5E6
:104C4000001F0CD80ED14FEAD17C15F5001F0CEBDC
:104C50004C0C0CF1020C08BF4CEBD37C04E04FF081
:104C6000080C01E04FEAD37C0CEB4C0526FA05F664
:104C700006F00706B6F1040C06D20EEB860CBDE872
:104C800070404CF0010C6047DFE80CF0090B0202A9
:104C90004FF000414FF00000A1F5002170BD194612
:104CA0001046012851EB010418BFD4F5001484BF4D
:104CB000002001F0004170BD0808A0F500114FEA86
:104CC0003101704710B591EA030F48BF83F00043EC
:104CD0003FF574AC841A71EB030C07D212198CF0F7
:104CE000004C43EB0C03001B61EB0C01DFF8A4E16B
:104CF0004FEA1154A4EB135C1EEA430F18BF9EEA5F
:104D0000445F00F0B08023EA6E03524221EA04516E
:104D1000C3EB6E0338BF5B1EDCF1200E25D322FAF5
:104D20000CFE10EB0E0043FA0CFE41EB0E01CCF131
:104D3000200E03FA0EFE10EB0E0051F10001CCF133
:104D4000200E29D412FA0EF201EB0451BDE81040F6
:104D500058BF7047401C1CBFB2F1004F704700287D
:104D60000CBF491C20F00100704712EB020E43EB10
:104D7000030218BF4FF0010E4EEA4202ACF1200CC4
:104D8000DCF11E0E54D943FA0CFE10EB0E0051F16B
:104D9000FF31CCF11E0ED5D50EF1010E12FA0EFE2A
:104DA000404141EB010101EB445C5FEA5C5C10D9DE
:104DB00010EBDE7001EB045138BFBEF1004FBDE8CF
:104DC000104018BF704700280CBF491C20F001009C
:104DD000704730D24FEAD42C11F5001124F400644E
:104DE0001BD0B1FA81F20B3AA41AA41ED2F120030F
:104DF000914030FA03F31943904001EBCC71002C41
:104E000001EB0451BDE81040A8BF704701F1C0415B
:104E10004FF0000001F000417047B0FA80F310FA43
:104E200003F100D110BDE41A173C4805C90AE4E7B4
:104E300001EB045110BD491001EB0451BDE81040D5
:104E40004FEA300002E04FF0000170474A0008BF0F
:104E50000042F8D0B2F5001F28BF704701F00041B2
:104E60004FF0000070479EEA445F07D011EA5E0FE2
:104E7000BDE8104004BF002100207047BDE810408D
:104E800070B5FFF7CBFE00BF40DFF63E83F0004178
:104E9000104670470000E0FF43004FEAD30C4FEA92
:104EA0003C0C43401FBF40070CF1605113F0FE4F14
:104EB00070471CF0006F03D100200CF000417047D8
:104EC0000CF0004343EA507010B540EACC0000F00B
:104ED00028FA00BF000000924FEA0001FFF7ECBE85
:104EE0004FF000414FF00000A1F500217047000095
:104EF00090EA010F48BF81F0004100F16E82421A32
:104F00003CBF801A89184FEAD0524FF07F4C1CEA00
:104F1000410FA2EBD15318BF9CEA026F00F03B8017
:104F20004FF0004C4CEA00204CEA012121FA03FC2E
:104F300010EB0C0C1ED202F1FF325FEA1C2040EB9A
:104F4000C25038BF70471CF07F0F4FEA400C18BFAB
:104F5000BCF17F4F38BF7047C3F12003994008BFB1
:104F600020F00100BCF17F4F38BF7047A0F1C04076
:104F700000F01DBA4FEA3C00000A40EBC25028BFC7
:104F80001CF0FF0F4FEA400CE6D018BFBCF17F4F7A
:104F900038BF7047EAE79CEA026F05D010EA5C0F61
:104FA00008BF00F00040704710B500F0BAF900BF2C
:104FB00064FBBE3E401058BFC0F14040491058BF8E
:104FC000C1F140418142EFF3008070474FF47F0C04
:104FD0001CEAD0121EBF1CEAD11392EA0C0F93EA0E
:104FE0000C0F00F0858090EA010F48BF42F48072F8
:104FF00040F4000C41F400002CF07F4120F07F4091
:1050000000B58142A2EB03020FF2081CACEB504E3C
:10501000C0F100009EF800E04FEA4E0E00FB0EFCCF
:1050200038BF49004FEA2C1C02F5FA020CFB0EF3C4
:105030004FEACE1E4FEA112C4FEAC1210EEB635E00
:1050400042EB22420EFB0CFC4FEA1C5300FB031107
:105050004FEA112C4FEA01310EFB0CFC4FEADC4CFD
:1050600000FB0C11C14228BF09184CEB03335DF85B
:1050700004EB10EB410143EBC250B2F57C0F38BF9B
:10508000704729D512F0F00F1CBF00F1C04000F0AE
:1050900000407047008182838485868788898B8C55
:1050A0008D8E8F919293959697999A9C9D9FA0A291
:1050B000A3A5A7A8AAACAEB0B2B3B5B7B9BCBEC0E1
:1050C000C2C5C7C9CCCED1D4D7D9DCDFE2E6E9EC82
:1050D000F0F3F7FAFE0000004FEA400C0CF1807C80
:1050E000BCF17E4F28BF7047B0F1C04000F05FB9FF
:1050F00090EA010F0CEAD11348BF42F48072624576
:1051000038BF634507D213F47F0F16D080EA010041
:1051100000F00040704710B500F003F9097EFC3E36
:1051200000F005B880EA010000F00040704780EA16
:10513000010000F0004000F03AB912F47F0F04BF04
:105140000248704780EA010000F031B90000C07FDA
:1051500041000B0ED3F19E0208D950F400034FEA30
:10516000032323FA02F048BF4042704710B500F015
:10517000D8F800BF49922480002070476FF00042A9
:1051800082EA20007047000010F0004148BF404212
:10519000B0FA80F310FA03F2C3F19D030BD051EA89
:1051A000C35101EB1220530638BF704700F10100D4
:1051B00008BF20F00100704750EA010C00F1138095
:1051C0001CF5000F58BFBCF5000F01D48842704792
:1051D00007D710F5000F58BF11F5000F15D48842FE
:1051E0007047894270471CF5000F04D5BCF5000FCD
:1051F000F7D5814270474FF0807C1CEB400F38BFE1
:105200001CEB410F01D28142704710B500F089F8C4
:10521000922449004FF000504FF08051FFF7CABE72
:105220004FF47F0C1CEAD0121EBF1CEAD11392EA85
:105230000C0F93EA0C0F00F0478090EA010F48BF73
:1052400042F480724FF0004C4CEA00204CEA0121FD
:1052500002EB0302A0FB0113A2F50002002918BF14
:1052600043F001035B0028BF4FEA330342EB2242C5
:105270005FEA132C4CEBC2502EBFBCEB436FB2F570
:105280007C0F70474FEA036CBCF1004F08BF20F061
:105290000100B2F57C0F38BF70470BD582F0FF02DA
:1052A00012F5803FC8BF704700F1C040D8BF00F082
:1052B0000040704700F5000C5FEA4C0C48BF704797
:1052C000B0F1C04000F073B890EA010F0CEAD113BE
:1052D00048BF42F48072624538BF634504D280EA19
:1052E000010000F00040704710B500F01AF800BF50
:1052F0008900013E00F007B800F009B85FEA410CF0
:105300005FEA1C6C08D080EA010000F050B85FEA48
:10531000400C5FEA1C6CF6D14FF00040A0F5800015
:1053200070470EF1020E2EF0030E5EF8044B24427D
:1053300004D44FEA4102B2F17F4F11D84FEA400343
:10534000B3F17F4F0CD80ED14FEAD07CB2F17F4F32
:105350000CEB4C0C0CF1020C08BF4CEBD17C04E0C4
:105360004FF0080C01E04FEAD17C0CEB4C0324FA1F
:1053700003F404F00704B4F1040C06D20EEB840C21
:10538000BDE810404CF0010C6047DFE80CF0070866
:1053900002024FF00040A0F5800010BD0846420018
:1053A00018BFD2F1807288BF00F0004010BDFF210D
:1053B00041EAD050C005704780F0004090EA010FEC
:1053C0007FF59DAD81F0004100F007B890EA010F34
:1053D00048BF81F000413FF592AD421A04D882F0F7
:1053E0000042A0EB020011444FEAD0524FF07F4C34
:1053F0001CEA410FA2EBD15318BF9CEA026F4AD0BE
:105400004FF0004C4CEA00204CEA012121FA03FC49
:10541000B0EB0C0C0FD412F0FE0F36D05FEA4C004C
:105420001DD5001240EBC25038BF70471CF03F0F33
:1054300018BF70470BE0A2F101025FEA1C2040EBAD
:10544000C25038BF70471CF07F0F18BF7047C3F1C0
:105450002003994014BF401E20F0010070478008CF
:105460004FEA122308BF7047B0FA80FCA2EB0C028F
:10547000CCF1280C60FA0CF093EA122F04BF00EB79
:10548000C25070474FEAC3707047130A5FEADC10DE
:1054900008BF7047F6E79CEA026F04D010EA5C0F81
:1054A00008BF0020704710B5FFF73BFF40DFF63E16
:1054B00081F0004070470000140000000A00000066
:1054C000CDCC4CBD640000000A00000001000000CB
:1054D0000800000032000000ABFFFFFFACFFFFFF41
:1054E0000055000800000020580100006C01000871
:1054F000305500085801002040090000C80100088C
:105500008182017CA24A0414680802030406070889
:105510000920091204320CD5ECFFFFFF2939693D3F
:10552000053B020406087CFFAA229B014C025F0691
:0400000508000131BD
:00000001FF
