:020000040800F2
:1000000050C0002045010008BD160008BF160008BA
:10001000C3160008C7160008CB1600080000000031
:10002000000000000000000000000000CF160008E3
:10003000D116000800000000D3160008D5160008ED
:100040005F0100085F0100085F0100085F01000810
:100050005F0100085F010008D71600085F01000873
:100060005F0100085F0100085F0100085F010008F0
:100070005F0100085F0100085F0100085F010008E0
:100080005F0100085F0100085F0100085F010008D0
:100090005F0100085F0100085F0100085F010008C0
:1000A0005F0100085F0100085F0100085F010008B0
:1000B0005F0100085F0100085F0100085F010008A0
:1000C0005F0100085F0100085F0100085F01000890
:1000D0005F0100085F0100085F0100085F01000880
:1000E0005F0100085F0100085F0100085F01000870
:1000F0005F0100085F0100085F0100085F01000860
:100100005F0100085F0100085F0100085F0100084F
:100110005F0100085F0100085F0100085F0100083F
:100120005F0100085F0100085F0100085F0100082F
:10013000DFF80CD002F0E2FB004800475916000837
:1001400050C000200648804706480047FEE7FEE70B
:10015000FEE7FEE7FEE7FEE7FEE7FEE7FEE7FEE777
:1001600045020008310100080CB500200190009004
:100170006B48006840F480306949086000BF6848F7
:10018000006800F4003000900198401C0190009835
:1001900018B90198B0F5A06FF1D16148006810F46A
:1001A000003F02D00120009001E000200090009864
:1001B000012842D15B48006840F0100059490860AE
:1001C0000846006820F0030008600846006840F018
:1001D000020008605248406851494860084640683B
:1001E00048600846406840F48060486008464068BF
:1001F00020F47C1048600846406840F4E8104860ED
:100200000846006840F08070086000BF44480068FD
:1002100010F0007FFAD04248406820F003004049C7
:1002200048600846406840F00200486000BF3C4813
:10023000406800F00C000828F9D10CBD10B5FFF79C
:1002400093FF10BD10B53648006840F001003449F6
:10025000086008464068344908403149486008460B
:100260000068324908402E4908600846006820F4BA
:10027000802008600846406820F4FE0048604FF483
:100280001F008860FFF7DAFF4FF000602849086020
:1002900010BD10B5002100200022214B5B6803F047
:1002A0000C0121B1042906D0082928D107E0214BEF
:1002B000214C236027E01F4B1F4C236023E0184B89
:1002C0005B6803F47010164B5B6803F48032022302
:1002D00003EB904022B9194B4343174C23600DE0C8
:1002E0000F4B5B6813F4003F04D0144B4343124C94
:1002F000236003E00F4B43430F4C236003E00D4B9F
:100300000D4C236000BF00BF054B5B68C3F30313B4
:100310000B4CE15C084B1B68CB40074C236010BDC5
:1003200000100240002002400000FFF8FFFFF6FE30
:1003300008ED00E000127A000000002000093D00F6
:100340000400002031490143314A1160704770B503
:10035000002100230F22C4780CB32D4C246804F430
:10036000E064C4F5E064210AC1F10403CA404478A2
:1003700004FA03F18478144021430901254C0678DE
:10038000A155047804F01F050124AC4005786D11D7
:100390004FF0E02606EB8505C5F8004109E004783A
:1003A00004F01F050124AC401B4D0678761145F87A
:1003B000264070BD194A0A400243154B1B1F1A60A4
:1003C000704739B1124A121D12680243104B1B1DAF
:1003D0001A6006E00E4A121D126882430C4B1B1D68
:1003E0001A607047042808D14FF0E021096941F0F4
:1003F00004014FF0E022116107E04FF0E0210969AC
:1004000021F004014FF0E022116170470000FA056D
:100410000CED00E000E400E080E100E080FFFF1F61
:10042000002044490860091D0860091D0860091D75
:10043000086041483F4914310860704700213D4938
:100440008279002A3AD00A46126803689A430B461A
:100450001A600A1D126803689A430B1D1A6002791C
:1004600011440A6803681A430A60324A0832126863
:1004700003689A432F4B08331A601A1D12680368E9
:100480009A432C4B0C331A604279102A0ED11A1F52
:10049000126803681A43274B08331A601A1D126842
:1004A00003681A43234B0C331A600DE0214942794B
:1004B00011440A6803681A430A6005E0027911448E
:1004C0000A6803689A430A6070470021016001715D
:1004D0000C21417100218171704716491031096862
:1004E0000143144A10321160704701460020114A3E
:1004F000143212680A4201D0012000E00020704747
:100500000C49143108607047014600200022094B55
:100510001B6803EA0102074B14331B680B4202D02D
:100520000AB1012000E00020704702491431086040
:100530007047000000040140FFFF0F0030B943F294
:10054000DB014FF0204242F8201005E043F2D201D7
:100550004FF0204242F820106FF07042411C4FF0E3
:10056000204343F8212011461A4602EB8002C2F8CC
:100570000411704710280AD118214FF0204211664B
:10058000402151664FF0FC319166D16610E0182190
:10059000F84A11604FF040014FF02042C2F8841039
:1005A0004FF0FC31F44A11604FF02042C2F88C1039
:1005B00070471820F14908604FF000004FF02041CB
:1005C000C1F8A4004FF0FC30ED49086001F10401CE
:1005D000086001F1040108607047D0E9011211437D
:1005E000C268114302691143426911438269114390
:1005F000C2691143026A1143426A1143826A11437C
:10060000C26A1143026B11434FF02043026843F862
:1006100022108168082908D11A46016852F8211071
:1006200041F04001026843F82210416B0968426BB7
:10063000526841EA0211426B926841EA0221426B20
:10064000928941EA0241426B128A41EA0251426BAD
:10065000127D41EA0261426B926911430268521CA9
:100660004FF0204343F82210C16AB1F5804F1AD1F0
:10067000816B0968826B526841EA0211826B926851
:1006800041EA0221826B128A41EA0251826B127D99
:1006900041EA0261826B92691143026803EB8202B4
:1006A000C2F8041108E06FF070414FF02043026877
:1006B00003EB8202C2F80411704730B5002100221A
:1006C0000023446844F0080485682C43C5682C4323
:1006D00005692C43456944EA4524856944EA453166
:1006E000C4692468C5696D6844EA0524C5692D8913
:1006F00044EA0544C5692D7B44EA0562046A24681E
:10070000056A6D6844EA0524056A2D8944EA0544B2
:10071000056A2D7B44EA05630468102C05D14FF06F
:1007200020442166A266E36607E0924C21604FF008
:100730002044C4F88820934C236030BD016841F008
:100740001001426841EA4221826841EA42318B4A03
:100750001160C1680968C268526841EA0221C26832
:10076000128941EA0241C268127B41EA0261844A6D
:100770001160016909680269526841EA022102694F
:10078000128941EA02410269127B41EA02617E4A12
:100790001160416909684269526841EA022142696F
:1007A000128941EA02414269127B41EA02614FF03B
:1007B0002042C2F8B0107047002101600221416060
:1007C00000218160C160016141618161C16101629B
:1007D0004FF480514162490081620021C16201638E
:1007E0000F21426B1160426B5160FF21426B91609F
:1007F0000F21426BD160426B1161426B516100214C
:10080000426B91610F21826B1160826B5160FF21FD
:10081000826B91600F21826BD160826B1161826B60
:1008200051610021826B91617047102101600021AC
:1008300041608160C160016141618161FC21C269E7
:100840001160C2695160C2699160C269D160026A77
:100850001160026A5160026A9160026AD160704759
:100860000021016041608160FC21C2681160C268A2
:100870005160C2689160C268D1600269116002690A
:100880005160026991600269D160426911604269F8
:100890005160426991604269D160704751B14FF037
:1008A000204252F8202042F001024FF0204343F84A
:1008B000202009E04FF0204252F82020334B1A400C
:1008C0004FF0204343F82020704799B1102808D1F9
:1008D0004FF02042126E42F004024FF020431A669D
:1008E0001DE0244A126842F004024FF02043C3F88E
:1008F000802014E0102809D14FF02042126E234BC3
:10090000DB1E1A404FF020431A6608E0194A1268AD
:100910001F4B02EA03024FF02043C3F880207047C8
:1009200040B11649096841F004014FF02042C2F875
:10093000A01008E011490968154A01EA02014FF0C8
:100940002042C2F8A010704799B1102808D14FF08A
:100950002042126E42F040024FF020431A662DE012
:10096000044A126842F040024FF02043C3F880204E
:1009700024E00FE0800000A0880000A0A00000A0FC
:10098000A80000A08C0000A0AC0000A0FEFF0F009B
:10099000FBFF0F00102808D14FF02042126E684B69
:1009A0001A404FF020431A6608E0664A1268644B0A
:1009B00002EA03024FF02043C3F88020704701464B
:1009C0000020102903D14FF02042506F01E05E4A11
:1009D0001068704710B5F2B1102807D14FF02043CE
:1009E0005B6E0B434FF02044636632E0B0F5807FCE
:1009F00008D1564B1B6843EA01034FF02044C4F86A
:100A0000843026E0524B1B6843EA01034FF0204438
:100A1000C4F8A4301DE0102807D14FF020435B6ECE
:100A20008B434FF02044636613E0B0F5807F08D11C
:100A3000464B1B6823EA01034FF02044C4F884307E
:100A400007E0434B1B6823EA01034FF02044C4F83E
:100A5000A43010BD10B5024600200023102A03D197
:100A60004FF02044636E07E0B2F5807F02D1374C2F
:100A7000236801E0364C23680B4201D0012000E0DE
:100A8000002010BD102807D14FF02042526E8A433B
:100A90004FF020435A6613E0B0F5807F08D12B4A0F
:100AA000126822EA01024FF02043C3F8842007E0D5
:100AB000274A126822EA01024FF02043C3F8A4201B
:100AC000704770B502460020002300240025102A3C
:100AD00003D14FF02046736E07E0B2F5807F02D15C
:100AE0001A4E336801E01A4E336803EA010403EA40
:100AF000D10514B10DB1012000E0002070BD102817
:100B000008D14FF02042526E22EAD1024FF020432A
:100B10005A6613E0B0F5807F08D10C4A126822EAC9
:100B2000D1024FF02043C3F8842007E0084A12683E
:100B300022EAD1024FF02043C3F8A42070470000FE
:100B4000BFFF0F00800000A0940000A0840000A060
:100B5000A40000A010B50446CA48844208D101216F
:100B6000042000F027FB0021042000F023FB46E0D6
:100B7000C548844208D10121082000F01BFB002158
:100B8000082000F017FB3AE0C048844208D1012158
:100B9000102000F00FFB0021102000F00BFB2EE0D6
:100BA000BB48844208D10121202000F003FB002132
:100BB000202000F0FFFA22E0B648844208D101214B
:100BC000402000F0F7FA0021402000F0F3FA16E090
:100BD000B148844208D10121802000F0EBFA0021C5
:100BE000802000F0E7FA0AE0AC48844207D10121F6
:100BF000801500F0DFFA0021A01500F0DBFA10BD2F
:100C000010B50121084600F0D5FA0021012000F0BE
:100C1000D1FA10BD2DE9F041024600250026002042
:100C200000230024002791F803C00CF00F0591F871
:100C300003C01CF0100F03D091F802C04CEA050568
:100C400091F800C0BCF1000F31D0146800202BE0F7
:100C50004FF0010C0CFA00F3B1F800C00CEA0306E7
:100C60009E4220D183004FF00F0C0CFA03F7BC43D7
:100C700005FA03FC4CEA040491F803C0BCF1280F08
:100C800006D14FF0010C0CFA00FCC2F814C00AE0C7
:100C900091F803C0BCF1480F05D14FF0010C0CFADC
:100CA00000FCC2F810C0401C0828D1D31460B1F871
:100CB00000C0BCF1FF0F34DD546800202EE000F1CD
:100CC000080C4FF0010808FA0CF3B1F800C00CEA68
:100CD00003069E4221D183004FF00F0C0CFA03F75C
:100CE000BC4305FA03FC4CEA040491F803C0BCF1D0
:100CF000280F05D100F1080C08FA0CF8C2F814808E
:100D000091F803C0BCF1480F07D100F1080C4FF077
:100D1000010808FA0CF8C2F81080401C0828CED34D
:100D20005460BDE8F0814FF6FF71018002218170AF
:100D30000421C17070470246002093680B4201D025
:100D4000012000E0002070470146886880B27047AB
:100D500002460020D3680B4201D0012000E00020B1
:100D600070470146C86880B27047016170474161B1
:100D700070470AB1016100E041617047C16070478E
:100D80004FF480320A4382618161826182698269A3
:100D9000704702460020424B18684FF68073184097
:100DA00040EA021008433E4B186070473D49C86155
:100DB0007047F0B50A46002300240021002500F00A
:100DC0000046B6F1004F02D1354EF16901E0344ED4
:100DD0007168C0F3034583B200F44016B6F5401FB6
:100DE00008D121F070612E4E766826F070662C4F87
:100DF0007E6012E000F48016B6F5801F06D103264F
:100E000006FA05F4A14341F0706106E0460D360193
:100E100003FA06F6B14341F0706122B1460D360186
:100E200003FA06F6314300F00046B6F1004F02D156
:100E30001B4EF16101E01A4E7160F0BD30B5002229
:100E40008B071C0F0F2303FA04F2154B08338C1089
:100E500053F824309343124C08348D1044F8253055
:100E600023468C1053F824308C07240F00FA04F426
:100E700023430B4C08348D1044F8253030BD0A490B
:100E80000860704700080140000C0140001001405C
:100E90000014014000180140001C014000200140E6
:100EA0000000014000002042DC002042DD480068D4
:100EB00040F00100DB49086008464068DA49084014
:100EC000D849486008460068D8490840D5490860B4
:100ED0000846006820F4802008600846406820F436
:100EE000FE0048604FF41F0088607047CD490968D4
:100EF00021F48031CB4A11601146096821F4802128
:100F00001160B0F5803F03D0B0F5802F0ED106E020
:100F1000C449096841F48031C24A116007E0C149FF
:100F2000096841F4A021BF4A116000E000BF00BF82
:100F3000704710B501460022002300204A11012A03
:100F400002D1B84C236806E0022A02D1B54C236ACC
:100F500001E0B44C636A01F01F02012494401C427A
:100F600001D0012000E0002010BD38B50020009025
:100F70000024002500BF3120FFF7DBFF0546009865
:100F8000401C00900098B0F5A06F01D0002DF2D069
:100F90003120FFF7CEFF08B1012400E000242046F5
:100FA00038BD014600209F4A106820F0F80040EA52
:100FB000C100106070479E490860704702460020DB
:100FC000984B586820F47C1042EA01031843954B73
:100FD0005860704796490866704701460020914A5C
:100FE000506820F003000843506070478D48406807
:100FF00000F00C007047014600208A4A506820F03B
:10100000F00008435060704701460020854A506850
:1010100020F4E06008435060704701460020814A98
:10102000506820F4605040EAC1005060704729B118
:101030007C4A527A02437B4B5A7204E0794A527AD4
:101040008243784B5A7270477A490860704701466C
:101050000020744A506820F44040084350607047B4
:101060000021754A11706F4A82F82010012802D0C1
:10107000042808D103E001216F4A117004E0052122
:101080006D4A117000E000BF00BF70476B490860F7
:1010900070476449096A0143624A116270476749AF
:1010A00044390860704730B5002100220024002335
:1010B0005C4D6D6805F00C0121B1042905D00829AB
:1010C00023D105E05E4D056022E05D4D05601FE027
:1010D000544D6D6805F47012524D6D6805F48034FE
:1010E000022505EB92421CB9564D554305600BE0B5
:1010F0004C4D6D6815F4003F03D0524D55430560CB
:1011000002E04F4D5543056002E04D4D056000BFC4
:1011100000BF444D6D6805F0F00109094A4D6B5C54
:101120000568DD4045603F4D6D6805F4E061090AE2
:10113000454D6B5C4568DD4085603A4D6D6805F452
:101140006051C90A404D6B5C4568DD40C560354D56
:101150006D6805F44041890B3C4D6B5CC568B5FB7F
:10116000F3F5056130BD29B12E4A526902432D4B7A
:101170005A6104E02B4A526982432A4B5A617047F4
:1011800029B1284A92690243264B9A6104E0254A14
:1011900092698243234B9A61704729B1214AD269EF
:1011A0000243204BDA6104E01E4AD26982431D4BA0
:1011B000DA61704729B11B4AD2680243194BDA60E1
:1011C00004E0184AD2688243164BDA60704729B1AE
:1011D000144A12690243134B1A6104E0114A12695E
:1011E0008243104B1A6170471449403908607047B8
:1011F0000F49C86470470B49C87170470948406A75
:1012000040F0807007494862704701460020054A57
:1012100092680A4201D0012000E000207047014995
:1012200088727047001002400000FFF8FFFFF6FED2
:1012300000004242D8004242201002408004424254
:1012400000127A0000093D00140000202400002054
:1012500010B50446FB48844209D101218803FFF7F9
:10126000A9FF00214FF48040FFF7A4FF32E0F648C9
:10127000844209D101214804FFF7A9FF00214FF45E
:101280000030FFF7A4FF25E0F048844209D1012196
:101290008804FFF79CFF00214FF48020FFF797FFA1
:1012A00018E0EB48844209D10121C804FFF78FFF01
:1012B00000214FF40020FFF78AFF0BE0E54884424D
:1012C00008D101210805FFF782FF00214FF48010AB
:1012D000FFF77DFF10BD2DE9F04786B005460E46AD
:1012E0000024A24600BFA1460027B08900B100BF7C
:1012F0002F462C8A4CF6FF700440F08804432C8261
:10130000AC894EF6F3100440B088318908437189E6
:1013100008430443AC81AC8A4FF6FF400440B089D7
:101320000443AC8201A8FFF7BEFEC648874202D143
:10133000DDF810A001E0DDF80CA0A88910F4004F42
:1013400008D00AEBCA0000EB0A1031684900B0FB74
:10135000F1F807E00AEBCA0000EB0A1031688900D7
:10136000B0FBF1F86420B8FBF0F00401200964211F
:1013700001FB1089A88910F4004F08D0322000EB3F
:10138000C900B0FBF1F000F00700044308E0322090
:1013900000EB09106421B0FBF1F000F00F000443F2
:1013A0002C8106B0BDE8F0874FF416510160002192
:1013B0008180C18001810C214181002181817047A0
:1013C00010B502460020108A4FF2FF0318400B8828
:1013D0004C8823438C882343CC88234318431082B2
:1013E00010BD0021018041808180C180704721B102
:1013F000828942F40052828104E082894DF6FF73B3
:101400001A4082817047F0B503460024002600256B
:101410000020A1F510676A3F00D100BF1846C1F354
:10142000421401F01F06012707FA06F5012C01D12D
:101430000C3004E0022C01D1103000E014301AB15D
:1014400007682F43076002E00768AF430760F0BDFD
:101450001AB1838A0B43838202E0838A8B4383829F
:101460007047028A4FF6F0731A400282028A0A43DA
:101470000282704782894FF2FF731A40828182890B
:101480000A438281704721B1828942F0020282813F
:1014900004E082894FF6FD731A4082817047028A08
:1014A0004FF6DF731A400282028A0A4302827047B3
:1014B00021B1028A42F48042028204E0028A4BF6A1
:1014C000FF731A4002827047C1F30802828070479E
:1014D00001468888C0F308007047818941F0010106
:1014E00081817047028BD2B20283028B42EA0122D1
:1014F00002837047028B02F47F420283028B0A430D
:101500000283704721B1828A42F02002828204E085
:10151000828A4FF6DF731A408282704721B1828A35
:1015200042F01002828204E0828A4FF6EF731A4082
:101530008282704721B1828A42F00802828204E0EE
:10154000828A4FF6F7731A408282704721B18289EE
:1015500042F40042828103E08289C2F30E0282815A
:10156000704721B1828A42F40062828204E0828A5A
:101570004FF2FF731A4082827047828A4FF6FB73E4
:101580001A408282828A0A438282704721B1828A0B
:1015900042F00202828204E0828A4FF6FD731A4012
:1015A0008282704702460020B1F5007F00D100BF63
:1015B00013880B4201D0012000E00020704701F4A5
:1015C0000072B2F5007F00D100BFCA4302807047AD
:1015D00070B502460024002300250020A1F5106606
:1015E0006A3E00D100BFC1F3421501F01F0301267E
:1015F00006FA03F3012D02D19689334006E0022D4D
:1016000002D1168A334001E0968A33400C1201263B
:1016100006FA04F41688344013B10CB1012000E03E
:10162000002070BD10B500220023A1F510646A3CB3
:1016300000D100BF0A1201249440A3B2DC4304800D
:1016400010BD000000380140004400400048004048
:10165000004C00400050004000F0F7F900F06AFD37
:1016600000F070FA00BF00F0B9FA0128FBD100F0D9
:10167000ADFA00200E49087019E00D4800780228E4
:1016800015D100BF04200B49086020200A49486199
:10169000086104200749091F0860202006494861A5
:1016A000086100BF00F0CAFA002001490870E4E7B1
:1016B000C30000201408014000100140704700BF23
:1016C000FEE700BFFEE700BFFEE700BFFEE7704792
:1016D00070477047704710B50120FEF715FF08B33B
:1016E0001148007880B9202010490860082010496E
:1016F000086001200C49087008200D49086020206E
:101700000A49091F08600AE007480078012806D145
:1017100008200749091D08600220034908700120BC
:10172000FEF703FF10BD0000C3000020140C0140B1
:101730001014014001B502E00098401E009000988E
:101740000028F9D108BD08B501210802FFF70BFDFB
:1017500001216820FFF714FD10208DF803000320FD
:101760008DF802000220ADF800006946C248FFF77C
:1017700051FA0220ADF800006946C048FFF74AFA66
:1017800003208DF8020018208DF803004CF203703E
:10179000ADF800006946BA48FFF73CFA4FF6807092
:1017A000ADF800006946B548FFF734FA1020ADF8EF
:1017B00000006946B248FFF72DFA2020ADF800007E
:1017C0006946AF48FFF726FA8020ADF80000694669
:1017D000AB48FFF71FFA4FF40060ADF80000694610
:1017E000A748FFF717FA0221A348FFF7C0FA08BD80
:1017F00000B597B0022001900020029005200390D0
:1018000000200490059006904FF080500790002033
:101810000890099008200A9010200B9000200C904E
:101820000E900F9010904FF4805011900020129065
:101830001390149001A81590169008A8FEF7CDFEFD
:1018400001210020FFF72AF817B000BD10B50221D2
:101850008A48FFF78CFA8B48FFF76CFF0221874814
:10186000FFF783FA8748FFF765FF10BD00B5CF206B
:101870004FF0C04108800020834908808120088003
:1018800030200880ED204FF0C041088064207E4960
:101890000880032008801220088081200880E8202A
:1018A0004FF0C041088085207749088010200880CB
:1018B00078200880CB2041070880392072490880B1
:1018C0002C20088000200880342008800220088016
:1018D000F7204FF0C041088020206B490880EA20A3
:1018E0004FF0C04108800020674908800880B1207F
:1018F0004FF0C04108800020634908801B20088009
:10190000B620010708800A205F490880A2200880CD
:10191000C020C105088035205B490880C1204FF0F8
:10192000C0410880112058490880C5204FF0C041AF
:1019300008804520544908800880C7204FF0C041E6
:101940000880A22050490880F2204FF0C041088052
:1019500000204D49088026200107088001204A49BF
:101960000880E0204FF0C04108800F2046490880E1
:1019700026200880242008800B2008800E20088064
:101980000920088054200880A8200880462008806C
:101990000C20088017200880092008800F2008806C
:1019A0000720088000200880E1204FF0C041088017
:1019B000002035490880192008801B200880042059
:1019C000088010200880072008802A2008804720EF
:1019D00008803920088003200880062008800880BD
:1019E00030200880382008800F200880362001072A
:1019F00008806820244908802A204FF0C0410880D0
:101A00000020214908800880012008803F200880AC
:101A10002B204107088000201B490880088008808F
:101A2000EF2008803A204FF0C04108805520164929
:101A3000088011204FF0C04108801248FFF77AFE5D
:101A400029204FF0C041088000BD10B5FFF77BFE94
:101A5000FFF7CEFEFFF7FAFEFFF708FF2C20C106C6
:101A60000880002404E04FF4784007490880641C93
:101A7000B4F5963FF7D310BD000C014000180140AB
:101A800000140140FCBF020000000260034618463B
:101A9000814200DD0846824200DD10467047034661
:101AA0001846814200DA0846824200DA1046704742
:101AB00008B501213C20FFF763FB10208DF80300DF
:101AC00003208DF802004FF48070ADF800006946E5
:101AD000D648FFF79FF84FF48071D448FFF745F9D7
:101AE0000820ADF800006946D148FFF793F82020A0
:101AF000ADF800006946CF48FFF78CF80C20ADF830
:101B000000006946C948FFF785F82020ADF80000BD
:101B10006946C948FFF77EF84FF47F40ADF80000F2
:101B200004208DF8030003208DF802006946C148A7
:101B3000FFF770F80820BD4914310860BC49103126
:101B4000086008BD10B500F08FF9FFF7B1FF10BDB8
:101B500008B501210420FFF713FB0120ADF80000B8
:101B600004208DF8030003208DF802006946AF4879
:101B7000FFF750F808BD08B54FF4C060FEF7E2FB70
:101B800006208DF8000000208DF8010001208DF85E
:101B900002008DF803006846FEF7D9FB08BD1CB5AE
:101BA00000210846FFF74AF90120009000208DF837
:101BB00004000C208DF8050001208DF80600684611
:101BC000FEF73CFC0120FEF788FC1CBD10B5FFF7BA
:101BD000BFFFFFF7E4FFFFF7CEFF10BD38B50024CD
:101BE000002000908021122000F044FA08B9002063
:101BF00038BD0B220121684600F05CFA08B90020CC
:101C0000F6E79DF80000212814D100240DE08B4A4E
:101C100002EB44025178894A12F8140000F02AFAC3
:101C200008B90020E4E7601C84B28548007884424B
:101C3000EDDB01E00020DBE70120D9E72DE9F04FE3
:101C4000ADF5077D002085908490782166A800F08E
:101C5000F4FC782148A800F0F0FC74212BA800F0D7
:101C6000ECFC784800682A9074210DA800F0E5FC8F
:101C70007448001D00680C9000200B900A902820EA
:101C800009901E200890002007900127804601201F
:101C9000049000200390002485E000257DE000BF33
:101CA0004FF0000A2020644948616248083000680B
:101CB00000F47F4A2020086148615E4808300068CF
:101CC000C0F3072040EA0A0A2020086100BFE2179B
:101CD00004EB92729210B4EB82025BD1EA1705EB2F
:101CE00092729210B5EB820254D12046E11704EBB8
:101CF0009171C1F38F062846E91705EB9171C1F385
:101D00008F0906EB8600504901EB401020F819A01E
:101D10004FEADA20C10006EB86024C4800EB0210C5
:101D200000F80910CAF34510810006EB8602484806
:101D300000EB021000F809104FEACA60410E06EBF2
:101D40008602444800EB021000F8091006EB8602F8
:101D50003E4901EB021111F8090000F047FD06EBC6
:101D600086013D4A02EB811141F8290006EB86010C
:101D700002EB811151F82900384900F05FFD09D2CA
:101D8000CB447F1C48F10008069830440690049824
:101D9000401C049005F1010085B2B5F5A07FFFF667
:101DA0007EAF601C84B2F02CFFF677AF3A46434614
:101DB0005846002100F009FCCDE9000100F01BFDB0
:101DC000029000F026FDC0B20990002423E0002517
:101DD0001CE03C2C15DA502D13DA0898844202D00E
:101DE0000998854203D100201D4908800CE004EBCE
:101DF0008400154901EB401030F81500184908809F
:101E000002E0002016490880681C85B2B5F5A07F65
:101E1000DFDB601C84B2F02CD9DB12480999FFF794
:101E200053FB0DF5077DBDE8F08F00000008014071
:101E300000140140000C0140001001402800002067
:101E4000C200002040290008CC0000204C260020C1
:101E50000C390020CC4B00208C5E00200000A543F4
:101E6000000002600038014008B501211020FFF792
:101E700087F9C020ADF8000003208DF8020014207F
:101E80008DF803006946AA48FEF7C4FE08BD4FF46A
:101E9000C87001E0411E88B20028FBD1704710B520
:101EA0008021A348FEF761FF4021A148FEF75DFFB6
:101EB000FFF7EDFF80219E48FEF73DFF08B90020A7
:101EC00010BD80219A48FEF752FFFFF7E0FF802106
:101ED0009748FEF730FF08B10020F1E780219448D1
:101EE000FEF745FFFFF7D3FF0120E9E710B54021DA
:101EF0008F48FEF73CFFFFF7CAFF80218C48FEF7B2
:101F000036FFFFF7C4FF40218948FEF72EFFFFF799
:101F1000BEFF80218648FEF728FFFFF7B8FF10BDFF
:101F200010B540218248FEF722FFFFF7B0FF802165
:101F30007F48FEF71CFFFFF7AAFF40217C48FEF711
:101F400014FFFFF7A4FF40217948FEF710FFFFF7C9
:101F50009EFF10BD10B540217548FEF708FFFFF742
:101F600096FF80217248FEF700FFFFF790FF4021A7
:101F70006F48FEF7FAFEFFF78AFF40216C48FEF734
:101F8000F6FEFFF784FF10BD10B540216848FEF74C
:101F9000EEFEFFF77CFF80216548FEF7E6FEFFF7C7
:101FA00076FF40216248FEF7E0FEFFF770FF8021D8
:101FB0005F48FEF7C0FE28B140215D48FEF7D7FE1E
:101FC000002010BD40215A48FEF7D1FE0120F8E75D
:101FD00070B5044608251BE040215548FEF7C7FEB2
:101FE000FFF755FF14F0800F04D080215048FEF712
:101FF000BCFE03E080214E48FEF7B9FE6006040EE9
:10200000FFF745FF40214A48FEF7AFFEFFF73FFFCD
:102010002800A5F10101CDB2DED140214448FEF7F0
:10202000A6FE70BD70B50825002480214048FEF74B
:102030009CFE14E06006040E40213D48FEF797FE2A
:10204000FFF725FF40213A48FEF78FFEFFF71FFFFD
:1020500080213748FEF76FFE08B144F001042800E4
:10206000A5F10101CDB2E5D140213148FEF77FFE57
:10207000204670BD70B504460D46FFF710FF08B945
:10208000002070BD4220FFF7A3FFFFF77DFF18B9C6
:10209000FFF72CFF0020F4E7E0B2FFF799FFFFF70E
:1020A00073FF2846FFF794FFFFF76EFFFFF71EFF51
:1020B0000120E6E770B505460C461646FFF7EFFE31
:1020C00008B9002070BD4220FFF782FFFFF75CFFD8
:1020D00018B9FFF70BFF0020F4E73046FFF778FF51
:1020E000FFF752FFFFF702FFFFF7D9FE08B9002004
:1020F000E8E74320FFF76CFFFFF746FF18B9FFF74B
:10210000F5FE0020DEE70CE0FFF78CFF2870012CC5
:1021100002D1FFF71FFF01E0FFF702FF6D1C601EF9
:1021200084B2002CF0D1FFF7E1FE0120CAE70000E5
:102130000010014000B585B0012144F20400FFF712
:102140001FF84FF40070ADF8100018208DF8130040
:1021500003208DF8120004A9FB48FEF75BFD4FF445
:102160008060ADF8100004208DF8130004A9F64833
:10217000FEF750FD4FF4E13000900020ADF8040070
:10218000ADF80600ADF80800ADF80C000C20ADF875
:102190000A006946ED48FFF79EF80121EB48FFF77A
:1021A00026F905B000BD00B585B001210420FEF779
:1021B000E7FF01214804FEF7F0FF0420ADF810000E
:1021C00018208DF8130003208DF8120004A9DE48B2
:1021D000FEF720FD0820ADF8100004208DF8130054
:1021E00004A9D948FEF716FD4FF4165000900020C0
:1021F000ADF80400ADF80600ADF80800ADF80C002D
:102200000C20ADF80A006946D148FFF764F80122B6
:1022100040F22551CE48FFF7F6F80121CC48FFF7F0
:10222000E6F805B000BD00B585B001210820FEF735
:10223000A7FF01218804FEF7B0FF4FF48060ADF8DE
:10224000100018208DF8130003208DF8120004A947
:10225000C048FEF7DFFC4FF40060ADF8100004202A
:102260008DF8130004A9BB48FEF7D4FC4FF41650B8
:1022700000900020ADF80400ADF80600ADF80800AD
:10228000ADF80C000C20ADF80A006946B248FFF723
:1022900022F8012240F22551AF48FFF7B4F801219E
:1022A000AD48FFF7A4F805B000BD2DE9F05F054685
:1022B0000E46300100F09AFA8146A84905FB01F06C
:1022C00000F094FA8246494600F050FA0746384634
:1022D00000F09FFA84B2204600F088FA834639461F
:1022E00000F00BFA82464FF0834100F009FA814674
:1022F00000F08FFA80464FF6FF7000EA041404EBFA
:10230000080084B29648806940F0100094498861C2
:102310000846C06940F40020C8619248406820F433
:102320007F40904948600846406840F40B40486050
:102330008B48006940F4002089490861084600691B
:1023400020F40020086188480480001D008842F2C3
:102350000C0108438449091D08800846008840F4A0
:10236000807008800846008840F020000880BDE8A2
:10237000F09F08B54FF44070FDF7E4FF25208DF87D
:10238000000002208DF8010001208DF802008DF878
:1023900003006846FDF7DBFF26208DF800000020D3
:1023A0008DF8010001208DF802008DF803006846C9
:1023B000FDF7CDFF27208DF8000001208DF80100EA
:1023C0008DF802008DF803006846FDF7C0FF342049
:1023D0008DF8000000208DF8010001208DF802002A
:1023E0008DF803006846FDF7B2FF08BD70B50446DE
:1023F0000D46E1B25548FFF767F800BF402153484A
:10240000FFF7D0F80028F9D0204670BD10B504467B
:1024100000BF20214D48FFF7C5F80028F9D04B48F0
:10242000FFF756F810BDF0B503460D4616460027D7
:1024300029460A2E03D0002008702846F0BD33B983
:10244000302001F8010B002008702846F6E7002B29
:1024500003DA2D2001F8010B5B4242F210720DE00D
:1024600093FBF2F404B937B104F1300001F8010B29
:1024700004FB123301270A2092FBF0F2002AEFDC62
:10248000002008702846D9E70FB470B586B006461C
:102490000CA8019090E00B9800785C2826D10B984E
:1024A000401C0B900078222813D06E2809D0722887
:1024B00017D10D213046FFF707F80B98401C0B9001
:1024C00013E00A213046FEF7FFFF0B98401C0B90EB
:1024D0000BE022213046FEF7F7FF0B98401C0B90D3
:1024E00003E00B98401C0B9000BF5EE00B98007857
:1024F000252853D10B98401C0B900078642818D0E5
:10250000732846D1019810C801900BE0217830461D
:10251000FEF7DAFF00BF40213046FFF743F80028FE
:10252000F9D0641C20780028F0D10B98401C0B9047
:1025300033E0019820C801900A2202A92846FFF73B
:1025400072FF02AC1EE000000008014000380140AC
:1025500000440040000C01400048004040420F0091
:102560000010024000100140084C00402178304625
:10257000FEF7AAFF00BF40213046FFF713F80028FE
:10258000F9D0641C20780028F0D10B98401C0B90E7
:1025900003E00B98401C0B9000BF06E00B9810F86E
:1025A000011B0B903046FEF78FFF00BF40213046E5
:1025B000FEF7F8FF0028F9D00B98007800287FF488
:1025C0006AAF06B070BC5DF814FB2DE9F05F0546FC
:1025D000002092469B4688460646814640241BE0E2
:1025E000284641464746224600F041F953465A469E
:1025F000C01A914110D311461846224600F028F91E
:102600002D1A67EB01084F4622460120002100F0F9
:102610001FF917EB00094E41201EA4F10104DFDC75
:10262000484631462A464346BDE8F09FD2B201E013
:1026300000F8012B491EFBD270470022F6E710B5C7
:1026400013460A4604461946FFF7F0FF204610BD20
:10265000F0B480EA0102D40F4200B2EB410F02D283
:102660000246084611464A0042D0C30DDDB2C1F30E
:10267000C752AD1A202D35DAC1F3160141F400021C
:1026800004B15242C5F1200602FA06F12A41104473
:10269000B3EBD05F23D0C4B1012DA0EBC35009DC54
:1026A000F0BC4FF0004202EAC35200F50000DBB27A
:1026B00000F0F6B8400000F1807000EBC350A0F1CC
:1026C000807040EAD170490009E0490841EAC071D0
:1026D000A0EBC35000F50000400800EBC350F0BC75
:1026E00000F0D5B86142012202EB4101001BF6E780
:1026F000F0BC704781F00041AAE780F00040A7E7F6
:1027000080EA010210B502F00043400026D04A00E2
:1027100023D04FEA106101EB1261C0F35600C2F3FF
:10272000560240F4000042F40002A0FB0220A1F196
:102730007F014FEA0040140401D000F1010050EA8B
:10274000124001D44000491EC2B20C0604EBD01066
:10275000401C4008802A02D003E0002010BD20F079
:102760000100002900DA0020184310BD30B480EACF
:10277000010202F0004530F0004221F0004015D087
:10278000A0B1C0F3C753C2F3C754C2F31601C0F3DC
:102790001600E41A41F4000140F400027D34914235
:1027A00001D3641C00E04900002C02DA30BC002098
:1027B00070474FF400000023914201D3891A03436C
:1027C00040084FEA4101F7D151B1914202D14FF097
:1027D000004105E002D24FF0010101E06FF001017C
:1027E00003EBC450284430BC00F051B896230022BB
:1027F000114600F055B830B404469623080021462F
:1028000004D0B62330BC002200F04AB82046002194
:10281000F8E720F00040C10DC0F3160040F40000BE
:102820007F2901DA00207047962903DCC1F1960167
:10283000C84070479639884070470000002801DB87
:10284000C0F10040002901DBC1F10041884270471E
:10285000202A04DB203A00FA02F100207047914060
:10286000C2F1200320FA03F3194390407047202A55
:1028700004DB203A21FA02F00021704721FA02F32A
:10288000D040C2F120029140084319467047002908
:10289000A8BF7047401C490008BF20F001007047E6
:1028A00010B4B0FA80FC00FA0CF050EA010404BF46
:1028B00010BC704749B1CCF1200421FA04F411FA9C
:1028C0000CF118BF012121430843A3EB0C01CB1DE0
:1028D0000106000A002BBEBF002010BC704700EBB1
:1028E000C35010440029A4BF10BC7047401C4900CD
:1028F00008BF20F0010010BC70470000064C074DD7
:1029000006E0E06840F0010394E8070098471034BF
:10291000AC42F6D3FDF710FC4829000868290008EE
:1029200002E008C8121F08C1002AFAD17047704798
:10293000002001E001C1121F002AFBD170470000F6
:102940005000000028000000682900080000002056
:10295000CC00000020290008342A0008CC00002008
:1029600084BF00003029000800A24A0400000000D3
:10297000000000000102030406070809000000002F
:102980000102030401020304060708090204060801
:1029900011001246173F185019031A7832002950B7
:1029A0002C782A00427F4D0963E064FF65206600B1
:1029B000670013F00D810FC5142122FF2301243479
:1029C000253C26A12B006BAA13FF695D900A91019B
:1029D00092019301945F95539611971A983D995AD5
:1029E0009A1E9B009C25A765A8659E81A6067E0C65
:1029F0007F16802A814E8261836F847B8586868ED6
:102A0000879788A489AF8AC58BD78CE88D20A98049
:102A1000AA80ACFF3300229923034A0049134708D8
:102A20004B144C1746050CD00EF54D00000000006D
:042A300000000000A2
:0400000508000131BD
:00000001FF
