:020000040800F2
:10000000980A002035190008E5040008E7040008F4
:10001000EB040008EF040008F304000800000000EF
:10002000000000000000000000000000F7040008CD
:10003000F904000800000000FB040008FD040008AB
:100040004F1900084F1900084F1900084F190008F0
:100050004F1900084F1900084F1900084F190008E0
:100060006D0700084F1900084F1900084F190008C4
:100070004F1900084F1900084F1900084F190008C0
:100080004F1900084F1900084F1900084F190008B0
:100090004F1900084F1900084F1900084F190008A0
:1000A0004F1900084F1900084F1900084F19000890
:1000B000CF4200084F190008514900084F190008A5
:1000C0004F1900084F1900084F1900084F19000870
:1000D0004F1900088F18000881170008990A0008B6
:1000E0004F1900084F1900084F1900084F19000850
:1000F0004F1900084F1900084F1900084F19000840
:100100004F1900084F1900084F1900084F1900082F
:100110004F1900084F19000841350008B135000893
:100120004F1900084F1900084F1900084F1900080F
:1001300000F002F800F06DF80AA090E8000C82448C
:100140008344AAF10107DA4501D100F062F8AFF269
:10015000090EBAE80F0013F0010F18BFFB1A43F0A5
:1001600001031847546F0000746F00000A444FF0F9
:10017000000C10F8013B13F0070408BF10F8014B06
:100180001D1108BF10F8015B641E05D010F8016B4B
:10019000641E01F8016BF9D113F0080F1EBF10F8AF
:1001A000014BAD1C0C1B09D16D1E58BF01F801CBD2
:1001B000FAD505E014F8016B01F8016B6D1EF9D555
:1001C0009142D6D37047000000230024002500266A
:1001D000103A28BF78C1FBD8520728BF30C148BFAA
:1001E0000B607047662906F00687642904F086864E
:1001F000632905F0BA81002070471FB505F0D4F9D6
:1002000004000020002105F029FFE0601FBD10B5AB
:1002100010BD05F0E1FA1146FFF7EFFF00F040F8DE
:1002200005F0FFFA03B4FFF7F2FF03BC00F022FB76
:1002300010B54FF4A06001F09DFB00F0B1FAC820AA
:1002400000F0EBFA00F04CFA03F0B0FF4FF4E130AD
:1002500000F06BFB472144F61F6003F0A9FB4FF44D
:10026000165000F0B0FB4FF4165000F012FB03F0F4
:1002700079FD03F027FF04F08AFD41F61F4140F6A7
:10028000B83004F039FB41F61F4140F6C31003F0CB
:10029000FFF841F61F4140F6AB5003F025F910BDC1
:1002A000FFF7C6FF02E0C82000F0B7FA7D480068FB
:1002B0000028F8D046207C49086000207B4908606F
:1002C00003F021FB00BF7A4800680028FBD1012021
:1002D000784908607849086004F078FD0020764984
:1002E0000860012003F086FF01207449086002E0E5
:1002F0000A2000F092FA72480068B0F57A7FF7D1D0
:10030000002003F077FF00206C4908606D4800680A
:100310006D4908606D4800686D49086003F04BFC4A
:100320000020674908604FF47A7000F076FA0020E8
:10033000654908606649086003F03DFC4FF47A7037
:1003400000F06BFA012003F055FF624800685E4937
:100350000860604800685E49086003F02CFC4FF4B8
:100360007A7000F05AFA4FF47A7000F056FA0120D1
:100370005249086002E00A2000F04FFA5048006835
:10038000B0F57A7FF7D1002003F034FF00204B490D
:100390000860514801685148006804F0A1F9002044
:1003A0004749086004F035FD03215A2004F0FDF8A8
:1003B000012003F01FFF4748006843490860454893
:1003C00000684349086003F0F6FB4FF47A7000F0D0
:1003D00024FA4FF47A7000F020FA4FF47A7000F0AB
:1003E0001CFA01203549086002E00A2000F015FAE5
:1003F00033480068B0F57A7FF7D1002003F0FAFEA9
:1004000000202E490860344801683448006804F030
:1004100067F900202A49086004F0FBFC01213048FC
:1004200002F06EFF0321912004F0BFF8012003F0D9
:10043000E1FE2848006824490860264800682449ED
:10044000086003F0B8FB4FF47A7000F0E6F94FF45F
:100450007A7000F0E2F94FF47A7000F0DEF90120D2
:100460001649086002E00A2000F0D7F91448006835
:10047000B0F57A7FF7D1002003F0BCFE00200F49D1
:100480000860154801681548006804F029F9002043
:100490000B49086004F0BDFC02E0642000F0BDF9E7
:1004A000FBE700000C000020440100204801002070
:1004B000980000204C010020F4000020F0000020F3
:1004C000300100201C700008AC00002020700008E3
:1004D000B0000020F8000020400000204400002070
:1004E00000440040704700BFFEE700BFFEE700BFCA
:1004F000FEE700BFFEE77047704770477047000097
:100500000CB50020019000906C48006840F48030E9
:100510006A49086000BF6948006800F40030009034
:100520000198401C0190009818B90198B0F5A06F8F
:10053000F1D16248006800F4003010B10120009051
:1005400001E0002000900098012843D15C48006839
:1005500040F010005A4908600846006820F0030087
:1005600008600846006840F0020008605348406890
:10057000524948600846406848600846406840F470
:10058000806048600846406820F47C104860084657
:10059000406840F4E81048600846006840F0807009
:1005A000086000BF4548006800F000700028F9D0DE
:1005B0004248406820F003004049486008464068CF
:1005C00040F00200486000BF3C48406800F00C006A
:1005D0000828F9D10CBD10B5FFF792FF10BD10B57A
:1005E0003648006840F00100344908600846406819
:1005F000344908403149486008460068324908409B
:100600002E4908600846006820F4802008600846EB
:10061000406820F4FE0048604FF41F008860FFF738
:10062000DAFF4FF000602949086010BD10B50021C5
:1006300000200022214B5B6803F00C0121B104294A
:1006400006D0082928D107E0214B224C236027E05F
:100650001F4B204C236023E0184B5B6803F47010A1
:10066000164B5B6803F48032022303EB904022B9FF
:10067000194B4343174C23600DE0104B5B6803F4A8
:10068000003323B1144B4343124C236003E0104B5F
:100690004343104C236003E00D4B0E4C236000BF1E
:1006A00000BF064B5B68C3F303130C4CE15C094BC2
:1006B0001B68CB40074C236010BD000000100240B7
:1006C000002002400000FFF8FFFFF6FE08ED00E00A
:1006D00000127A001000002000093D0014000020E4
:1006E0001FB50121112001F05DFD0820ADF80C00BF
:1006F00010208DF80F0003208DF80E0003A9264866
:1007000001F094FA642000F088F80821224801F0F2
:100710003AFB0420ADF80C008DF80F0003208DF893
:100720000E0003A91C4801F081FA0221084601F0DD
:1007300093FB0420019000208DF808000C208DF818
:10074000090001208DF80A0001A801F08FF90820A6
:100750008DF8000000208DF801008DF802000120C6
:100760008DF80300684601F00AF91FBD10B504209A
:1007700001F0E2F970B1042001F0EFF907480068D8
:1007800020B9012005498031086003E000200349B9
:100790008031086010BD0000001001400C012242B1
:1007A00010B56FF0040001F034F92E4800682E49AE
:1007B000B0FBF1F02D4908700846007800EB4001CD
:1007C000C1EBC0104FF6FF7101EAC0002849088054
:1007D00010BD0146254A12784A434FF0E0235A6182
:1007E00000229A611A46126942F001021A6100BFA2
:1007F0004FF0E022106900F001021AB100F48032DB
:10080000002AF5D04FF0E022126922F001024FF0E9
:10081000E0231A6100229A6170470146144A128847
:100820004A434FF0E0235A6100229A611A46126946
:1008300042F001021A6100BF4FF0E022106900F09F
:1008400001021AB100F48032002AF5D04FF0E02204
:10085000126922F001024FF0E0231A6100229A612E
:10086000704700001000002000127A0024000020D1
:1008700026000020014600BF704700BFFE4A1288D4
:1008800002F04002002AF9D0C2B2FB4B1B1D1A80B5
:10089000704710B586B00446012144F2040001F00F
:1008A00081FC4FF40070ADF8140003208DF81600A1
:1008B00018208DF8170005A9F04801F0B7F94FF49A
:1008C0008060ADF8140004208DF8170005A9EB48EE
:1008D00001F0ACF925208DF8000000208DF8010012
:1008E0008DF8020001208DF80300684601F047F8FA
:1008F00001940020ADF80800ADF80A00ADF80C0036
:10090000ADF810000C20ADF80E0001A9DC4802F093
:10091000FEFB012240F22551D94802F090FC012152
:10092000D74802F080FC06B010BD10B586B0044672
:100930000121480401F043FC0121042001F032FCB4
:100940000420ADF8140003208DF8160018208DF84F
:10095000170005A9C94801F069F90820ADF814008D
:1009600004208DF8170005A9C44801F05FF926207E
:100970008DF8000001208DF8010000208DF80200A4
:1009800001208DF80300684600F0F9FF0194002073
:10099000ADF80800ADF80A00ADF80C00ADF8100095
:1009A0000C20ADF80E0001A9B64802F0B0FB012200
:1009B00040F22551B34802F042FC0121B14802F057
:1009C00032FC06B010BD10B586B0044601212120CE
:1009D00001F0E8FB0121880401F0F1FB0121AA48A4
:1009E00001F0F5F94FF48070ADF8140003208DF894
:1009F000160018208DF8170005A9A44801F016F973
:100A00004FF40070ADF8140004208DF8170005A90C
:100A10009E4801F00BF94FF4E050ADF8140010209F
:100A20008DF8170005A9994801F000F94FF4E0513D
:100A3000964801F0AAF927208DF8000000208DF8D3
:100A400001008DF8020001208DF80300684600F0D7
:100A500096FF01940020ADF80800ADF80A00ADF84B
:100A60000C00ADF810000C20ADF80E0001A9824872
:100A700002F04DFB012240F225517F4802F0DFFBDE
:100A8000012240F227717C4802F0D9FB01217A480B
:100A900002F0C9FB06B010BD00B58FB040F2255181
:100AA000754802F0B1FC28B3734802F02DFCC0B2C7
:100AB0000D907748008800F40040D8B97448008849
:100AC00000F4804068B10D980A2803D000207049D6
:100AD000088022E06E48008840F400406C4908809D
:100AE0001BE00D980D2806D16948008840F480402D
:100AF0006749088011E066490988C1F30D01654A1C
:100B00000D98505462480088401C6149088008468E
:100B10000088C72801DD002008805D48008800F4B7
:100B2000004000287ED05B48007830380C905AA0F6
:100B30000C9904F0ADF90C98252874D2DFE810F078
:100B40002500CA00D700D8005A019F011D022202C9
:100B50002702280273007300730073007300730090
:100B600073006F03790387038F0397039E03EC03DE
:100B700062046C04C404D104D90401059605730011
:100B80009A05E605F205FE050506424880783038EC
:100B9000642148433F49C97830390A2202FB0101E8
:100BA0003C48007930380844404908603948807929
:100BB0003038642148433749C979303902FB010193
:100BC0003448007A30380844394908603148807A1E
:100BD0003038642148432F49C97A303902FB01017A
:100BE0002C48007B30380844324908602F480068A0
:100BF00006F06AF80B903048406801460A900B985E
:100C000006F0AEF82C4948602948006806F05CF808
:100C10000B902948806801460A900B9806F0A0F8CE
:100C2000254901E0F6E3F6E388602248006806F013
:100C30004BF80B902048C06801460A900B9806F0CC
:100C40008FF81D49C8600846C068059005F0C4FECD
:100C5000CDE90A0118488068059005F0BDFECDE990
:100C6000080115484068059005F0B6FECDE906017B
:100C7000DDE90A0122E000000048004000080140D0
:100C800000380140004400403000140000140140CE
:100C90004C00002058010020636F6D6D616E64741C
:100CA0007970653D2564200A0000000034000020B2
:100CB000380000203C00002020040020CDE9020183
:100CC000DDE90801CDE90001F8A0DDE9062304F023
:100CD000DFF8A3E2FE4804F052F8FE4804F04FF8B3
:100CE000FD480068C0F10100FB490860F1E7F0E74A
:100CF000FA48C078303864214843F84909793039D6
:100D00000A2202FB0101F548407930380844F449D1
:100D10000860F248007A303864214843EF49497A44
:100D2000303902FB0101ED48807A30380844ED4942
:100D30000860EA4880782B2801D1012000E00020DB
:100D4000019005F00EFC0022E74BCDE9020105F011
:100D500059FD00224FF08043CDE9040105F054FC19
:100D6000CDE90801DE48006805F0FBFBCDE906018E
:100D7000DDE9082305F048FCCDE90A0105F0C2FBD6
:100D8000D7490860D548C0792B2801D1012000E05F
:100D90000020019005F0E5FB0022D34BCDE90201D4
:100DA00005F030FD00224FF08043CDE9040105F04D
:100DB0002BFCCDE90801CB48006805F0D2FBCDE95A
:100DC0000601DDE9082305F01FFCCDE90A0105F065
:100DD00099FBC449086008460268C1480168C3A07D
:100DE00004F056F8BE480068CA490968401ACA4962
:100DF00008606EE7B9488078303864214843B749C5
:100E0000C97830390A2202FB0101B4480079303830
:100E10000844C2490860B148007A3038AF49C979FE
:100E2000303902FB0100BE490860AC4880792B28AC
:100E300001D1012000E00020019005F092FB00228A
:100E4000A94BCDE9020105F0DDFC00224FF0804303
:100E5000CDE9040105F0D8FBCDE90801B0480068F0
:100E600005F07FFBCDE90601DDE9082305F0CCFBA9
:100E7000CDE90A0105F046FBA949086029E7974832
:100E800080783038642148439449C97830390A223F
:100E900002FB01019148007930380144A14801600A
:100EA0008E4880793038642148438C49C97930397B
:100EB00002FB01018948007A303808449A490860E9
:100EC0008648807A3038642148438449C97A303969
:100ED00002FB01018148007B3038084493490860D7
:100EE0009048006805F0F0FE0B9079484068014694
:100EF0000A900B9805F034FF754948608A480068ED
:100F000005F0E2FE0B907248806801460A900B984B
:100F100005F026FF6E4988608448006805F0D4FE1D
:100F20000B906B48C06801460A900B9805F018FFBB
:100F30006749C8600846C068059005F04DFDCDE9D9
:100F40000A0163488068059005F046FDCDE9080177
:100F50005F484068059005F03FFDCDE90601DDE9F9
:100F60000A01CDE90201DDE90801CDE9000170A027
:100F7000DDE9062303F08CFFEFE30021754802F062
:100F8000BFF9EAE30121734802F0BAF9E5E3E4E3CB
:100F90005248C07830386421484350490979303983
:100FA0000A2202FB01014D484079303808446A4961
:100FB00008604A48007A3038642148434749497AF2
:100FC000303902FB01014548807A303808446349D2
:100FD00008604248407B3038642148433F49897B60
:100FE000303902FB01013D48C07B303808445C4980
:100FF00008603A48807C3038642148433749C97CCE
:10100000303902FB01013548007D3038084455492C
:101010000860324880782B2801D1012000E00020B0
:10102000019005F09EFA00222F4BCDE9020105F058
:10103000E9FB00224FF08043CDE9040105F0E4FA1A
:10104000CDE908014448006805F08BFACDE90601B6
:10105000DDE9082305F0D8FACDE90A0105F052FAD6
:101060003D4908601D48C0792B2801D1012000E0CE
:101070000020019005F075FA00221B4BCDE902011A
:1010800005F0C0FB00224FF08043CDE9040105F0DC
:10109000BBFACDE908013148006805F062FACDE9F4
:1010A0000601DDE9082305F0AFFA5DE0466F722026
:1010B00064657074683A20503D252E32662C493D97
:1010C000252E32662C443D252E32660A0000000093
:1010D00008040020200400204C01002058010020BA
:1010E00020010020240100200000E03F47697665D0
:1010F0006E20616E676C65203D2025642C20476959
:1011000076656E2064697374616E6365203D202589
:10111000640A0000980000202801002044010020FB
:1011200048010020280000202C0000203000002072
:10113000466F722070697463683A20503D252E32E4
:10114000662C493D252E32662C443D252E32660AFA
:101150000000000000440040AC000020B00000206F
:10116000B4000020B8000020CDE90A0105F0CAF95A
:10117000FE490860FE48007B2B2801D1012000E0D9
:101180000020019005F0EDF90022FA4BCDE90201B3
:1011900005F038FB00224FF08043CDE9040105F053
:1011A00033FACDE90801F448006805F0DAF9CDE931
:1011B0000601DDE9082305F027FACDE90A0105F06B
:1011C000A1F9ED490860EA48407C2B2801D10120B3
:1011D00000E00020019005F0C4F90022E54BCDE9C4
:1011E000020105F00FFB00224FF08043CDE904011E
:1011F00005F00AFACDE90801E048006805F0B1F908
:10120000CDE90601DDE9082305F0FEF9CDE90A0183
:1012100005F078F9D949086002F02CFD9DE2D84824
:101220000368D8480268D8480168D8A003F030FEA7
:1012300093E2D948006805F02BFD0B90D7488068F1
:1012400002460A90D6A00B9903F022FE85E2DC4804
:101250000268DC480168DCA003F01AFE7DE202218E
:10126000DF4802F04DF8DFA003F012FE75E2E1481E
:101270000068C0F10101DF4801606EE2BC48C0783F
:10128000303864214843BA49097930390A2202FBCF
:101290000101B748407930380844D7490860D74938
:1012A0000860B34880782B2801D1012000E000209D
:1012B000019005F056F90022AE4BCDE9020105F090
:1012C000A1FA00224FF08043CDE9040105F09CF91A
:1012D000CDE90801C948006805F043F9CDE90601E8
:1012E000DDE9082305F090F9CDE90A0105F00AF9D6
:1012F000C24908609E48C0793038642148439C49FF
:10130000097A30390A2202FB01019948407A3038C3
:101310000844BB49086020E29548C0783038642111
:1013200048439349097930390A2202FB0101904868
:10133000407930380844B04908608D48007A303828
:10134000642148438A49497A303902FB01018848BF
:10135000807A3038084485490860854880782B2891
:1013600001D1012000E00020019005F0FAF80022F0
:10137000804BCDE9020105F045FA00224FF0804391
:10138000CDE9040105F040F9CDE908019A4800686B
:1013900005F0E7F8CDE90601DDE9082305F034F9A9
:1013A000CDE90A0105F0AEF8934908607048C079AC
:1013B0002B2801D1012000E00020019005F0D1F898
:1013C00000226C4BCDE9020105F01CFA00224FF01F
:1013D0008043CDE9040105F017F9CDE90801634820
:1013E000006805F0BEF8CDE90601DDE9082305F047
:1013F0000BF9CDE90A0105F085F85C49086002F0B7
:10140000DAFBAAE1594802687B4801687DA003F035
:101410003FFDA2E1A6E19FE15548C0783038642144
:1014200048435349097930390A2202FB01015048E7
:10143000407930380844784908604D4880782B2836
:1014400001D1012000E00020019005F08AF800227F
:10145000484BCDE9020105F0D5F900224FF0804359
:10146000CDE9040105F0D0F8CDE908016A4800682B
:1014700005F077F8CDE90601DDE9082305F0C4F8A9
:10148000CDE90A0105F03EF8634908603848007A62
:1014900030383749C97930390A2202FB01005F49E7
:1014A00008603348C07A30383149897A303902FBD4
:1014B00001005B49086008460268584801685648C0
:1014C000006802F03DFF48E12D4800685549096871
:1014D00008440B903A48026853A00B9903F0D8FCDB
:1014E0003BE102F010FA00BF254800680028FBD15C
:1014F00033E11F4880783038642148431C49C9785B
:1015000030390A2202FB01011948007930380844B9
:101510004A490860164880793038642148431449A4
:10152000C979303902FB01011148007A303808448A
:1015300043490860084601684048006802F0B8FF67
:101540000BE10B4880783038642148430849C9785A
:1015500030390A2202FB010105480079303808447D
:10156000364908600248807930386BE0B0000020CE
:10157000580100200000E03FB4000020B800002027
:101580009800002094000020900000202564202571
:10159000642025640A000000D8000020E403002035
:1015A00070726573737572653D2564206D6261723A
:1015B0002064657074683D20256420636D0A000016
:1015C0002401002020010020616E676C653D2564C8
:1015D0002064697374616E63653D25640A000000D0
:1015E00000440040456E6420506920746872656153
:1015F000640A0000F4000020AC0000204400002039
:10160000400000206C65663D25642C726967687433
:101610003D25640A000000000000002004000020B6
:1016200008000020280100206E61763D25642064BA
:10163000697374616E63653D25640A00FC000020D7
:1016400000010020642148439E49C979303902FBDA
:1016500001019C48007A303808449B4908600846DC
:1016600001689A48006802F050FF76E0012098492E
:10167000086072E09348C07830386421484391494B
:10168000097930390A2202FB01018E48407930384D
:101690000844904908608B4880782B2801D10120AC
:1016A00000E00020019004F05CFF00228A4BCDE9AD
:1016B000020105F0A7F800224FF08043CDE90401B4
:1016C00004F0A2FFCDE908018248006804F049FF58
:1016D000CDE90601DDE9082304F096FFCDE90A0112
:1016E00004F010FF7B4908607648007A303875496D
:1016F000C97930390A2202FB01007849086008469E
:1017000001687448006802F050FF26E074480068E1
:1017100005F062F902460B46CDE90A0171A003F01B
:10172000B7FB1AE00321734801F0EAFD7248026832
:101730007248016872A003F0ABFB0EE076480068C7
:10174000C0F101007449086007E074480168AFF215
:10175000181003F09DFB00BF00BF00BF00207049C0
:10176000088000BF40F227716E4801F04DFE28B19D
:10177000002240F227716B4801F061FD0FB000BDFF
:1017800010B540F225515B4801F03EFE002862D0C2
:10179000584801F0B9FDC4B26348008800F4004025
:1017A000002858D16048008800F48040002840D0CC
:1017B0000A2C18D05C480088C0F30C005B490C541C
:1017C00059480088401C584908800846008820F481
:1017D0000050088008460088C0F30C00C7283ADD96
:1017E0000020088037E05048008800F4005030B1F5
:1017F0004D48008840F400404B4908802BE04A489F
:10180000008840F400504849088008460088C0F32A
:101810000C0046490C5444480088401C424908804A
:1018200008460088C0F30C00C72814DD002008809B
:1018300011E0FE2C0CD13C48008840F480403A492D
:1018400008803A48047008460088401C088002E07E
:101850000020354908803448008800F4004048B131
:1018600031480088C0F30C01304803F080F90020B3
:101870002D49088040F227711E4801F0C5FD28B1AE
:10188000002240F227711B4801F0D9FC10BD10B5B1
:1018900040F22771264801F0B7FD28B1002240F23E
:1018A0002771234801F0CBFC40F22551204801F07C
:1018B000ABFD30B11E4801F027FDC4B2204601F057
:1018C0007FFF10BD5801002000010020FC00002017
:1018D0000C000020000000200000E03F0400002079
:1018E0009C0000207961775F73706565643D252EEB
:1018F00032660A0000440040380100203401002014
:10190000785F6572726F723D25642C795F657272C3
:101910006F723D25640A000018010020400100207C
:101920004C000020004800404E0000202002002013
:10193000003801400948804709480047FEE7FEE7B4
:10194000FEE7FEE7FEE7FEE7FEE7FEE7FEE7FEE76F
:1019500004480549054A064B70470000DF050008AA
:101960003101000898040020980A00209806002001
:101970009806002031490143314A1160704770B523
:10198000002100230F22C47804B32D4C246804F4F2
:10199000E064C4F5E064210AC1F10403CA4044785C
:1019A00004FA03F18478144021430901254C067898
:1019B000A155047804F01F050124AC4005786D1191
:1019C000AD0005F1E025C5F8004109E0047804F018
:1019D0001F050124AC401C4D0678761145F82640C1
:1019E00070BD1A4A0A400243154B1B1F1A6070470C
:1019F00039B1134A121D12680243114B1B1D1A60A4
:101A000006E00F4A121D126882430D4B1B1D1A601F
:101A10007047042808D14FF0E021096941F0040122
:101A20004FF0E022116107E04FF0E021096921F059
:101A300004014FF0E0221161704700000000FA0538
:101A40000CED00E000E400E080E100E080FFFF1F1B
:101A5000002044490860091D0860091D0860091D2F
:101A6000086041483F4914310860704700213D49F2
:101A70008279002A3AD00A46126803689A430B46D4
:101A80001A600A1D126803689A430B1D1A600279D6
:101A900011440A6803681A430A60324A083212681D
:101AA00003689A432F4B08331A601A1D12680368A3
:101AB0009A432C4B0C331A604279102A0ED11A1F0C
:101AC000126803681A43274B08331A601A1D1268FC
:101AD00003681A43234B0C331A600DE02149427905
:101AE00011440A6803681A430A6005E00279114448
:101AF0000A6803689A430A60704700210160017117
:101B00000C2141710021817170471649103109681B
:101B10000143144A10321160704701460020114AF7
:101B2000143212680A400AB1012000E00020704718
:101B30000C49143108607047014600200022094B0F
:101B40001B6803EA0102074B14331B680B4013B1F7
:101B50000AB1012000E000207047024914310860FA
:101B60007047000000040140FFFF0F0010B504465D
:101B7000CC48844208D10121042000F02DFB002133
:101B8000042000F029FB46E0C748844208D1012127
:101B9000082000F021FB0021082000F01DFB3AE0A6
:101BA000C248844208D10121102000F015FB002119
:101BB000102000F011FB2EE0BD48844208D1012125
:101BC000202000F009FB0021202000F005FB22E08E
:101BD000B848844208D10121402000F0FDFA0021DC
:101BE000402000F0F9FA16E0B348844208D1012100
:101BF000802000F0F1FA0021802000F0EDFA0AE0E8
:101C0000AE48844207D10121801500F0E5FA002199
:101C1000A01500F0E1FA10BD10B50121084600F052
:101C2000DBFA0021012000F0D7FA10BD2DE9F041C8
:101C3000024600250026002000230024002791F8FA
:101C400003C00CF00F0591F803C00CF0100CBCF1B0
:101C5000000F03D091F802C04CEA050591F800C0CE
:101C6000BCF1000F31D0146800202BE04FF0010CC4
:101C70000CFA00F3B1F800C00CEA03069E4220D132
:101C800083004FF00F0C0CFA03F7BC4305FA03FC7A
:101C90004CEA040491F803C0BCF1280F06D14FF0C0
:101CA000010C0CFA00FCC2F814C00AE091F803C061
:101CB000BCF1480F05D14FF0010C0CFA00FCC2F842
:101CC00010C0401C0828D1D31460B1F800C0BCF18A
:101CD000FF0F34DD546800202EE000F1080C4FF0B7
:101CE000010808FA0CF3B1F800C00CEA03069E42A2
:101CF00021D183004FF00F0C0CFA03F7BC4305FA17
:101D000003FC4CEA040491F803C0BCF1280F05D190
:101D100000F1080C08FA0CF8C2F8148091F803C01E
:101D2000BCF1480F07D100F1080C4FF0010808FA88
:101D30000CF8C2F81080401C0828CED35460BDE8CF
:101D4000F0814FF6FF710180022181700421C17082
:101D500070470246002093680B400BB1012000E061
:101D6000002070470146886880B270470246002014
:101D7000D3680B400BB1012000E000207047014602
:101D8000C86880B2704701617047416170470AB10D
:101D9000016100E041617047C16070474FF48032DB
:101DA0000A43826181618261826982697047024669
:101DB0000020434B18684FF68073184040EA021029
:101DC00008433F4B186070473E49C8617047F0B503
:101DD0000A46002300240021002500F00046B6F149
:101DE000004F02D1364EF16901E0354E7168C0F303
:101DF000034583B200F44016B6F5401F08D121F028
:101E000070612F4E766826F070662D4F7E6012E06E
:101E100000F48016B6F5801F06D1032606FA05F4F5
:101E2000A14341F0706106E0460D360103FA06F663
:101E3000B14341F0706122B1460D360103FA06F656
:101E4000314300F00046B6F1004F02D11C4EF16163
:101E500001E01B4E7160F0BD30B500228B071C0FF6
:101E60000F2303FA04F2164B08338C1053F8243076
:101E70009343134C08348D1044F8253023468C10BE
:101E800053F824308C07240F00FA04F423430C4C3D
:101E900008348D1044F8253030BD0A49DC31086023
:101EA0007047000000080140000C01400010014094
:101EB0000014014000180140001C014000200140B6
:101EC0000000014000002042DF48006840F00100AF
:101ED000DD49086008464068DC490840DA49486046
:101EE00008460068DA490840D74908600846006893
:101EF00020F4802008600846406820F4FE00486016
:101F00004FF41F0088607047CF49096821F4803181
:101F1000CD4A11601146096821F480211160B0F5A5
:101F2000803F03D0B0F5802F0ED106E0C649096886
:101F300041F48031C44A116007E0C349096841F4A3
:101F4000A021C14A116000E000BF00BF704710B57A
:101F500001460022002300204A11012A02D1BA4C76
:101F6000236806E0022A02D1B74C236A01E0B64C8E
:101F7000636A01F01F02012494401C400CB101204F
:101F800000E0002010BD38B500200090002400259E
:101F900000BF3120FFF7DBFF05460098401C009092
:101FA0000098B0F5A06F01D0002DF2D03120FFF7DE
:101FB000CEFF08B1012400E00024204638BD0146D0
:101FC0000020A14A106820F0F80040EAC10010602B
:101FD0007047A04908607047024600209A4B586835
:101FE00020F47C1042EA01031843974B5860704775
:101FF00098490866704701460020934A506820F0CF
:1020000003000843506070478F48406800F00C00A0
:102010007047014600208C4A506820F0F0000843C9
:102020005060704701460020874A506820F4E06005
:1020300008435060704701460020834A506820F4EE
:10204000605040EAC1005060704729B17E4A527A20
:1020500002437D4B5A7204E07B4A527A82437A4BA8
:102060005A7270477B49D83108607047014600209A
:10207000754A506820F44040084350607047002182
:10208000714A20321170704A82F82010012802D063
:1020900004280AD104E001216B4A2032117005E0C6
:1020A0000521694A2032117000E000BF00BF70476F
:1020B0006949086070476449096A0143624A1162CC
:1020C0007047654944390860704730B500210022E7
:1020D000002400235C4D6D6805F00C0121B104293A
:1020E00005D0082923D105E05C4D056022E05B4D59
:1020F00005601FE0544D6D6805F47012524D6D6817
:1021000005F48034022505EB92421CB9544D554329
:1021100005600BE04C4D6D6805F400351DB1504D68
:102120005543056002E04D4D5543056002E04B4DBF
:10213000056000BF00BF444D6D6805F0F00109095E
:10214000484D6B5C0568DD4045603F4D6D6805F4AA
:10215000E061090A434D6B5C4568DD4085603A4D9E
:102160006D6805F46051C90A3E4D6B5C4568DD4001
:10217000C560354D6D6805F44041890B3A4D6B5C87
:10218000C568B5FBF3F5056130BD29B12E4A52692A
:1021900002432D4B5A6104E02B4A526982432A4B79
:1021A0005A61704729B1284A92690243264B9A61C5
:1021B00004E0254A92698243234B9A61704729B112
:1021C000214AD2690243204BDA6104E01E4AD269F7
:1021D00082431D4BDA61704729B11B4AD268024322
:1021E000194BDA6004E0184AD2688243164BDA6071
:1021F000704729B1144A12690243134B1A6104E073
:10220000114A12698243104B1A61704712494039D2
:10221000086070470F49C86470470B49C871704720
:102220000948406A40F0807007494862704701469B
:102230000020054A92680A400AB1012000E000200F
:102240007047014988727047001002400000FFF893
:10225000FFFFF6FE000042428004424200127A0074
:1022600000093D00510000206100002010B5044627
:10227000FE48844208D10121C014FFF7ADFF0021C0
:10228000E014FFF7A9FFC4E0B4F1804F08D10121A9
:102290000846FFF7AEFF00210120FFF7AAFFB8E0D4
:1022A000F348844208D101210220FFF7A2FF002158
:1022B0000220FFF79EFFACE0EE48844208D10121E6
:1022C0000420FFF796FF00210420FFF792FFA0E013
:1022D000E948844208D101210820FFF78AFF002144
:1022E0000820FFF786FF94E0E448844208D10121EA
:1022F0001020FFF77EFF00211020FFF77AFF88E013
:10230000DF48844208D101212020FFF772FF00211D
:102310002020FFF76EFF7CE0DA48844208D10121DB
:102320004014FFF759FF00216014FFF755FF70E0DC
:10233000D548844209D10121C804FFF74DFF00218F
:102340004FF40020FFF748FF63E0D048844209D1F2
:1023500001210805FFF740FF00214FF48010FFF72F
:102360003BFF56E0CA48844209D101214805FFF7E6
:1023700033FF00214FF40010FFF72EFF49E0C5485E
:10238000844208D101214020FFF733FF0021402083
:10239000FFF72FFF3DE0C048844208D10121802093
:1023A000FFF727FF00218020FFF723FF31E0BB4824
:1023B000844208D101218015FFF71BFF0021A015E1
:1023C000FFF717FF25E0B648844209D10121080430
:1023D000FFF702FF00214FF48030FFF7FDFE18E009
:1023E000B048844209D101214804FFF7F5FE0021DD
:1023F0004FF40030FFF7F0FE0BE0AB48844208D109
:1024000001218804FFF7E8FE00214FF48020FFF748
:10241000E3FE10BD00220288944B98420ED0994BE7
:1024200098420BD0B0F1804F08D0914B984205D024
:10243000904B984202D0904B984204D14FF68F7344
:102440001A404B881A438D4B984207D08C4B9842C8
:1024500004D04FF6FF431A40CB881A4302808B8882
:1024600083850B880385814B98420BD0854B98421E
:1024700008D08B4B984205D08A4B984202D08A4BA9
:10248000984201D10B7A038601238382704770B58D
:10249000002400220023058C4FF6FE76354005848B
:1024A000028C8388048B4FF68F752C40B51E2C4010
:1024B0000D882C43751E2A400D892A434D882A43D6
:1024C0006A4DA8420BD06F4DA84208D0744DA84267
:1024D00005D0744DA84202D0734DA84213D14FF6D7
:1024E000F7752A404D892A434FF6FB752A408D889F
:1024F0002A434FF6FF652B404FF6FF552B408D8941
:102500002B43CD892B4383800483CD888586028429
:1025100070BD70B5002400220023058C4FF6EF76C5
:1025200035400584028C8388048B48F6FF752C4067
:102530004FF6FF452C400D884FF6FF7606EA05253D
:102540002C434FF6DF752A400D8906EA05152A430C
:102550004D8806EA05152A43444DA84202D0494D4C
:10256000A8421DD14FF67F752A404D894FF6FF7660
:1025700006EA05152A434FF6BF752A408D8806EAFC
:1025800005152A434FF6FF352B404FF2FF752B40C0
:102590008D8906EA85052B43CD8906EA85052B43FF
:1025A00083800483CD880587028470BD70B50024C4
:1025B00000220023058C4FF6FF6635400584028C0F
:1025C0008388848B4FF68F752C404FF6FC752C401A
:1025D0000D882C434FF6FF552A400D894FF6FF76A4
:1025E00006EA05252A434D8806EA05252A431F4D9C
:1025F000A84202D0234DA8421DD14FF2FF752A40B8
:102600004D894FF6FF7606EA05252A434FF6FF353A
:102610002A408D8806EA05252A434EF6FF752B4091
:102620004DF6FF752B408D8906EA05152B43CD89A4
:1026300006EA05152B4383808483CD888587028431
:1026400070BD70B5002200230024058C4EF6FF7685
:1026500035400584038C8488828B48F6FF752A40B8
:102660004FF6FF452A400D8820E00000002C014075
:102670000004004000080040000C00400010004032
:102680000014004000340140004C01400050014063
:102690000054014000180040001C00400020004091
:1026A0000040014000440140004801404FF6FF76E1
:1026B00006EA05252A434DF6FF752B400D8906EAEB
:1026C00005352B434D8806EA05352B43FA4DA842C4
:1026D00002D0FA4DA84208D14BF6FF752C408D89E7
:1026E0004FF6FF7606EA85152C4384808283CD88D9
:1026F000A0F84050038470BD828B4FF2FF331A4024
:102700008283828B4FF6FF7303EA01231A4382838D
:102710007047F0B50C461546002200210026078CB4
:102720004EF6FF7C07EA0C070784828B018C4FF67C
:10273000FF7707EA043640F6FF473A404FF6FF7747
:1027400007EA05273A434FF6FF7707EA03373A438C
:10275000D94FB8420ED0D94FB8420BD0B0F1804F0C
:1027600008D0D74FB84205D0D64FB84202D0D64F86
:10277000B84206D14DF6FF77394046F480573943C9
:1027800005E047F6FF57394044F4805739438283C8
:102790000184F0BD828B4FF6F3731A408283828BE3
:1027A0000A4382837047F0B50C461546002200218B
:1027B0000026078C4FF6FF6C07EA0C070784828B14
:1027C000018C4FF6FF7707EA04264FF60C773A4064
:1027D0004FF6FF7707EA03172F433A43B64FB84245
:1027E0000ED0B64FB8420BD0B0F1804F08D0B44FE6
:1027F000B84205D0B34FB84202D0B34FB84206D169
:102800004FF6FF57394046F48077394305E04FF2E1
:10281000FF57394044F48077394382830184F0BD07
:10282000028B4FF2FF331A400283028B4FF6FF7385
:1028300003EA01231A4302837047F0B50C4615469C
:10284000002200210026078C4FF6EF7C07EA0C07D8
:102850000784028B018C4FF6FF7707EA041640F6D7
:10286000FF473A404FF6FF7707EA03373A434FF600
:10287000FF7707EA05273A438F4FB8420ED08F4FB4
:10288000B8420BD0B0F1804F08D08D4FB84205D080
:102890008C4FB84202D08C4FB84206D14FF6DF774A
:1028A000394046F01007394305E04FF65F7739406D
:1028B00044F01007394302830184F0BD028B4FF6C8
:1028C000F3731A400283028B0A4302837047F0B508
:1028D0000C46154600220021068C4FF6FE773E403E
:1028E0000684028B018C4FF60C7632407E1C06EA81
:1028F00003162E433243704EB0420ED06F4EB0429C
:102900000BD0B0F1804F08D06D4EB04205D06D4E67
:10291000B04202D06C4EB04206D14FF6FD76314047
:1029200044F00106314305E04FF6F576314044F0BE
:102930000106314302830184F0BD70B505460C46A3
:102940005D4885420ED05D4885420BD0B5F1804F81
:1029500008D05B48854205D05A48854202D05A4883
:10296000854200D100E000BF208850B92389A288A9
:1029700061882846FFF7ABFFE1882846FFF79EFFF6
:1029800025E0208804280AD12389A2886188284666
:10299000FFF753FFE1882846FFF742FF17E0208842
:1029A00008280AD12389A28861882846FFF7FBFE00
:1029B000E1882846FFF7EEFE09E02389A2886188B6
:1029C0002846FFF7A6FEE1882846FFF795FE70BD72
:1029D0002DE9F04105460C4600260127608808B91C
:1029E000022600E00026A088012801D1022700E08D
:1029F00001272088A0B92389A28861882846FFF78B
:102A000066FFE1882846FFF759FF23893A46314699
:102A10002846FFF712FFE1882846FFF701FF13E081
:102A20002389A28861882846FFF707FFE1882846A6
:102A3000FFF7F6FE23893A4631462846FFF747FF5F
:102A4000E1882846FFF73AFFBDE8F0810A884B8805
:102A50001A438B881A43CB881A430B891A434B8934
:102A60001A438B891A43A0F8442070474FF6FF7130
:102A7000818000210180C180418001727047002166
:102A8000018041808180C180018141818181C1813A
:102A90007047002101804180012181800021C18097
:102AA000018170470021018041808180C1800181C6
:102AB0004181818170470000002C014000340140B9
:102AC0000004004000080040000C004021B10288D2
:102AD00042F00102028004E002884FF6FE731A40C1
:102AE0000280704731B1B0F8442042F40042A0F8AF
:102AF000442005E0B0F84420C2F30E02A0F84420C0
:102B000070471AB183890B43838102E083898B4329
:102B1000838170478182704741EA0203A0F8483000
:102B200070471AB183890B43838102E083898B4309
:102B30008381704701894FF6F87211400181704717
:102B40000A46002101894FF68F7319401143018114
:102B5000704730B504460D4629462046FFF7F0FF82
:102B6000208940F00700208130BD2DE9F041044666
:102B70000D4616461F46602D06D13B4601223146C2
:102B80002046FFF75AFE05E03B460122314620462B
:102B9000FFF79DFE29462046FFF7D2FF208940F02F
:102BA00007002081BDE8F08130B50C460021018985
:102BB000C9B24FF6FF7505EA03251543254329439E
:102BC000018130BD2DE9F04105460E461746984675
:102BD000002443463A4631462846FFF7E5FF2C8954
:102BE0004FF6F870044044F007044FF68F7004402D
:102BF00044F070042C81BDE8F081F0B504460D4628
:102C000016461F463B46324629462046FFF7CCFF74
:102C1000208940F480402081F0BD01858282704788
:102C20000A46002101884FF68F7319401143018035
:102C30007047F0B50C4615461E46002100220023C1
:102C40000189028B038C4FF6F877394021434FF608
:102C5000FC473A4040F201173A434FF6DD773B40DC
:102C60004FF6FF7707EA06172F433B4301810283A4
:102C70000384F0BD0A460021018B4FF68F73194083
:102C80001143018370470A460021018B48F6FF7308
:102C900019404FF6FF7303EA02231943018370477B
:102CA0000A460021818B4FF68F73194011438183AF
:102CB00070470A460021818B48F6FF7319404FF692
:102CC000FF7303EA022319438183704721B102880D
:102CD00042F08002028004E002884FF67F731A40BF
:102CE0000280704721B1828842F00402828004E0B1
:102CF00082884FF6FB731A408280704721B1828828
:102D000042F00802828004E082884FF6F7731A408E
:102D10008280704721B1828842F00102828004E003
:102D200082884FF6FE731A40828070470A4600215F
:102D3000018B4FF6F77319401143018370470A4620
:102D40000021018B4FF2FF7319404FF6FF7303EA26
:102D500002231943018370470A460021818B4FF6F5
:102D6000F77319401143818370470A460021818B14
:102D70004FF2FF7319404FF6FF7303EA0223194322
:102D8000818370470A460021018B4FF6FB7319407F
:102D90001143018370470A460021018B4FF6FF3330
:102DA00019404FF6FF7303EA02231943018370476A
:102DB0000A460021818B4FF6FB7319401143818332
:102DC00070470A460021818B4FF6FF3319404FF6BA
:102DD000FF7303EA02231943818370470A460021E7
:102DE000018B4FF67F7319401143018370470A46E8
:102DF0000021018BC1F30E014FF6FF7303EA02239A
:102E00001943018370470A460021818B4FF67F7377
:102E100019401143818370470A460021818BC1F319
:102E20000E014FF6FF7303EA0223194381837047B3
:102E30000A460021018C4FF6FD73194011430184AD
:102E400070470A460021018C4FF6F7731940114371
:102E5000018470470A460021018C4FF6DF73194048
:102E60004FF6FF7303EA02131943018470470A46C1
:102E70000021018C4FF67F7319404FF6FF7303EA70
:102E800002131943018470470A460021018C4FF652
:102E9000FF5319404FF6FF7303EA022319430184DD
:102EA00070470A460021018C4FF2FF7319404FF61C
:102EB000FF7303EA02231943018470470A46002185
:102EC000018C4DF6FF7319404FF6FF7303EA02338E
:102ED00019430184704730B5002301248C40A3B20C
:102EE000048C9C430484048C02FA01F5ADB22C439B
:102EF000048430BD30B5002304248C40A3B2048C7C
:102F00009C430484048C02FA01F5ADB22C43048482
:102F100030BD70B503460020002418461830012546
:102F20008D40ACB21D8CA5431D8409B1082909D17F
:102F300000EB6100056825F0700505600568154324
:102F400005600EE00D1FC5F34E052844056825F405
:102F5000E045056005684FF6FF7606EA0226354330
:102F6000056070BD21B1028842F00202028004E0D7
:102F700002884FF6FD731A400280704721B1028823
:102F800042F00402028004E002884FF6FB731A400C
:102F90000280704721B1828842F08002828004E082
:102FA00082884FF67F731A408280704702884FF6FE
:102FB000F7731A40028002880A43028070478288B1
:102FC0004FF68F731A40828082880A43828070474E
:102FD00002894FF6F8731A40028102890A4302817E
:102FE000704702894FF67F731A40028102890A43B3
:102FF0000281704781847047818570478186704760
:103000000187704781877047A0F840107047028899
:103010004FF6FF431A40028002880A43028070473D
:103020000146888E70470146088F70470146888F99
:1030300070470146B1F8400070470146888C7047E0
:103040000146088D704702460020138A0B400BB1E1
:10305000012000E000207047CA430282704730B56B
:103060000246002000230024158A05EA0103958901
:1030700005EA010413B10CB1012000E0002030BDCD
:10308000CA4302827047000010B50446FB488442E0
:1030900009D101218803FFF79FF800214FF48040F8
:1030A000FFF79AF832E0F648844209D1012148043A
:1030B000FFF79FF800214FF40030FFF79AF825E062
:1030C000F048844209D101218804FFF792F80021D9
:1030D0004FF48020FFF78DF818E0EB48844209D1C7
:1030E0000121C804FFF785F800214FF40020FFF705
:1030F00080F80BE0E548844208D101210805FFF77C
:1031000078F800214FF48010FFF773F810BD2DE917
:10311000F04786B005460E460024A24600BFA146F1
:103120000027B08900B100BF2F462C8A4CF6FF70F3
:103130000440F08804432C82AC894EF6F31004401E
:10314000B08831890843718908430443AC81AC8A53
:103150004FF6FF400440B0890443AC8201A8FEF75B
:10316000B4FFC648874202D1DDF810A001E0DDF8C7
:103170000CA0A88900F4004040B10AEBCA0000EBA3
:103180000A1031684900B0FBF1F807E00AEBCA0009
:1031900000EB0A1031688900B0FBF1F86420B8FB3D
:1031A000F0F004012009642101FB1089A88900F4D2
:1031B000004040B1322000EBC900B0FBF1F000F05C
:1031C0000700044308E0322000EB09106421B0FB43
:1031D000F1F000F00F0004432C8106B0BDE8F08749
:1031E0004FF41651016000218180C18001810C21C2
:1031F000418100218181704710B502460020108A6C
:103200004FF2FF0318400B884C8823438C882343DC
:10321000CC8823431843108210BD002101804180D7
:103220008180C180704721B1828942F4005282813D
:1032300004E082894DF6FF731A4082817047F0B531
:103240000346002400260025002040F66A17B942F4
:1032500000D100BF1846C1F3421401F01F06012738
:1032600007FA06F5012C01D10C3004E0022C01D143
:10327000103000E014301AB107682F43076002E0F5
:103280000768AF430760F0BD1AB1838A0B4383829E
:1032900002E0838A8B4383827047028A4FF6F07381
:1032A0001A400282028A0A430282704782894FF2E0
:1032B000FF731A40828182890A438281704721B15B
:1032C000828942F00202828104E082894FF6FD7316
:1032D0001A4082817047028A4FF6DF731A400282D9
:1032E000028A0A430282704721B1028A42F4804274
:1032F000028204E0028A4BF6FF731A400282704792
:10330000C1F308028280704701468888C0F3080034
:103310007047818941F0010181817047028BD2B2EF
:103320000283028B42EA012202837047028B02F47D
:103330007F420283028B0A430283704721B1828A53
:1033400042F02002828204E0828A4FF6DF731A4044
:103350008282704721B1828A42F01002828204E0A8
:10336000828A4FF6EF731A408282704721B1828AB7
:1033700042F00802828204E0828A4FF6F7731A4014
:103380008282704721B1828942F40042828103E047
:103390008289C2F30E028281704721B1828A42F48F
:1033A0000062828204E0828A4FF2FF731A408282B6
:1033B0007047828A4FF6FB731A408282828A0A43E0
:1033C0008282704721B1828A42F00202828204E046
:1033D000828A4FF6FD731A408282704702460020AF
:1033E000B1F5007F00D100BF13880B400BB1012065
:1033F00000E00020704701F40072B2F5007F00D1B8
:1034000000BFCA430280704770B502460024002303
:103410000025002040F66A16B14200D100BFC1F37A
:10342000421501F01F03012606FA03F3012D02D114
:103430009689334006E0022D02D1168A334001E01E
:10344000968A33400C12012606FA04F4168834409A
:1034500013B10CB1012000E0002070BD10B50022B6
:10346000002340F66A14A14200D100BF0A120124D1
:103470009440A3B2DC43048010BD0000003801403A
:103480000044004000480040004C00400050004014
:103490007FB505460C4601211020FEF790FEADF8E1
:1034A0000850ADF804400020ADF80A00ADF8060061
:1034B00001A9A848FEF7AEFF01221146A548FFF773
:1034C00020FB36208DF8000002208DF801008DF8D9
:1034D000020001208DF803006846FEF750FA012132
:1034E0009C48FFF7F3FA7FBD7FB505460C460121E6
:1034F0002020FEF764FEADF80850ADF8044000202F
:10350000ADF80A00ADF8060001A99348FEF782FF66
:10351000012211469048FFF7F4FA37208DF8000099
:1035200003208DF801008DF8020001208DF80300C2
:103530006846FEF724FA01218748FFF7C7FA7FBDE6
:1035400010B501218348FFF78AFD80B3834800F05E
:10355000ECFD8348006830B382480168824801F07E
:103560000CFC82480168824801F007FC7B488168B6
:103570007D4801F0D3FB7F4908607F4801687C48A3
:1035800001F0CCFB7D4908607A4800680968401A60
:103590007B49086077480068784909680844794998
:1035A000086000F0CCFA01216A48FFF769FD10BD00
:1035B0002DE9F04F89B001216748FFF750FD002841
:1035C0007ED07148006800287BD070480068704940
:1035D00008606E4800686F4908606F4909686F4A63
:1035E0001268881802F0BDFF04460D466C4800685A
:1035F00002F0B7FF804600226A4B02F02BFE06461F
:1036000022462B4603F000F8CDE904016648006825
:1036100003F05AFB064603F0DFF904460D46634803
:10362000006802F09EFF804689465D48006802F00F
:1036300098FF064600225B4B02F00CFE42464B46CA
:10364000CDE9000102F0E0FF824622462B4602F05F
:1036500001FECDE90201DDE9042302F047FDCDE9D9
:10366000060102F04FFF52490860084600684749CA
:1036700009684942884203DA4448006840420AE047
:103680004B48006841490968884202DD3F480068AC
:1036900001E047480068464908604448006818BB94
:1036A00044480068C82804DC4248006810F1C80F8C
:1036B0001ADA4048006800280BDA3449096801E04A
:1036C00044E03FE0484200EBD0714910384A1160B5
:1036D0000AE038480068002806DD2C49086800EB3D
:1036E000D0714910324A11603048006868B12F48E3
:1036F0000068B0F5A07F08DC2C48006810F5A07FBA
:1037000003DB2A4800682B490860214800682849E3
:103710000968401A1E4908601E4800682449096863
:1037200008441C490860244800685B2806DA2248DF
:10373000006810F15B0F01DD00F03DFA00211F4829
:10374000FFF7DEFD01210448FFF79AFC09B0BDE850
:10375000F08F00000010004000140040E40300203F
:103760004C010020440100202004002048010020DA
:103770000804002068000020940000206C00002055
:10378000B4000020B8000020F0000020F800002065
:10379000AC000020B000002098000020280100208C
:1037A000FC6F000800002440007000082401002085
:1037B0007000002074000020200100200044004020
:1037C0002DE9F04782466A490878411C684A117021
:1037D000684901F800A008460078552804D0002068
:1037E00011460870BDE8F087614800780B2800DAC0
:1037F000F8E760484078512804D052280AD053286E
:103800007BD12AE05C485B49891C0A6802604968F0
:10381000416072E059485749891C0A68026049684A
:1038200041600146B1F9040002F09BFE804600228F
:10383000534B02F00FFD06460022524B02F0E4FE0D
:10384000044602F021FC5049086050494E48006887
:1038500003F086FA4C4908604FE04D484549891C01
:103860000A680260496841600146B1F9020002F04D
:1038700078FE80460022424B02F0ECFC0646002215
:10388000444B02F0C1FE044602F03CFE424908608F
:1038900008460068404208603D49B1F9000002F066
:1038A00060FE06460022364B02F0D4FC044600229D
:1038B000384B02F0A9FE804602F024FE374908602A
:1038C00008460068404208603149B1F9040002F03E
:1038D00048FE064600222A4B02F0BCFC04460022A9
:1038E0002C4B02F091FE804602F00CFE2C49086041
:1038F000084600684042086000BF00BF00201C4925
:10390000087000BF6EE710B50020264908600EE081
:103910002548244A1268815C2448FFF7F1FC012005
:10392000FCF77BFF1F480068401C1E4908601D48CB
:1039300000680528ECDB4FF49670FCF76EFF002062
:10394000184908600EE01848164A1268815C17484A
:10395000FFF7D6FC0120FCF760FF12480068401C0E
:10396000104908600F4800680528ECDB10BD000016
:1039700050000020E8020020780000208000002095
:103980000000E04000409F409C000020000080BFFD
:1039900088000020008066409000002094000020F5
:1039A00098000020A8000020A0000020003801405E
:1039B00030B589B005460C4601215020FEF7F2FBD8
:1039C00001210846FEF7EEFB0121C802FEF7EAFBE3
:1039D00001210220FEF7F3FB0121D448FEF7F7F99D
:1039E0000121D348FEF7F3F94FF4D440ADF820009D
:1039F00018208DF8230003208DF8220008A9CD4857
:103A0000FEF714F94FF47070ADF8200008A9CA4809
:103A1000FEF70CF9ADF81850ADF814400020ADF8E1
:103A20001A00ADF816008DF81C0005A9C348FEF772
:103A3000F1FC05A9C248FEF7EDFC6020ADF80400DA
:103A40000020ADF80C000120ADF8060001A9BB482C
:103A5000FEF71DFD0821B948FFF768F901A9B7482D
:103A6000FEF757FD0821B548FFF769F901A9B348EA
:103A7000FEF79CFD0821B148FFF76EF901A9AF4898
:103A8000FEF7DFFD0821AD48FFF76FF901A9AC484B
:103A9000FEF7FDFC0821AA48FFF748F901A9A8484C
:103AA000FEF737FD0821A648FFF749F901A9A44808
:103AB000FEF77CFD0821A248FFF74EF901A9A048B6
:103AC000FEF7BFFD08219E48FFF74FF901219B48F3
:103AD000FFF708F801219948FEF7F8FF01219848FF
:103AE000FEF7F4FF40F2DC519448FFF787FA40F20A
:103AF000DC519248FFF784FA40F2E3518F48FFF718
:103B000081FA40F2DC518D48FFF77EFA40F2DC5139
:103B10008B48FFF773FA40F2DC518948FFF770FADF
:103B200040F2D5518648FFF76DFA40F2DC518448E7
:103B3000FFF76AFA6420FCF770FE09B030BD10B5DB
:103B4000804800685B3080490860804800684F30DA
:103B50007F4908607C480068422801DA422007E07B
:103B600079480068962801DD962001E076480068D3
:103B70007549086076480068362801DA362007E083
:103B800073480068962801DD962001E070480068BF
:103B90006F4908606C48008800F2DC5081B26848C8
:103BA000FFF72EFA6A48008800F2DC5081B26348C1
:103BB000FFF724FA10BD10B566480068002801DD43
:103BC000012000E00020634909682C2202FB00105C
:103BD00060490968C90F3B2202FB11005E49086079
:103BE0005E480068002801DD012000E000205B49FC
:103BF0000968372202FB001058490968C90F2F22B3
:103C000002FB1100564908605348006810F1960FF6
:103C100002DA6FF0950007E04F480068962801DD52
:103C2000962001E04C4800684B4908604C48006809
:103C300010F1960F02DA6FF0950007E0484800682F
:103C4000962801DD962001E0454800684449086057
:103C50004148008840F2DC52101A81B23748FFF721
:103C6000D1F93F48008800F2DC5081B23448FFF7B8
:103C7000C9F910BD10B53748006810F1640F02DAB9
:103C80006FF0630007E033480068642801DD6420BA
:103C900001E03048006840F2DC52101A81B2274837
:103CA000FFF7B0F92D48006810F1640F02DA6FF0E9
:103CB000630007E029480068642801DD642001E012
:103CC0002648006800F2DC5081B21D48FFF79AF9DF
:103CD0001C48006810F1640F02DA6FF0630007E01F
:103CE00018480068782801DD782001E01548006850
:103CF00000F2DC5081B21248FFF782F913480068E5
:103D000010F1640F02DA6FF0630007E00F480068FB
:103D1000782801DD782001E00C48006800F2DC50D2
:103D200081B20648FFF76AF910BD0000C000160016
:103D3000000C1A000018014000100140002C014046
:103D400000040040B4000020BC000020B8000020A7
:103D5000C0000020AC000020C4000020B000002003
:103D6000C800002008B501210820FEF71BFAC0207A
:103D7000ADF8000010208DF8030003208DF802003C
:103D80006946F748FDF752FFC021F548FDF7FBFFF4
:103D900008BD08B58020ADF8000010208DF80300A4
:103DA00003208DF802006946ED48FDF73FFF08BD8E
:103DB00008B58020ADF8000004208DF80300032032
:103DC0008DF802006946E648FDF730FF08BD10B5E2
:103DD000FFF7DFFF0120E3490860E349C1F89801DC
:103DE0000420FCF7F6FC0020DE4908600420FCF704
:103DF000F0FC0020DC49C1F8980110BD10B5FFF7B8
:103E0000C8FF0020D749091F0860D749C1F89C01A5
:103E10000420FCF7DEFC0120D249091F0860D249CA
:103E2000C1F89C010420FCF7D4FC10BD10B500249F
:103E3000FFF7BEFF0120CB490860FCF7CAFC012058
:103E4000C949C1F89801FCF7C4FC07E0601CC4B282
:103E5000FA2C03DDFFF7D2FF012010BDC1488038E6
:103E600000680028F2D1BF49091F086000BFF4E7CD
:103E700010B50020BB49091F0860FFF78AFF00202A
:103E8000B949C1F89C010220FCF7A3FC0120B54907
:103E9000091F08600220FCF79CFC0020B249C1F811
:103EA000980110BD10B50020AE49091F0860FFF74A
:103EB00070FF0120AC49C1F89C010220FCF789FC8D
:103EC0000120A849091F08600220FCF782FC00209D
:103ED000A549C1F8980110BD70B50446FFF759FF18
:103EE0000020A049091F0860002517E0E0099D494E
:103EF00008606006040E0220FCF76BFC01209A4962
:103F0000C1F898010220FCF764FC00209549091FC4
:103F100008600220FCF75DFC681CC5B2082DE5DBDB
:103F200070BD70B505460024FFF742FF002617E07C
:103F300000208C49091F08600220FCF74AFC012080
:103F40008949C1F898016006040E864880380068E7
:103F500008B1601CC4B20120FCF73BFC701CC6B267
:103F6000082EE5DB15B9FFF79DFF01E0FFF780FFA5
:103F7000204670BD10B50446FFF729FFEC20FFF77F
:103F8000ABFFFFF753FF2078FFF7A6FFFFF74EFFC9
:103F9000FFF734FF10BD70B505460C46FFF717FF5D
:103FA000ED20FFF799FFFFF741FF0DE0012C04D151
:103FB0000020FFF7B6FF287004E00120FFF7B1FFF3
:103FC00028706D1C601E84B2002CEFD1FFF716FF25
:103FD00070BD1CB5062001900020009001A8FFF7DD
:103FE000C9FF0A20FCF719FC8D20019001A8FFF7FA
:103FF000C1FF0A20FCF711FCED20019001A8FFF79A
:10400000B9FF01216846FFF7C6FF9DF8000000F0E8
:10401000400008B100201CBD0120FCE73EB5002097
:10402000019002905148007840F0400000906846AE
:10403000FFF7A0FF4E4909684FF6FF7202EA410000
:10404000FCF7EBFB102000906846FFF793FF06217A
:1040500001A8FFF7A0FF9DF8040000049DF80510DB
:1040600000EB01209DF8061008444249086008460C
:10407000006800F4000020B10846006840F07F406E
:1040800008609DF8070000049DF8081000EB01206F
:104090009DF809100844384908600846006800F493
:1040A000000020B10846006840F07F4008603248B8
:1040B0000068642190FBF1F4204602F005FE2F49D0
:1040C00008603EBD70B5002401E0601CC4B2FFF77B
:1040D00080FF08B1022CF8DB012C02DD0120284909
:1040E000087008202149087019202149086000241F
:1040F00003E0FFF793FF601CC4B2142CF9DB4FF40C
:10410000FA70FCF78AFBFFF789FF1C48006802F091
:10411000BFFD1C4948601948006802F0B9FD05461A
:10412000294619A000F0B4FE70BD70B50446FFF733
:1041300075FF606802F0C8FD064610480168304609
:1041400002F0DAFE054602F0A3FDA060094800680F
:1041500002F0BAFD0546144902F0D8FC206070BD9B
:10416000000C01409C81214200802142CC000020B3
:10417000D0000020DC000020E0000020D80000205B
:10418000E4000020E403002074686520696E69740F
:1041900069616C2070726573737572653D2025646A
:1041A000206D6261720A00000000C84208B501215A
:1041B0004820FDF7F7FF4FF44070ADF800001020E5
:1041C0008DF8030003208DF8020069464E48FDF784
:1041D0002DFD4FF440714C48FDF7D5FD3F20ADF863
:1041E000000069464948FDF721FD3F214748FDF79A
:1041F000CAFD08BD10B50446032C12D11521434851
:10420000FDF7C3FD4FF480713F48FDF7BEFD2A2145
:104210003E48FDF7B8FD4FF400713B48FDF7B3FD94
:1042200028E0022C10D12A213848FDF7AEFD2102EA
:104230003548FDF7AAFD15213448FDF7A4FDE1013D
:104240003148FDF7A0FD15E04CB94FF440712E4800
:10425000FDF799FD3F212D48FDF795FD0AE0012C62
:1042600008D14FF440712848FDF78FFD3F212748C2
:10427000FDF78BFD10BD7FB505460C4601212020C2
:10428000FDF79DFFADF80850ADF804400020ADF8F3
:104290000A00ADF8060001A91D48FEF7BBF801228F
:1042A00011461B48FEF72DFC37208DF80000032037
:1042B0008DF801008DF8020001208DF8030068469A
:1042C000FDF75DFB01211248FEF700FC7FBD10B534
:1042D00001218807FEF7C3FEA0B10E48006868B14F
:1042E0000D48006818B901200B49086002E0002061
:1042F0000949086008480068FFF77CFF012188072A
:10430000FEF7BEFE10BD0000000C01400018014089
:1043100000140040E8000020EC0000200020FA49D2
:1043200048610861704710B503460C46F648436083
:104330008460C2600020F4490860FFF7EFFF10BD01
:104340002DE9FC5F81468A4614464FF0000BFFF7CB
:10435000DAFA00BFED4800680028FBD10120FFF722
:1043600049FF33E0E9480068A9EB0000E84908602C
:10437000A00040420968C90F4843E6490860A00010
:104380004042E3490968002901DD012100E00021E4
:104390004843E1490860FFF70EFC09FB09F002F011
:1043A000E0F80746DD4ADE4B02F02EF905460E46E0
:1043B000D749096801FB01F002F0D3F82A463346D9
:1043C000CDE9000102F0E4F800D200E0CAE700BF46
:1043D0000020FFF70FFF29E0CC480068A9EB0000A0
:1043E000CB490860CF480168006802F0B9FC054677
:1043F000CD4902F081FC04D3C5480068404302283F
:1044000000DA14E0C2480068002801DD012000E065
:10441000002061424843BF490860BD480068C00FA2
:1044200061424843BC490860FFF7C5FBD4E700BFC1
:104430000220FFF7DFFE34E0B4480068A9EB00007B
:10444000B3490860084600680A2804DC084600688A
:1044500010F10A0F02DA4FF0000B01E00BF1010B33
:10446000AB480068C00F61424843AA490860A848A9
:104470000068002801DD012000E00020614248437F
:10448000A5490860FFF797FBD34507D10020A14954
:104490000860A1490860FFF78EFB03E0C820FCF725
:1044A000BCF9C9E700BF0320FFF7A4FEBDE8FC9FED
:1044B00070B504460D4640F2AF519C48FEF7A2FD90
:1044C00040F213619A48FEF79DFD04EB84014FF61C
:1044D000FF7202EA4100FCF7A0F96FF011008D496C
:1044E0000860401C8C490860FFF765FBC4EBC40101
:1044F00001EB041188B2FCF790F9002085490860AF
:1045000085490860FFF757FB70BD70B504460D463E
:104510006FF011007F490860401C7F490860FFF779
:104520004AFB04EBC40101EB410188B2FCF775F9C9
:1045300040F2AF517D48FEF765FD40F213617C48C3
:10454000FEF760FD04EB84014FF6FF7202EA4100C2
:10455000FCF763F900206F4908606F490860FFF7B6
:104560002AFB70BD00241FE072480068322809DA77
:104570007048006810F1320F04DD641C6420FCF701
:104580004CF911E000246B480068002804DD0F217D
:104590003220FFF78DFF07E066480068002803DA45
:1045A00014213220FFF7B1FFDEE72DE9F05F8246EC
:1045B0008B46FFF7A8F900BF544800680028FBD1DC
:1045C00044E052480068AAEB00005B4908600846D6
:1045D0000068C00F6FF0540148435749096800292B
:1045E00001DD012100E00021012202FB0100494917
:1045F000086051480068002801DD012000E000202B
:104600006FF0530148434C490968C90F012202FB6E
:10461000010041490860FFF7CEFA0AFB0AF001F0F9
:10462000A0FF80464FF03332444B01F0EDFF0446CB
:104630000D464149096801FB01F001F092FF064671
:1046400022462B4601F0A4FF00D200E0B9E700BFEC
:104650003BE02E480068AAEB00003749086031486B
:104660000168006802F07CFB0446354902F044FB17
:1046700004D3314800684043112800DA26E02E4870
:104680000068002801DD012000E000206FF05401E7
:10469000484329490968C90F012202FB01001D494D
:1046A000086025480068C00F6FF053014843224955
:1046B0000968002901DD012100E00021012202FB3F
:1046C000010015490860FFF776FAC2E700BF002035
:1046D0001049086010490860FFF76DFABDE8F09FC7
:1046E00070B504460D4617A000F0D2FB0020094922
:1046F000086009490860FFF75EFA19480460002065
:104700001849086045E00000F003002098000020F0
:1047100004010020AC000020B00000207B14AE4754
:10472000E17AA43F9C0000200000F041002C0140F1
:104730000004004038010020080100203333C33F4B
:1047400000001041412070697463682D6272616BD2
:10475000652069732068617070656E696E670A0014
:10476000480100200C01002003214748FEF7C8FD46
:10477000C820FCF752F845480068B0F57A7F03D0AE
:10478000424800684249086042480068401C41496C
:10479000086040480068A842E6DB00203E49086007
:1047A00070BD70B504460D463CA000F071FB6FF083
:1047B000540044490860401C43490860FFF7FBF976
:1047C0003548046000204149086022E003212E485A
:1047D000FEF796FD032094FBF0F03D4909688842FE
:1047E00006DD00203749086037490860FFF7E3F924
:1047F000C820FCF712F825480068B0F57A7F03D08E
:10480000224800682249086030480068401C2F494F
:1048100008602E480068A842D8DB00201E490860C6
:1048200070BD10B504462BA000F032FB6FF05400B1
:1048300024490860401C24490860FFF7BCF90020A7
:104840002C49086014E003210F48FEF759FDC820E9
:10485000FBF7E3FF0D480068B0F57A7F03D00B4803
:1048600000680B49086023480068401C2149086023
:1048700020480068A042E6DB002012490860124987
:104880000860FFF798F910BD00440040380100208F
:104890003C0100200C0100204801002041207374DD
:1048A0007261696768742070697463682D627261EF
:1048B0006B652069732068617070656E696E670A48
:1048C00000000000AC000020B0000020100100201B
:1048D00094000020412073747261696768742062DB
:1048E00072616B652069732068617070656E696EB6
:1048F000670A0000140100207FB505460C4601211F
:104900000420FDF75CFCADF80850ADF80440002031
:10491000ADF80A00ADF8060001A9E148FDF77AFDFF
:1049200001221146DE48FEF7ECF81E208DF800004B
:1049300003208DF801008DF8020001208DF803009E
:104940006846FDF71CF80121D548FEF7BFF87FBD8A
:1049500010B50121D248FEF782FB002870D0D14863
:10496000006800286DD0D0480068B0F57A7F03D089
:10497000CD480068CD490860CB480068CC4909683B
:104980004942884205DBC8480068C949096888422D
:104990007BDDC5480068C00FC64909684843C24965
:1049A0000968002901DD012100E00021012202FB4C
:1049B0000100C1490860BC480068C00FBF490968D0
:1049C0004843B9490968002901DD012100E00021BF
:1049D000012202FB0100BA490860B3480068B0F543
:1049E0007A7F23D1B1480068C00FB24909684843B3
:1049F000AE490968002901DD012100E00021012202
:104A000002FB0100AC490860A8480068C00FAB4930
:104A100009684843A5490968002901DD012100E032
:104A20000021012202FB0100A5490860FFF7C3F83D
:104A30009D480068002805DA9B480068404203E072
:104A400094E02DE098480068994909684900884237
:104A500003DA9620FBF7E1FE17E093480068002890
:104A600003DA91480068404201E08F4800689049AD
:104A7000096801EB4101884203DAC820FBF7CDFE4B
:104A800003E04FF49670FBF7C8FE00208A490860E7
:104A90008B490860FFF78FF803218A48FEF730FC46
:104AA0008948006800285DD08848006888490968FE
:104AB000884206DC85480068854909684942884281
:104AC00049DA82480068002801DD012000E000206A
:104AD0007849096848437D490968C90F012202FBEA
:104AE00001007549086079480068C00F734909687A
:104AF000484376490968002901DD012100E00021D1
:104B0000012202FB01006E490860FFF754F86F486C
:104B10000068002803DA6D480068404201E06B48F5
:104B20000068052803DAB420FBF777FE13E0674836
:104B30000068002803DA65480068404201E06348E5
:104B400000680F2803DAC820FBF767FE03E04FF484
:104B50009670FBF762FE00205749086058490860CC
:104B6000FFF729F801214E48FEF78AFA10BD2DE91A
:104B7000F84304468946E078232806D0242845D007
:104B800025285ED026287DD141E020790006617974
:104B900000EB0140A17900EB0120E17908444D4987
:104BA00008600968484202F08FF880464A4901F0DF
:104BB000ADFF0746494902F0D3F80646484901F0DF
:104BC000A5FF054602F064F846490860207A000611
:104BD000617A00EB0140A17A00EB0120E17A084400
:104BE000414908603F48006838490968401A3F4910
:104BF0000860207B0006617B00EB0140A17B00EB9D
:104C00000120E17B08443A49086045E044E020790E
:104C10000006617900EB0140A17900EB0120E17908
:104C20000844404233490860207A0006617A00EB6C
:104C30000140A17A00EB0120E17A08441A4908609A
:104C40002AE02D480068401C2B49086020790006A6
:104C5000617900EB0140A17900EB0120E179084482
:104C600026490860084600784030009008460068F1
:104C7000402202EB206121480088C0F30723403323
:104C80001E4800E007E00068C0F3074240321CA065
:104C900000F0FEF800E000BF00BFBDE8F8830000B0
:104CA0000008004018010020380100203C010020CD
:104CB000187000081C700008AC000020207000086C
:104CC000B000002000440040F400002098000020C4
:104CD0000C7000081C010020560E494000003443AF
:104CE00000007A4420010020240100202801002037
:104CF0003001002034010020400100202C01002060
:104D0000487964726F736E61707065723A202563C2
:104D10002C25632C25632C25630A00002DE9FC5FFC
:104D200004460D462068461B606901F0CDFF8346AE
:104D3000E16802F015F88146206901F0C5FF009096
:104D4000A16802F00DF88346304601F0BDFF0090E7
:104D5000616802F005F85946019002F0D7F88246E2
:104D6000494601F065FE804601F092FF0746206942
:104D7000606126613846BDE8FC9F016070470021F4
:104D800001614161704741608260C360704700B556
:104D9000314801683148FFF7F0FF31480168314878
:104DA000FFF7EBFF304B314A31492C48FFF7EBFF5F
:104DB00000232F4A4FF082412A48FFF7E4FF27489B
:104DC000FFF7DDFF2748FFF7DAFF00BD10B500242D
:104DD0001CE02848806822490968081A26490860AA
:104DE0000846006825490968884206DC22480068B0
:104DF000224909684942884201DA002400E0641C23
:104E0000052C00D103E0C820FBF707FDE1E700BF58
:104E100010BD10B500241CE00F480068184909684F
:104E2000401A18490860084600681749096888420E
:104E300006DC14480068144909684942884201DACE
:104E4000002400E0641C032C00D103E0C820FBF721
:104E5000E4FCE1E700BF10BD480100200804002089
:104E60004401002020040020CDCCCC3D0AD7233DB6
:104E70009A99193FE40300205001002010700008A7
:104E800094000020540100201470000870470000B6
:104E90000FB4044910B503AA029800F073FB10BCCC
:104EA0005DF814FB4800002070B50C460546012A49
:104EB00005D02878800600D5EA69002302E00123A6
:104EC00005E05B1C934202D2E05C0028F9D1A8699E
:104ED000E618C01AA861286A184428622846AFF369
:104EE000008004E0D5E9012114F8010B9047B44299
:104EF000F8D32846AFF3008070BD00002DE9F041E3
:104F00000646002410687529314616A510D0AFF367
:104F10000080002802DA404213A507E031688A07C2
:104F200001D512A502E0490704D511A5012401E02D
:104F3000AFF3008000210A2206F1240709E0B0FB4C
:104F4000F2FCB0FBF2F302FB1C0030307854184640
:104F5000491C0028F3D123462A463046BDE8F041DB
:104F600000F093B8000000002D0000002B000000AE
:104F7000200000002DE9F0474FF0000A8946044662
:104F8000C0F820A02046E1688847002876D0252870
:104F900006D0D4E901219047206A401C2062F1E745
:104FA000E168204600258847C4F81CA00646002773
:104FB000C4F818A02A2E09D0304601F048F838B3BA
:104FC00004EB8708303EC8F8186019E059F8041B54
:104FD000204604EB87029161E1688847012F06466D
:104FE00018D1E069002820DA25F020051DE0D8F866
:104FF000180000EB800006EB40003038C8F81800BD
:105000002046E1688847064601F021F80028EED1E5
:10501000012F0AD02E2E08D12046E16888477F1C38
:105020000646022F45F02005C4DBA069002803DAFC
:10503000404245F00105A061E80701D025F01005C8
:10504000B6B1A6F14100192802D8203645F4006512
:105050004A463146204625604D46FBF7C3F858B115
:10506000012806D0ED1D25F0070000F1080989E7A9
:1050700004E005F1040985E730468AE7206ABDE8C7
:10508000F08770477047704770472DE9F0470D462D
:1050900099469246044600F124080168880604D522
:1050A000E06921F01001216000E00120A84201DD4B
:1050B000471B00E00027A1697A1902EB0900081AD2
:1050C000A0612078C00602D42046AFF300800026FD
:1050D00008E0D4E901211AF806009047206A401C34
:1050E000761C20624E45F4DB2078C0060AD52046A7
:1050F000AFF3008006E0D4E9012130209047206A18
:10510000401C2062381EA7F10107F4DC07E0D4E957
:10511000012118F805009047206A401C2062281ED3
:10512000A5F10105F3DC2046AFF3008020780006EE
:1051300002D50220BDE8F0870120FBE770472DE98A
:10514000FF4F0C461E464FF0FF378BB0D2E90001EF
:10515000DDF860800A908A46C1F30A5505B93D46DC
:10516000002108464FF00000BAF1000F00F44000A3
:1051700005DA00EB80004FF4400101EA50004FEAED
:105180009059B9F1010F00DDB9460A9850EA4A007A
:105190000ED044F61050A5F2FF3545432F14B8F158
:1051A000000F1ED07542291E1EDDC9F100021CE051
:1051B000B8F1010F4FF0000001D0302103E0F243BD
:1051C00005E02154401CB042FBDB304600220021A8
:1051D00021540B99C1F80880C1E900200FB0BDE847
:1051E000F08FBD1B6D1CDEE74A4600DA694206A857
:1051F00000F07CFA06AB93E8070003AB83E80700F6
:1052000050460A9900F054FB8DE80700A0F50050C5
:105210001F3800900398002D09DD42F21F014A4615
:10522000084403A90390684600F0B3FD08E0A0F528
:1052300000504A461F3803A90390684600F0BDFDA0
:105240008DE807000004000C03D04FF0FF30410848
:1052500000E01046B8F1000F03D00022009215467E
:105260001EE0751E05D400F0A3F9303262556D1EA4
:10527000F9D5B3460122084302D000227F1C04E086
:105280002078302801D100227F1E002A099786D07D
:105290001DE0112D07DA00F08BF9303262556D1CDC
:1052A00050EA0102F5D1084302D00098C8B10EE0DF
:1052B0000021681E05E0235C625C63542254401E9A
:1052C000491C8142F7DBAB46A81B401E0990002019
:1052D00004F80B000B98099AC0F80880C0E9002B6D
:1052E0007CE711264FF0000859E72DE9F04F88467A
:1052F0000446D21D22F0070191B0D1E90001CDE9A9
:105300000A0100F090FE02460B98C00F01D02D203C
:1053100007E02068810701D52B2002E0202101EA67
:10532000C000032A099001D0072A05DB0346414645
:10533000204600F09BF90BE12078800601D5E0695A
:1053400000E00620B8F1650F814606D0B8F1660F7F
:1053500018D0B8F1670F70D131E00020B9F1110F0A
:10536000009001DB112301E009F101030AAA01A960
:105370000CA8FFF7E4FEDDE90C70002609F1010539
:10538000834647E001204B4600904FF000470AAAB1
:1053900001A90CA8FFF7D3FEDDE90DB00C995D461D
:1053A000002610B909F101000D18B9EB050003D46E
:1053B000C0F1FF3609F10105A5EB09002BE0B9F1B9
:1053C000010F01DA4FF001090020B9F1110F00902F
:1053D000484601DD112300E003460AAA01A90CA8F2
:1053E000FFF7ADFEDDE90C704D46002683462078C0
:1053F00000070AD4AB4500DA5D4601A8012D04DDA3
:10540000411911F8011C302907D04F4502DA17F174
:10541000040F04DA012082460FE06D1EEEE7002F34
:1054200002DCED1B3E4403E0781CA84200DD7D1C3D
:10543000B81B00F1010A4FF000472078000703D4A1
:10544000AA4501DB4FF0FF3A0021B7F1004F0DF103
:1054500043088DF8431024D002202B23002F01DABB
:105460007F422D230A21021EA0F1010000DC5FB162
:1054700097FBF1FC97FBF1F201FB1C7C17460CF14A
:10548000300C08F801CDEEE7A8F101000370218887
:10549000090501D5452100E06521A0F1010800F8CA
:1054A000011C09980FA9A1EB0807FF1D00B10120FD
:1054B000411901EBEA70A1693844081A401EA06145
:1054C0002078C00602D42046AFF30080099828B1A6
:1054D000D4E901219047206A401C20622078C00650
:1054E00022D52046AFF300801EE0002E04DBB3453A
:1054F00002DD01A8805D00E03020D4E90121904761
:10550000206A401C2062761CAAF101005FEA000AB2
:105510000AD100F049F8C0680168405CD4E9012173
:105520009047206A401C2062281EA5F10105DCDCA2
:1055300007E0D4E9012118F8010B9047206A401CCC
:105540002062381EA7F10107F3DC2046AFF300808C
:10555000032011B043E610B5436913B1AFF30080E7
:1055600001E0FFF7A1FC012010BD127800F1240139
:105570000A7000224A700122EDE711684FF0FF32F5
:10558000E9E70000074B70B50D467B4400F05BF87F
:105590000446284600F018F910B14FF0FF3070BDF6
:1055A000204670BDEDB2FFFF004870475804002050
:1055B00030B5B0F10A024FEA900E71F100034EEAE5
:1055C000817EB0EB0E0061EB91014FEA101E4EEAB6
:1055D000017E10EB0E0041EB11114FEA102E4EEA46
:1055E000016E10EB0E0041EB11214FEA104E4EEA16
:1055F000014E10EB0E0041EB1141401841F100014A
:105600004FEAD00040EA41704FEAD10110EB80052B
:105610004FEA810444EA907444EB01046D1944EBB1
:105620000404521BA3414FF0000348BF0A3200D5C7
:1056300030BD401C41F1000130BD000001694A1C31
:1056400002610878704700B58FB0CDE901310021C3
:10565000059105497944CDE9031011466846FFF7E5
:1056600089FC0FB000BD0000E5FFFFFF2DE9F04110
:105670001F46044603260168072A01F4006004DB84
:1056800008B116A505E016A503E008B115A500E0D0
:1056900015A521F010002060A069C01EA0610FB107
:1056A000401EA0612046AFF300804FB1D4E9012134
:1056B00038469047206A401C2062C01C206206E0E9
:1056C000206AFAE7D4E9012115F8010B9047761E0C
:1056D000F8D22046AFF30080BDE8F0814E414E0085
:1056E0006E616E00494E4600696E66002DE9F04716
:1056F000814616468AB0334878440DC88DE80D00BF
:1057000030487844801C03AC0DC884E80D0041F695
:105710009B300844372190FBF1F290FBF1F5A5F1A5
:10572000800501FB12041B3C02D56442012000E00D
:105730000020DFF890A080460027FA44AAF1BE0AB4
:105740000DE0E00709D03246684607EB47010AEB57
:10575000810100F032FB8DE8070064107F1C002CF3
:10576000EFD1184F7F44AC3F18E0E80714D007EBA7
:1057700004100DF1180A90E80E008AE80E00C068C7
:10578000F04201D198190890324606A903A800F00A
:1057900014FB03AB83E807006D10641C002DE4D1FB
:1057A00032466946B8F1000F03A802D000F0F1FAC2
:1057B00001E000F002FBC9E90001C9F808200AB0C5
:1057C000BDE8F087A4190000007B00F0800070475E
:1057D00000487047380400207546FFF7F9FFAE46D1
:1057E00005006946534620F00700854618B020B5ED
:1057F000FCF7AEF8BDE820404FF000064FF0000780
:105800004FF000084FF0000B21F00701AC46ACE868
:10581000C009ACE8C009ACE8C009ACE8C0098D46D5
:1058200070470446AFF300802046FAF7FBFC000007
:105830004FF0013C50F8042B51F8043B9A4221D11F
:10584000A2EB0C03934313EACC1317D150F8042BAB
:1058500051F8043B9A4215D1A2EB0C03934313EA8F
:10586000CC130BD150F8042B51F8043B9A4209D1C8
:10587000A2EB0C03934313EACC13DBD04FF00000F0
:10588000704700BFD01A01BAB1FA81F101F01801D6
:1058900022FA01F0CB40C1F12001DBB2C0B2C01A44
:1058A0002CFA01F3D11A914311EAC311E6D17047E2
:1058B0005FEA400C08BF91F0000F4FEA8C234FEADB
:1058C000C12243EA51514FEA1C5018BF00F5F04085
:1058D0004FEA300018BF41F000415FEA6C5C00F015
:1058E0002980BCF1FF3F08BF40F080407047130C97
:1058F00006BF12044FF0100C4FF0000C130E04BF43
:1059000012020CF1080C130F04BF12010CF1040C6D
:10591000930F04BF92000CF1020CD30F04BF52008E
:105920000CF1010C11464FF00002A0F11F00A0EB9A
:105930000C00704711F0004F08BF704731F0004174
:105940003FF4D5AF0B0C06BF09044FF0100C4FF01D
:10595000000C0B0E04BF09020CF1080C0B0F04BF66
:1059600009010CF1040C8B0F04BF89000CF1020C2F
:10597000CB0F04BF49000CF1010CCCF12003A0EBCC
:105980000C0022FA03F302FA0CF241EA030100F1DF
:105990000100704720F07F4C80EA030023F07F472E
:1059A000ACEB070303F57C5300F0004003F1FF0369
:1059B0002DE980494FEA154B09B44FEA144325EA13
:1059C0000B4E24EA03480FF2042606EB132749087E
:1059D0003E785FEA320203FB0667C7F5000707FB64
:1059E00006F64FEA54374FEAD64606F1020607FBA1
:1059F000066CCCF1005C4FEA1C472CEA074C07FB15
:105A000006F40CFB06F504EB15464FEA961634BF78
:105A100000204FF000404FEAD13706FB07FC4FEA69
:105A20001C4C0CFB0BF7D21B03FB0CF761EB0701C3
:105A30000CFB0EF7B0EB074072EB17420CFB08F7BC
:105A400034BFA2EB0742B2EB074261EB17414FEACA
:105A50000C444FEA910706FB07FC4FEA1C4C0CFB79
:105A60000BF7B0EBC74072EB573203FB0CF734BFB8
:105A7000A2EBC742B2EBC74261EB57310CFB0EF70A
:105A8000B0EBC70072EB57720CFB08F734BFA2EB08
:105A9000C702B2EBC70261EB5771039F4FEA816106
:105AA00041EA921104EBCC044FEAD1374FEA82620B
:105AB00006FB07FC42EA90124FEA80604FEA1C4C5A
:105AC0000CFB0BF7D21B03FB0CF761EB07010CFB84
:105AD0000EF7B0EB074072EB17420CFB08F734BF30
