:020000040800F2
:10000000F8090020ED0E00083D0200083F0200083C
:1000100043020008470200084B02000800000000ED
:100020000000000000000000000000004F02000877
:1000300051020008000000005302000855020008A9
:10004000070F0008070F0008070F0008070F000838
:10005000070F0008070F0008070F0008070F000828
:10006000C5040008070F0008070F0008070F000865
:10007000070F0008070F0008070F0008070F000808
:10008000070F0008070F0008070F0008070F0008F8
:10009000070F0008070F0008070F0008070F0008E8
:1000A000070F0008070F0008070F0008070F0008D8
:1000B000070F0008070F0008070F0008070F0008C8
:1000C000070F0008070F0008070F0008070F0008B8
:1000D000070F0008B30E0008710D0008F3070008B1
:1000E000070F0008070F0008070F0008070F000898
:1000F000070F0008070F0008070F0008070F000888
:10010000070F0008070F0008070F0008070F000877
:10011000070F0008070F0008FB2A0008612B0008E2
:10012000070F0008070F0008070F0008070F000857
:1001300000F002F800F042F80AA090E8000C8244B7
:100140008344AAF10107DA4501D100F037F8AFF294
:10015000090EBAE80F0013F0010F18BFFB1A43F0A5
:1001600001031847A0450000C0450000103A24BF15
:1001700078C878C1FAD8520724BF30C830C144BF0C
:1001800004680C607047000000230024002500264E
:10019000103A28BF78C1FBD8520728BF30C148BFEA
:1001A0000B607047642903F0CD82632903F06D83EF
:1001B000002070471FB51FBD10B510BD03F0A0FB98
:1001C0001146FFF7F7FF00F009F803F0BEFB03B498
:1001D000FFF7F2FF03BC00F0F9F9000010B54FF48F
:1001E000A06000F0A3FE00F087F900F025F903F00D
:1001F00019F9472144F61F6002F084FD4FF41650B0
:1002000000F08EFA4FF4165000F0EFF902F0E6FE1F
:1002100003F094F803F002FA41F61F4140F6C310D0
:1002200002F012FC02E0FA2000F0A3F90248006894
:100230000028F8D0002010BD00000020704700BF4B
:10024000FEE700BFFEE700BFFEE700BFFEE7704726
:1002500070477047704700000CB500200190009077
:100260006C48006840F480306A49086000BF694803
:10027000006800F4003000900198401C0190009844
:1002800018B90198B0F5A06FF1D16248006800F488
:10029000003010B10120009001E000200090009893
:1002A000012843D15C48006840F010005A490860BA
:1002B0000846006820F0030008600846006840F027
:1002C0000200086053484068524948600846406848
:1002D00048600846406840F48060486008464068CE
:1002E00020F47C1048600846406840F4E8104860FC
:1002F0000846006840F08070086000BF454800680C
:1003000000F000700028F9D04248406820F0030057
:10031000404948600846406840F00200486000BF1D
:100320003C48406800F00C000828F9D10CBD10B51D
:10033000FFF792FF10BD10B53648006840F001008D
:1003400034490860084640683449084031494860EB
:1003500008460068324908402E490860084600688F
:1003600020F4802008600846406820F4FE004860C1
:100370004FF41F008860FFF7DAFF4FF00060294953
:10038000086010BD10B5002100200022214B5B68E1
:1003900003F00C0121B1042906D0082928D107E077
:1003A000214B224C236027E01F4B204C236023E08D
:1003B000184B5B6803F47010164B5B6803F48032D3
:1003C000022303EB904022B9194B4343174C23609F
:1003D0000DE0104B5B6803F4003323B1144B43432F
:1003E000124C236003E0104B4343104C236003E0A6
:1003F0000D4B0E4C236000BF00BF064B5B68C3F380
:1004000003130C4CE15C094B1B68CB40074C236089
:1004100010BD000000100240002002400000FFF864
:10042000FFFFF6FE08ED00E000127A000400002055
:1004300000093D00080000201FB50121112001F036
:100440008DF90820ADF80C0010208DF80F00032066
:100450008DF80E0003A9264800F0C4FE642000F0C9
:1004600088F80821224800F06AFF0420ADF80C004B
:100470008DF80F0003208DF80E0003A91C4800F032
:10048000B1FE0221084600F0C3FF042001900020C5
:100490008DF808000C208DF8090001208DF80A0065
:1004A00001A800F0BFFD08208DF8000000208DF8A5
:1004B00001008DF8020001208DF80300684600F06D
:1004C0003AFD1FBD10B5042000F012FE70B10420EB
:1004D00000F01FFE0748006820B90120054980315F
:1004E000086003E0002003498031086010BD00006F
:1004F000001001400C01224210B56FF0040000F022
:1005000064FD2E4800682E49B0FBF1F02D490870BB
:100510000846007800EB4001C1EBC0104FF6FF71B8
:1005200001EAC0002849088010BD0146254A12781A
:100530004A434FF0E0235A6100229A611A46126939
:1005400042F001021A6100BF4FF0E022106900F092
:1005500001021AB100F48032002AF5D04FF0E022F7
:10056000126922F001024FF0E0231A6100229A6121
:1005700070470146144A12884A434FF0E0235A61FB
:1005800000229A611A46126942F001021A6100BF04
:100590004FF0E022106900F001021AB100F480323D
:1005A000002AF5D04FF0E022126922F001024FF04C
:1005B000E0231A6100229A617047000004000020C5
:1005C00000127A00180000201A000020014600BF27
:1005D000704700BFFE4A128802F04002002AF9D09C
:1005E000C2B2FB4B1B1D1A80704710B586B0044683
:1005F000012144F2040001F0B1F84FF40070ADF8AD
:10060000140003208DF8160018208DF8170005A996
:10061000F04800F0E7FD4FF48060ADF814000420CE
:100620008DF8170005A9EB4800F0DCFD25208DF8BA
:10063000000001208DF8010000208DF8020001204B
:100640008DF80300684600F076FC01940020ADF8B8
:100650000800ADF80A00ADF80C00ADF810000C2051
:10066000ADF80E0001A9DC4802F02DF8012240F29D
:100670002551D94802F0BFF80121D74802F0AFF860
:1006800006B010BD10B586B004460121480401F043
:1006900072F80121042001F061F80420ADF8140083
:1006A00003208DF8160018208DF8170005A9C948F9
:1006B00000F098FD0820ADF8140004208DF8170014
:1006C00005A9C44800F08EFD26208DF80000012009
:1006D0008DF8010000208DF8020001208DF8030044
:1006E000684600F028FC01940020ADF80800ADF841
:1006F0000A00ADF80C00ADF810000C20ADF80E00AB
:1007000001A9B64801F0DFFF012240F22551B348AC
:1007100002F071F80121B14802F061F806B010BD95
:1007200010B586B004460121212001F017F80121FF
:10073000880401F020F80121A94800F024FE4FF4BC
:100740008070ADF8140003208DF8160018208DF885
:10075000170005A9A34800F045FD4FF40070ADF85F
:10076000140004208DF8170005A99E4800F03AFDFA
:100770004FF4E050ADF8140010208DF8170005A9D3
:10078000984800F02FFD4FF4E051964800F0D9FD55
:1007900027208DF8000000208DF801008DF8020060
:1007A00001208DF80300684600F0C5FB019400208D
:1007B000ADF80800ADF80A00ADF80C00ADF8100077
:1007C0000C20ADF80E0001A9814801F07CFF012248
:1007D00040F225517E4802F00EF8012240F22771C6
:1007E0007B4802F008F80121794801F0F8FF06B0D3
:1007F00010BD2DE9FF5F40F22551754802F0E0F889
:1008000028B3734802F05CF800F0FF0A76480088CD
:1008100000F40040D8B97448008800F4804068B102
:10082000BAF10A0F03D000206F49088022E06E4819
:10083000008840F400406C4908801BE0BAF10D0FBD
:1008400006D16948008840F480406749088011E07B
:1008500065480088C0F30D00644901F800A06248B3
:100860000088401C6049088008460088C72801DDD0
:10087000002008805C48008800F4004000287DD0FB
:100880005A480078A0F1300B594659A002F0F0FE0A
:10089000BBF10A0F73D2DFE80BF00506131D293BED
:1008A000E9E8E79A00BF574802F0AFFE564802F069
:1008B000ACFE56480068C0F101005449086044E2AB
:1008C00053480368534802685348016853A002F034
:1008D000CFFE3AE25448006803F094FD04465348C2
:1008E0002146826852A002F0C3FE2EE23F48807883
:1008F0003038642148433D49C97830390A2202FB27
:1009000001013A48007930380844514908601CE236
:100910003648C07830386421484334490979303941
:100920000A2202FB01013148407930380844494924
:1009300008602E48007A3038642148432B49497AB0
:10094000303902FB01012948807A30380844424995
:1009500008602648407B3038642148432349897B1E
:10096000303902FB01012148C07B303808443B4943
:1009700008601E48807C3038642101E0EAE1E3E150
:1009800048431A49C97C303902FB01011748007DF0
:100990003038084432490860144989782B2901D13C
:1009A000012100E00021084603F009FA80460022F8
:1009B0002C4B03F019FB00224FF08043CDE90001DE
:1009C00003F014FACDE90201224800684FE0DFE0AD
:1009D0000048004000080140003801400044004049
:1009E000300014000014014020000020C40000204A
:1009F000636F6D6D616E64747970653D2564200A66
:100A0000000000005C03002078030020BC000020F0
:100A100074000020700000206C0000202564202558
:100A2000642025640A000000940000205003002088
:100A300070726573737572653D2564206D626172B5
:100A40002064657074683D20256420636D0A000091
:100A5000B8000020780000207C00002080000020EA
:100A6000840000200000E03F8CE086E080E003F09E
:100A7000A6F90646DDE9022303F0B8F9044603F0BF
:100A80006FF9FE490860FE49C9792B2901D101217E
:100A900000E00021084603F092F90022F94BCDE96D
:100AA000000103F0A1FA064600224FF0804303F054
:100AB0009DF9CDE90201F448006803F080F9804611
:100AC000DDE9022303F092F9044603F049F9EE4907
:100AD0000860EB49097B2B2901D1012100E00021AD
:100AE000084603F06CF90022E64BCDE9000103F063
:100AF0007BFA064600224FF0804303F077F9CDE9F8
:100B00000201E248006803F05AF90446DDE90223D5
:100B100003F06CF9804603F023F9DC490860D849FA
:100B2000497C2B2901D1012100E00021084603F076
:100B300046F90022D34BCDE9000103F055FA0646F1
:100B400000224FF0804303F051F9CDE90201D04873
:100B5000006803F034F98046DDE9022303F046F92A
:100B6000044603F0FDF8CA49086002F092F9ECE08F
:100B70000021C84801F0A0FEE7E00121C54801F0CE
:100B80009BFEE2E0C448017AC24801F095FEDCE039
:100B9000BB48C078303864214843B94909793039B5
:100BA0000A2202FB0101B648407930380844B349B3
:100BB0000860B348007A303864214843B049497A24
:100BC000303902FB0101AE48807A30380844AE4922
:100BD0000860AB48407B303864214843A849897B92
:100BE000303902FB0101A648C07B30380844A749D0
:100BF0000860A348807C303864214843A049C97C00
:100C0000303902FB01019E48007D30380844A0497C
:100C100008609B4989782B2901D1012100E000213E
:100C2000084603F0CCF80022964BCDE9000103F012
:100C3000DBF9804600224FF0804303F0D7F8CDE97E
:100C400002018E48006803F0BAF80646DDE9022387
:100C500003F0CCF8044603F083F88849086088491B
:100C6000C9792B2901D1012100E00021084603F0B8
:100C7000A6F80022834BCDE9000103F0B5F9064642
:100C800000224FF0804303F0B1F8CDE902017E4825
:100C9000006803F094F80446DDE9022303F0A6F8A7
:100CA000804603F05DF8784908607549097B2B2977
:100CB00001D1012100E00021084603F080F806463A
:100CC0000022704B03F090F9804600224FF08043E1
:100CD00003F08CF8CDE900016C48006803F06FF870
:100CE0000446DDE9002303F081F8CDE9020103F0B9
:100CF00037F8664908606249497C2B2901D10121F6
:100D000000E00021084603F05AF800225D4BCDE9CF
:100D1000000103F069F9064600224FF0804303F01A
:100D200065F8CDE902015A48006803F048F8044626
:100D3000DDE9022303F05AF8804603F011F8544924
:100D4000086002F012F900E000BF00BF0020534924
:100D5000088000BF40F22771514801F031FE28B1F0
:100D6000002240F227714E4801F045FDBDE8FF9F8B
:100D700010B540F22551474801F022FE002862D00C
:100D8000444801F09DFDC4B24648008800F400408C
:100D9000002858D14348008800F48040002840D003
:100DA0000A2C18D03F480088C0F30C003E490C5470
:100DB0003C480088401C3B4908800846008820F4D5
:100DC0000050088008460088C0F30C00C7283ADDB0
:100DD0000020088037E03348008800F4005030B12C
:100DE0003048008840F400402E4908802BE02D4810
:100DF000008840F400502B49088008460088C0F362
:100E00000C0029490C5427480088401C25490880BB
:100E100008460088C0F30C00C72814DD00200880B5
:100E200011E0FE2C0CD11F48008840F480401D4981
:100E300008801D48047008460088401C088002E0B5
:100E40000020184908801748008800F4004048B185
:100E500014480088C0F30C01134802F00BFB00207B
:100E60001049088040F227710A4801F0A9FDF8B145
:100E7000002240F22771074818E0000078000020A7
:100E8000C40000200000E03F7C0000208000002023
:100E90008400002000440040500300202000002077
:100EA00000480040220000208C01002001F0A3FC3B
:100EB00010BD10B540F227710B4801F081FD28B13B
:100EC000002240F22771084801F095FC40F22551BC
:100ED000054801F075FD30B1034801F0F1FCC4B2E2
:100EE000204601F067FE10BD0038014009488047E8
:100EF00009480047FEE7FEE7FEE7FEE7FEE7FEE7FC
:100F0000FEE7FEE7FEE7FEE704480549054A064B13
:100F1000704700003703000831010008F803002083
:100F2000F8090020F8050020F805002031490143A8
:100F3000314A1160704770B5002100230F22C47838
:100F400004B32D4C246804F4E064C4F5E064210A81
:100F5000C1F10403CA40447804FA03F184781440D0
:100F600021430901254C0678A155047804F01F059A
:100F70000124AC4005786D11AD0005F1E025C5F800
:100F8000004109E0047804F01F050124AC401C4D29
:100F90000678761145F8264070BD1A4A0A40024389
:100FA000154B1B1F1A60704739B1134A121D126886
:100FB0000243114B1B1D1A6006E00F4A121D1268F6
:100FC00082430D4B1B1D1A607047042808D14FF057
:100FD000E021096941F004014FF0E022116107E0CE
:100FE0004FF0E021096921F004014FF0E022116186
:100FF000704700000000FA050CED00E000E400E09E
:1010000080E100E080FFFF1F002044490860091DC7
:101010000860091D0860091D086041483F491431F6
:101020000860704700213D498279002A3AD00A467B
:10103000126803689A430B461A600A1D1268036817
:101040009A430B1D1A60027911440A6803681A4317
:101050000A60324A0832126803689A432F4B0833F9
:101060001A601A1D126803689A432C4B0C331A60DD
:101070004279102A0ED11A1F126803681A43274BAF
:1010800008331A601A1D126803681A43234B0C3385
:101090001A600DE02149427911440A6803681A4335
:1010A0000A6005E0027911440A6803689A430A60FD
:1010B00070470021016001710C2141710021817193
:1010C00070471649103109680143144A1032116003
:1010D000704701460020114A143212680A400AB1D2
:1010E000012000E0002070470C491431086070476F
:1010F000014600200022094B1B6803EA0102074B4E
:1011000014331B680B4013B10AB1012000E000202A
:101110007047024914310860704700000004014024
:10112000FFFF0F0010B50446CC48844208D10121CE
:10113000042000F02DFB0021042000F029FB46E0F4
:10114000C748844208D10121082000F021FB00217A
:10115000082000F01DFB3AE0C248844208D101217A
:10116000102000F015FB0021102000F011FB2EE0F4
:10117000BD48844208D10121202000F009FB002154
:10118000202000F005FB22E0B848844208D101216C
:10119000402000F0FDFA0021402000F0F9FA16E0AE
:1011A000B348844208D10121802000F0F1FA0021E7
:1011B000802000F0EDFA0AE0AE48844207D1012118
:1011C000801500F0E5FA0021A01500F0E1FA10BD4D
:1011D00010B50121084600F0DBFA0021012000F0E3
:1011E000D7FA10BD2DE9F041024600250026002067
:1011F00000230024002791F803C00CF00F0591F89C
:1012000003C00CF0100CBCF1000F03D091F802C029
:101210004CEA050591F800C0BCF1000F31D014680C
:1012200000202BE04FF0010C0CFA00F3B1F800C0E5
:101230000CEA03069E4220D183004FF00F0C0CFAFB
:1012400003F7BC4305FA03FC4CEA040491F803C01D
:10125000BCF1280F06D14FF0010C0CFA00FCC2F8CB
:1012600014C00AE091F803C0BCF1480F05D14FF05B
:10127000010C0CFA00FCC2F810C0401C0828D1D3A5
:101280001460B1F800C0BCF1FF0F34DD54680020D9
:101290002EE000F1080C4FF0010808FA0CF3B1F849
:1012A00000C00CEA03069E4221D183004FF00F0CD0
:1012B0000CFA03F7BC4305FA03FC4CEA040491F86A
:1012C00003C0BCF1280F05D100F1080C08FA0CF896
:1012D000C2F8148091F803C0BCF1480F07D100F1A7
:1012E000080C4FF0010808FA0CF8C2F81080401CF6
:1012F0000828CED35460BDE8F0814FF6FF7101801D
:10130000022181700421C170704702460020936859
:101310000B400BB1012000E00020704701468868B7
:1013200080B2704702460020D3680B400BB1012009
:1013300000E0002070470146C86880B27047016134
:101340007047416170470AB1016100E04161704737
:10135000C16070474FF480320A43826181618261CB
:1013600082698269704702460020434B18684FF635
:101370008073184040EA021008433F4B18607047E2
:101380003E49C8617047F0B50A4600230024002199
:10139000002500F00046B6F1004F02D1364EF1694B
:1013A00001E0354E7168C0F3034583B200F4401686
:1013B000B6F5401F08D121F070612F4E766826F0F7
:1013C00070662D4F7E6012E000F48016B6F5801F27
:1013D00006D1032606FA05F4A14341F0706106E048
:1013E000460D360103FA06F6B14341F0706122B1B1
:1013F000460D360103FA06F6314300F00046B6F119
:10140000004F02D11C4EF16101E01B4E7160F0BD36
:1014100030B500228B071C0F0F2303FA04F2164B82
:1014200008338C1053F824309343134C08348D1038
:1014300044F8253023468C1053F824308C07240FB1
:1014400000FA04F423430C4C08348D1044F8253082
:1014500030BD0A49DC3108607047000000080140D7
:10146000000C014000100140001401400018014030
:10147000001C01400020014000000140000020420B
:10148000DF48006840F00100DD4908600846406818
:10149000DC490840DA49486008460068DA490840F3
:1014A000D74908600846006820F480200860084694
:1014B000406820F4FE0048604FF41F0088607047C9
:1014C000CF49096821F48031CD4A1160114609687D
:1014D00021F480211160B0F5803F03D0B0F5802F5A
:1014E0000ED106E0C649096841F48031C44A116052
:1014F00007E0C349096841F4A021C14A116000E036
:1015000000BF00BF704710B5014600220023002035
:101510004A11012A02D1BA4C236806E0022A02D1FC
:10152000B74C236A01E0B64C636A01F01F02012444
:1015300094401C400CB1012000E0002010BD38B5E3
:10154000002000900024002500BF3120FFF7DBFFC2
:1015500005460098401C00900098B0F5A06F01D09F
:10156000002DF2D03120FFF7CEFF08B1012400E0BA
:101570000024204638BD01460020A14A106820F012
:10158000F80040EAC10010607047A0490860704749
:10159000024600209A4B586820F47C1042EA01036E
:1015A0001843974B58607047984908667047014642
:1015B0000020934A506820F00300084350607047B1
:1015C0008F48406800F00C007047014600208C4AAC
:1015D000506820F0F000084350607047014600203A
:1015E000874A506820F4E060084350607047014625
:1015F0000020834A506820F4605040EAC1005060E7
:10160000704729B17E4A527A02437D4B5A7204E0F8
:101610007B4A527A82437A4B5A7270477B49D8315F
:101620000860704701460020754A506820F4404029
:101630000843506070470021714A20321170704A8F
:1016400082F82010012802D004280AD104E00121E8
:101650006B4A2032117005E00521694A2032117071
:1016600000E000BF00BF70476949086070476449E7
:10167000096A0143624A116270476549443908604A
:10168000704730B500210022002400235C4D6D68B6
:1016900005F00C0121B1042905D0082923D105E06A
:1016A0005C4D056022E05B4D05601FE0544D6D68A8
:1016B00005F47012524D6D6805F48034022505EB77
:1016C00092421CB9544D554305600BE04C4D6D687A
:1016D00005F400351DB1504D5543056002E04D4DF8
:1016E0005543056002E04B4D056000BF00BF444D0F
:1016F0006D6805F0F0010909484D6B5C0568DD4037
:1017000045603F4D6D6805F4E061090A434D6B5C2F
:101710004568DD4085603A4D6D6805F46051C90A41
:101720003E4D6B5C4568DD40C560354D6D6805F428
:101730004041890B3A4D6B5CC568B5FBF3F505611B
:1017400030BD29B12E4A526902432D4B5A6104E043
:101750002B4A526982432A4B5A61704729B1284A61
:1017600092690243264B9A6104E0254A92698243BA
:10177000234B9A61704729B1214AD2690243204B19
:10178000DA6104E01E4AD26982431D4BDA61704778
:1017900029B11B4AD2680243194BDA6004E0184AA7
:1017A000D2688243164BDA60704729B1144A126935
:1017B0000243134B1A6104E0114A12698243104B31
:1017C0001A61704712494039086070470F49C86470
:1017D00070470B49C87170470948406A40F08070F3
:1017E00007494862704701460020054A92680A404E
:1017F0000AB1012000E0002070470149887270475B
:10180000001002400000FFF8FFFFF6FE0000424219
:101810008004424200127A0000093D0025000020A9
:101820003500002010B50446FE48844208D101214D
:10183000C014FFF7ADFF0021E014FFF7A9FFC4E0DB
:10184000B4F1804F08D101210846FFF7AEFF002117
:101850000120FFF7AAFFB8E0F348844208D1012134
:101860000220FFF7A2FF00210220FFF79EFFACE05D
:10187000EE48844208D101210420FFF796FF0021A1
:101880000420FFF792FFA0E0E948844208D101213B
:101890000820FFF78AFF00210820FFF786FF94E069
:1018A000E448844208D101211020FFF77EFF002187
:1018B0001020FFF77AFF88E0DF48844208D1012139
:1018C0002020FFF772FF00212020FFF76EFF7CE051
:1018D000DA48844208D101214014FFF759FF002162
:1018E0006014FFF755FF70E0D548844209D101210B
:1018F000C804FFF74DFF00214FF40020FFF748FF19
:1019000063E0D048844209D101210805FFF740FF78
:1019100000214FF48010FFF73BFF56E0CA48844295
:1019200009D101214805FFF733FF00214FF40010D2
:10193000FFF72EFF49E0C548844208D1012140202D
:10194000FFF733FF00214020FFF72FFF3DE0C048A5
:10195000844208D101218020FFF727FF0021802049
:10196000FFF723FF31E0BB48844208D101218015F5
:10197000FFF71BFF0021A015FFF717FF25E0B64872
:10198000844209D101210804FFF702FF00214FF42E
:101990008030FFF7FDFE18E0B048844209D10121F4
:1019A0004804FFF7F5FE00214FF40030FFF7F0FE8A
:1019B0000BE0AB48844208D101218804FFF7E8FE20
:1019C00000214FF48020FFF7E3FE10BD00220288C3
:1019D000944B98420ED0994B98420BD0B0F1804F67
:1019E00008D0914B984205D0904B984202D0904B32
:1019F000984204D14FF68F731A404B881A438D4B8F
:101A0000984207D08C4B984204D04FF6FF431A40BF
:101A1000CB881A4302808B8883850B880385814B92
:101A200098420BD0854B984208D08B4B984205D0FA
:101A30008A4B984202D08A4B984201D10B7A038696
:101A400001238382704770B5002400220023058C97
:101A50004FF6FE7635400584028C8388048B4FF662
:101A60008F752C40B51E2C400D882C43751E2A40C6
:101A70000D892A434D882A436A4DA8420BD06F4DE9
:101A8000A84208D0744DA84205D0744DA84202D097
:101A9000734DA84213D14FF6F7752A404D892A435A
:101AA0004FF6FB752A408D882A434FF6FF652B4081
:101AB0004FF6FF552B408D892B43CD892B438380D7
:101AC0000483CD888586028470BD70B50024002211
:101AD0000023058C4FF6EF7635400584028C838811
:101AE000048B48F6FF752C404FF6FF452C400D88BF
:101AF0004FF6FF7606EA05252C434FF6DF752A40A0
:101B00000D8906EA05152A434D8806EA05152A437C
:101B1000444DA84202D0494DA8421DD14FF67F75D1
:101B20002A404D894FF6FF7606EA05152A434FF6FF
:101B3000BF752A408D8806EA05152A434FF6FF3502
:101B40002B404FF2FF752B408D8906EA85052B430C
:101B5000CD8906EA85052B4383800483CD880587DC
:101B6000028470BD70B5002400220023058C4FF65E
:101B7000FF6635400584028C8388848B4FF68F7511
:101B80002C404FF6FC752C400D882C434FF6FF552A
:101B90002A400D894FF6FF7606EA05252A434D882F
:101BA00006EA05252A431F4DA84202D0234DA8422C
:101BB0001DD14FF2FF752A404D894FF6FF7606EA98
:101BC00005252A434FF6FF352A408D8806EA05256C
:101BD0002A434EF6FF752B404DF6FF752B408D893D
:101BE00006EA05152B43CD8906EA05152B438380AC
:101BF0008483CD888587028470BD70B50022002360
:101C00000024058C4EF6FF7635400584038C8488CD
:101C1000828B48F6FF752A404FF6FF452A400D8813
:101C200020E00000002C01400004004000080040BB
:101C3000000C00400010004000140040003401403F
:101C4000004C014000500140005401400018004089
:101C5000001C0040002000400040014000440140C2
:101C6000004801404FF6FF7606EA05252A434DF667
:101C7000FF752B400D8906EA05352B434D8806EA92
:101C800005352B43FA4DA84202D0FA4DA84208D19F
:101C90004BF6FF752C408D894FF6FF7606EA8515C9
:101CA0002C4384808283CD88A0F84050038470BD8B
:101CB000828B4FF2FF331A408283828B4FF6FF7381
:101CC00003EA01231A4382837047F0B50C46154698
:101CD000002200210026078C4EF6FF7C07EA0C0745
:101CE0000784828B018C4FF6FF7707EA043640F6B3
:101CF000FF473A404FF6FF7707EA05273A434FF68A
:101D0000FF7707EA03373A43D94FB8420ED0D94F8D
:101D1000B8420BD0B0F1804F08D0D74FB84205D0B1
:101D2000D64FB84202D0D64FB84206D14DF6FF7713
:101D3000394046F48057394305E047F6FF573940AC
:101D400044F48057394382830184F0BD828B4FF67F
:101D5000F3731A408283828B0A4382837047F0B503
:101D60000C461546002200210026078C4FF6FF6C1A
:101D700007EA0C070784828B018C4FF6FF7707EA8E
:101D800004264FF60C773A404FF6FF7707EA031721
:101D90002F433A43B64FB8420ED0B64FB8420BD09D
:101DA000B0F1804F08D0B44FB84205D0B34FB8421D
:101DB00002D0B34FB84206D14FF6FF57394046F430
:101DC0008077394305E04FF2FF57394044F480777C
:101DD000394382830184F0BD028B4FF2FF331A40F6
:101DE0000283028B4FF6FF7303EA01231A43028337
:101DF0007047F0B50C461546002200210026078CDE
:101E00004FF6EF7C07EA0C070784028B018C4FF634
:101E1000FF7707EA041640F6FF473A404FF6FF7790
:101E200007EA03373A434FF6FF7707EA05273A43B5
:101E30008F4FB8420ED08F4FB8420BD0B0F1804FC9
:101E400008D08D4FB84205D08C4FB84202D08C4F8D
:101E5000B84206D14FF6DF77394046F010073943D4
:101E600005E04FF65F77394044F0100739430283AD
:101E70000184F0BD028B4FF6F3731A400283028B8C
:101E80000A4302837047F0B50C4615460022002134
:101E9000068C4FF6FE773E400684028B018C4FF68F
:101EA0000C7632407E1C06EA03162E433243704EF7
:101EB000B0420ED06F4EB0420BD0B0F1804F08D080
:101EC0006D4EB04205D06D4EB04202D06C4EB04265
:101ED00006D14FF6FD76314044F00106314305E06E
:101EE0004FF6F576314044F0010631430283018418
:101EF000F0BD70B505460C465D4885420ED05D4884
:101F000085420BD0B5F1804F08D05B48854205D0A3
:101F10005A48854202D05A48854200D100E000BFAD
:101F2000208850B92389A28861882846FFF7ABFF33
:101F3000E1882846FFF79EFF25E0208804280AD183
:101F40002389A28861882846FFF753FFE188284645
:101F5000FFF742FF17E0208808280AD12389A288CA
:101F600061882846FFF7FBFEE1882846FFF7EEFE72
:101F700009E02389A28861882846FFF7A6FEE18848
:101F80002846FFF795FE70BD2DE9F04105460C4649
:101F900000260127608808B9022600E00026A088F4
:101FA000012801D1022700E001272088A0B9238958
:101FB000A28861882846FFF766FFE1882846FFF778
:101FC00059FF23893A4631462846FFF712FFE18838
:101FD0002846FFF701FF13E02389A288618828467D
:101FE000FFF707FFE1882846FFF7F6FE23893A4608
:101FF00031462846FFF747FFE1882846FFF73AFFBA
:10200000BDE8F0810A884B881A438B881A43CB8835
:102010001A430B891A434B891A438B891A43A0F838
:10202000442070474FF6FF71818000210180C180FC
:102030004180017270470021018041808180C18010
:10204000018141818181C1817047002101804180EE
:10205000012181800021C180018170470021018020
:1020600041808180C1800181418181817047000070
:10207000002C0140003401400004004000080040F2
:10208000000C004021B1028842F00102028004E00D
:1020900002884FF6FE731A400280704731B1B0F8E3
:1020A000442042F40042A0F8442005E0B0F8442067
:1020B000C2F30E02A0F8442070471AB183890B4383
:1020C000838102E083898B438381704781827047DB
:1020D00041EA0203A0F8483070471AB183890B43E4
:1020E000838102E083898B438381704701894FF6A6
:1020F000F8721140018170470A46002101894FF6AC
:102100008F73194011430181704730B504460D4665
:1021100029462046FFF7F0FF208940F00700208184
:1021200030BD2DE9F04104460D4616461F46602D90
:1021300006D13B46012231462046FFF75AFE05E014
:102140003B46012231462046FFF79DFE29462046A8
:10215000FFF7D2FF208940F007002081BDE8F08121
:1021600030B50C4600210189C9B24FF6FF7505EA6A
:102170000325154325432943018130BD2DE9F04155
:1021800005460E4617469846002443463A463146D1
:102190002846FFF7E5FF2C894FF6F870044044F01D
:1021A00007044FF68F70044044F070042C81BDE8A2
:1021B000F081F0B504460D4616461F463B463246B2
:1021C00029462046FFF7CCFF208940F4804020813B
:1021D000F0BD0185828270470A46002101884FF6D2
:1021E0008F731940114301807047F0B50C461546B6
:1021F0001E460021002200230189028B038C4FF62A
:10220000F877394021434FF6FC473A4040F2011736
:102210003A434FF6DD773B404FF6FF7707EA061764
:102220002F433B43018102830384F0BD0A46002112
:10223000018B4FF68F7319401143018370470A4693
:102240000021018B48F6FF7319404FF6FF7303EA34
:1022500002231943018370470A460021818B4FF600
:102260008F7319401143818370470A460021818B87
:1022700048F6FF7319404FF6FF7303EA0223194330
:102280008183704721B1028842F08002028004E01D
:1022900002884FF67F731A400280704721B182880E
:1022A00042F00402828004E082884FF6FB731A40F9
:1022B0008280704721B1828842F00802828004E067
:1022C00082884FF6F7731A408280704721B1828866
:1022D00042F00102828004E082884FF6FE731A40C9
:1022E000828070470A460021018B4FF6F773194030
:1022F0001143018370470A460021018B4FF2FF739F
:1023000019404FF6FF7303EA022319430183704714
:102310000A460021818B4FF6F773194011438183E0
:1023200070470A460021818B4FF2FF7319404FF628
:10233000FF7303EA02231943818370470A46002191
:10234000018B4FF6FB7319401143018370470A4616
:102350000021018B4FF6FF3319404FF6FF7303EA5C
:1023600002231943018370470A460021818B4FF6EF
:10237000FB7319401143818370470A460021818B0A
:102380004FF6FF3319404FF6FF7303EA0223194358
:10239000818370470A460021018B4FF67F731940F5
:1023A0001143018370470A460021018BC1F30E01DE
:1023B0004FF6FF7303EA02231943018370470A466D
:1023C0000021818B4FF67F73194011438183704741
:1023D0000A460021818BC1F30E014FF6FF7303EA19
:1023E00002231943818370470A460021018C4FF66E
:1023F000FD7319401143018470470A460021018C86
:102400004FF6F77319401143018470470A460021C3
:10241000018C4FF6DF7319404FF6FF7303EA021386
:102420001943018470470A460021018C4FF67F73DF
:1024300019404FF6FF7303EA0213194301847047F2
:102440000A460021018C4FF6FF5319404FF6FF73E7
:1024500003EA02231943018470470A460021018CD4
:102460004FF2FF7319404FF6FF7303EA022319433B
:10247000018470470A460021018C4DF6FF73194014
:102480004FF6FF7303EA023319430184704730B5F6
:10249000002301248C40A3B2048C9C430484048C4C
:1024A00002FA01F5ADB22C43048430BD30B50023EF
:1024B00004248C40A3B2048C9C430484048C02FA50
:1024C00001F5ADB22C43048430BD70B50346002045
:1024D00000241846183001258D40ACB21D8CA54350
:1024E0001D8409B1082909D100EB6100056825F0B8
:1024F000700505600568154305600EE00D1FC5F306
:102500004E052844056825F4E045056005684FF64A
:10251000FF7606EA02263543056070BD21B10288C8
:1025200042F00202028004E002884FF6FD731A4076
:102530000280704721B1028842F00402028004E068
:1025400002884FF6FB731A400280704721B18288DF
:1025500042F08002828004E082884FF67F731A4046
:102560008280704702884FF6F7731A400280028813
:102570000A430280704782884FF68F731A40828028
:1025800082880A438280704702894FF6F8731A40A6
:10259000028102890A430281704702894FF67F73E4
:1025A0001A40028102890A43028170478184704780
:1025B00081857047818670470187704781877047A2
:1025C000A0F84010704702884FF6FF431A4002807F
:1025D00002880A43028070470146888E7047014690
:1025E000088F70470146888F70470146B1F8400058
:1025F00070470146888C70470146088D7047024637
:102600000020138A0B400BB1012000E0002070472E
:10261000CA430282704730B50246002000230024DE
:10262000158A05EA0103958905EA010413B10CB185
:10263000012000E0002030BDCA4302827047000044
:1026400010B50446FB48844209D101218803FFF7F5
:102650009FF800214FF48040FFF79AF832E0F648E7
:10266000844209D101214804FFF79FF800214FF46B
:102670000030FFF79AF825E0F048844209D10121A3
:102680008804FFF792F800214FF48020FFF78DF8BF
:1026900018E0EB48844209D10121C804FFF785F80E
:1026A00000214FF40020FFF780F80BE0E54884425A
:1026B00008D101210805FFF778F800214FF48010B8
:1026C000FFF773F810BD2DE9F04786B005460E46BA
:1026D0000024A24600BFA1460027B08900B100BF78
:1026E0002F462C8A4CF6FF700440F08804432C825D
:1026F000AC894EF6F3100440B088318908437189E3
:1027000008430443AC81AC8A4FF6FF400440B089D3
:102710000443AC8201A8FEF7B4FFC648874202D149
:10272000DDF810A001E0DDF80CA0A88900F400405D
:1027300040B10AEBCA0000EB0A1031684900B0FB57
:10274000F1F807E00AEBCA0000EB0A1031688900D3
:10275000B0FBF1F86420B8FBF0F00401200964211B
:1027600001FB1089A88900F4004040B1322000EB41
:10277000C900B0FBF1F000F00700044308E032208C
:1027800000EB09106421B0FBF1F000F00F000443EE
:102790002C8106B0BDE8F0874FF41651016000218E
:1027A0008180C18001810C2141810021818170479C
:1027B00010B502460020108A4FF2FF0318400B8824
:1027C0004C8823438C882343CC88234318431082AE
:1027D00010BD0021018041808180C180704721B1FE
:1027E000828942F40052828104E082894DF6FF73AF
:1027F0001A4082817047F0B5034600240026002568
:10280000002040F66A17B94200D100BF1846C1F354
:10281000421401F01F06012707FA06F5012C01D129
:102820000C3004E0022C01D1103000E014301AB159
:1028300007682F43076002E00768AF430760F0BDF9
:102840001AB1838A0B43838202E0838A8B4383829B
:102850007047028A4FF6F0731A400282028A0A43D6
:102860000282704782894FF2FF731A408281828907
:102870000A438281704721B1828942F0020282813B
:1028800004E082894FF6FD731A4082817047028A04
:102890004FF6DF731A400282028A0A4302827047AF
:1028A00021B1028A42F48042028204E0028A4BF69D
:1028B000FF731A4002827047C1F30802828070479A
:1028C00001468888C0F308007047818941F0010102
:1028D00081817047028BD2B20283028B42EA0122CD
:1028E00002837047028B02F47F420283028B0A4309
:1028F0000283704721B1828A42F02002828204E082
:10290000828A4FF6DF731A408282704721B1828A31
:1029100042F01002828204E0828A4FF6EF731A407E
:102920008282704721B1828A42F00802828204E0EA
:10293000828A4FF6F7731A408282704721B18289EA
:1029400042F40042828103E08289C2F30E02828156
:10295000704721B1828A42F40062828204E0828A56
:102960004FF2FF731A4082827047828A4FF6FB73E0
:102970001A408282828A0A438282704721B1828A07
:1029800042F00202828204E0828A4FF6FD731A400E
:102990008282704702460020B1F5007F00D100BF5F
:1029A00013880B400BB1012000E00020704701F4B8
:1029B0000072B2F5007F00D100BFCA4302807047A9
:1029C00070B50246002400230025002040F66A1658
:1029D000B14200D100BFC1F3421501F01F0301262F
:1029E00006FA03F3012D02D19689334006E0022D49
:1029F00002D1168A334001E0968A33400C12012638
:102A000006FA04F41688344013B10CB1012000E03A
:102A1000002070BD10B50022002340F66A14A142C8
:102A200000D100BF0A1201249440A3B2DC43048009
:102A300010BD000000380140004400400048004044
:102A4000004C0040005000407FB505460C46012177
:102A50001020FEF790FEADF80850ADF804400020BD
:102A6000ADF80A00ADF8060001A94548FEF7AEFF33
:102A7000012211464248FFF720FB36208DF8000066
:102A800003208DF8010002208DF8020001208DF84E
:102A900003006846FEF74FFA01213948FFF7F2FAC2
:102AA0007FBD7FB505460C4601212020FEF763FE61
:102AB000ADF80850ADF804400020ADF80A00ADF8BC
:102AC000060001A92F48FEF781FF012211462D487B
:102AD000FFF7F3FA37208DF8000003208DF801008E
:102AE0008DF8020001208DF803006846FEF723FAF6
:102AF00001212448FFF7C6FA7FBD10B50121204807
:102B0000FFF789FD58B3204800F04BFC1F480068D0
:102B100008B31F4801681F4800F075FD1A48816816
:102B20001C4800F041FD1C4908601C4801681C4815
:102B300000F03AFD1B490860174800680968401A10
:102B4000194908601448006816490968084417497B
:102B5000086000F09EF901210948FFF76DFD10BDE6
:102B600010B501210748FFF756FD40B11048006835
:102B700008B100F08EF901210248FFF75DFD10BD9C
:102B8000001000400014004050030020BC00002052
:102B9000B8000020780300203C00002070000020D6
:102BA0005C03002040000020800000208400002002
:102BB000C00000202DE9F047824647490878411CB3
:102BC000454A1170454901F800A00846007855288B
:102BD00004D0002011460870BDE8F0873E48007818
:102BE0000B2800DAF8E73D484078512806D05228F3
:102BF0000CD0532812D0542868D15FE038483749A8
:102C0000891C0A680260496841605FE035483349C1
:102C1000891C0A6802604968416057E032482F49C0
:102C2000891C0A680260496841600146B1F90200E6
:102C300001F0C5F8804600222C4B00F039FF064613
:102C400000222B4B01F0D2F8044601F089F8294903
:102C5000086008460068404208602349B1F9000056
:102C600001F0ADF806460022204B00F021FF80461F
:102C700000221F4B01F0BAF8044601F071F81E491A
:102C8000086008460068404208601749B1F904002E
:102C900001F095F806460022144B00F009FF0446A7
:102CA0000022134B01F0A2F8804601F059F81349B5
:102CB0000860084600684042086007E0104807497D
:102CC000891C0A6802604968416000BF00BF00209B
:102CD0000149087000BF7FE7240000205402002053
:102CE000440000204C000020540000200000E04080
:102CF000008066406C0000207000002074000020FE
:102D00005C00002030B589B005460C4601215020FA
:102D1000FEF724FD01210846FEF720FD0121C8022F
:102D2000FEF71CFD01210220FEF725FD0121A1482F
:102D3000FEF729FB0121A048FEF725FB4FF4D44004
:102D4000ADF8200018208DF8230003208DF8220014
:102D500008A99A48FEF746FA4FF47070ADF82000C3
:102D600008A99748FEF73EFAADF81850ADF81440A0
:102D70000020ADF81A00ADF816008DF81C0005A96A
:102D80009048FEF723FE05A98F48FEF71FFE60203E
:102D9000ADF804000020ADF80C000120ADF80600ED
:102DA00001A98848FEF74FFE08218648FFF79AFAE6
:102DB00001A98448FEF789FE08218248FFF79BFAA3
:102DC00001A98048FEF7CEFE08217E48FFF7A0FA51
:102DD00001A97C48FEF711FF08217A48FFF7A1FA04
:102DE00001A97948FEF72FFE08217748FFF77AFA04
:102DF00001A97548FEF769FE08217348FFF77BFAC1
:102E000001A97148FEF7AEFE08216F48FFF780FA6E
:102E100001A96D48FEF7F1FE08216B48FFF781FA22
:102E200001216848FFF73AF901216648FFF72AF9BE
:102E300001216548FFF726F940F2DC516148FFF7B0
:102E4000B9FB40F2DC515F48FFF7B6FB40F2E351BB
:102E50005C48FFF7B3FB40F2DC515A48FFF7B0FB88
:102E600040F2DC515848FFF7A5FB40F2DC515648D0
:102E7000FFF7A2FB40F2D5515348FFF79FFB40F20A
:102E8000DC515148FFF79CFB6420FDF772FB09B051
:102E900030BD10B54D4800684C4908604C4800688A
:102EA0004B4908604B4800684C304A4908604A4822
:102EB00000684E30484908604448006810F1C80F67
:102EC00002DA6FF0C70007E040480068C82801DD5B
:102ED000C82001E03D4800683C4908603C48006863
:102EE00010F1C80F02DA6FF0C70007E03848006839
:102EF000C82801DDC82001E0354800683449086071
:102F0000344800683A2801DA3A2007E0314800687E
:102F1000C82801DDC82001E02E4800682D4908605E
:102F20002D4800683C2801DA3C2007E02A48006868
:102F3000C82801DDC82001E027480068264908604C
:102F400040F2DC511F48FFF739FB40F2DC511E48CC
:102F5000FFF734FB40F2DC511B48FFF72DFB40F23A
:102F6000DC511848FFF726FB10BD10B51748008844
:102F700040F2DC52101A81B21248FFF71FFB1448CE
:102F8000008800F2DC5081B20F48FFF717FB1148B0
:102F9000008840F2DC52101A81B20B48FFF70CFB9C
:102FA0000D48008800F2DC5081B20648FFF702FBB2
:102FB00010BD0000C0001600000C1A0000180140EF
:102FC00000100140002C0140000400407800002067
:102FD0007C000020800000208400002008B5012132
:102FE0000820FEF7BBFBC020ADF8000010208DF8D4
:102FF000030003208DF802006946F748FEF7F2F857
:10300000C021F548FEF79BF908BD08B58020ADF852
:10301000000010208DF8030003208DF8020069469F
:10302000ED48FEF7DFF808BD08B58020ADF80000D8
:1030300004208DF8030003208DF802006946E6485D
:10304000FEF7D0F808BD10B5FFF7DFFF0120E34918
:103050000860E349C1F898010420FDF766FA0020F2
:10306000DE4908600420FDF760FA0020DC49C1F861
:10307000980110BD10B5FFF7C8FF0020D749091F00
:103080000860D749C1F89C010420FDF74EFA0120E1
:10309000D249091F0860D249C1F89C010420FDF7FC
:1030A00044FA10BD10B50024FFF7BEFF0120CB4944
:1030B0000860FDF73AFA0120C949C1F89801FDF707
:1030C00034FA07E0601CC4B2FA2C03DDFFF7D2FF2C
:1030D000012010BDC148803800680028F2D1BF49E6
:1030E000091F086000BFF4E710B50020BB49091FA5
:1030F0000860FFF78AFF0020B949C1F89C0102204F
:10310000FDF713FA0120B549091F08600220FDF7F9
:103110000CFA0020B249C1F8980110BD10B500208A
:10312000AE49091F0860FFF770FF0120AC49C1F8E4
:103130009C010220FDF7F9F90120A849091F086048
:103140000220FDF7F2F90020A549C1F8980110BD51
:1031500070B50446FFF759FF0020A049091F086019
:10316000002517E0E0099D4908606006040E022072
:10317000FDF7DBF901209A49C1F898010220FDF71B
:10318000D4F900209549091F08600220FDF7CDF908
:10319000681CC5B2082DE5DB70BD70B5054600247E
:1031A000FFF742FF002617E000208C49091F086046
:1031B0000220FDF7BAF901208949C1F8980160069B
:1031C000040E86488038006808B1601CC4B2012033
:1031D000FDF7ABF9701CC6B2082EE5DB15B9FFF799
:1031E0009DFF01E0FFF780FF204670BD10B504464B
:1031F000FFF729FFEC20FFF7ABFFFFF753FF207825
:10320000FFF7A6FFFFF74EFFFFF734FF10BD70B5C5
:1032100005460C46FFF717FFED20FFF799FFFFF774
:1032200041FF0DE0012C04D10020FFF7B6FF28700C
:1032300004E00120FFF7B1FF28706D1C601E84B20E
:10324000002CEFD1FFF716FF70BD1CB506200190D2
:103250000020009001A8FFF7C9FF0A20FDF789F9B7
:103260008D20019001A8FFF7C1FF0A20FDF781F929
:10327000ED20019001A8FFF7B9FF01216846FFF793
:10328000C6FF9DF8000000F0400008B100201CBD02
:103290000120FCE73EB500200190029051480078E3
:1032A00040F0400000906846FFF7A0FF4E490968D3
:1032B0004FF6FF7202EA4100FDF75BF91020009023
:1032C0006846FFF793FF062101A8FFF7A0FF9DF8CE
:1032D000040000049DF8051000EB01209DF8061085
:1032E0000844424908600846006800F4000020B124
:1032F0000846006840F07F4008609DF80700000421
:103300009DF8081000EB01209DF809100844384989
:1033100008600846006800F4000020B10846006814
:1033200040F07F40086032480068642190FBF1F46F
:10333000204601F083F82F4908603EBD70B5002497
:1033400001E0601CC4B2FFF780FF08B1022CF8DB7B
:10335000012C02DD0120284908700820214908704D
:10336000192021490860002403E0FFF793FF601C47
:10337000C4B2142CF9DB4FF4FA70FDF7FAF8FFF73A
:1033800089FF1C48006801F03DF81C494860194855
:10339000006801F037F80546294619A000F068F9E1
:1033A00070BD70B50446FFF775FF606801F046F820
:1033B000064610480168304601F024F9054601F040
:1033C00021F8A0600948006801F038F80546144962
:1033D00000F056FF206070BD000C01409C8121422E
:1033E00000802142880000208C00002098000020EE
:1033F0009C00002094000020A0000020500300202A
:1034000074686520696E697469616C207072657397
:10341000737572653D202564206D6261720A00003B
:103420000000C84208B501214820FEF797F94FF483
:103430004070ADF8000010208DF8030003208DF8D7
:10344000020069460948FDF7CDFE4FF44071074878
:10345000FDF775FF3F20ADF8000069460448FDF711
:10346000C1FE3F210248FDF76AFF08BD000C014084
:10347000001801402DE9F84304468946E0782328E6
:1034800004D024283CD025285ED13AE020790006DB
:10349000617900EB0140A17900EB0120E17908445A
:1034A0002B490860207A0006617A00EB0140A17A7E
:1034B00000EB0120E17A08442649086024490968A4
:1034C000484200F0BBFF8046234900F0D9FE074682
:1034D000224900F0CBFF0646214900F0D1FE054607
:1034E00000F090FF1F4908601A4800681E490860F4
:1034F000084602681B4801681CA000F0B9F824E0E7
:1035000023E020790006617900EB0140A17900EB0E
:103510000120E17908441B490860084600784030E2
:10352000009008460068402202EB206115480088A0
:10353000C0F30723403313480068C0F3074240320A
:1035400011A000F095F800E000BF00BFBDE8F883CF
:10355000A4000020A8000020560E4940000034437B
:1035600000007A44B0000020AC000020616E676C5F
:10357000653D25642064697374616E63653D2564EF
:103580000A000000B4000020746865206C65747443
:10359000657273206172653A2025632C25632C25A2
:1035A000632C25630A0000002DE9FC5F04460D46EC
:1035B0002068461BA06900F041FF8346216900F0A6
:1035C00055FF8146606900F039FF0090E16800F026
:1035D0004DFF8346304600F031FF0090A16800F0B7
:1035E00045FF5946019001F017F88246494600F020
:1035F000E5FD804600F006FF07466069A061666150
:103600003846BDE8FC9F016070470021416181613F
:10361000416070478160C2600361704700B500215E
:103620000E48FFF7F0FF0E4801680E48FFF7EBFF6A
:103630004FF07E53002219460848FFF7EBFF0023A6
:10364000094A4FF081410748FFF7E4FF0348FFF7BD
:10365000DCFF0448FFF7D9FF00BD00005C03002039
:10366000B800002078030020CDCCCC3D704700008E
:103670000FB4044910B503AA029800F013F910BC66
:103680005DF814FB1C0000202DE9F0410E460446B5
:10369000002020622046E168884730B3252805D005
:1036A000D4E901219047206A401CF2E7E1682046F6
:1036B00000278847050018D0A5F14100192802D835
:1036C00020354FF400673246294620462760FCF734
:1036D00069FD40B1012804D0F61D26F00706083622
:1036E000D8E7361DD6E72846DAE7206ABDE8F0813C
:1036F00070B50C460546012A05D02878800600D50D
:10370000EA69002302E0012305E05B1C934202D238
:10371000E05C0028F9D1A869E618C01AA861286AF7
:10372000184428622846AFF3008004E0D5E901215F
:1037300014F8010B9047B442F8D32846AFF3008049
:1037400070BD00002DE9F04106460024106875297F
:10375000314616A510D0AFF30080002802DA4042AF
:1037600013A507E031688A0701D512A502E04907D1
:1037700004D511A5012401E0AFF3008000210A2245
:1037800006F1240709E0B0FBF2FCB0FBF2F302FB08
:103790001C00303078541846491C0028F3D12346C9
:1037A0002A463046BDE8F04100F00CB800000000A9
:1037B0002D0000002B000000200000007047704723
:1037C000704770472DE9F0470D46994692460446EA
:1037D00000F124080168880604D5E06921F0100191
:1037E000216000E00120A84201DD471B00E0002726
:1037F000A1697A1902EB0900081AA0612078C006B5
:1038000002D42046AFF30080002608E0D4E901216D
:103810001AF806009047206A401C761C20624E452C
:10382000F4DB2078C0060AD52046AFF3008006E01E
:10383000D4E9012130209047206A401C2062381EC4
:10384000A7F10107F4DC07E0D4E9012118F805002D
:103850009047206A401C2062281EA5F10105F3DC78
:103860002046AFF300802078000602D50220BDE894
:10387000F0870120FBE710B5436913B1AFF3008077
:1038800001E0FFF735FF012010BD127800F124019F
:103890000A7000224A700122EDE711684FF0FF32F2
:1038A000E9E70000074B70B50D467B4400F011F8C6
:1038B0000446284600F020F810B14FF0FF3070BDEC
:1038C000204670BD25CDFFFF01694A1C02610878C2
:1038D000704700B58FB0CDE9013100210591054950
:1038E0007944CDE9031011466846FFF7CDFE0FB0CD
:1038F00000BD0000E5FFFFFF007B00F08000704787
:10390000754600F029F8AE4605006946534620F09A
:103910000700854618B020B5FDF7F6FABDE820404F
:103920004FF000064FF000074FF000084FF0000B7B
:1039300021F00701AC46ACE8C009ACE8C009ACE82E
:10394000C009ACE8C0098D4670470446AFF300805B
:103950002046FCF73CFC0000004870479403002020
:1039600010B591EA030F48BF83F0004300F1448390
:10397000841A71EB030C05D2121943EB0C03001BE4
:1039800061EB0C01DFF824E14FEA1154A4EB135C66
:103990001EEA430F18BF9EEA445F73D023EA0E036A
:1039A000DCF1200E21EA045143F4801332D322FAD1
:1039B0000CFE10EB0E0023FA0CFE41EB0E01CCF1D5
:1039C000200E03FA0EFE10EB0E0051F10001B1F5CE
:1039D000801FCCF1200E32D201EB045112FA0EF20C
:1039E000BDE8104058BF7047401C38BF5FEA420234
:1039F00018BF7047002814BF20F0010041F10001FA
:103A00004FEA410313F5001F38BF7047A1F1C041D1
:103A100000F0E4BA012A43EB0302ACF1200CDCF124
:103A20001F0E32BF4FF0000E23FA0CF310EB030011
:103A300041EB0451B4EB115FD0D0A1EB045101F57F
:103A4000801149085FEA300001EB04510ED350F1B8
:103A5000000038BF12FA0EFE08D1BDE81040C9E7D9
:103A6000401C38BF5FEA4202CAD1C3E7BDE810403C
:103A70004FEA410313F5001F38BF7047A1F1C04161
:103A800000F0ACBA9EEA445F08D011EA5E0FBDE8D0
:103A9000104004BF01F0004100207047BDE8104015
:103AA00070B500F04DFA00BF64FBBE3E0000E0FFC1
:103AB0002DE9C04130B4DFF8A0C23CEA111418BFB0
:103AC0003CEA131400F0EC8081EA03051CEA1114AF
:103AD00044EAD57418BF1CEA131500F0C780A4EBA4
:103AE00005044FF0004545EAC12145EAC32341EAF8
:103AF000505143EA525304F17F74994204F5003463
:103B00004FEAC0204FEAC22208BF904200F09C80DA
:103B10004FEA13650FF24016765D4FEA134506FB38
:103B200005F7C7F1807706FB07F74FEAD737A7FB02
:103B300003687642C8F58038A7FB06CE38BFA8F1E7
:103B4000010807FB08E64FF0000EA6FB028CE6FB1F
:103B500003CEDCF1000CCEF1004E38BFAEF1010E09
:103B6000A6FB0C584FF000074FF00005E6FB0E8750
:103B7000A1FB08C6A0FB07CE16EB0E0645F100051B
:103B8000E1FB076515F1E04E7EBFA4F580345FEAE6
:103B900046066D4116F1800745F100054FEA1727EB
:103BA0004FEA066647EA0567A6F1DE46B6F1805F92
:103BB0004FEA15251FD9384624F0010C05EBC471D6
:103BC000BCF1FE6F01EB0C1102D8F0BCBDE8008126
:103BD00024425CBF01F5801E9EEAC47F02D4F0BC83
:103BE000BDE80081244238D4F0BCA1F1C041BDE859
:103BF000004100F0F3B94FEAD22242EA43524FEAC1
:103C0000D323A7FB02864FEAD02040EA415007FBAE
:103C100003661EEA0E0F4FEAD12105FB026658BF6C
:103C2000A6EB0056B6EB00564FEA520E4EEAC37EA4
:103C300018EB0E0E56EB530EBDD518EB02085E4185
:103C40007F1C55F10005B6E74FF480154FF00007D3
:103C50004FF000064FF00008ADE7F0BC4FF0000059
:103C600001F1C04101F00041BDE8008111EA0C1FE3
:103C70000CEA131500D00CE013EA0C1F00F02580AD
:103C80004FF00000F0BC81EA030101F00041BDE803
:103C90000081F0BCBDE8004181EA030100F09EB95B
:103CA000F0BCBDE8004170B500F04AF9097EFC3E69
:103CB00000F007B881EA03014FF0000001F0004175
:103CC000704781EA030100F089B9F0BCBDE800410A
:103CD0004FF0000021497047FFFDFBF9F7F5F4F2C2
:103CE000F0EEEDEBE9E8E6E4E3E1E0DEDDDBDAD897
:103CF000D7D5D4D3D1D0CFCDCCCBCAC8C7C6C5C4F5
:103D0000C2C1C0BFBEBDBCBBBAB9B8B7B6B5B4B30B
:103D1000B2B1B0AFAEADACABAAA9A8A8A7A6A5A4F6
:103D2000A3A3A2A1A09F9F9E9D9C9C9B9A999998BA
:103D30009797969595949393929191908F8F8E8E5D
:103D40008D8C8C8B8B8A89898888878786858584EA
:103D500084838382828181800000FF070000F87FD6
:103D60004FEA41034FEA5353A3F58063D3F11E0397
:103D7000C8BFD3F1210C0CDD4FF0004242EAC12252
:103D800042EA505232FA03FC8CEAE17CACEBE1707F
:103D90007047102BC4BF0020704703F5787CBCF13E
:103DA000FF3F04D06FF0004282EA2100704770B5F7
:103DB00000F0C6F84992248000207047F2E710F026
:103DC000004248BF4042B0FA80F310FA03F10AD033
:103DD000C3F11D0303F580634FEA415002EB035228
:103DE00002EBD12170474FF000007047DFF848C167
:103DF00070B51CEA111E1EBF1CEA13159EEA0C0FBB
:103E000095EA0C0F00F06F8081EA030423EA4C135B
:103E10004EEAD47E21EA4C1141F4801143F4801320
:103E2000AE44A1FB024CA0FB0365AEF17F7E3619C8
:103E300055EB0C05A1FB034C4CF10003A0FB021C4D
:103E400016EB0C06654153F10003094218BF46F01A
:103E5000010613F4007F0BD14FEA03314FEA05301E
:103E6000340341EA155140EA16506FF003020AE0AC
:103E70004FEAC3214FEAC520F40241EA555140EA16
:103E800056506FF0020202EB2E4201EB025585EA1A
:103E9000CE710AD05FEA440C18BF24F0004450F100
:103EA000000041F1000120EAD47040F2FE7C62453E
:103EB00000D270BDA84214BF4FF080444FF0404480
:103EC000002E08BF0024BEF1806FA8BFA1F1C04141
:103ED000BDE8704080F282804FF0000001F1C041E7
:103EE00001F0004170479EEA0C0F0CEA131518BF51
:103EF00095EA0C0F06D04FF0000081EA030E0EF099
:103F0000004170BD00F01CF88900013E00F007B8C8
:103F100000F009B84FEA430C5FEA5C5C08D081EA24
:103F2000030100F05BB84FEA410C5FEA5C5CF6D13C
:103F30004FF00000014970470000FF070000F87FC4
:103F40000EF1020E2EF0030E5EF8046B364205D41D
:103F5000012A43EB030515F5001F12D8012841EB98
:103F6000010C1CF5001F0CD80ED14FEAD17C15F5C1
:103F7000001F0CEB4C0C0CF1020C08BF4CEBD37C7B
:103F800004E04FF0080C01E04FEAD37C0CEB4C0549
:103F900026FA05F606F00706B6F1040C06D20EEB7B
:103FA000860CBDE870404CF0010C6047DFE80CF077
:103FB000090B02024FF000414FF00000A1F5002173
:103FC00070BD19461046012851EB010418BFD4F505
:103FD000001484BF002001F0004170BD0808A0F566
:103FE00000114FEA3101704710B591EA030F48BF45
:103FF00083F000433FF5BCAC841A71EB030C07D28D
:1040000012198CF0004C43EB0C03001B61EB0C010C
:10401000DFF8A4E14FEA1154A4EB135C1EEA430F4E
:1040200018BF9EEA445F00F0B08023EA6E0352425C
:1040300021EA0451C3EB6E0338BF5B1EDCF1200E96
:1040400025D322FA0CFE10EB0E0043FA0CFE41EBD6
:104050000E01CCF1200E03FA0EFE10EB0E0051F112
:104060000001CCF1200E29D412FA0EF201EB04511A
:10407000BDE8104058BF7047401C1CBFB2F1004F54
:10408000704700280CBF491C20F00100704712EB5C
:10409000020E43EB030218BF4FF0010E4EEA42023C
:1040A000ACF1200CDCF11E0E54D943FA0CFE10EBDF
:1040B0000E0051F1FF31CCF11E0ED5D50EF1010EDF
:1040C00012FA0EFE404141EB010101EB445C5FEA54
:1040D0005C5C10D910EBDE7001EB045138BFBEF10F
:1040E000004FBDE8104018BF704700280CBF491CA6
:1040F00020F00100704730D24FEAD42C11F50011A6
:1041000024F400641BD0B1FA81F20B3AA41AA41E65
:10411000D2F12003914030FA03F31943904001EBB0
:10412000CC71002C01EB0451BDE81040A8BF7047D2
:1041300001F1C0414FF0000001F000417047B0FABA
:1041400080F310FA03F100D110BDE41A173C4805C2
:10415000C90AE4E701EB045110BD491001EB045119
:10416000BDE810404FEA300002E04FF00001704718
:104170004A0008BF0042F8D0B2F5001F28BF7047C0
:1041800001F000414FF0000070479EEA445F07D005
:1041900011EA5E0FBDE8104004BF00210020704707
:1041A000BDE8104070B5FFF7CBFE00BF40DFF63E24
:1041B00083F00041104670470000E0FF90EA010FD5
:1041C00048BF81F0004100F12E82421A3CBF801AA4
:1041D00089184FEAD0524FF07F4C1CEA410FA2EBF6
:1041E000D15318BF9CEA026F00F03B804FF0004CA7
:1041F0004CEA00204CEA012121FA03FC10EB0C0CE4
:104200001ED202F1FF325FEA1C2040EBC25038BFE1
:1042100070471CF07F0F4FEA400C18BFBCF17F4F76
:1042200038BF7047C3F12003994008BF20F0010058
:10423000BCF17F4F38BF7047A0F1C04000F0DDB93E
:104240004FEA3C00000A40EBC25028BF1CF0FF0FB1
:104250004FEA400CE6D018BFBCF17F4F38BF704723
:10426000EAE79CEA026F05D010EA5C0F08BF00F095
:104270000040704710B500F07AF900BF64FBBE3E05
:104280004FF47F0C1CEAD0121EBF1CEAD11392EA35
:104290000C0F93EA0C0F00F0858090EA010F48BFE5
:1042A00042F4807240F4000C41F400002CF07F4195
:1042B00020F07F4000B58142A2EB03020FF2081C00
:1042C000ACEB504EC0F100009EF800E04FEA4E0EFD
:1042D00000FB0EFC38BF49004FEA2C1C02F5FA0225
:1042E0000CFB0EF34FEACE1E4FEA112C4FEAC12110
:1042F0000EEB635E42EB22420EFB0CFC4FEA1C53BA
:1043000000FB03114FEA112C4FEA01310EFB0CFCAC
:104310004FEADC4C00FB0C11C14228BF09184CEBE2
:1043200003335DF804EB10EB410143EBC250B2F5EF
:104330007C0F38BF704729D512F0F00F1CBF00F179
:10434000C04000F0004070470081828384858687EA
:1043500088898B8C8D8E8F919293959697999A9C44
:104360009D9FA0A2A3A5A7A8AAACAEB0B2B3B5B7B3
:10437000B9BCBEC0C2C5C7C9CCCED1D4D7D9DCDF89
:10438000E2E6E9ECF0F3F7FAFE0000004FEA400C39
:104390000CF1807CBCF17E4F28BF7047B0F1C0406B
:1043A00000F02BB990EA010F0CEAD11348BF42F498
:1043B0008072624538BF634507D213F47F0F16D071
:1043C00080EA010000F00040704710B500F0CFF81F
:1043D000097EFC3E00F005B880EA010000F00040D4
:1043E000704780EA010000F0004000F006B912F4C6
:1043F0007F0F04BF0248704780EA010000F0FDB85B
:104400000000C07F41000B0ED3F19E0208D950F48A
:1044100000034FEA032323FA02F048BF40427047EB
:1044200010B500F0A4F800BF499224800020704726
:104430006FF0004282EA20007047000010F0004157
:1044400048BF4042B0FA80F310FA03F2C3F19D0373
:104450000BD051EAC35101EB1220530638BF70470D
:1044600000F1010008BF20F0010070474FF47F0CFD
:104470001CEAD0121EBF1CEAD11392EA0C0F93EA79
:104480000C0F00F0478090EA010F48BF42F48072A1
:104490004FF0004C4CEA00204CEA012102EB0302F1
:1044A000A0FB0113A2F50002002918BF43F001038D
:1044B0005B0028BF4FEA330342EB22425FEA132C32
:1044C0004CEBC2502EBFBCEB436FB2F57C0F704774
:1044D0004FEA036CBCF1004F08BF20F00100B2F5B9
:1044E0007C0F38BF70470BD582F0FF0212F5803F7A
:1044F000C8BF704700F1C040D8BF00F0004070470F
:1045000000F5000C5FEA4C0C48BF7047B0F1C040AA
:1045100000F073B890EA010F0CEAD11348BF42F4DF
:104520008072624538BF634504D280EA010000F022
:104530000040704710B500F01AF800BF8900013E36
:1045400000F007B800F009B85FEA410C5FEA1C6CA4
:1045500008D080EA010000F050B85FEA400C5FEA42
:104560001C6CF6D14FF00040A0F5800070470EF1B2
:10457000020E2EF0030E5EF8044B244204D44FEAE0
:104580004102B2F17F4F11D84FEA4003B3F17F4FA0
:104590000CD80ED14FEAD07CB2F17F4F0CEB4C0C13
:1045A0000CF1020C08BF4CEBD17C04E04FF0080C7E
:1045B00001E04FEAD17C0CEB4C0324FA03F404F045
:1045C0000704B4F1040C06D20EEB840CBDE81040D5
:1045D0004CF0010C6047DFE80CF0070802024FF0D6
:1045E0000040A0F5800010BD0846420018BFD2F17F
:1045F000807288BF00F0004010BDFF2141EAD0501A
:10460000C005704780F0004090EA010F7FF5DDADF6
:1046100081F0004100F007B890EA010F48BF81F037
:1046200000413FF5D2AD421A04D882F00042A0EB1F
:10463000020011444FEAD0524FF07F4C1CEA410F68
:10464000A2EBD15318BF9CEA026F4AD04FF0004C46
:104650004CEA00204CEA012121FA03FCB0EB0C0CDF
:104660000FD412F0FE0F36D05FEA4C001DD50012B9
:1046700040EBC25038BF70471CF03F0F18BF704767
:104680000BE0A2F101025FEA1C2040EBC25038BFF0
:1046900070471CF07F0F18BF7047C3F1200399408B
:1046A00014BF401E20F00100704780084FEA12231B
:1046B00008BF7047B0FA80FCA2EB0C02CCF1280CCA
:1046C00060FA0CF093EA122F04BF00EBC25070475F
:1046D0004FEAC3707047130A5FEADC1008BF7047E7
:1046E000F6E79CEA026F04D010EA5C0F08BF0020D6
:1046F000704710B5FFF73BFF40DFF63E81F000400A
:10470000704700002447000800000020C40000009B
:104710006C010008E8470008C400002034090000CC
:10472000880100080000000000A24A040000000008
:104730000000000001020304060708090000000051
:104740000000000000000000000000000001020363
:104750000401020304060708090204060800000019
:104760000000000000000000000000000000000049
:104770000000000000000000000000000000000039
:104780000000000000000000000000000000000029
:104790000000000000000000000000000000000019
:1047A0000000000000000000000000000000000009
:1047B00000000000000000000000000000000000F9
:1047C00000000000000000000000000000000000E9
:1047D00000000000000000000000000000000000D9
:0847E0000000000001000000D0
:0400000508000131BD
:00000001FF
