:020000040800F2
:10000000E809002045010008E5200008E720000875
:10001000EB200008EF200008F3200008000000009B
:10002000000000000000000000000000F7200008B1
:10003000F920000800000000FB200008FD20000857
:100040005F0100085F0100085F0100085F01000810
:100050005F0100085F0100088B3500085F010008A0
:100060005F01000821360008453600085F010008DE
:100070005F0100085F0100085F0100085F010008E0
:100080005F0100085F0100085F0100085F010008D0
:100090005F0100085F0100085F010008B736000833
:1000A0005F0100085F0100085F0100085F010008B0
:1000B0005F0100085F0100085F0100085F010008A0
:1000C0005F0100085F0100085F0100085F01000890
:1000D0005F01000857210008AF210008FF20000839
:1000E0005F0100085F0100085F0100085F01000870
:1000F0005F0100085F0100085F0100085F01000860
:100100005F0100085F0100085F0100085F0100084F
:10011000153500085F0100085F0100085F01000855
:100120005F0100085F0100085F0100085F0100082F
:10013000DFF80CD005F0D4FB004800476F1E000824
:10014000E80900200648804706480047FEE7FEE72A
:10015000FEE7FEE7FEE7FEE7FEE7FEE7FEE7FEE777
:1001600045020008310100080CB500200190009004
:100170006B48006840F480306949086000BF6848F7
:10018000006800F4003000900198401C0190009835
:1001900018B90198B0F5A06FF1D16148006810F46A
:1001A000003F02D00120009001E000200090009864
:1001B000012842D15B48006840F0100059490860AE
:1001C0000846006820F0030008600846006840F018
:1001D000020008605248406851494860084640683B
:1001E00048600846406840F48060486008464068BF
:1001F00020F47C1048600846406840F4E8104860ED
:100200000846006840F08070086000BF44480068FD
:1002100010F0007FFAD04248406820F003004049C7
:1002200048600846406840F00200486000BF3C4813
:10023000406800F00C000828F9D10CBD10B5FFF79C
:1002400093FF10BD10B53648006840F001003449F6
:10025000086008464068344908403149486008460B
:100260000068324908402E4908600846006820F4BA
:10027000802008600846406820F4FE0048604FF483
:100280001F008860FFF7DAFF4FF000602849086020
:1002900010BD10B5002100200022214B5B6803F047
:1002A0000C0121B1042906D0082928D107E0214BEF
:1002B000214C236027E01F4B1F4C236023E0184B89
:1002C0005B6803F47010164B5B6803F48032022302
:1002D00003EB904022B9194B4343174C23600DE0C8
:1002E0000F4B5B6813F4003F04D0144B4343124C94
:1002F000236003E00F4B43430F4C236003E00D4B9F
:100300000D4C236000BF00BF054B5B68C3F30313B4
:100310000B4CE15C084B1B68CB40074C236010BDC5
:1003200000100240002002400000FFF8FFFFF6FE30
:1003300008ED00E000127A000000002000093D00F6
:100340000400002031490143314A1160704770B503
:10035000002100230F22C4780CB32D4C246804F430
:10036000E064C4F5E064210AC1F10403CA404478A2
:1003700004FA03F18478144021430901254C0678DE
:10038000A155047804F01F050124AC4005786D11D7
:100390004FF0E02606EB8505C5F8004109E004783A
:1003A00004F01F050124AC401B4D0678761145F87A
:1003B000264070BD194A0A400243154B1B1F1A60A4
:1003C000704739B1124A121D12680243104B1B1DAF
:1003D0001A6006E00E4A121D126882430C4B1B1D68
:1003E0001A607047042808D14FF0E021096941F0F4
:1003F00004014FF0E022116107E04FF0E0210969AC
:1004000021F004014FF0E022116170470000FA056D
:100410000CED00E000E400E080E100E080FFFF1F61
:10042000002044490860091D0860091D0860091D75
:10043000086041483F4914310860704700213D4938
:100440008279002A3AD00A46126803689A430B461A
:100450001A600A1D126803689A430B1D1A6002791C
:1004600011440A6803681A430A60324A0832126863
:1004700003689A432F4B08331A601A1D12680368E9
:100480009A432C4B0C331A604279102A0ED11A1F52
:10049000126803681A43274B08331A601A1D126842
:1004A00003681A43234B0C331A600DE0214942794B
:1004B00011440A6803681A430A6005E0027911448E
:1004C0000A6803689A430A6070470021016001715D
:1004D0000C21417100218171704716491031096862
:1004E0000143144A10321160704701460020114A3E
:1004F000143212680A4201D0012000E00020704747
:100500000C49143108607047014600200022094B55
:100510001B6803EA0102074B14331B680B4202D02D
:100520000AB1012000E00020704702491431086040
:100530007047000000040140FFFF0F0010B50446A3
:10054000CA48844208D10121042000F027FB002181
:10055000042000F023FB46E0C548844208D1012175
:10056000082000F01BFB0021082000F017FB3AE0F8
:10057000C048844208D10121102000F00FFB002167
:10058000102000F00BFB2EE0BB48844208D1012173
:10059000202000F003FB0021202000F0FFFA22E0E1
:1005A000B648844208D10121402000F0F7FA00212A
:1005B000402000F0F3FA16E0B148844208D101214E
:1005C000802000F0EBFA0021802000F0E7FA0AE03A
:1005D000AC48844207D10121801500F0DFFA0021E8
:1005E000A01500F0DBFA10BD10B50121084600F09F
:1005F000D5FA0021012000F0D1FA10BD2DE9F0411B
:10060000024600250026002000230024002791F840
:1006100003C00CF00F0591F803C01CF0100F03D0BD
:1006200091F802C04CEA050591F800C0BCF1000F3A
:1006300031D0146800202BE04FF0010C0CFA00F3CD
:10064000B1F800C00CEA03069E4220D183004FF0AF
:100650000F0C0CFA03F7BC4305FA03FC4CEA040444
:1006600091F803C0BCF1280F06D14FF0010C0CFA31
:1006700000FCC2F814C00AE091F803C0BCF1480FB6
:1006800005D14FF0010C0CFA00FCC2F810C0401C60
:100690000828D1D31460B1F800C0BCF1FF0F34DDDD
:1006A000546800202EE000F1080C4FF0010808FA11
:1006B0000CF3B1F800C00CEA03069E4221D183007E
:1006C0004FF00F0C0CFA03F7BC4305FA03FC4CEA9D
:1006D000040491F803C0BCF1280F05D100F1080C07
:1006E00008FA0CF8C2F8148091F803C0BCF1480F66
:1006F00007D100F1080C4FF0010808FA0CF8C2F815
:100700001080401C0828CED35460BDE8F0814FF61D
:10071000FF710180022181700421C170704702467F
:10072000002093680B4201D0012000E000207047B8
:100730000146886880B2704702460020D3680B42A9
:1007400001D0012000E0002070470146C86880B257
:10075000704701617047416170470AB1016100E073
:1007600041617047C16070474FF480320A43826133
:100770008161826182698269704702460020424B32
:1007800018684FF68073184040EA021008433E4B49
:10079000186070473D49C8617047F0B50A460023AC
:1007A00000240021002500F00046B6F1004F02D1E0
:1007B000354EF16901E0344E7168C0F3034583B2F0
:1007C00000F44016B6F5401F08D121F070612E4E9E
:1007D000766826F070662C4F7E6012E000F480167A
:1007E000B6F5801F06D1032606FA05F4A14341F0B1
:1007F000706106E0460D360103FA06F6B14341F09A
:10080000706122B1460D360103FA06F6314300F05D
:100810000046B6F1004F02D11B4EF16101E01A4EC5
:100820007160F0BD30B500228B071C0F0F2303FA57
:1008300004F2154B08338C1053F824309343124CB8
:1008400008348D1044F8253023468C1053F824309A
:100850008C07240F00FA04F423430B4C08348D104A
:1008600044F8253030BD0A4908607047000801404F
:10087000000C01400010014000140140001801402C
:10088000001C014000200140000001400000204207
:10089000DC002042DD48006840F00100DB490860D0
:1008A00008464068DA490840D84948600846006868
:1008B000D8490840D54908600846006820F48020DF
:1008C00008600846406820F4FE0048604FF41F00AE
:1008D00088607047CD49096821F48031CB4A1160A6
:1008E0001146096821F480211160B0F5803F03D0E2
:1008F000B0F5802F0ED106E0C449096841F480317B
:10090000C24A116007E0C149096841F4A021BF4A09
:10091000116000E000BF00BF704710B50146002223
:10092000002300204A11012A02D1B84C236806E0B6
:10093000022A02D1B54C236A01E0B44C636A01F08B
:100940001F02012494401C4201D0012000E000203D
:1009500010BD38B5002000900024002500BF3120D4
:10096000FFF7DBFF05460098401C00900098B0F5AB
:10097000A06F01D0002DF2D03120FFF7CEFF08B1DB
:10098000012400E00024204638BD014600209F4A93
:10099000106820F0F80040EAC100106070479E49DE
:1009A0000860704702460020984B586820F47C107D
:1009B00042EA01031843954B586070479649086610
:1009C000704701460020914A506820F00300084318
:1009D000506070478D48406800F00C007047014639
:1009E00000208A4A506820F0F000084350607047A9
:1009F00001460020854A506820F4E06008435060BA
:100A0000704701460020814A506820F4605040EA57
:100A1000C1005060704729B17C4A527A02437B4B37
:100A20005A7204E0794A527A8243784B5A7270477C
:100A30007A490860704701460020744A506820F4E3
:100A400040400843506070470021754A11706F4A5A
:100A500082F82010012802D0042808D103E00121E7
:100A60006F4A117004E005216D4A117000E000BF6B
:100A700000BF70476B49086070476449096A0143C9
:100A8000624A11627047674944390860704730B55F
:100A900000210022002400235C4D6D6805F00C014C
:100AA00021B1042905D0082923D105E05E4D056058
:100AB00022E05D4D05601FE0544D6D6805F4701235
:100AC000524D6D6805F48034022505EB92421CB945
:100AD000564D554305600BE04C4D6D6815F4003FD5
:100AE00003D0524D5543056002E04F4D554305601C
:100AF00002E04D4D056000BF00BF444D6D6805F03C
:100B0000F00109094A4D6B5C0568DD4045603F4DC9
:100B10006D6805F4E061090A454D6B5C4568DD4090
:100B200085603A4D6D6805F46051C90A404D6B5CB3
:100B30004568DD40C560354D6D6805F44041890B61
:100B40003C4D6B5CC568B5FBF3F5056130BD29B163
:100B50002E4A526902432D4B5A6104E02B4A5269D6
:100B600082432A4B5A61704729B1284A926902434D
:100B7000264B9A6104E0254A92698243234B9A618D
:100B8000704729B1214AD2690243204BDA6104E05F
:100B90001E4AD26982431D4BDA61704729B11B4A54
:100BA000D2680243194BDA6004E0184AD2688243E3
:100BB000164BDA60704729B1144A12690243134B8D
:100BC0001A6104E0114A12698243104B1A6170479E
:100BD00014494039086070470F49C86470470B4991
:100BE000C87170470948406A40F080700749486200
:100BF000704701460020054A92680A4201D0012050
:100C000000E00020704701498872704700100240E0
:100C10000000FFF8FFFFF6FE00004242D80042420B
:100C2000201002408004424200127A0000093D0078
:100C3000140000202400002010B50446FE48844221
:100C400008D10121C014FFF7A9FF0021E014FFF72C
:100C5000A5FFC4E0B4F1804F08D101210846FFF799
:100C6000AAFF00210120FFF7A6FFB8E0F348844265
:100C700008D101210220FFF79EFF00210220FFF78B
:100C80009AFFACE0EE48844208D101210420FFF72E
:100C900092FF00210420FFF78EFFA0E0E948844284
:100CA00008D101210820FFF786FF00210820FFF767
:100CB00082FF94E0E448844208D101211020FFF72C
:100CC0007AFF00211020FFF776FF88E0DF4884429A
:100CD00008D101212020FFF76EFF00212020FFF71F
:100CE0006AFF7CE0DA48844208D101214014FFF712
:100CF00055FF00216014FFF751FF70E0D548844292
:100D000009D10121C804FFF749FF00214FF4002059
:100D1000FFF744FF63E0D048844209D10121080570
:100D2000FFF73CFF00214FF48010FFF737FF56E03C
:100D3000CA48844209D101214805FFF72FFF00214D
:100D40004FF40010FFF72AFF49E0C548844208D15C
:100D500001214020FFF72FFF00214020FFF72BFF4C
:100D60003DE0C048844208D101218020FFF723FFE5
:100D700000218020FFF71FFF31E0BB48844208D1EB
:100D800001218015FFF717FF0021A015FFF713FFC2
:100D900025E0B648844209D101210804FFF7FEFE90
:100DA00000214FF48030FFF7F9FE18E0B04884428C
:100DB00009D101214804FFF7F1FE00214FF4003072
:100DC000FFF7ECFE0BE0AB48844208D10121880418
:100DD000FFF7E4FE00214FF48020FFF7DFFE10BD97
:100DE00000220288944B98420ED0994B98420BD027
:100DF000B0F1804F08D0914B984205D0904B98426B
:100E000002D0904B984204D14FF68F731A404B8812
:100E10001A438D4B984207D08C4B984204D04FF622
:100E2000FF431A40CB881A4302808B8883850B8846
:100E30000385814B98420BD0854B984208D08B4B51
:100E4000984205D08A4B984202D08A4B984201D1F1
:100E50000B7A038601238382704770B50024002239
:100E60000023058C4FF6FE7635400584028C83887E
:100E7000048B4FF68F752C40B51E2C400D882C43EB
:100E8000751E2A400D892A434D882A436A4DA8427F
:100E90000BD06F4DA84208D0744DA84205D0744DB8
:100EA000A84202D0734DA84213D14FF6F7752A40DD
:100EB0004D892A434FF6FB752A408D882A434FF609
:100EC000FF652B404FF6FF552B408D892B43CD8975
:100ED0002B4383800483CD888586028470BD70B5E2
:100EE000002400220023058C4FF6EF763540058460
:100EF000028C8388048B48F6FF752C404FF6FF4523
:100F00002C400D884FF6FF7606EA05252C434FF658
:100F1000DF752A400D8906EA05152A434D8806EA41
:100F200005152A43444DA84202D0494DA8421DD17F
:100F30004FF67F752A404D894FF6FF7606EA051574
:100F40002A434FF6BF752A408D8806EA05152A43C5
:100F50004FF6FF352B404FF2FF752B408D8906EA87
:100F600085052B43CD8906EA85052B4383800483C1
:100F7000CD880587028470BD70B50024002200234F
:100F8000058C4FF6FF6635400584028C8388848B80
:100F90004FF68F752C404FF6FC752C400D882C4376
:100FA0004FF6FF552A400D894FF6FF7606EA0525D4
:100FB0002A434D8806EA05252A431F4DA84202D040
:100FC000234DA8421DD14FF2FF752A404D894FF69F
:100FD000FF7606EA05252A434FF6FF352A408D881D
:100FE00006EA05252A434EF6FF752B404DF6FF75A0
:100FF0002B408D8906EA05152B43CD8906EA051598
:101000002B4383808483CD888587028470BD70B52F
:10101000002200230024058C4EF6FF76354005841F
:10102000038C8488828B48F6FF752A404FF6FF4573
:101030002A400D8820E00000002C01400004004000
:1010400000080040000C0040001000400014004068
:1010500000340140004C0140005001400054014068
:1010600000180040001C00400020004000400140EB
:1010700000440140004801404FF6FF7606EA05258E
:101080002A434DF6FF752B400D8906EA05352B43A3
:101090004D8806EA05352B43FA4DA84202D0FA4D99
:1010A000A84208D14BF6FF752C408D894FF6FF768C
:1010B00006EA85152C4384808283CD88A0F84050B1
:1010C000038470BD828B4FF2FF331A408283828B80
:1010D0004FF6FF7303EA01231A4382837047F0B58A
:1010E0000C461546002200210026078C4EF6FF7C98
:1010F00007EA0C070784828B018C4FF6FF7707EA1B
:10110000043640F6FF473A404FF6FF7707EA0527D7
:101110003A434FF6FF7707EA03373A43D94FB842CD
:101120000ED0D94FB8420BD0B0F1804F08D0D74F76
:10113000B84205D0D64FB84202D0D64FB84206D1F9
:101140004DF6FF77394046F48057394305E047F6BE
:10115000FF57394044F48057394382830184F0BDFE
:10116000828B4FF6F3731A408283828B0A43828309
:101170007047F0B50C461546002200210026078C6A
:101180004FF6FF6C07EA0C070784828B018C4FF641
:10119000FF7707EA04264FF60C773A404FF6FF77C1
:1011A00007EA03172F433A43B64FB8420ED0B64F63
:1011B000B8420BD0B0F1804F08D0B44FB84205D040
:1011C000B34FB84202D0B34FB84206D14FF6FF57E3
:1011D000394046F48077394305E04FF2FF573940F4
:1011E00044F48077394382830184F0BD028B4FF24F
:1011F000FF331A400283028B4FF6FF7303EA012389
:101200001A4302837047F0B50C46154600220021B0
:101210000026078C4FF6EF7C07EA0C070784028B49
:10122000018C4FF6FF7707EA041640F6FF473A4075
:101230004FF6FF7707EA03373A434FF6FF7707EA9F
:1012400005273A438F4FB8420ED08F4FB8420BD08C
:10125000B0F1804F08D08D4FB84205D08C4FB842C6
:1012600002D08C4FB84206D14FF6DF77394046F0B6
:101270001007394305E04FF65F77394044F0100717
:10128000394302830184F0BD028B4FF6F3731A4099
:101290000283028B0A4302837047F0B50C46154661
:1012A00000220021068C4FF6FE773E400684028B1A
:1012B000018C4FF60C7632407E1C06EA03162E4354
:1012C0003243704EB0420ED06F4EB0420BD0B0F1F0
:1012D000804F08D06D4EB04205D06D4EB04202D066
:1012E0006C4EB04206D14FF6FD76314044F0010617
:1012F000314305E04FF6F576314044F001063143C5
:1013000002830184F0BD70B505460C465D488542F8
:101310000ED05D4885420BD0B5F1804F08D05B48B8
:10132000854205D05A48854202D05A48854200D1AC
:1013300000E000BF208850B92389A2886188284630
:10134000FFF7ABFFE1882846FFF79EFF25E02088E6
:1013500004280AD12389A28861882846FFF753FF11
:10136000E1882846FFF742FF17E0208808280AD1C5
:101370002389A28861882846FFF7FBFEE18828467A
:10138000FFF7EEFE09E02389A28861882846FFF76F
:10139000A6FEE1882846FFF795FE70BD2DE9F041D5
:1013A00005460C4600260127608808B9022600E0A1
:1013B0000026A088012801D1022700E0012720880B
:1013C000A0B92389A28861882846FFF766FFE188D3
:1013D0002846FFF759FF23893A4631462846FFF74A
:1013E00012FFE1882846FFF701FF13E02389A28856
:1013F00061882846FFF707FFE1882846FFF7F6FED9
:1014000023893A4631462846FFF747FFE1882846B8
:10141000FFF73AFFBDE8F0810A884B881A438B88B2
:101420001A43CB881A430B891A434B891A438B8979
:101430001A43A0F8442070474FF6FF7181800021C5
:101440000180C1804180017270470021018041808C
:101450008180C180018141818181C18170470021EA
:1014600001804180012181800021C180018170477C
:101470000021018041808180C18001814181818181
:1014800070470000002C014000340140000400407F
:1014900000080040000C004021B1028842F0010227
:1014A000028004E002884FF6FE731A400280704703
:1014B00031B1B0F8442042F40042A0F8442005E0E5
:1014C000B0F84420C2F30E02A0F8442070471AB1CD
:1014D00083890B43838102E083898B438381704737
:1014E0008182704741EA0203A0F8483070471AB180
:1014F00083890B43838102E083898B438381704717
:1015000001894FF6F8721140018170470A460021A7
:1015100001894FF68F73194011430181704730B52F
:1015200004460D4629462046FFF7F0FF208940F08B
:101530000700208130BD2DE9F04104460D461646D6
:101540001F46602D06D13B46012231462046FFF75B
:101550005AFE05E03B46012231462046FFF79DFE3C
:1015600029462046FFF7D2FF208940F0070020815E
:10157000BDE8F08130B50C4600210189C9B24FF6B3
:10158000FF7505EA0325154325432943018130BD35
:101590002DE9F04105460E4617469846002443467D
:1015A0003A4631462846FFF7E5FF2C894FF6F8709A
:1015B000044044F007044FF68F70044044F0700478
:1015C0002C81BDE8F081F0B504460D4616461F4655
:1015D0003B46324629462046FFF7CCFF208940F49F
:1015E00080402081F0BD0185828270470A4600213B
:1015F00001884FF68F731940114301807047F0B591
:101600000C4615461E460021002200230189028B4C
:10161000038C4FF6F877394021434FF6FC473A40A8
:1016200040F201173A434FF6DD773B404FF6FF7724
:1016300007EA06172F433B43018102830384F0BD71
:101640000A460021018B4FF68F7319401143018325
:1016500070470A460021018B48F6FF7319404FF688
:10166000FF7303EA02231943018370470A460021EE
:10167000818B4FF68F7319401143818370470A465F
:101680000021818B48F6FF7319404FF6FF7303EA80
:10169000022319438183704721B1028842F08002FE
:1016A000028004E002884FF67F731A400280704780
:1016B00021B1828842F00402828004E082884FF6E1
:1016C000FB731A408280704721B1828842F0080281
:1016D000828004E082884FF6F7731A408280704758
:1016E00021B1828842F00102828004E082884FF6B4
:1016F000FE731A40828070470A460021018B4FF624
:10170000F77319401143018370470A460021018B8A
:101710004FF2FF7319404FF6FF7303EA0223194398
:10172000018370470A460021818B4FF6F7731940F9
:101730001143818370470A460021818B4FF2FF736A
:1017400019404FF6FF7303EA022319438183704760
:101750000A460021018B4FF6FB73194011430183A8
:1017600070470A460021018B4FF6FF3319404FF6B0
:10177000FF7303EA02231943018370470A460021DD
:10178000818B4FF6FB7319401143818370470A46E2
:101790000021818B4FF6FF3319404FF6FF7303EAA8
:1017A00002231943818370470A460021018B4FF6BB
:1017B0007F7319401143018370470A460021018B52
:1017C000C1F30E014FF6FF7303EA022319430183AD
:1017D00070470A460021818B4FF67F7319401143F1
:1017E000818370470A460021818BC1F30E014FF6B9
:1017F000FF7303EA02231943818370470A460021DD
:10180000018C4FF6FD7319401143018470470A465D
:101810000021018C4FF6F773194011430184704782
:101820000A460021018C4FF6DF7319404FF6FF7313
:1018300003EA02131943018470470A460021018C10
:101840004FF67F7319404FF6FF7303EA02131943F3
:10185000018470470A460021018C4FF6FF5319405E
:101860004FF6FF7303EA02231943018470470A46C7
:101870000021018C4FF2FF7319404FF6FF7303EA0A
:1018800002231943018470470A460021018C4DF65A
:10189000FF7319404FF6FF7303EA023319430184C3
:1018A000704730B5002301248C40A3B2048C9C43C4
:1018B0000484048C02FA01F5ADB22C43048430BDDB
:1018C00030B5002304248C40A3B2048C9C430484D0
:1018D000048C02FA01F5ADB22C43048430BD70B51E
:1018E0000346002000241846183001258D40ACB274
:1018F0001D8CA5431D8409B1082909D100EB6100A5
:10190000056825F0700505600568154305600EE063
:101910000D1FC5F34E052844056825F4E045056014
:1019200005684FF6FF7606EA02263543056070BD6E
:1019300021B1028842F00202028004E002884FF6E0
:10194000FD731A400280704721B1028842F0040200
:10195000028004E002884FF6FB731A400280704751
:1019600021B1828842F08002828004E082884FF6B2
:101970007F731A408280704702884FF6F7731A40CF
:10198000028002880A430280704782884FF68F7374
:101990001A40828082880A438280704702894FF60B
:1019A000F8731A40028102890A4302817047028952
:1019B0004FF67F731A40028102890A430281704701
:1019C00081847047818570478186704701877047A1
:1019D00081877047A0F84010704702884FF6FF4398
:1019E0001A40028002880A43028070470146888EAE
:1019F00070470146088F70470146888F704701463F
:101A0000B1F8400070470146888C70470146088D48
:101A1000704702460020138A0B4201D0012000E0EB
:101A200000207047CA430282704730B5024600204A
:101A300000230024158A05EA0103958905EA0104BB
:101A400013B10CB1012000E0002030BDCA43028276
:101A50007047000010B50446FB48844209D10121BB
:101A60008803FFF79BF800214FF48040FFF796F8BA
:101A700032E0F648844209D101214804FFF79BF87F
:101A800000214FF40030FFF796F825E0F04884423B
:101A900009D101218804FFF78EF800214FF480203E
:101AA000FFF789F818E0EB48844209D10121C80406
:101AB000FFF781F800214FF40020FFF77CF80BE0DE
:101AC000E548844208D101210805FFF774F8002198
:101AD0004FF48010FFF76FF810BD2DE9F04786B086
:101AE00005460E460024A24600BFA1460027B08945
:101AF00000B100BF2F462C8A4CF6FF700440F088DE
:101B000004432C82AC894EF6F3100440B08831892E
:101B10000843718908430443AC81AC8A4FF6FF4007
:101B20000440B0890443AC8201A8FEF7B0FFC64868
:101B3000874202D1DDF810A001E0DDF80CA0A889F1
:101B400010F4004F08D00AEBCA0000EB0A1031680D
:101B50004900B0FBF1F807E00AEBCA0000EB0A10FD
:101B600031688900B0FBF1F86420B8FBF0F00401A3
:101B70002009642101FB1089A88910F4004F08D0C6
:101B8000322000EBC900B0FBF1F000F00700044385
:101B900008E0322000EB09106421B0FBF1F000F006
:101BA0000F0004432C8106B0BDE8F0874FF41651B6
:101BB000016000218180C18001810C2141810021CF
:101BC0008181704710B502460020108A4FF2FF0352
:101BD00018400B884C8823438C882343CC882343AC
:101BE0001843108210BD0021018041808180C18096
:101BF000704721B1828942F40052828104E08289D7
:101C00004DF6FF731A4082817047F0B503460024F9
:101C1000002600250020A1F510676A3F00D100BF13
:101C20001846C1F3421401F01F06012707FA06F512
:101C3000012C01D10C3004E0022C01D1103000E065
:101C400014301AB107682F43076002E00768AF43FA
:101C50000760F0BD1AB1838A0B43838202E0838A56
:101C60008B4383827047028A4FF6F0731A400282D8
:101C7000028A0A430282704782894FF2FF731A4038
:101C8000828182890A438281704721B1828942F030
:101C90000202828104E082894FF6FD731A4082813C
:101CA0007047028A4FF6DF731A400282028A0A43A3
:101CB0000282704721B1028A42F48042028204E02B
:101CC000028A4BF6FF731A4002827047C1F3080282
:101CD0008280704701468888C0F308007047818978
:101CE00041F0010181817047028BD2B20283028BE5
:101CF00042EA012202837047028B02F47F42028390
:101D0000028B0A430283704721B1828A42F020028B
:101D1000828204E0828A4FF6DF731A408282704723
:101D200021B1828A42F01002828204E0828A4FF658
:101D3000EF731A408282704721B1828A42F0080212
:101D4000828204E0828A4FF6F7731A4082827047DB
:101D500021B1828942F40042828103E08289C2F388
:101D60000E028281704721B1828A42F4006282822F
:101D700004E0828A4FF2FF731A4082827047828A9F
:101D80004FF6FB731A408282828A0A43828270472E
:101D900021B1828A42F00202828204E0828A4FF6F6
:101DA000FD731A408282704702460020B1F5007F21
:101DB00000D100BF13880B4201D0012000E00020B9
:101DC000704701F40072B2F5007F00D100BFCA4332
:101DD0000280704770B502460024002300250020D1
:101DE000A1F510666A3E00D100BFC1F3421501F0B3
:101DF0001F03012606FA03F3012D02D19689334011
:101E000006E0022D02D1168A334001E0968A334063
:101E10000C12012606FA04F41688344013B10CB1F2
:101E2000012000E0002070BD10B500220023A1F5C4
:101E300010646A3C00D100BF0A1201249440A3B28E
:101E4000DC43048010BD0000003801400044004025
:101E500000480040004C00400050004001B502E046
:101E60000098401E009000980028F9D108BD9AB053
:101E700000BF03F025F801F08BFD01F0C8FD01F073
:101E800006FE4FF4E131242001F043FE02F0ACF8ED
:101E900001F0A3FE01F022FD01F0CEFC02F0B2FF42
:101EA0005B48FFF7DBFF5A48FFF7D8FF5848FFF7BA
:101EB000D5FF5748FFF7D2FF5548FFF7CFFFA6E001
:101EC0004FF480734FF0000CDDE91010A1FB032AE2
:101ED00000FB03A001FB0C03DDE90A108C1A60EB88
:101EE0000305DDE90E01A4FB00A305FB003001FBA7
:101EF00004014FF400020023504603F0B5F84FF4FC
:101F0000FA614018DDE91201A0FB04A301FB0431D2
:101F100000FB05114FF080024FF00003504603F024
:101F2000A3F84FF4803A4FF0000BDDE91623A2FB33
:101F30000ACE03FB0AE302FB0B3210EB0C0841EB69
:101F40000209DDE91401A0FB04A301FB043100FB3D
:101F500005114FF480720023504603F085F84FF4CA
:101F6000004ADDE91832A3FB0ACE02FB0AE203FBBA
:101F70000B220346084613EB0C015041CDE9081033
:101F8000DDE90810490D41EAC0214315DDE90C02E5
:101F9000A1FB00CA03FB00A001FB0200BCEB08018F
:101FA00060EB09004FF400420023CDE9061008461B
:101FB000079903F059F80F460646164AB6EB020A8F
:101FC00067F1000101220023504603F04DF8CDE9EE
:101FD000000103F0EBFA104A104BCDE9020103F0C7
:101FE00057FA00220E4BCDE9040103F0DFF9CDE9E9
:101FF000060103F02FFB0B4908600B48006818B17D
:1020000000200949086002E001200749086057E7FD
:10201000FFFF0F0040420F009A9999999999234028
:1020200000005940E0000020340000202DE9F0417C
:1020300004460D462946204603F095F8F949086004
:10204000F9480168F748006803F08DF8F74908601F
:10205000F7480168F548006803F08BF80746F54833
:102060000168F048006803F084F88046394603F0C0
:1020700028F80646EB480068EB4908603046BDE8A2
:10208000F08170B504460D462946204603F06BF8F2
:10209000E9490860E9480168E748006803F069F821
:1020A0000646304670BD70B504460D4629462046AA
:1020B00003F059F8E2490860E2480168E048006826
:1020C00003F051F8E0490860E0480168DC48006826
:1020D00003F04FF80646DA480068DA4908603046EF
:1020E00070BD7047704700BFFEE700BFFEE700BF4E
:1020F000FEE700BFFEE7704770477047704710B5B6
:1021000040F22551D248FFF765FE18B3D048FFF7DB
:10211000E1FDC4B2CF48007820B9FF2C02D10120E4
:10212000CC490870CB480078012808D1CA48CB496F
:1021300009784454C9480078401CC8490870C74809
:1021400000780C2806DD0020C4490870C1490870D9
:1021500002F069FA10BD10B540F22551C048FFF7F2
:1021600039FE18B3BE48FFF7B5FDC4B2BD480078CC
:1021700020B9FF2C02D10120BA490870B948007873
:10218000012808D1B848B94909784454B7480078BB
:10219000401CB6490870B5480078032806DD0020C9
:1021A000B2490870AF49087002F0F4FE10BD2DE985
:1021B000FE4F002440F22551AD48FFF70BFE0028EA
:1021C00001F0A681AA48FFF785FDC5B2552D05D1BE
:1021D000A848007810B90120A6490870A5480078E1
:1021E000012841F09581A448A44909784554A348A1
:1021F0000078401CA1490870084600780A2841F37D
:102200008781002008709B4908709B4840785328BC
:10221000E7D19948C079000204B297488079044315
:10222000204603F0A4F94FF08E41009002F0D7FF52
:102230009349019002F09DFF924908608E484079D1
:10224000000204B28C4800790443204603F08FF961
:102250004FF08E41009002F0C2FF8949019002F0D8
:1022600088FF894908608448C078000204B2824827
:1022700080780443204603F07AF94FF08E410090B5
:1022800002F0ADFF7E49019002F073FF7F490860C4
:102290007948C0797E490870774880797D4908700F
:1022A000754840797C490870734800797B4908700B
:1022B0007148C0787A4908706F4880787949087009
:1022C00072480068784908606F480068774908607C
:1022D0006C480068764908606A48006803F0A7F90E
:1022E00002460B46CDE9000172A003F04BFB6648A5
:1022F000006803F09CF902460B46CDE9000170A08E
:1023000003F040FB71480078002801F07D807048A0
:102310000078001F122881F07580DFE810F01200AD
:10232000070111011B012401C0015C0265022A039F
:102330006E023303C90366043705D60572060E071D
:10234000D40764480068401C6249086062486349D9
:10235000097850F821005F49096888420AD20020B4
:102360005C4908605D480078401C5C4908700120A9
:102370005B49087059480078062852D2DFE800F01F
:102380000310203142C05648007840B10020554922
:102390000860554908605549086051490870C2E015
:1023A0004F48007858B100204E4908604E490860F7
:1023B0004F4800684D490860002049490870B2E064
:1023C0004748007860B100204649086049484649BE
:1023D0000860474800684549086000204049087087
:1023E000A1E03F48007860B143483E4908600020C2
:1023F0003D4908603E4800683C4908600020384973
:10240000087090E03648007850B13B483549086084
:102410003A4835490860002034490860304908705E
:1024200081E07AE0400000204400002048000020C5
:102430000C010020080100204C000020FC000020BE
:10244000580000205C00002060000020F000002008
:10245000004800406C000020CB0500206D000020EB
:10246000003801406E000020D80500206F000020D9
:102470000044004070000020800500207100002012
:1024800000003443300000202C00002028000020F1
:102490005405002055050020560500205705002052
:1024A0005805002059050020600500206405002023
:1024B000680500207961773D2566202020200000F6
:1024C00070697463683D2566200A0000E8000020FA
:1024D000E900002038000020E86200087D000020AC
:1024E0007E00002098000020B0000020D8000020CE
:1024F000EC0000200000A0410000B4420000F041C8
:10250000F948007840B10020F8490860F8490860AF
:10251000F8490860F449087005E00020F6490860B1
:10252000F649087000BF00BF00F06DBFF4480068B6
:10253000EE4908600020EE490860EE490860F3E7C4
:102540000020EA490860EF48E94908600020E949AD
:102550000860E9E70020E5490860E5490860EA48C5
:10256000E4490860E0E7E4480068401CE24908608C
:10257000E648E249097850F82100DF4909688842B5
:102580000AD20020DC490860DC480078401CDB49A6
:1025900008700120D4490870D8480078072876D2FE
:1025A000DFE800F00411213546576700CE48007877
:1025B00040B10020D6490860CC490860CC49086089
:1025C000C949087069E0C848007858B1D148D04975
:1025D00008600020C5490860CE48C5490860002051
:1025E000C149087059E0C048007878B10020C84956
:1025F0000860C948BD4908600020BD490860C74857
:102600000068BC4908600020B749087045E0B6483A
:10261000007860B10020B5490860BA48B449086044
:10262000BE480068B34908600020AF49087034E034
:10263000AD48007860B1B848AC4908600020AC49AA
:102640000860B6480068AB4908600020A6490870D9
:1026500023E0A548007858B1B148AD490860002092
:10266000A2490860A748A249086000209E49087056
:1026700013E09D48007840B100209C4908609C49C7
:1026800008609C4908609849087006E0FFE7002050
:10269000994908609949087000BF00BF44E796480F
:1026A0000068401C944908609E489449097850F895
:1026B00021009149096888420AD200208E490860A9
:1026C0008E480078401C8D490870012086490870AA
:1026D0008A480078072876D2DFE800F00411213517
:1026E000465767008048007840B10020884908605C
:1026F0007E4908607E4908607B49087069E07A4835
:10270000007858B183488249086000207749086002
:102710007C487749086000207349087059E0724886
:10272000007878B100207A4908607B486F490860DA
:1027300000206F490860794800686E4908600020F1
:102740006949087045E06848007860B10020674931
:10275000086070486649086070480068654908600C
:1027600000206149087034E05F48007860B16A4831
:102770005E49086000205E490860684800685D495D
:10278000086000205849087023E05748007858B185
:1027900063485F4908600020544908605D48544917
:1027A000086000205049087013E04F48007840B19D
:1027B00000204E4908604E4908604E4908604A4969
:1027C000087006E0FFE700204B4908604B4908709D
:1027D00000BF00BFA8E600204449086044490860E3
:1027E0004948444908609FE6002040490860404944
:1027F000086045483F49086096E63F480068401C2D
:102800003D49086047483D49097850F821003A4958
:10281000096888420AD200203749086037480078A2
:10282000401C3649087001202F4908703348007851
:10283000072858D2DFE800F00411213546788800D7
:102840002948007840B100203149086027490860D4
:10285000274908602449087089E02348007858B166
:102860002C482B4908600020204908602548204951
:10287000086000201C49087079E01B48007878B196
:10288000002023490860244818490860002018499E
:102890000860224800681749086000201249087043
:1028A00065E01148007860B10020104908601548C3
:1028B0000F490860194800680E49086000200A495D
:1028C000087054E00848007860B113480749086070
:1028D0000020074908601148006806490860002088
:1028E0000149087043E03CE07E0000209800002091
:1028F000B0000020D8000020380000207D0000201B
:10290000040100200000A0410000C842E862000865
:102910009C0000200000F0410000B442EC000020C8
:10292000000034C204630008FA48007858B1FA483D
:10293000FA4908600020FA490860FA48FA49086034
:102940000020F449087012E0F248007840B10020FD
:10295000F3490860F4490860F4490860ED490870DB
:1029600005E00020F2490860F249087000BF00BF8E
:10297000DAE50020EA490860EB490860EE48EB49D7
:102980000860D1E5EA480068401CE9490860EB4866
:10299000E849097850F82100E549096888420AD2D7
:1029A0000020E3490860E3480078401CE1490870D2
:1029B0000120D8490870DF480078072870D2DFE886
:1029C00000F0041120313F4C5B00D248007840B148
:1029D0000020D2490860D2490860D3490860CD4937
:1029E000087063E0CB48007850B10020CB49086004
:1029F000CB490860D248CC4908600020C54908701E
:102A000054E0C448007860B10020C4490860C4495B
:102A10000860C5490860CB48CB4908600020BD4923
:102A2000087043E0BB48007848B1C848BC4908601A
:102A30000020BA490860BC490860B649087035E012
:102A4000B448007840B1C148B5490860C048B649AB
:102A500008600020AF49087028E0AE48007850B107
:102A60000020AE490860BB48AD4908600020AE496F
:102A70000860A849087019E0A648007870B1B54808
:102A8000A7490860B448A5490860AD48A649086050
:102A9000B248AD49086000209E49087006E0FFE793
:102AA0000020A3490860A349087000BF00BF3BE5B0
:102AB0009F480068401C9E490860A9489D490978C4
:102AC00050F821009A49096888420AD200209849A2
:102AD000086098480078401C9649087001208D498C
:102AE000087094480078072877D2DFE800F00411D6
:102AF0002236475868008748007840B1002087494F
:102B000008608749086088490860824908706AE05F
:102B10008048007860B100208049086080490860E2
:102B20008149086087488849086000207949087011
:102B300059E07848007878B10020784908608348E7
:102B4000774908600020784908608648006877491E
:102B5000086000206F49087045E06E48007860B159
:102B60007A486F49086080486F4908607D4800686E
:102B70006E49086000206749087034E065480078B5
:102B800060B100206649086073486749086075486D
:102B900000686649086000205E49087023E05D48CF
:102BA000007858B171485D49086000205C490860B0
:102BB00063485D49086000205649087013E0554895
:102BC000007840B1002056490860574908605749CD
:102BD00008605049087006E0FFE70020544908608B
:102BE0005449087000BF00BF9EE451480068401C73
:102BF0004F4908605E484F49097850F821004C4918
:102C0000096888420AD2002049490860494800788A
:102C1000401C4849087001203E490870454800782A
:102C2000072875D2DFE800F0041121354657670008
:102C30003848007840B100203849086038490860B9
:102C400039490860334908709EE03248007858B12D
:102C500048483249086000203149086046483249F6
:102C6000086000202B4908708EE02A48007878B16F
:102C700000202A49086035482949086000202A496F
:102C80000860384800682949086000202149087018
:102C90007AE02048007860B100202149086032487D
:102CA000214908602F480068204908600020194920
:102CB000087069E01748007860B124481849086036
:102CC000002019490860274800681849086000205A
:102CD0001049087058E00F48007858B11E480F4955
:102CE00008601A480E4908601F480F490860002014
:102CF0000849087048E00748007840B100200849BA
:102D000008600949086009490860024908703BE009
:102D100034E000007E000020000034C29C0000204F
:102D2000980000200000A041B0000020D800002042
:102D3000380000207D0000200000C8422063000809
:102D400000002042CDCCCC3EFC0000200000B4426C
:102D500000001643000087430000F0419A99993E15
:102D60003C630008EC0000200000484200003442B0
:102D700058630008000020C2000048430020FE49BC
:102D80000860FE49087000BF00BF3CE3FA480068D5
:102D9000401CF9490860FA48F849097850F82100C0
:102DA000F549096888420AD20020F3490860F348CF
:102DB0000078401CF14908700120F2490870EF4882
:102DC0000078072879D2DFE800F004112135495A4C
:102DD0006A00EC48007840B10020EB490860EB49FC
:102DE0000860EB490860E74908706CE0E548007846
:102DF00058B1E848E44908600020E4490860E64822
:102E0000E34908600020DF4908705CE0DD48007895
:102E100078B10020DC490860E048DC490860002007
:102E2000DB490860DE480068DE4908600020D549BB
:102E3000087048E0D348007878B1DB48D249086090
:102E40000020D2490860D448D1490860D4480068BD
:102E5000D44908600020CB49087034E0C9480078A4
:102E600060B1CE48C94908600020C9490860CC4813
:102E70000068CC4908600020C249087023E0C148BE
:102E8000007858B1C948C04908600020BF490860AF
:102E9000C148BF4908600020BA49087013E0B9482A
:102EA000007840B10020B9490860B9490860BD49BF
:102EB0000860B449087006E0FFE70020AE490860EA
:102EC000AE49087000BF00BF9DE2AB480068401CDF
:102ED000A9490860B648A949097850F82100A649CF
:102EE000096888420AD20020A3490860A3480078F4
:102EF000401CA24908700120A24908709F48007830
:102F0000072876D2DFE800F0041121354657670024
:102F10009C48007840B100209B4908609B490860AC
:102F20009B4908609749087069E09648007858B155
:102F30009E48954908600020944908609648944945
:102F4000086000208F49087059E08E48007878B1F9
:102F500000208D49086091488C49086000208C4908
:102F600008608F4800688F49086000208549087014
:102F700045E08448007860B10020844908608648B4
:102F800083490860864800688649086000207D49BA
:102F9000087034E07B48007860B180487B49086065
:102FA00000207B4908607E4800687E490860002058
:102FB0007449087023E07348007858B17548724925
:102FC000086000207149086073487149086000205A
:102FD0006C49087013E06B48007840B100206B49E1
:102FE00008606B4908606F4908606649087006E030
:102FF000FFE70020604908606049087000BF00BF1B
:1030000001E25D480068401C5B49086069485B4913
:10301000097850F821005849096888420AD20020EE
:103020005549086055480078401C544908700120F3
:103030005449087051480078072876D2DFE800F03C
:1030400004112135465767004E48007840B10020F2
:103050004D4908604D4908604D490860494908706C
:1030600069E04848007858B1534847490860002053
:1030700046490860484846490860002041490870B0
:1030800059E04048007878B100203F490860434843
:103090003E49086000203E490860414800684149B7
:1030A000086000203749087045E03648007860B174
:1030B0000020364908603D483549086038480068B6
:1030C0003849086000202F49087034E02D48007806
:1030D00060B132482D49086000202D490860304811
:1030E00000683049086000202649087023E0254820
:1030F000007858B13148244908600020234908600D
:103100002F482349086000201E49087013E01D481D
:10311000007840B100201D4908601D490860214920
:1031200008601849087006E0FFE7002012490860AF
:103130001249087000BF00BF65E10F480068401CDD
:103140000D4908601F480D49097850F821000A49C7
:10315000096888420AD200200749086007480078B9
:10316000401C064908700120064908700348007891
:10317000072871D228E00000380000207D000020E0
:10318000746300087E0000209C000020980000204E
:10319000B00000200000F0C10000A0410000B442D7
:1031A000EC000020D8000020000020410000F04189
:1031B00090630008AC63000800003442000034C291
:1031C00000002042C8630008DFE800F00411213548
:1031D00047586800F948007840B10020F849086075
:1031E000F8490860F8490860F449087069E0F34854
:1031F000007858B1F548F24908600020F1490860AC
:10320000F348F14908600020EC49087059E0EB48A8
:10321000007878B10020EA490860EE48E949086082
:103220000020E9490860EC480068EC49086000208B
:10323000E249087045E0E148007860B10020E149CA
:103240000860E748E0490860E3480068E34908602F
:103250000020DA49087034E02DE0D848007860B1E9
:10326000DC48D84908600020D7490860DA4800687F
:10327000DA4908600020D149087022E0CF48007880
:1032800058B1D848CE4908600020CE490860D048DF
:10329000CD4908600020C949087012E0C74800788D
:1032A00040B10020C7490860C7490860CB490860A1
:1032B000C249087005E00020CB490860CB4908707E
:1032C00000BF00BF9FE0C8480068401CC6490860B6
:1032D000C748C649097850F82100C349096888429F
:1032E0000AD20020C0490860C0480078401CBF498D
:1032F00008700120B1490870BC480078072879D2CD
:10330000DFE800F004112135495A6A00AB48007823
:1033100040B10020AA490860AA490860AA4908608B
:10332000A64908706CE0A548007858B1A748A449A0
:1033300008600020A3490860A548A3490860002050
:103340009E4908705CE09D48007878B100209C4957
:103350000860A0489B49086000209B4908609E487F
:1033600000689E49086000209449087048E093482E
:10337000007878B19F489249086000209149086020
:103380009348914908609448006894490860002077
:103390008A49087034E08948007860B18D488949CD
:1033A00008600020884908608B4800688B490860E5
:1033B00000208249087023E08048007858B189488D
:1033C0007F49086000207F49086081487E49086085
:1033D00000207A49087013E07848007840B1002056
:1033E00078490860784908607C490860734908702A
:1033F00006E0FFE700207C4908607C49087000BFB8
:1034000000BF00E000BF20E07B480078962808DA83
:103410007A4800686B49086077480078401C764914
:10342000087075480078962807D100206549086023
:1034300071480078401C7049087000206A49086093
:103440006A49087001205D4908706D480078642859
:1034500005DA6B480078401C6949087058E06948F3
:103460000078E8B36548016856480068FEF7DEFD5D
:10347000019002F0AFF807466348016850480068C1
:10348000FEF7FFFD019002F0A5F80646384602F06F
:103490006EF800904C480168009801F012FE01900F
:1034A00002F098F88146384602F061F800904648EC
:1034B0000168009801F05AFE019002F08BF88246F4
:1034C00008EB060BA8EB060002904946042000F02A
:1034D000B9F95146032000F0B5F95946022000E041
:1034E00006E000F0AFF90120029900F0ABF90FE01F
:1034F0004946042000F0A6F95146032000F0A2F945
:103500005946022000F09EF90120029900F09AF934
:10351000BDE8FE8F3D49098811F0200F34D03B49AA
:10352000091D0988C8B23A49097811F0800F2BD1DA
:103530003749097811F0400F0CD00A2803D0002138
:10354000334A117020E03249097841F08001304A55
:10355000117019E00D2806D12D49097841F040017C
:103560002B4A117010E02A49097801F03F01294ADD
:10357000505427490978491C254A11701146097889
:103580003F2901DD00211170704710B50120FCF7C3
:10359000BBFF90B12048FEF761FC1F48FEF75EFCC0
:1035A00001211E48FDF7BBF804461CB14EF6602011
:1035B0000D4908600120FCF7B8FF10BD7E00002017
:1035C0009C00002098000020B00000200000F04186
:1035D0000000A0410000B442EC000020D800002010
:1035E0000000C8410000F0C1380000207D0000202C
:1035F000E4630008000020C17200002030000020B9
:103600007C000020E80000202C000020004C00403E
:103610003C0000208B050020FFFF0F000010014040
:1036200010B50820FCF770FF58B1002001F01DFC18
:103630004248FEF713FC4148FEF710FC0820FCF757
:1036400074FF10BD10B51020FCF75EFF002831D0CC
:103650003A48FEF703FC10213948FDF760F830BB0B
:10366000002001F002FC3548FEF7F8FB022001F0D3
:10367000FCFB3248FEF7F2FB3048FEF7EFFB2F4829
:10368000FEF7ECFB2D48FEF7E9FB2C48FEF7E6FBC6
:103690002A48FEF7E3FB2948FEF7E0FB2748FEF740
:1036A000DDFB2648FEF7DAFB002001F0DEFB1020F0
:1036B000FCF73BFF10BD10B52020FCF725FF28B11B
:1036C000002001F0D2FB2020FCF72FFF8020FCF728
:1036D0001BFF002831D01948FEF7C0FB8021184895
:1036E000FDF71DF830BB002001F0BFFB1348FEF7CB
:1036F000B5FB012001F0B9FB1048FEF7AFFB0F4806
:10370000FEF7ACFB0D48FEF7A9FB0C48FEF7A6FB45
:103710000A48FEF7A3FB0948FEF7A0FB0748FEF79F
:103720009DFB0648FEF79AFB0448FEF797FB002036
:1037300001F09BFB8020FCF7F8FE10BDFFFF0F009F
:103740000014014008B501210220FDF71AFA0121F9
:103750001120FDF709FA01215C48FDF71EF84FF42E
:103760007070ADF8000018208DF8030003208DF86C
:10377000020069465648FCF741FF08BD00B587B016
:103780004FF6FF10ADF814001120ADF81000002026
:10379000ADF81600ADF8120004A94E48FDF720FB65
:1037A0006020ADF800000120ADF8020041F23F704A
:1037B000ADF806000020ADF8080069464548FDF761
:1037C0004CFB08214348FDF797FF0120ADF80200AC
:1037D00041F23F70ADF8060069463E48FDF77FFBB9
:1037E00008213C48FDF791FF0120ADF8020041F2AD
:1037F0003F70ADF8060069463648FDF7BDFB08216D
:103800003448FDF78FFF0120ADF8020041F23F7010
:10381000ADF8060069462F48FDF7F9FB08212D4851
:10382000FDF789FF01212B48FDF736FF01212948CB
:10383000FDF732FE07B000BD10B5FFF783FFFFF7BD
:103840009DFF10BD70B505460C462348007800B1B9
:103850000024012D06D0022D10D0032D1AD0042DE6
:1038600030D123E01C48007800B1002441F23F70C1
:10387000204481B21748FEF7A7F824E016484078A4
:1038800000B1002441F23F70204481B21148FEF79C
:103890009DF818E01048407800B1002441F23F70D4
:1038A000204481B20B48FEF793F80CE00A484078B8
:1038B00000B1002441F23F70204481B20548FEF778
:1038C00089F800E000BF00BF70BD0000000C1A00C6
:1038D0000010014000040040E400002030B52748FB
:1038E0000068274AB0FBF2F1B1F1807F01D30120DB
:1038F0001DE021F07F40401E4FF0E0225061501744
:103900000F22002807DA13071D0E1E4B00F00F04CC
:10391000241F1D5503E013071C0E1B4B1C5400BF36
:1039200000204FF0E022906107201061002008B1D4
:1039300000BFFEE74FF0E020006920F001004FF0EB
:10394000E021086130BD01B51049009808604FF0D2
:10395000E020006940F001004FF0E021086100BF65
:103960000A4800680028FBD108BD0848006820B15B
:1039700006480068401E05490860704700000020A6
:10398000A086010018ED00E000E400E080000020C7
:1039900000B585B0012144F20400FDF7E5F84FF4CD
:1039A0000070ADF8100018208DF8130003208DF87A
:1039B000120004A9F948FCF721FE4FF48060ADF82D
:1039C000100004208DF8130004A9F448FCF716FE3B
:1039D0004FF4E13000900020ADF80400ADF806008F
:1039E000ADF80800ADF80C000C20ADF80A006946EF
:1039F000EB48FEF772F8012240F22551E848FEF745
:103A000004F90121E648FEF7F4F805B000BD00B561
:103A100085B001210420FDF7A7F801214804FDF736
:103A2000B0F80420ADF8100018208DF81300032022
:103A30008DF8120004A9D948FCF7E0FD0820ADF884
:103A4000100004208DF8130004A9D448FCF7D6FD1B
:103A50004FF4165000900020ADF80400ADF80600B9
:103A6000ADF80800ADF80C000C20ADF80A0069466E
:103A7000CC48FEF732F8012240F22551C948FEF742
:103A8000C4F80121C748FEF7B4F805B000BD00B581
:103A900085B001210820FDF767F801218804FDF7B2
:103AA00070F84FF48060ADF8100018208DF8130006
:103AB00003208DF8120004A9BB48FCF79FFD4FF4CA
:103AC0000060ADF8100004208DF8130004A9B6487A
:103AD000FCF794FD4FF4165000900020ADF8040060
:103AE000ADF80600ADF80800ADF80C000C20ADF8FC
:103AF0000A006946AD48FDF7F0FF012240F225516A
:103B0000AA48FEF782F80121A848FEF772F805B02E
:103B100000BD2DE9F05F05460E46300101F030FD95
:103B20008146A34905FB01F001F02AFD8246494682
:103B300001F055FB0746384601F065FD84B220468A
:103B400001F01EFD8346394601F010FB82464FF01E
:103B5000834101F00EFB814601F055FD80464FF692
:103B6000FF7000EA041404EB080084B291488069F5
:103B700040F010008F4988610846C06940F4002079
:103B8000C8618D48406820F47F408B4948600846F2
:103B9000406840F40B4048608648006940F40020CB
:103BA000844908610846006920F4002008618348C0
:103BB0000480001D008842F20C0108437F49091D62
:103BC00008800846008840F4807008800846008815
:103BD00040F020000880BDE8F09F08B54FF4407029
:103BE000FCF7B0FB25208DF8000002208DF80100C5
:103BF00001208DF802008DF803006846FCF7A7FB52
:103C000026208DF8000000208DF8010001208DF89D
:103C100002008DF803006846FCF799FB27208DF819
:103C2000000001208DF801008DF802008DF80300DE
:103C30006846FCF78CFB34208DF8000000208DF8DE
:103C4000010001208DF802008DF803006846FCF7A2
:103C50007EFB08BD70B504460D46E1B25048FEF744
:103C600035F800BF40214E48FEF79EF80028F9D0F5
:103C7000204670BD10B5044600BF20214848FEF71D
:103C800093F80028F9D04648FEF724F810BDF0B5A7
:103C900003460D461646002729460A2E03D000206B
:103CA00008702846F0BD33B9302001F8010B002020
:103CB00008702846F6E7002B03DA2D2001F8010BE7
:103CC0005B4242F210720DE093FBF2F404B937B19B
:103CD00004F1300001F8010B04FB123301270A2024
:103CE00092FBF0F2002AEFDC002008702846D9E7AA
:103CF0000FB470B586B006460CA8019090E00B9802
:103D000000785C2826D10B98401C0B900078222864
:103D100013D06E2809D0722817D10D213046FDF737
:103D2000D5FF0B98401C0B9013E00A213046FDF79D
:103D3000CDFF0B98401C0B900BE022213046FDF785
:103D4000C5FF0B98401C0B9003E00B98401C0B9098
:103D500000BF5EE00B980078252853D10B98401CDB
:103D60000B90007864282BD0732846D1019810C896
:103D700001900BE021783046FDF7A8FF00BF4021FD
:103D80003046FEF711F80028F9D0641C207800288E
:103D9000F0D10B98401C0B9033E00000000801406C
:103DA0000038014000440040000C01400048004041
:103DB00040420F000010024000100140084C00403B
:103DC000019820C801900A2202A92846FFF75FFF48
:103DD00002AC0BE021783046FDF778FF00BF4021B0
:103DE0003046FDF7E1FF0028F9D0641C2078002858
:103DF000F0D10B98401C0B9003E00B98401C0B90EB
:103E000000BF06E00B9810F8011B0B903046FDF741
:103E10005DFF00BF40213046FDF7C6FF0028F9D006
:103E20000B98007800287FF46AAF06B070BC5DF88C
:103E300014FB000070B505460C46052D5DD2DFE889
:103E400005F00316293C4F00012C07D1E102694817
:103E5000FCF77FFC01206849087007E04FF400611F
:103E60006448FCF778FC00206349087046E0012CA8
:103E700007D1A1025F48FCF76CFC01205E49487045
:103E800007E04FF480615B48FCF765FC00205A496D
:103E9000487033E0012C07D161025648FCF759FC09
:103EA00001205549887007E04FF400715148FCF734
:103EB00052FC00205049887020E0012C07D12102DB
:103EC0004C48FCF746FC01204B49C87007E04FF412
:103ED00080714848FCF73FFC00204749C8700DE05E
:103EE000012C04D121034348FCF733FC04E04FF4D8
:103EF00080514048FCF72FFC00E000BF00BF70BDC0
:103F000008B501212020FCF72FFE4FF48050ADF8BA
:103F1000000010208DF8030003208DF80200694690
:103F20003448FCF76BFB4FF40060ADF80000102044
:103F30008DF8030003208DF8020069462D48FCF738
:103F40005DFB4FF48060ADF8000010208DF8030099
:103F500003208DF8020069462648FCF74FFB4FF41A
:103F60000070ADF8000010208DF8030003208DF8DC
:103F7000020069461F48FCF741FB4FF48070ADF822
:103F8000000010208DF8030003208DF80200694620
:103F90001848FCF733FB01210020FFF74BFF0121FC
:103FA0000846FFF747FF01210220FFF743FF0121E9
:103FB0000320FFF73FFF01210420FFF73BFF08BD6F
:103FC00008B501212020FCF7CFFD4FF48050ADF85B
:103FD000000010208DF8030003208DF802006946D0
:103FE0000448FCF70BFB08BD10B5FFF789FFFFF78E
:103FF00087FF10BD001401408400002010B5002090
:1040000004460EE0FB48015DFB48FDF75FFE00BF84
:104010004021F948FDF7C8FE0028F9D0601CC0B265
:1040200004460D2CEEDB10BD70B50A46FF23FF24BD
:1040300009E010F8015B85EA0401F04D6D5C85EA4A
:104040000304EF4D6B5C1500A2F10102F1D1ED4DBF
:104050002B70ED4D2C70FF23FF2470BD2DE9F04136
:104060000646012700243046252E72D014DC122883
:1040700076D008DC01281CD007286CD00A286BD029
:104080000B286AD128E0132868D0172867D0212888
:104090007ED02328F5D10EE127380F285DD2DFE846
:1040A00000F0FE5CFD5CFC5CFB5CFA5CF95CF85CBF
:1040B000F7000120CF498870D4480078C870D348F1
:1040C00040780871D14880784871D048C0788871AC
:1040D0000020C871087295E20B20C64988704FF025
:1040E0008741CB48006801F044F8054601F072FAB8
:1040F00004B20020BF4908710846007920430871C6
:10410000200AC8704FF08741C248006801F031F8BA
:10411000054601F05FFA04B20020B64988710846EE
:10412000807920438871200A48714FF08741BA484E
:10413000006801F01EF8054601F04CFA04B20020B8
:10414000AC4908720846007A20430872200AC871F8
:1041500058E2DCE004E054E030E051E23BE080E093
:104160001220A4498870AD49AD48006801F037F8C5
:1041700080464FF08E4100F0FCFF054601F02AFA20
:1041800004B200209B49087108460079204300E0F2
:104190006EE00871200AC870A248006801F01AFA9F
:1041A00004B20020934988710846807920438871C1
:1041B000200A48710020C871087223E20A208D4944
:1041C000887099480078C87000200871487188711B
:1041D000C871087216E213208649887093480078E7
:1041E000C8709348007808719248007848719248E6
:1041F0000078887191480078C871914800780872F9
:1042000000E207207B4988708E48B0F9004000200A
:1042100008710846007920430871200AC8708A484E
:10422000B0F90040002088710846807920438871E9
:10423000200A48718548B0F90040002008720846FD
:10424000007A20430872200AC8718148B0F9004002
:10425000002088720846807A20438872200A4872BB
:10426000D0E11720634988707A480078C870C9E1A6
:104270002120604988707848008804B20020887145
:104280000846807920438871200A4871734807E006
:104290007FE15DE125E1EDE08BE069E047E045E0AD
:1042A000008804B2002088720846807A2043887211
:1042B000200A4872A6E123204E4988705749584881
:1042C000006800F08CFF80464FF08E4100F051FFF7
:1042D000054601F07FF904B20020464908710846FE
:1042E000007920430871200AC8704E48006801F028
:1042F00071F904B200203F49887108468079204353
:104300008871200A48710020C87108727AE125205E
:104310003849887052480078C8705248007808714F
:10432000002048718871C87108726BE16AE1292028
:10433000304988704FF087414B48006800F04FFFCC
:10434000054601F060F92B49C8704748006801F044
:1043500041F90546C01705EB10600012A5EB0020DF
:1043600024490871002048718871C871087249E1B8
:104370002B20204988704FF087413C48006800F0AE
:104380002EFF054601F03FF91A49C870374800680A
:1043900001F020F90546C01705EB10600012A5EBEF
:1043A000002014490871002048718871C871087292
:1043B00028E12D200F4988704FF087412C48006874
:1043C00000F00DFF054601F01EF90A49C8702848A3
:1043D000006801F0FFF80546C01705EB10600012F9
:1043E000A5EB002003490871002048718871C8714D
:1043F000087207E1880000200048004014010020F6
:10440000140200201803002019030020840000205B
:10441000CC000020D0000020D40000200000344355
:1044200098000020B00000209500002054050020D6
:10443000550500205605002057050020580500208E
:104440005905002022030020240300202603002019
:10445000280300201B030020400300204403002009
:10446000E8000020E9000020EC00002010010020FE
:10447000F80000202F20F5498870F548006801F009
:10448000C2F8F249C8704FF08741F148006800F067
:1044900070FE804601F09EF80546C01705EB1060DF
:1044A0000012A5EB0020E9490871EA48006801F014
:1044B000AAF8E64948714FF08741E648006800F0E5
:1044C00058FE804601F086F80546C01705EB1060DF
:1044D0000012A5EB0020DD4988710020C871087228
:1044E00090E03120D9498870DB48006801F08BF8F2
:1044F000D649C8704FF08741D748006800F039FEB0
:10450000804601F067F80546C01705EB1060001201
:10451000A5EB0020CD490871D048006801F073F880
:10452000CA4948714FF08741CC48006800F021FE2D
:10453000804601F04FF80546C01705EB10600012E9
:10454000A5EB0020C14988710020C871087259E0AC
:104550003320BE4988704FF08741C148006800F0A1
:104560003EFE054601F04FF8B849C870BC480068E7
:1045700001F030F80546C01705EB10600012A5EBFE
:104580000020B2490871002048718871C871087212
:1045900038E03520AD498870B248006801F033F842
:1045A000AA49C8704FF08741AE48006800F0E1FDAD
:1045B000804601F00FF80546C01705EB10600012A9
:1045C000A5EB0020A1490871A748006801F01BF87D
:1045D0009E4948714FF08741A348006800F0C9FD2B
:1045E000804600F0F7FF0546C01705EB106000128B
:1045F000A5EB0020954988710020C871087201E080
:10460000002700BF00BF0B219048FFF70DFD974822
:1046100000788E49C8729648007808730FB1FFF78A
:10462000EDFCBDE8F0812DE9F04700249148407889
:1046300001287DD10B218F48FFF7F6FC8C480678C6
:104640008A4805788B488078362872D2DFE800F0F7
:104650001B714344457871717C8A7171CDFDFC7189
:10466000717171717171FB71FA2F71717171717169
:10467000F971F871F771F671F5F4F3F2F1F0EFEE0C
:10468000EDECEBEAE9E800210846FFF7D3FB002157
:104690000120FFF7CFFB00210220FFF7CBFB002119
:1046A0000320FFF7C7FB0120FFF7D8FC3FE3012100
:1046B0000020FFF7BFFB01210846FFF7BBFB0121EC
:1046C0000220FFF7B7FB01210320FFF7B3FB012016
:1046D000FFF7C4FC2BE32AE329E300246548C078F4
:1046E00044EA002004B2634800790443624804802D
:1046F00000246048407944EA002004B25D48807993
:1047000004435E48048000245A48C07944EA0020EB
:1047100004B25848007A044359480480002455489C
:10472000407A44EA002004B25248807A044301E00F
:10473000FEE2FBE2534804800720FFF78FFCF6E21D
:104740000720FFF78BFCF2E24A48C07818B101203D
:104750004D49087002E000204B4908700A20FFF71D
:104760007DFCE4E200244348C07844EA002004B21F
:1047700040480079044345480480204600F0F7FE95
:1047800007464FF0874100F02AFD414908600024A8
:104790003848407944EA002004B23648807904431E
:1047A0003C480480204600F0E2FE07464FF0874177
:1047B00000F015FD3849086000242E48C07944EA0D
:1047C000002004B22B48007A044334480480204679
:1047D00000F0CDFE07464FF0874100F000FD304964
:1047E00008600B20FFF73AFCA1E22248C0780002E3
:1047F00004B2204800790443204600F0B8FE804609
:104800004FF08E4100F0EBFC0746264900F0B1FC6A
:104810002549086017484079000204B2154845E070
:1048200080E20DE27AE2EEE174E2C0E16EE292E152
:1048300068E273E162E251E15CE242E1D1E0BEE0B4
:1048400065E056E051E044E03FE03AE088000020B7
:10485000F0000020F4000020FC00002000010020F7
:1048600004010020080100200C0100201803002092
:1048700019030020CB050020220300202403002080
:104880002603002028030020950000201C030020A0
:10489000CC0000201E030020D000002020030020B8
:1048A000D4000020000034439800002080790443A5
:1048B000204600F05CFEF84908601220FFF7CEFBAE
:1048C00000BF1220FFF7CAFB31E21320FFF7C6FB3F
:1048D0002DE2F248C078F24908700846007800F0EE
:1048E000C4FA1720FFF7BAFB21E21720FFF7B6FB47
:1048F0001DE2EA48C07818B10120EA49087002E0D8
:104900000020E84908702120FFF7A8FB0FE2E348E8
:10491000C079E5490968884249D0E048C078012853
:1049200018D1DE49087900F02BFE0746DF48016800
:10493000384600F0C6FBDE490860D84840790002DE
:1049400004B2D64880790443204600F010FED249D4
:1049500008602CE0D148C078022818D1CF490879E6
:1049600000F00EFE0746D1480168384600F0FEFB15
:10497000CF490860C9484079000204B2C74880792D
:104980000443204600F0F3FDC34908600FE0C74828
:104990000068C7490860C1484079000204B2BF48B6
:1049A00080790443204600F0E2FDBB490860BB4823
:1049B000C079BD4908602320FFF750FBB7E1B74835
:1049C000C07838B10120BB490870B4480079BA49B1
:1049D000087002E00020B74908702520FFF73EFB71
:1049E000A5E1AE48C07830B101281CD0022832D0F1
:1049F000032860D147E0A948007940B1A7488179F0
:104A0000407901EB002000B2AC4908800AE0A348DD
:104A100040790021A1EB0020A0498979401A00B219
:104A2000A649088048E09D48007940B19B488179BB
:104A3000407901EB002000B2A14908800AE09748C4
:104A400040790021A1EB002094498979401A00B2F5
:104A50009B49088030E09148007940B18F488179C6
:104A6000407901EB002000B2964908800AE08B48AB
:104A700040790021A1EB002088498979401A00B2D1
:104A80009149088018E08548007940B183488179D0
:104A9000407901EB002000B28B4908800AE07F4892
:104AA00040790021A1EB00207C498979401A00B2AD
:104AB0008549088000E000BF00BF2720FFF7CEFA3D
:104AC00035E176490A79C97802EB012000F04FFD03
:104AD0007E4908602920FFF7C1FA28E16F48C078B5
:104AE00048B16E494A79097902EB012000F03FFD97
:104AF000774908600BE0694909790022A2EB01219E
:104B0000664A5279881800F032FD714908602D20FC
:104B1000FFF7A4FA2B20FFF7A1FA08E15F48C0785D
:104B200048B15E494A79097902EB012000F01FFD86
:104B3000684908600BE0594909790022A2EB01217C
:104B4000564A5279881800F012FD624908602D20FB
:104B5000FFF784FAEBE05149087900F011FD814636
:104B60004FF0874100F03BFB07464C49C87800F006
:104B700007FD8046394600F0A4FA574908604749C6
:104B8000887900F0FDFC81464FF0874100F027FB5B
:104B900007464249487900F0F3FC8046394600F068
:104BA00090FA4E4908602F20FFF758FABFE03B49C2
:104BB000087900F0E5FC81464FF0874100F00FFBDB
:104BC00007463649C87800F0DBFC8046394600F0DD
:104BD00078FA434908603149887900F0D1FC814670
:104BE0004FF0874100F0FBFA07462C49487900F066
:104BF000C7FC8046394600F064FA3A490860312023
:104C0000FFF72CFA93E02548C07848B123494A7948
:104C1000097902EB012000F0AAFC334908600BE09F
:104C20001E4909790022A2EB01211C4A52798818F9
:104C300000F09DFC2C4908603320FFF70FFA76E066
:104C40001649087900F09CFC81464FF0874100F03E
:104C5000C6FA07461149C87800F092FC80463946EA
:104C600000F02FFA214908600C49887900F088FC8F
:104C700081464FF0874100F0B2FA0746074948796C
:104C800000F07EFC8046394600F01BFA18490860A7
:104C90003520FFF7E3F94AE0B0000020CB05002003
:104CA0001B030020EA000020140300203000002035
:104CB00098000020E8000020E900002022030020E6
:104CC000240300202603002028030020EC000020FD
:104CD00010010020F8000020F0000020F400002067
:104CE000FC00002000010020040100200801002039
:104CF0000C0100202920FFF7B1F918E02B20FFF765
:104D0000ADF914E02D20FFF7A9F910E02F20FFF7EF
:104D1000A5F90CE03120FFF7A1F908E03320FFF7F7
:104D20009DF904E03520FFF799F900E000BF02E0AB
:104D30000020BDE8F08700BFFBE700001FB50121A0
:104D40003920FBF711FF4FF44070FBF7FBFA0A2004
:104D50008DF8000006208DF8010000208DF802007B
:104D600001208DF803006846FBF7F1FA4FF440701C
:104D7000FBF7E8FA17208DF8000007208DF80100F6
:104D800000208DF8020001208DF803006846FBF733
:104D9000DEFA8020ADF80C0028208DF80F0003A962
:104DA0004548FBF72BFC1020ADF80C0028208DF8AF
:104DB0000F0003A94048FBF721FC04210320FBF767
:104DC00031FD1020019000208DF808000C208DF896
:104DD000090001208DF80A0001A8FBF72FFB07212D
:104DE0000320FBF71FFD8020019000208DF80800B4
:104DF0000C208DF8090001208DF80A0001A8FBF7AE
:104E00001DFB1FBD08B501210820FBF7ADFE0120E9
:104E1000ADF8000010208DF8030003208DF802008B
:104E200069462648FBF7EAFB0220ADF80000102097
:104E30008DF8030003208DF8020069461F48FBF738
:104E4000DDFB0420ADF8000010208DF803000320E6
:104E50008DF8020069461948FBF7D0FB012117487D
:104E6000FBF779FCFFF76AFF08BD10B50446B4B143
:104E7000012C02D0022C1BD108E002210F48FBF7C5
:104E800068FC04210D48FBF766FC12E004210B4886
:104E9000FBF75FFC02210948FBF75DFC09E00221FA
:104EA0000648FBF758FC04210448FBF754FC00E0DB
:104EB00000BF00BF10BD000000140140000C014005
:104EC00010B56FF00400FBF78DFA2D4800682D49EE
:104ED000B0FBF1F02C4908700846007800EB400167
:104EE000C1EBC0104FF6FF7101EAC00027490880EE
:104EF00010BD0146244A12784A434FF0E0235A611C
:104F000000229A611A46126942F001021A6100BF3A
:104F10004FF0E022106910F0010F02D010F4803F32
:104F2000F6D04FF0E022126922F001024FF0E023A8
:104F30001A6100229A6170470146144A12884A4356
:104F40004FF0E0235A6100229A611A46126942F03A
:104F500001021A6100BF4FF0E022106910F0010F4A
:104F600002D010F4803FF6D04FF0E022126922F018
:104F700001024FF0E0231A6100229A61704700009D
:104F80000000002000127A002A0300202C030020D9
:104F9000704770472DE9F04F85B0002004900290D3
:104FA0002748807803902648407808B10120029075
:104FB000029840B3039800F0E8FA80460022214BA3
:104FC00000F0F4F90022204BCDE9000100F0E8F9EF
:104FD00004460D461D48006800F029FB064622469F
:104FE0002B4600F0DDF9824600F034FB18490860DA
:104FF00018480068401C17490860084600681528D2
:1050000001D91520086005B0BDE8F08F70B50A46DB
:10501000FF23FF2409E010F8015B85EA04010E4D2F
:105020006D5C85EA03040D4D6B5C1500A2F1010275
:10503000F1D10B4D2B700B4D2C70FF23FF2470BD55
:10504000D80500200000F23F0080464030000020DC
:10505000980000205005002050030020500400203C
:1050600078050020790500202DE9F041002425462F
:10507000002905DA01240027D0EB070067EB0101C6
:10508000002B05DA0027D2EB0702012567EB0303AB
:1050900000F012FB86460E4617469C46AC4204D0F2
:1050A0000025D0EB050E65EB010624B10020D2EB04
:1050B000000760EB030C704631463A466346BDE894
:1050C000F081F0B480EA0102D40F4200B2EB410F4C
:1050D00002D20246084611464A0042D0C30DDDB254
:1050E000C1F3C752AD1A202D35DAC1F3160141F4D0
:1050F000000204B15242C5F1200602FA06F12A412B
:105100001044B3EBD05F23D0C4B1012DA0EBC3504A
:1051100009DCF0BC4FF0004202EAC35200F5000087
:10512000DBB200F024BB400000F1807000EBC35004
:10513000A0F1807040EAD170490009E0490841EAD5
:10514000C071A0EBC35000F50000400800EBC35055
:10515000F0BC00F003BB6142012202EB4101001BE5
:10516000F6E7F0BC704781F00041AAE780F000400C
:10517000A7E780EA010210B502F00043400026D004
:105180004A0023D04FEA106101EB1261C0F35600D0
:10519000C2F3560240F4000042F40002A0FB0220D9
:1051A000A1F17F014FEA0040140401D000F1010099
:1051B00050EA124001D44000491EC2B20C0604EB72
:1051C000D010401C4008802A02D003E0002010BD0F
:1051D00020F00100002900DA0020184310BD30B48F
:1051E00080EA010202F0004530F0004221F0004068
:1051F00015D0A0B1C0F3C753C2F3C754C2F3160110
:10520000C0F31600E41A41F4000140F400027D34BA
:10521000914201D3641C00E04900002C02DA30BC4A
:10522000002070474FF400000023914201D3891AF7
:10523000034340084FEA4101F7D151B1914202D1F5
:105240004FF0004105E002D24FF0010101E06FF0A4
:10525000010103EBC450284430BC00F07FBA2DE9B3
:10526000FE4F804681EA0300C00F0C46009021F0FB
:10527000004123F00045B8EB0200A94105D24046A9
:10528000214690461C460B46024623F00040104340
:1052900004D14046214603B0BDE8F08F270DC7F387
:1052A0000A00C3F30A510290401A0190402866DABE
:1052B000C3F3130040F4801B0098924620B10023F2
:1052C000D2EB030A63EB0B0B01985946C0F1400285
:1052D000504600F022FA06460D4650465946019ABD
:1052E00000F02AFA10EB08006141002487EA11520D
:1052F00084EAE7731A433BD0009A3AB3019A012A31
:105300004FEA075210DC001B61EB02014FF0004234
:1053100002EA0752CDE90042001C41F580113246F5
:105320002B4600F05EFAB6E7001B61EB0201001CA1
:1053300041F5801300185B412018A2F5001747EBD8
:10534000030140EAD570B6196D4111E06D084FEACE
:10535000360645EAC0754FEA0752001B61EB0201B1
:10536000001C41F5801149084FEA300000195141F5
:1053700032462B4603B0BDE8F04F00F025BA009846
:10538000012240000023D0EB020263EBE07300989F
:1053900021464FEAE074B8EB000061EB0401E9E755
:1053A00083F000435BE781F0004158E72DE9FE4FB1
:1053B00081EA030404F0004421F0004100944FF01E
:1053C000000B23F0004350EA010402D052EA030428
:1053D00004D10020014603B0BDE8F08FC3F30A54A6
:1053E000C1F30A552C44A4F2F3340194A0FB0254F7
:1053F000C1F3130141F48011C3F3130343F4801389
:1054000001FB024400FB034E840A970A44EA8154DC
:1054100047EA8357A4FB076802958D0A05FB0785B9
:105420004FEA932C04FB0C542705029D4FEA0658C3
:1054300047EA1637B5EB08056EEB070C870E920EA0
:1054400047EA811742EA8312A7FB0201B6EB0B0180
:1054500064EB00042B0D43EA0C335E1844EB1C5044
:10546000DA465146E7FB0201C5F313044FEA0B335A
:1054700043EA14534FEA0432019C43EA0603A4F1C1
:105480000C040294009CCDE900B400F0AAF9A2E754
:105490002DE9F04D81EA030404F0004B21F00045B2
:1054A00014464FF0000A23F0004150EA050220D0D4
:1054B00054EA01021DD0C5F30A570246C5F313038F
:1054C000C1F31300C1F30A5640F4801543F480136E
:1054D000A7EB0608101BD64608F2FD3873EB050053
:1054E00002D308F1010801E092185B41B8F1000F06
:1054F00003DA00200146BDE8F08D00204FF4801152
:10550000064684460EE0171B73EB050705D3121BF6
:1055100063EB050306434CEA010C49084FEA3000EF
:1055200092185B4150EA0107EDD152EA030012D014
:1055300082EA040083EA0501084303D100224FF008
:10554000004308E0101BAB4102D20122002302E01D
:105550006FF0010253101AEB06004CEB085110EBF0
:105560000A0041EB0B01BDE8F04D00F02DB9C10F71
:1055700080EAE0700844CA079623002100F0F7B8DB
:1055800096230022114600F0F2B80EB5C10F80EA52
:10559000E0700844CA07002140F233438DE80E0052
:1055A0000A460B4600F01DF903B000BD3EB5CA1710
:1055B000CB0F002450405140C0186141DA0740F23F
:1055C00033430094CDE901232246234600F009F934
:1055D00003B030BD00F0004220F00040C10DC0F328
:1055E000160040F400007F2901DA00207047962958
:1055F00003DCC1F19601C84001E096398840002AD9
:10560000F4D04042704720F00040C10DC0F31600B6
:1056100040F400007F2901DA00207047962903DC5E
:10562000C1F19601C840704796398840704700F034
:10563000004230F000400AD0C10D01F56071C0F3A6
:10564000160042EA0151C20840071143704700208A
:105650000146704701F0004330B421F0004150EAA8
:10566000010206D00A0DA2F56072C1F31301002AEF
:1056700002DC30BC00207047440F44EAC104C10082
:10568000E01830BC00EBC25000F068B830B50B46F3
:10569000014600202022012409E021FA02F59D4262
:1056A00005D303FA02F5491B04FA02F52844151E36
:1056B000A2F10102F1DC30BD2DE9F05F05460020CA
:1056C00092469B4688460646814640241BE0284673
:1056D00041464746224600F015F953465A46C01A3D
:1056E000914110D311461846224600F016F82D1AA3
:1056F00067EB01084F4622460120002100F00DF81B
:1057000017EB00094E41201EA4F10104DFDC4846DE
:1057100031462A464346BDE8F09F202A04DB203A62
:1057200000FA02F1002070479140C2F1200320FAF4
:1057300003F3194390407047202A06DBCB17203A29
:1057400041FA02F043EAE07306E041FA02F3D04086
:10575000C2F1200291400843194670470029A8BFB2
:105760007047401C490008BF20F00100704710B48A
:10577000B0FA80FC00FA0CF050EA010404BF10BC3F
:10578000704749B1CCF1200421FA04F411FA0CF16C
:1057900018BF012121430843A3EB0C01CB1D0106D7
:1057A000000A002BBEBF002010BC704700EBC350A6
:1057B00010440029A4BF10BC7047401C490008BF1A
:1057C00020F0010010BC704710B5002B08DA401C17
:1057D00041F1000192185B411A4301D120F0010010
:1057E00010BD2DE9F04D92469B4611B1B1FA81F200
:1057F00002E0B0FA80F220329046FFF78EFF0446B6
:105800000F4640EA0A0041EA0B0153465A46084354
:1058100003D120463946BDE8F08D114653EA010018
:1058200015D0C8F14002504600F06CF805460E460F
:10583000504659464246FFF770FF084301D0012009
:1058400000E00020054346EAE0762C4337430A98FF
:105850004FEA4453A0EB08004FEAD4240A304FF03B
:10586000000244EA47544FEAD72502D500200146FA
:10587000D1E7010510196941DDE9084500196941C1
:10588000BDE8F04DA0E7C1F30A52C1F3130140F2A5
:10589000FF3341F480119A4202DA0020014670473A
:1058A00040F233439A42A2F2334202DC524200F009
:1058B00029B8FFF732BF000030B5002904DB4FF0F4
:1058C0000044404264EB0101002B04DB4FF0004434
:1058D000524264EB0303994208BF904230BD00007E
:1058E000064C074D06E0E06840F0010394E807002D
:1058F00098471034AC42F6D3FAF71EFC0064000857
:1059000020640008202A04DB203A21FA02F000215A
:10591000704721FA02F3D040C2F1200291400843BF
:105920001946704770B58D1810F8014B14F003023A
:1059300001D110F8012B231106D110F8013B03E02F
:1059400010F8016B01F8016B521EF9D1B3B110F8D8
:10595000012B04F00C048A1A0C2C04D0A2EB841244
:1059600003F1020308E010F8014BA2EB0422F7E771
:1059700012F8014B01F8014B5B1EF9D5A942D3D3B4
:10598000002070BD0FB4054B10B503A9044A02985E
:1059900000F0C6F810BC5DF814FB0000553C000890
:1059A0007C05002002E008C8121F08C1002AFAD1B5
:1059B00070477047002001E001C1121F002AFBD18F
:1059C000704700002DE9FF5FDDE90220010DDDF8E1
:1059D00038B0024310D10F9801244CA2012808D0FE
:1059E000002100980F9BC0E90021C0E90243BDE8F7
:1059F000FF9F6FEA0B01F4E7A1F2FF3144F610506C
:105A000041430D140F9801280ED0A5EB0B00401C4C
:105A10004FF000043E4EDFF8FC90B0F1000AA046C3
:105A200005DACAF1000717E0CBF10000F0E70746FE
:105A300012E0F80707D02246334640464946FFF7B2
:105A4000B5FC804689462246334610461946FFF784
:105A5000ADFC04460E467F10002FEAD1DDE90201BD
:105A6000BAF1000F42464B4602DAFFF79FFC01E015
:105A7000FFF70EFD04460E460022274BFFF71CFFE2
:105A800003D84FF0FF30014607E00022234B2046A9
:105A90003146FFF7E4FBFFF7F6FE102409E0002C87
:105AA0000ADB0A220023FFF707FE019B30321A555A
:105AB000641E50EA0102F2D1641C019AC4F1110380
:105AC00014440F9A012A09D00122084301D15B45F1
:105AD0000FDD4FF0000205F101050DE0084303D191
